8=FIX.4.4|9=117|35=A|34=1|49=ValonMDComp01|52=20240130-15:22:21.390094|56=BfxComp|98=0|108=30|141=Y|553=valonmd|554=y4=#I~5&Stiqf$Xg|10=223|8=FIX.4.4|9=141|35=V|34=2|49=ValonMDComp01|52=20240130-15:22:39.960966|56=BfxComp|146=1|55=BTCEUT|262=1706628144|263=1|264=100|265=1|266=Y|267=2|269=0|269=1|10=059|