8=FIX.4.4|9=117|35=A|34=1|49=ValonMDComp05|52=20240126-16:00:34.895761|56=BfxComp|98=0|108=30|141=Y|553=valonmd|554=y4=#I~5&Stiqf$Xg|10=244|