8=FIX.4.4|9=120|35=A|34=1|49=FXCHComp42265|52=20240314-11:33:04.676229|56=GtwComp|98=0|108=30|141=Y|553=fxch|554=password|9010=Y|9011=Y|10=004|8=FIX.4.4|9=129|35=D|34=2|49=FXCHComp42265|52=20240314-11:33:17.005487|56=GtwComp|11=1|21=1|38=2|40=1|54=1|55=ETHUSD|60=20240314-11:33:06|6061=N|10=043|8=FIX.4.4|9=66|35=0|34=3|49=FXCHComp42265|52=20240314-11:33:47.452470|56=GtwComp|10=239|8=FIX.4.4|9=130|35=D|34=4|49=FXCHComp42265|52=20240314-11:33:50.361551|56=GtwComp|11=12|21=1|38=5|40=1|54=1|55=ETHUSD|60=20240314-11:33:43|6061=N|10=085|8=FIX.4.4|9=66|35=0|34=5|49=FXCHComp42265|52=20240314-11:34:20.602973|56=GtwComp|10=238|8=FIX.4.4|9=66|35=0|34=6|49=FXCHComp42265|52=20240314-11:34:50.643403|56=GtwComp|10=235|8=FIX.4.4|9=66|35=0|34=7|49=FXCHComp42265|52=20240314-11:35:20.916216|56=GtwComp|10=239|8=FIX.4.4|9=66|35=0|34=8|49=FXCHComp42265|52=20240314-11:35:50.569372|56=GtwComp|10=250|8=FIX.4.4|9=66|35=0|34=9|49=FXCHComp42265|52=20240314-11:36:20.927627|56=GtwComp|10=250|8=FIX.4.4|9=67|35=0|34=10|49=FXCHComp42265|52=20240314-11:36:50.718479|56=GtwComp|10=041|8=FIX.4.4|9=67|35=0|34=11|49=FXCHComp42265|52=20240314-11:37:20.765247|56=GtwComp|10=035|8=FIX.4.4|9=67|35=0|34=12|49=FXCHComp42265|52=20240314-11:37:50.660941|56=GtwComp|10=034|8=FIX.4.4|9=67|35=0|34=13|49=FXCHComp42265|52=20240314-11:38:20.664178|56=GtwComp|10=039|8=FIX.4.4|9=67|35=0|34=14|49=FXCHComp42265|52=20240314-11:38:50.863644|56=GtwComp|10=042|8=FIX.4.4|9=67|35=0|34=15|49=FXCHComp42265|52=20240314-11:39:20.398211|56=GtwComp|10=034|8=FIX.4.4|9=67|35=0|34=16|49=FXCHComp42265|52=20240314-11:39:50.459962|56=GtwComp|10=049|8=FIX.4.4|9=67|35=0|34=17|49=FXCHComp42265|52=20240314-11:40:20.686423|56=GtwComp|10=033|8=FIX.4.4|9=67|35=0|34=18|49=FXCHComp42265|52=20240314-11:40:50.671706|56=GtwComp|10=035|8=FIX.4.4|9=67|35=0|34=19|49=FXCHComp42265|52=20240314-11:41:20.105472|56=GtwComp|10=026|8=FIX.4.4|9=67|35=0|34=20|49=FXCHComp42265|52=20240314-11:41:50.907535|56=GtwComp|10=031|8=FIX.4.4|9=67|35=0|34=21|49=FXCHComp42265|52=20240314-11:42:20.174433|56=GtwComp|10=023|8=FIX.4.4|9=67|35=0|34=22|49=FXCHComp42265|52=20240314-11:42:50.629415|56=GtwComp|10=032|8=FIX.4.4|9=67|35=0|34=23|49=FXCHComp42265|52=20240314-11:43:20.067175|56=GtwComp|10=030|8=FIX.4.4|9=67|35=0|34=24|49=FXCHComp42265|52=20240314-11:43:50.722093|56=GtwComp|10=031|8=FIX.4.4|9=67|35=0|34=25|49=FXCHComp42265|52=20240314-11:44:20.603807|56=GtwComp|10=031|8=FIX.4.4|9=67|35=0|34=26|49=FXCHComp42265|52=20240314-11:44:50.722006|56=GtwComp|10=028|8=FIX.4.4|9=67|35=0|34=27|49=FXCHComp42265|52=20240314-11:45:20.498029|56=GtwComp|10=042|8=FIX.4.4|9=67|35=0|34=28|49=FXCHComp42265|52=20240314-11:45:50.721378|56=GtwComp|10=042|8=FIX.4.4|9=67|35=0|34=29|49=FXCHComp42265|52=20240314-11:46:20.841151|56=GtwComp|10=033|8=FIX.4.4|9=67|35=0|34=30|49=FXCHComp42265|52=20240314-11:46:50.690364|56=GtwComp|10=036|8=FIX.4.4|9=67|35=0|34=31|49=FXCHComp42265|52=20240314-11:47:20.904934|56=GtwComp|10=036|8=FIX.4.4|9=67|35=0|34=32|49=FXCHComp42265|52=20240314-11:47:50.756022|56=GtwComp|10=033|8=FIX.4.4|9=67|35=0|34=33|49=FXCHComp42265|52=20240314-11:48:20.480121|56=GtwComp|10=026|8=FIX.4.4|9=67|35=0|34=34|49=FXCHComp42265|52=20240314-11:48:50.736277|56=GtwComp|10=046|8=FIX.4.4|9=67|35=0|34=35|49=FXCHComp42265|52=20240314-11:49:20.685930|56=GtwComp|10=044|8=FIX.4.4|9=67|35=0|34=36|49=FXCHComp42265|52=20240314-11:49:50.341749|56=GtwComp|10=045|8=FIX.4.4|9=67|35=0|34=37|49=FXCHComp42265|52=20240314-11:50:20.084554|56=GtwComp|10=033|8=FIX.4.4|9=67|35=0|34=38|49=FXCHComp42265|52=20240314-11:50:50.494480|56=GtwComp|10=040|8=FIX.4.4|9=67|35=0|34=39|49=FXCHComp42265|52=20240314-11:51:20.274242|56=GtwComp|10=031|8=FIX.4.4|9=67|35=0|34=40|49=FXCHComp42265|52=20240314-11:51:50.774469|56=GtwComp|10=042|8=FIX.4.4|9=67|35=0|34=41|49=FXCHComp42265|52=20240314-11:52:20.486344|56=GtwComp|10=033|8=FIX.4.4|9=67|35=0|34=42|49=FXCHComp42265|52=20240314-11:52:50.728189|56=GtwComp|10=043|8=FIX.4.4|9=67|35=0|34=43|49=FXCHComp42265|52=20240314-11:53:20.008627|56=GtwComp|10=030|8=FIX.4.4|9=67|35=0|34=44|49=FXCHComp42265|52=20240314-11:53:50.946183|56=GtwComp|10=042|8=FIX.4.4|9=67|35=0|34=45|49=FXCHComp42265|52=20240314-11:54:20.448364|56=GtwComp|10=039|8=FIX.4.4|9=67|35=0|34=46|49=FXCHComp42265|52=20240314-11:54:50.490896|56=GtwComp|10=050|8=FIX.4.4|9=67|35=0|34=47|49=FXCHComp42265|52=20240314-11:55:20.358210|56=GtwComp|10=032|8=FIX.4.4|9=67|35=0|34=48|49=FXCHComp42265|52=20240314-11:55:50.625100|56=GtwComp|10=031|8=FIX.4.4|9=67|35=0|34=49|49=FXCHComp42265|52=20240314-11:56:20.463928|56=GtwComp|10=048|8=FIX.4.4|9=67|35=0|34=50|49=FXCHComp42265|52=20240314-11:56:50.348924|56=GtwComp|10=041|8=FIX.4.4|9=67|35=0|34=51|49=FXCHComp42265|52=20240314-11:57:20.596267|56=GtwComp|10=045|8=FIX.4.4|9=67|35=0|34=52|49=FXCHComp42265|52=20240314-11:57:50.706358|56=GtwComp|10=043|8=FIX.4.4|9=67|35=0|34=53|49=FXCHComp42265|52=20240314-11:58:20.717117|56=GtwComp|10=037|8=FIX.4.4|9=67|35=0|34=54|49=FXCHComp42265|52=20240314-11:58:50.601762|56=GtwComp|10=039|8=FIX.4.4|9=67|35=0|34=55|49=FXCHComp42265|52=20240314-11:59:20.671113|56=GtwComp|10=035|8=FIX.4.4|9=67|35=0|34=56|49=FXCHComp42265|52=20240314-11:59:50.415615|56=GtwComp|10=042|8=FIX.4.4|9=67|35=0|34=57|49=FXCHComp42265|52=20240314-12:00:20.327309|56=GtwComp|10=029|8=FIX.4.4|9=67|35=0|34=58|49=FXCHComp42265|52=20240314-12:00:50.479604|56=GtwComp|10=039|8=FIX.4.4|9=67|35=0|34=59|49=FXCHComp42265|52=20240314-12:01:20.410208|56=GtwComp|10=023|8=FIX.4.4|9=67|35=0|34=60|49=FXCHComp42265|52=20240314-12:01:50.716262|56=GtwComp|10=027|8=FIX.4.4|9=67|35=0|34=61|49=FXCHComp42265|52=20240314-12:02:20.465130|56=GtwComp|10=021|8=FIX.4.4|9=67|35=0|34=62|49=FXCHComp42265|52=20240314-12:02:50.718016|56=GtwComp|10=029|8=FIX.4.4|9=67|35=0|34=63|49=FXCHComp42265|52=20240314-12:03:20.380057|56=GtwComp|10=028|8=FIX.4.4|9=67|35=0|34=64|49=FXCHComp42265|52=20240314-12:03:50.353611|56=GtwComp|10=028|8=FIX.4.4|9=67|35=0|34=65|49=FXCHComp42265|52=20240314-12:04:20.385419|56=GtwComp|10=038|8=FIX.4.4|9=67|35=0|34=66|49=FXCHComp42265|52=20240314-12:04:50.365690|56=GtwComp|10=041|8=FIX.4.4|9=67|35=0|34=67|49=FXCHComp42265|52=20240314-12:05:20.359816|56=GtwComp|10=043|8=FIX.4.4|9=67|35=0|34=68|49=FXCHComp42265|52=20240314-12:05:50.357085|56=GtwComp|10=043|8=FIX.4.4|9=67|35=0|34=69|49=FXCHComp42265|52=20240314-12:06:20.358368|56=GtwComp|10=047|8=FIX.4.4|9=67|35=0|34=70|49=FXCHComp42265|52=20240314-12:06:50.341838|56=GtwComp|10=036|8=FIX.4.4|9=67|35=0|34=71|49=FXCHComp42265|52=20240314-12:07:20.335377|56=GtwComp|10=036|8=FIX.4.4|9=67|35=0|34=72|49=FXCHComp42265|52=20240314-12:07:50.304902|56=GtwComp|10=030|8=FIX.4.4|9=67|35=0|34=73|49=FXCHComp42265|52=20240314-12:08:20.198184|56=GtwComp|10=042|8=FIX.4.4|9=67|35=0|34=74|49=FXCHComp42265|52=20240314-12:08:50.172119|56=GtwComp|10=036|8=FIX.4.4|9=67|35=0|34=75|49=FXCHComp42265|52=20240314-12:09:20.313988|56=GtwComp|10=046|8=FIX.4.4|9=67|35=0|34=76|49=FXCHComp42265|52=20240314-12:09:50.579583|56=GtwComp|10=055|8=FIX.4.4|9=67|35=0|34=77|49=FXCHComp42265|52=20240314-12:10:20.344215|56=GtwComp|10=027|8=FIX.4.4|9=67|35=0|34=78|49=FXCHComp42265|52=20240314-12:10:50.295675|56=GtwComp|10=046|8=FIX.4.4|9=67|35=0|34=79|49=FXCHComp42265|52=20240314-12:11:20.342178|56=GtwComp|10=036|8=FIX.4.4|9=67|35=0|34=80|49=FXCHComp42265|52=20240314-12:11:50.290073|56=GtwComp|10=027|8=FIX.4.4|9=67|35=0|34=81|49=FXCHComp42265|52=20240314-12:12:20.201298|56=GtwComp|10=027|8=FIX.4.4|9=67|35=0|34=82|49=FXCHComp42265|52=20240314-12:12:50.413569|56=GtwComp|10=037|8=FIX.4.4|9=67|35=0|34=83|49=FXCHComp42265|52=20240314-12:13:20.356177|56=GtwComp|10=037|8=FIX.4.4|9=67|35=0|34=84|49=FXCHComp42265|52=20240314-12:13:50.116303|56=GtwComp|10=026|8=FIX.4.4|9=67|35=0|34=85|49=FXCHComp42265|52=20240314-12:14:20.085682|56=GtwComp|10=040|8=FIX.4.4|9=67|35=0|34=86|49=FXCHComp42265|52=20240314-12:14:50.247924|56=GtwComp|10=043|8=FIX.4.4|9=67|35=0|34=87|49=FXCHComp42265|52=20240314-12:15:20.470469|56=GtwComp|10=044|8=FIX.4.4|9=67|35=0|34=88|49=FXCHComp42265|52=20240314-12:15:50.208611|56=GtwComp|10=036|8=FIX.4.4|9=67|35=0|34=89|49=FXCHComp42265|52=20240314-12:16:20.483738|56=GtwComp|10=050|8=FIX.4.4|9=67|35=0|34=90|49=FXCHComp42265|52=20240314-12:16:50.165359|56=GtwComp|10=041|8=FIX.4.4|9=67|35=0|34=91|49=FXCHComp42265|52=20240314-12:17:20.359157|56=GtwComp|10=041|8=FIX.4.4|9=67|35=0|34=92|49=FXCHComp42265|52=20240314-12:17:50.113637|56=GtwComp|10=036|8=FIX.4.4|9=67|35=0|34=93|49=FXCHComp42265|52=20240314-12:18:20.080157|56=GtwComp|10=035|8=FIX.4.4|9=67|35=0|34=94|49=FXCHComp42265|52=20240314-12:18:50.094825|56=GtwComp|10=046|8=FIX.4.4|9=67|35=0|34=95|49=FXCHComp42265|52=20240314-12:19:20.010316|56=GtwComp|10=028|8=FIX.4.4|9=67|35=0|34=96|49=FXCHComp42265|52=20240314-12:19:50.262384|56=GtwComp|10=046|8=FIX.4.4|9=67|35=0|34=97|49=FXCHComp42265|52=20240314-12:20:20.349699|56=GtwComp|10=051|8=FIX.4.4|9=67|35=0|34=98|49=FXCHComp42265|52=20240314-12:20:50.290018|56=GtwComp|10=035|8=FIX.4.4|9=67|35=0|34=99|49=FXCHComp42265|52=20240314-12:21:20.066067|56=GtwComp|10=039|8=FIX.4.4|9=68|35=0|34=100|49=FXCHComp42265|52=20240314-12:21:50.305443|56=GtwComp|10=068|8=FIX.4.4|9=68|35=0|34=101|49=FXCHComp42265|52=20240314-12:22:20.322824|56=GtwComp|10=069|8=FIX.4.4|9=68|35=0|34=102|49=FXCHComp42265|52=20240314-12:22:50.224928|56=GtwComp|10=079|8=FIX.4.4|9=68|35=0|34=103|49=FXCHComp42265|52=20240314-12:23:20.256742|56=GtwComp|10=077|8=FIX.4.4|9=68|35=0|34=104|49=FXCHComp42265|52=20240314-12:23:50.057342|56=GtwComp|10=076|8=FIX.4.4|9=68|35=0|34=105|49=FXCHComp42265|52=20240314-12:24:20.192216|56=GtwComp|10=075|8=FIX.4.4|9=68|35=0|34=106|49=FXCHComp42265|52=20240314-12:24:50.156901|56=GtwComp|10=080|8=FIX.4.4|9=68|35=0|34=107|49=FXCHComp42265|52=20240314-12:25:20.040046|56=GtwComp|10=071|8=FIX.4.4|9=68|35=0|34=108|49=FXCHComp42265|52=20240314-12:25:50.026199|56=GtwComp|10=088|8=FIX.4.4|9=68|35=0|34=109|49=FXCHComp42265|52=20240314-12:26:20.080160|56=GtwComp|10=075|8=FIX.4.4|9=68|35=0|34=110|49=FXCHComp42265|52=20240314-12:26:50.112824|56=GtwComp|10=073|8=FIX.4.4|9=68|35=0|34=111|49=FXCHComp42265|52=20240314-12:27:20.046686|56=GtwComp|10=084|8=FIX.4.4|9=68|35=0|34=112|49=FXCHComp42265|52=20240314-12:27:50.993795|56=GtwComp|10=100|8=FIX.4.4|9=68|35=0|34=113|49=FXCHComp42265|52=20240314-12:28:20.729501|56=GtwComp|10=081|8=FIX.4.4|9=68|35=0|34=114|49=FXCHComp42265|52=20240314-12:28:50.442180|56=GtwComp|10=080|8=FIX.4.4|9=68|35=0|34=115|49=FXCHComp42265|52=20240314-12:29:20.298002|56=GtwComp|10=081|8=FIX.4.4|9=68|35=0|34=116|49=FXCHComp42265|52=20240314-12:29:50.283294|56=GtwComp|10=092|8=FIX.4.4|9=68|35=0|34=117|49=FXCHComp42265|52=20240314-12:30:20.070018|56=GtwComp|10=070|8=FIX.4.4|9=68|35=0|34=118|49=FXCHComp42265|52=20240314-12:30:50.694711|56=GtwComp|10=086|8=FIX.4.4|9=68|35=0|34=119|49=FXCHComp42265|52=20240314-12:31:20.678422|56=GtwComp|10=086|8=FIX.4.4|9=68|35=0|34=120|49=FXCHComp42265|52=20240314-12:31:50.387101|56=GtwComp|10=072|8=FIX.4.4|9=68|35=0|34=121|49=FXCHComp42265|52=20240314-12:32:20.282325|56=GtwComp|10=073|8=FIX.4.4|9=68|35=0|34=122|49=FXCHComp42265|52=20240314-12:32:50.119457|56=GtwComp|10=082|8=FIX.4.4|9=68|35=0|34=123|49=FXCHComp42265|52=20240314-12:33:20.880111|56=GtwComp|10=073|8=FIX.4.4|9=68|35=0|34=124|49=FXCHComp42265|52=20240314-12:33:50.671637|56=GtwComp|10=088|8=FIX.4.4|9=68|35=0|34=125|49=FXCHComp42265|52=20240314-12:34:20.489815|56=GtwComp|10=092|8=FIX.4.4|9=68|35=0|34=126|49=FXCHComp42265|52=20240314-12:34:50.366146|56=GtwComp|10=087|8=FIX.4.4|9=68|35=0|34=127|49=FXCHComp42265|52=20240314-12:35:20.125663|56=GtwComp|10=083|8=FIX.4.4|9=68|35=0|34=128|49=FXCHComp42265|52=20240314-12:35:50.891883|56=GtwComp|10=101|8=FIX.4.4|9=68|35=0|34=129|49=FXCHComp42265|52=20240314-12:36:20.601681|56=GtwComp|10=085|8=FIX.4.4|9=68|35=0|34=130|49=FXCHComp42265|52=20240314-12:36:50.392158|56=GtwComp|10=086|8=FIX.4.4|9=68|35=0|34=131|49=FXCHComp42265|52=20240314-12:37:20.206751|56=GtwComp|10=078|8=FIX.4.4|9=68|35=0|34=132|49=FXCHComp42265|52=20240314-12:37:50.166353|56=GtwComp|10=085|8=FIX.4.4|9=68|35=0|34=133|49=FXCHComp42265|52=20240314-12:38:20.709327|56=GtwComp|10=088|8=FIX.4.4|9=68|35=0|34=134|49=FXCHComp42265|52=20240314-12:38:50.428888|56=GtwComp|10=102|8=FIX.4.4|9=68|35=0|34=135|49=FXCHComp42265|52=20240314-12:39:20.301203|56=GtwComp|10=072|8=FIX.4.4|9=68|35=0|34=136|49=FXCHComp42265|52=20240314-12:39:50.073970|56=GtwComp|10=093|8=FIX.4.4|9=68|35=0|34=137|49=FXCHComp42265|52=20240314-12:40:20.577557|56=GtwComp|10=093|8=FIX.4.4|9=68|35=0|34=138|49=FXCHComp42265|52=20240314-12:40:50.336536|56=GtwComp|10=087|8=FIX.4.4|9=68|35=0|34=139|49=FXCHComp42265|52=20240314-12:41:20.182123|56=GtwComp|10=077|8=FIX.4.4|9=68|35=0|34=140|49=FXCHComp42265|52=20240314-12:41:50.751010|56=GtwComp|10=069|8=FIX.4.4|9=68|35=0|34=141|49=FXCHComp42265|52=20240314-12:42:20.578295|56=GtwComp|10=090|8=FIX.4.4|9=68|35=0|34=142|49=FXCHComp42265|52=20240314-12:42:50.563969|56=GtwComp|10=096|8=FIX.4.4|9=68|35=0|34=143|49=FXCHComp42265|52=20240314-12:43:20.555546|56=GtwComp|10=087|8=FIX.4.4|9=68|35=0|34=144|49=FXCHComp42265|52=20240314-12:43:50.563084|56=GtwComp|10=087|8=FIX.4.4|9=68|35=0|34=145|49=FXCHComp42265|52=20240314-12:44:20.015594|56=GtwComp|10=084|8=FIX.4.4|9=68|35=0|34=146|49=FXCHComp42265|52=20240314-12:44:50.517585|56=GtwComp|10=095|8=FIX.4.4|9=68|35=0|34=147|49=FXCHComp42265|52=20240314-12:45:20.112206|56=GtwComp|10=075|8=FIX.4.4|9=68|35=0|34=148|49=FXCHComp42265|52=20240314-12:45:50.323453|56=GtwComp|10=087|8=FIX.4.4|9=68|35=0|34=149|49=FXCHComp42265|52=20240314-12:46:20.403737|56=GtwComp|10=090|8=FIX.4.4|9=68|35=0|34=150|49=FXCHComp42265|52=20240314-12:46:50.302500|56=GtwComp|10=071|8=FIX.4.4|9=68|35=0|34=151|49=FXCHComp42265|52=20240314-12:47:20.051423|56=GtwComp|10=075|8=FIX.4.4|9=68|35=0|34=152|49=FXCHComp42265|52=20240314-12:47:50.342365|56=GtwComp|10=087|8=FIX.4.4|9=68|35=0|34=153|49=FXCHComp42265|52=20240314-12:48:20.506331|56=GtwComp|10=081|