8=FIX.4.4|9=118|35=A|34=1|49=ValonOrdComp01|52=20240313-09:33:31.452|56=GtwComp|98=0|108=30|141=Y|553=test|554=password|9010=Y|9011=Y|10=221|