8=FIX.4.4|9=219|35=A|34=1|49=ValonOrdComp01-6|52=20230915-10:44:10.450275|56=BfxComp|98=0|108=30|141=Y|341=20230101-00:00:00|553=Qas24ZmJYAkpSIOHjWdQ3j2DSAE66Sv2GGrGRtxrMLS|554=vQzgPBb3QhTAFn32ISm9PRStBFRhwgps11K4lt28Mjf|9010=Y|9011=Y|10=211|