8=FIX.4.4|9=217|35=A|34=1|49=ValonOrdComp01|52=20230915-10:43:00.968073|56=BfxComp|98=0|108=30|141=Y|341=20230101-00:00:00|553=Zk0AgmtW3I2IbUVvVX4wRtq1NVzXim3Ue3R7a6FOkkK|554=f0tGLiAJVbHDS4eoXRLBg2qrRJuPLtS0xKazcxTz1bK|9010=Y|9011=Y|10=089|