8=FIX.4.4|9=167|35=A|34=1|49=|52=20231219-13:00:42.711435|56=|98=0|108=30|141=Y|553=NwOAl5PiXS2sXo0NKaJ1pZiBbOIvmdw1mG0C42lxGbN|554=YHDICtKUt0WHxxxCU1x0iFmAcsNQqR1k5IxkvOUx6OE|9011=Y|10=205|