8=FIX.4.4|9=219|35=A|34=1|49=ValonOrdComp01-7|52=20230915-13:26:12.764859|56=BfxComp|98=0|108=30|141=Y|341=20230101-00:00:00|553=iIM6cZsWGwstDPXNn64YwAf2fznIJeIDy1wyshFtKkr|554=BRpoCpzlYdJGLQNXEs8Rw3hDwRqhxY8Whe121jw8V27|9010=Y|9011=Y|10=131|