8=FIX.4.4|9=121|35=A|34=1|49=ValonOrdComp05|52=20230905-12:37:02.575519|56=GtwComp|98=0|108=30|141=Y|553=test|554=password|9010=Y|9011=Y|10=130|8=FIX.4.4|9=155|35=D|34=2|49=ValonOrdComp05|52=20230905-12:37:21.148257|56=GtwComp|11=1|21=1|38=0.0001|40=2|44=1000|54=1|55=BTCUSD|59=0|60=20230905-12:37:05|3927=0|6061=N|10=005|8=FIX.4.4|9=67|35=0|34=3|49=ValonOrdComp05|52=20230905-12:37:51.252442|56=GtwComp|10=080|8=FIX.4.4|9=67|35=0|34=4|49=ValonOrdComp05|52=20230905-12:38:21.255938|56=GtwComp|10=092|8=FIX.4.4|9=67|35=0|34=5|49=ValonOrdComp05|52=20230905-12:38:51.264651|56=GtwComp|10=088|8=FIX.4.4|9=67|35=0|34=6|49=ValonOrdComp05|52=20230905-12:39:21.273754|56=GtwComp|10=091|8=FIX.4.4|9=67|35=0|34=7|49=ValonOrdComp05|52=20230905-12:39:51.275348|56=GtwComp|10=096|8=FIX.4.4|9=67|35=0|34=8|49=ValonOrdComp05|52=20230905-12:40:21.281897|56=GtwComp|10=092|8=FIX.4.4|9=67|35=0|34=9|49=ValonOrdComp05|52=20230905-12:40:51.306120|56=GtwComp|10=073|8=FIX.4.4|9=68|35=0|34=10|49=ValonOrdComp05|52=20230905-12:41:21.293596|56=GtwComp|10=134|