8=FIX.4.4|9=212|35=A|34=1|49=Jeff3|52=20230916-17:58:52.414633|56=BfxComp|98=0|108=30|141=N|341=20230916-17:00:00.000|553=ileMZ7r7aA9dg1f0qZ2KzFnJl010FZ9LX0JERBKs5D7|554=XgorEH1OJblVE4bs3iu8hdiWaMsCoeD39wjskZmsNBb|9010=Y|9011=Y|10=250|8=FIX.4.4|9=212|35=A|34=2|49=Jeff3|52=20230916-17:58:55.356971|56=BfxComp|98=0|108=30|141=N|341=20230916-17:00:00.000|553=ileMZ7r7aA9dg1f0qZ2KzFnJl010FZ9LX0JERBKs5D7|554=XgorEH1OJblVE4bs3iu8hdiWaMsCoeD39wjskZmsNBb|9010=Y|9011=Y|10=008|8=FIX.4.4|9=212|35=A|34=3|49=Jeff3|52=20230916-17:58:57.927197|56=BfxComp|98=0|108=30|141=N|341=20230916-17:00:00.000|553=ileMZ7r7aA9dg1f0qZ2KzFnJl010FZ9LX0JERBKs5D7|554=XgorEH1OJblVE4bs3iu8hdiWaMsCoeD39wjskZmsNBb|9010=Y|9011=Y|10=015|8=FIX.4.4|9=67|35=2|34=4|49=Jeff3|52=20230916-17:58:57.946324|56=BfxComp|7=3|16=0|10=108|8=FIX.4.4|9=212|35=A|34=5|49=Jeff3|52=20230916-17:58:59.767761|56=BfxComp|98=0|108=30|141=N|341=20230916-17:00:00.000|553=ileMZ7r7aA9dg1f0qZ2KzFnJl010FZ9LX0JERBKs5D7|554=XgorEH1OJblVE4bs3iu8hdiWaMsCoeD39wjskZmsNBb|9010=Y|9011=Y|10=018|8=FIX.4.4|9=69|35=2|34=6|49=Jeff3|52=20230916-17:58:59.802036|56=BfxComp|7=187|16=0|10=214|8=FIX.4.4|9=69|35=2|34=7|49=Jeff3|52=20230916-17:58:59.990761|56=BfxComp|7=684|16=0|10=230|8=FIX.4.4|9=212|35=A|34=8|49=Jeff3|52=20230916-17:59:02.233537|56=BfxComp|98=0|108=30|141=N|341=20230916-17:00:00.000|553=ileMZ7r7aA9dg1f0qZ2KzFnJl010FZ9LX0JERBKs5D7|554=XgorEH1OJblVE4bs3iu8hdiWaMsCoeD39wjskZmsNBb|9010=Y|9011=Y|10=255|8=FIX.4.4|9=69|35=2|34=9|49=Jeff3|52=20230916-17:59:02.258076|56=BfxComp|7=878|16=0|10=222|8=FIX.4.4|9=213|35=A|34=10|49=Jeff3|52=20230916-17:59:10.612113|56=BfxComp|98=0|108=30|141=N|341=20230916-17:00:00.000|553=ileMZ7r7aA9dg1f0qZ2KzFnJl010FZ9LX0JERBKs5D7|554=XgorEH1OJblVE4bs3iu8hdiWaMsCoeD39wjskZmsNBb|9010=Y|9011=Y|10=031|8=FIX.4.4|9=71|35=2|34=11|49=Jeff3|52=20230916-17:59:10.638850|56=BfxComp|7=1343|16=0|10=037|