8=FIX.4.4|9=114|35=A|34=1|49=ValonOrdComp12|52=20240207-10:54:06.250521|56=GtwComp|98=0|108=30|141=Y|553=test|554=password|9011=Y|10=013|8=FIX.4.4|9=149|35=D|34=2|49=ValonOrdComp12|52=20240207-10:54:23.070861|56=GtwComp|11=1|21=1|38=0.1|40=2|44=1|54=1|55=BTCUSD|59=0|60=20240207-10:54:11|3927=0|6061=N|10=210|