8=FIX.4.4|9=213|35=A|34=1|49=Jeff11|52=20230919-09:13:02.010513|56=BfxComp|98=0|108=30|141=Y|341=20230918-08:00:00.000|553=ileMZ7r7aA9dg1f0qZ2KzFnJl010FZ9LX0JERBKs5D7|554=XgorEH1OJblVE4bs3iu8hdiWaMsCoeD39wjskZmsNBb|9010=Y|9011=Y|10=034|8=FIX.4.4|9=59|35=0|34=2|49=Jeff11|52=20230919-09:13:32.000158|56=BfxComp|10=001|8=FIX.4.4|9=59|35=0|34=3|49=Jeff11|52=20230919-09:14:02.000162|56=BfxComp|10=251|8=FIX.4.4|9=59|35=0|34=4|49=Jeff11|52=20230919-09:14:32.001188|56=BfxComp|10=008|8=FIX.4.4|9=59|35=0|34=5|49=Jeff11|52=20230919-09:15:02.001247|56=BfxComp|10=003|8=FIX.4.4|9=59|35=0|34=6|49=Jeff11|52=20230919-09:15:32.000049|56=BfxComp|10=006|8=FIX.4.4|9=59|35=0|34=7|49=Jeff11|52=20230919-09:16:02.000241|56=BfxComp|10=255|8=FIX.4.4|9=59|35=0|34=8|49=Jeff11|52=20230919-09:16:32.002132|56=BfxComp|10=004|8=FIX.4.4|9=59|35=0|34=9|49=Jeff11|52=20230919-09:17:02.001334|56=BfxComp|10=006|8=FIX.4.4|9=60|35=0|34=10|49=Jeff11|52=20230919-09:17:32.000453|56=BfxComp|10=042|8=FIX.4.4|9=60|35=0|34=11|49=Jeff11|52=20230919-09:18:02.152918|56=BfxComp|10=055|8=FIX.4.4|9=60|35=0|34=12|49=Jeff11|52=20230919-09:18:32.006265|56=BfxComp|10=052|8=FIX.4.4|9=60|35=0|34=13|49=Jeff11|52=20230919-09:19:02.002869|56=BfxComp|10=057|8=FIX.4.4|9=60|35=0|34=14|49=Jeff11|52=20230919-09:19:32.000906|56=BfxComp|10=051|8=FIX.4.4|9=60|35=0|34=15|49=Jeff11|52=20230919-09:20:02.003966|56=BfxComp|10=050|8=FIX.4.4|9=60|35=0|34=16|49=Jeff11|52=20230919-09:20:32.000079|56=BfxComp|10=046|8=FIX.4.4|9=60|35=0|34=17|49=Jeff11|52=20230919-09:21:02.001334|56=BfxComp|10=040|8=FIX.4.4|9=60|35=0|34=18|49=Jeff11|52=20230919-09:21:32.001909|56=BfxComp|10=052|8=FIX.4.4|9=60|35=0|34=19|49=Jeff11|52=20230919-09:22:02.000492|56=BfxComp|10=047|8=FIX.4.4|9=60|35=0|34=20|49=Jeff11|52=20230919-09:22:32.002721|56=BfxComp|10=039|8=FIX.4.4|9=60|35=0|34=21|49=Jeff11|52=20230919-09:23:02.000539|56=BfxComp|10=043|8=FIX.4.4|9=60|35=0|34=22|49=Jeff11|52=20230919-09:23:32.002297|56=BfxComp|10=050|8=FIX.4.4|9=60|35=0|34=23|49=Jeff11|52=20230919-09:24:02.501443|56=BfxComp|10=046|8=FIX.4.4|9=60|35=0|34=24|49=Jeff11|52=20230919-09:24:32.001163|56=BfxComp|10=044|8=FIX.4.4|9=214|35=A|34=25|49=Jeff11|52=20230919-09:24:40.314575|56=BfxComp|98=0|108=30|141=N|341=20230918-08:00:00.000|553=ileMZ7r7aA9dg1f0qZ2KzFnJl010FZ9LX0JERBKs5D7|554=XgorEH1OJblVE4bs3iu8hdiWaMsCoeD39wjskZmsNBb|9010=Y|9011=Y|10=097|8=FIX.4.4|9=74|35=2|34=26|49=Jeff11|52=20230919-09:24:40.345389|56=BfxComp|7=218026|16=0|10=198|8=FIX.4.4|9=60|35=0|34=27|49=Jeff11|52=20230919-09:25:10.000275|56=BfxComp|10=047|8=FIX.4.4|9=60|35=0|34=28|49=Jeff11|52=20230919-09:25:40.002903|56=BfxComp|10=051|8=FIX.4.4|9=60|35=0|34=29|49=Jeff11|52=20230919-09:26:10.001819|56=BfxComp|10=055|8=FIX.4.4|9=60|35=0|34=30|49=Jeff11|52=20230919-09:26:40.000860|56=BfxComp|10=045|8=FIX.4.4|9=60|35=0|34=31|49=Jeff11|52=20230919-09:27:10.000561|56=BfxComp|10=042|8=FIX.4.4|9=60|35=0|34=32|49=Jeff11|52=20230919-09:27:40.000562|56=BfxComp|10=047|8=FIX.4.4|9=60|35=0|34=33|49=Jeff11|52=20230919-09:28:10.001323|56=BfxComp|10=042|8=FIX.4.4|9=60|35=0|34=34|49=Jeff11|52=20230919-09:28:40.001046|56=BfxComp|10=048|8=FIX.4.4|9=60|35=0|34=35|49=Jeff11|52=20230919-09:29:10.000536|56=BfxComp|10=050|