8=FIX.4.4|9=212|35=A|34=1|49=Jeff5|52=20230918-11:12:09.531203|56=BfxComp|98=0|108=30|141=N|341=20230918-10:45:00.000|553=ileMZ7r7aA9dg1f0qZ2KzFnJl010FZ9LX0JERBKs5D7|554=XgorEH1OJblVE4bs3iu8hdiWaMsCoeD39wjskZmsNBb|9010=Y|9011=Y|10=237|8=FIX.4.4|9=212|35=A|34=2|49=Jeff5|52=20230918-11:12:19.745838|56=BfxComp|98=0|108=30|141=N|341=20230918-10:45:00.000|553=ileMZ7r7aA9dg1f0qZ2KzFnJl010FZ9LX0JERBKs5D7|554=XgorEH1OJblVE4bs3iu8hdiWaMsCoeD39wjskZmsNBb|9010=Y|9011=Y|10=004|8=FIX.4.4|9=212|35=A|34=3|49=Jeff5|52=20230918-11:12:21.837707|56=BfxComp|98=0|108=30|141=N|341=20230918-10:45:00.000|553=ileMZ7r7aA9dg1f0qZ2KzFnJl010FZ9LX0JERBKs5D7|554=XgorEH1OJblVE4bs3iu8hdiWaMsCoeD39wjskZmsNBb|9010=Y|9011=Y|10=251|8=FIX.4.4|9=67|35=2|34=4|49=Jeff5|52=20230918-11:12:24.991040|56=BfxComp|7=1|16=0|10=083|8=FIX.4.4|9=58|35=0|34=5|49=Jeff5|52=20230918-11:12:54.024919|56=BfxComp|10=220|8=FIX.4.4|9=58|35=0|34=6|49=Jeff5|52=20230918-11:13:24.001845|56=BfxComp|10=212|8=FIX.4.4|9=212|35=A|34=7|49=Jeff5|52=20230918-11:13:48.616631|56=BfxComp|98=0|108=30|141=N|341=20230918-10:45:00.000|553=ileMZ7r7aA9dg1f0qZ2KzFnJl010FZ9LX0JERBKs5D7|554=XgorEH1OJblVE4bs3iu8hdiWaMsCoeD39wjskZmsNBb|9010=Y|9011=Y|10=000|8=FIX.4.4|9=71|35=2|34=8|49=Jeff5|52=20230918-11:13:48.632410|56=BfxComp|7=11617|16=0|10=033|8=FIX.4.4|9=212|35=A|34=9|49=Jeff5|52=20230918-11:15:05.884065|56=BfxComp|98=0|108=30|141=N|341=20230918-10:45:00.000|553=ileMZ7r7aA9dg1f0qZ2KzFnJl010FZ9LX0JERBKs5D7|554=XgorEH1OJblVE4bs3iu8hdiWaMsCoeD39wjskZmsNBb|9010=Y|9011=Y|10=005|8=FIX.4.4|9=213|35=A|34=10|49=Jeff5|52=20230918-11:15:15.958618|56=BfxComp|98=0|108=30|141=N|341=20230918-10:45:00.000|553=ileMZ7r7aA9dg1f0qZ2KzFnJl010FZ9LX0JERBKs5D7|554=XgorEH1OJblVE4bs3iu8hdiWaMsCoeD39wjskZmsNBb|9010=Y|9011=Y|10=053|8=FIX.4.4|9=213|35=A|34=11|49=Jeff5|52=20230918-11:15:17.962867|56=BfxComp|98=0|108=30|141=N|341=20230918-10:45:00.000|553=ileMZ7r7aA9dg1f0qZ2KzFnJl010FZ9LX0JERBKs5D7|554=XgorEH1OJblVE4bs3iu8hdiWaMsCoeD39wjskZmsNBb|9010=Y|9011=Y|10=057|8=FIX.4.4|9=112|35=5|34=12|49=Jeff5|52=20230918-11:15:21.372093|56=BfxComp|58=MsgSeqNum too low, expecting 11644 but received 3|10=153|8=FIX.4.4|9=213|35=A|34=13|49=Jeff5|52=20230918-11:15:21.372740|56=BfxComp|98=0|108=30|141=N|341=20230918-10:45:00.000|553=ileMZ7r7aA9dg1f0qZ2KzFnJl010FZ9LX0JERBKs5D7|554=XgorEH1OJblVE4bs3iu8hdiWaMsCoeD39wjskZmsNBb|9010=Y|9011=Y|10=039|8=FIX.4.4|9=213|35=A|34=14|49=Jeff5|52=20230918-11:15:23.367234|56=BfxComp|98=0|108=30|141=N|341=20230918-10:45:00.000|553=ileMZ7r7aA9dg1f0qZ2KzFnJl010FZ9LX0JERBKs5D7|554=XgorEH1OJblVE4bs3iu8hdiWaMsCoeD39wjskZmsNBb|9010=Y|9011=Y|10=044|8=FIX.4.4|9=112|35=5|34=15|49=Jeff5|52=20230918-11:15:23.379075|56=BfxComp|58=MsgSeqNum too low, expecting 11644 but received 6|10=168|8=FIX.4.4|9=213|35=A|34=16|49=Jeff5|52=20230918-11:15:23.379843|56=BfxComp|98=0|108=30|141=N|341=20230918-10:45:00.000|553=ileMZ7r7aA9dg1f0qZ2KzFnJl010FZ9LX0JERBKs5D7|554=XgorEH1OJblVE4bs3iu8hdiWaMsCoeD39wjskZmsNBb|9010=Y|9011=Y|10=055|8=FIX.4.4|9=213|35=A|34=17|49=Jeff5|52=20230918-11:15:25.393835|56=BfxComp|98=0|108=30|141=N|341=20230918-10:45:00.000|553=ileMZ7r7aA9dg1f0qZ2KzFnJl010FZ9LX0JERBKs5D7|554=XgorEH1OJblVE4bs3iu8hdiWaMsCoeD39wjskZmsNBb|9010=Y|9011=Y|10=055|8=FIX.4.4|9=112|35=5|34=18|49=Jeff5|52=20230918-11:15:25.405577|56=BfxComp|58=MsgSeqNum too low, expecting 11644 but received 9|10=173|8=FIX.4.4|9=213|35=A|34=19|49=Jeff5|52=20230918-11:15:25.406348|56=BfxComp|98=0|108=30|141=N|341=20230918-10:45:00.000|553=ileMZ7r7aA9dg1f0qZ2KzFnJl010FZ9LX0JERBKs5D7|554=XgorEH1OJblVE4bs3iu8hdiWaMsCoeD39wjskZmsNBb|9010=Y|9011=Y|10=051|8=FIX.4.4|9=213|35=A|34=20|49=Jeff5|52=20230918-11:15:27.402278|56=BfxComp|98=0|108=30|141=N|341=20230918-10:45:00.000|553=ileMZ7r7aA9dg1f0qZ2KzFnJl010FZ9LX0JERBKs5D7|554=XgorEH1OJblVE4bs3iu8hdiWaMsCoeD39wjskZmsNBb|9010=Y|9011=Y|10=043|8=FIX.4.4|9=113|35=5|34=21|49=Jeff5|52=20230918-11:15:27.414256|56=BfxComp|58=MsgSeqNum too low, expecting 11644 but received 12|10=206|8=FIX.4.4|9=213|35=A|34=22|49=Jeff5|52=20230918-11:15:27.415394|56=BfxComp|98=0|108=30|141=N|341=20230918-10:45:00.000|553=ileMZ7r7aA9dg1f0qZ2KzFnJl010FZ9LX0JERBKs5D7|554=XgorEH1OJblVE4bs3iu8hdiWaMsCoeD39wjskZmsNBb|9010=Y|9011=Y|10=048|8=FIX.4.4|9=213|35=A|34=23|49=Jeff5|52=20230918-11:15:29.433068|56=BfxComp|98=0|108=30|141=N|341=20230918-10:45:00.000|553=ileMZ7r7aA9dg1f0qZ2KzFnJl010FZ9LX0JERBKs5D7|554=XgorEH1OJblVE4bs3iu8hdiWaMsCoeD39wjskZmsNBb|9010=Y|9011=Y|10=049|8=FIX.4.4|9=113|35=5|34=24|49=Jeff5|52=20230918-11:15:29.444037|56=BfxComp|58=MsgSeqNum too low, expecting 11644 but received 15|10=214|8=FIX.4.4|9=213|35=A|34=25|49=Jeff5|52=20230918-11:15:29.444845|56=BfxComp|98=0|108=30|141=N|341=20230918-10:45:00.000|553=ileMZ7r7aA9dg1f0qZ2KzFnJl010FZ9LX0JERBKs5D7|554=XgorEH1OJblVE4bs3iu8hdiWaMsCoeD39wjskZmsNBb|9010=Y|9011=Y|10=056|8=FIX.4.4|9=213|35=A|34=26|49=Jeff5|52=20230918-11:15:31.456690|56=BfxComp|98=0|108=30|141=N|341=20230918-10:45:00.000|553=ileMZ7r7aA9dg1f0qZ2KzFnJl010FZ9LX0JERBKs5D7|554=XgorEH1OJblVE4bs3iu8hdiWaMsCoeD39wjskZmsNBb|9010=Y|9011=Y|10=051|8=FIX.4.4|9=113|35=5|34=27|49=Jeff5|52=20230918-11:15:31.470399|56=BfxComp|58=MsgSeqNum too low, expecting 11644 but received 18|10=223|8=FIX.4.4|9=213|35=A|34=28|49=Jeff5|52=20230918-11:15:31.471994|56=BfxComp|98=0|108=30|141=N|341=20230918-10:45:00.000|553=ileMZ7r7aA9dg1f0qZ2KzFnJl010FZ9LX0JERBKs5D7|554=XgorEH1OJblVE4bs3iu8hdiWaMsCoeD39wjskZmsNBb|9010=Y|9011=Y|10=057|8=FIX.4.4|9=213|35=A|34=29|49=Jeff5|52=20230918-11:15:33.467160|56=BfxComp|98=0|108=30|141=N|341=20230918-10:45:00.000|553=ileMZ7r7aA9dg1f0qZ2KzFnJl010FZ9LX0JERBKs5D7|554=XgorEH1OJblVE4bs3iu8hdiWaMsCoeD39wjskZmsNBb|9010=Y|9011=Y|10=050|8=FIX.4.4|9=113|35=5|34=30|49=Jeff5|52=20230918-11:15:33.479520|56=BfxComp|58=MsgSeqNum too low, expecting 11644 but received 21|10=208|8=FIX.4.4|9=213|35=A|34=31|49=Jeff5|52=20230918-11:15:33.480351|56=BfxComp|98=0|108=30|141=N|341=20230918-10:45:00.000|553=ileMZ7r7aA9dg1f0qZ2KzFnJl010FZ9LX0JERBKs5D7|554=XgorEH1OJblVE4bs3iu8hdiWaMsCoeD39wjskZmsNBb|9010=Y|9011=Y|10=040|8=FIX.4.4|9=213|35=A|34=32|49=Jeff5|52=20230918-11:15:35.466645|56=BfxComp|98=0|108=30|141=N|341=20230918-10:45:00.000|553=ileMZ7r7aA9dg1f0qZ2KzFnJl010FZ9LX0JERBKs5D7|554=XgorEH1OJblVE4bs3iu8hdiWaMsCoeD39wjskZmsNBb|9010=Y|9011=Y|10=053|8=FIX.4.4|9=113|35=5|34=33|49=Jeff5|52=20230918-11:15:35.480229|56=BfxComp|58=MsgSeqNum too low, expecting 11644 but received 24|10=214|8=FIX.4.4|9=213|35=A|34=34|49=Jeff5|52=20230918-11:15:35.481023|56=BfxComp|98=0|108=30|141=N|341=20230918-10:45:00.000|553=ileMZ7r7aA9dg1f0qZ2KzFnJl010FZ9LX0JERBKs5D7|554=XgorEH1OJblVE4bs3iu8hdiWaMsCoeD39wjskZmsNBb|9010=Y|9011=Y|10=042|8=FIX.4.4|9=213|35=A|34=35|49=Jeff5|52=20230918-11:20:42.820096|56=BfxComp|98=0|108=30|141=N|341=20230918-10:45:00.000|553=ileMZ7r7aA9dg1f0qZ2KzFnJl010FZ9LX0JERBKs5D7|554=XgorEH1OJblVE4bs3iu8hdiWaMsCoeD39wjskZmsNBb|9010=Y|9011=Y|10=044|8=FIX.4.4|9=72|35=2|34=36|49=Jeff5|52=20230918-11:20:42.852641|56=BfxComp|7=11644|16=0|10=085|8=FIX.4.4|9=72|35=2|34=37|49=Jeff5|52=20230918-11:20:53.820176|56=BfxComp|7=15819|16=0|10=094|8=FIX.4.4|9=59|35=0|34=38|49=Jeff5|52=20230918-11:21:23.204562|56=BfxComp|10=009|8=FIX.4.4|9=59|35=0|34=39|49=Jeff5|52=20230918-11:21:53.255934|56=BfxComp|10=022|8=FIX.4.4|9=213|35=A|34=40|49=Jeff5|52=20230918-11:22:28.356076|56=BfxComp|98=0|108=30|141=N|341=20230918-10:45:00.000|553=ileMZ7r7aA9dg1f0qZ2KzFnJl010FZ9LX0JERBKs5D7|554=XgorEH1OJblVE4bs3iu8hdiWaMsCoeD39wjskZmsNBb|9010=Y|9011=Y|10=048|8=FIX.4.4|9=213|35=A|34=41|49=Jeff5|52=20230918-11:22:38.373984|56=BfxComp|98=0|108=30|141=N|341=20230918-10:45:00.000|553=ileMZ7r7aA9dg1f0qZ2KzFnJl010FZ9LX0JERBKs5D7|554=XgorEH1OJblVE4bs3iu8hdiWaMsCoeD39wjskZmsNBb|9010=Y|9011=Y|10=057|8=FIX.4.4|9=213|35=A|34=42|49=Jeff5|52=20230918-11:22:40.434062|56=BfxComp|98=0|108=30|141=N|341=20230918-10:45:00.000|553=ileMZ7r7aA9dg1f0qZ2KzFnJl010FZ9LX0JERBKs5D7|554=XgorEH1OJblVE4bs3iu8hdiWaMsCoeD39wjskZmsNBb|9010=Y|9011=Y|10=036|8=FIX.4.4|9=112|35=5|34=43|49=Jeff5|52=20230918-11:22:43.761528|56=BfxComp|58=MsgSeqNum too low, expecting 16437 but received 3|10=169|8=FIX.4.4|9=213|35=A|34=44|49=Jeff5|52=20230918-11:22:43.762466|56=BfxComp|98=0|108=30|141=N|341=20230918-10:45:00.000|553=ileMZ7r7aA9dg1f0qZ2KzFnJl010FZ9LX0JERBKs5D7|554=XgorEH1OJblVE4bs3iu8hdiWaMsCoeD39wjskZmsNBb|9010=Y|9011=Y|10=053|8=FIX.4.4|9=213|35=A|34=45|49=Jeff5|52=20230918-11:22:44.781690|56=BfxComp|98=0|108=30|141=N|341=20230918-10:45:00.000|553=ileMZ7r7aA9dg1f0qZ2KzFnJl010FZ9LX0JERBKs5D7|554=XgorEH1OJblVE4bs3iu8hdiWaMsCoeD39wjskZmsNBb|9010=Y|9011=Y|10=055|8=FIX.4.4|9=112|35=5|34=46|49=Jeff5|52=20230918-11:22:44.794522|56=BfxComp|58=MsgSeqNum too low, expecting 16437 but received 6|10=176|8=FIX.4.4|9=213|35=A|34=47|49=Jeff5|52=20230918-11:22:44.795098|56=BfxComp|98=0|108=30|141=N|341=20230918-10:45:00.000|553=ileMZ7r7aA9dg1f0qZ2KzFnJl010FZ9LX0JERBKs5D7|554=XgorEH1OJblVE4bs3iu8hdiWaMsCoeD39wjskZmsNBb|9010=Y|9011=Y|10=064|8=FIX.4.4|9=213|35=A|34=48|49=Jeff5|52=20230918-11:22:46.954107|56=BfxComp|98=0|108=30|141=N|341=20230918-10:45:00.000|553=ileMZ7r7aA9dg1f0qZ2KzFnJl010FZ9LX0JERBKs5D7|554=XgorEH1OJblVE4bs3iu8hdiWaMsCoeD39wjskZmsNBb|9010=Y|9011=Y|10=055|8=FIX.4.4|9=112|35=5|34=49|49=Jeff5|52=20230918-11:22:46.969952|56=BfxComp|58=MsgSeqNum too low, expecting 16437 but received 9|10=195|8=FIX.4.4|9=213|35=A|34=50|49=Jeff5|52=20230918-11:22:46.970685|56=BfxComp|98=0|108=30|141=N|341=20230918-10:45:00.000|553=ileMZ7r7aA9dg1f0qZ2KzFnJl010FZ9LX0JERBKs5D7|554=XgorEH1OJblVE4bs3iu8hdiWaMsCoeD39wjskZmsNBb|9010=Y|9011=Y|10=057|8=FIX.4.4|9=213|35=A|34=51|49=Jeff5|52=20230918-11:22:48.963009|56=BfxComp|98=0|108=30|141=N|341=20230918-10:45:00.000|553=ileMZ7r7aA9dg1f0qZ2KzFnJl010FZ9LX0JERBKs5D7|554=XgorEH1OJblVE4bs3iu8hdiWaMsCoeD39wjskZmsNBb|9010=Y|9011=Y|10=052|8=FIX.4.4|9=113|35=5|34=52|49=Jeff5|52=20230918-11:22:48.974626|56=BfxComp|58=MsgSeqNum too low, expecting 16437 but received 12|10=228|8=FIX.4.4|9=213|35=A|34=53|49=Jeff5|52=20230918-11:22:48.975477|56=BfxComp|98=0|108=30|141=N|341=20230918-10:45:00.000|553=ileMZ7r7aA9dg1f0qZ2KzFnJl010FZ9LX0JERBKs5D7|554=XgorEH1OJblVE4bs3iu8hdiWaMsCoeD39wjskZmsNBb|9010=Y|9011=Y|10=066|8=FIX.4.4|9=213|35=A|34=54|49=Jeff5|52=20230918-11:22:50.976495|56=BfxComp|98=0|108=30|141=N|341=20230918-10:45:00.000|553=ileMZ7r7aA9dg1f0qZ2KzFnJl010FZ9LX0JERBKs5D7|554=XgorEH1OJblVE4bs3iu8hdiWaMsCoeD39wjskZmsNBb|9010=Y|9011=Y|10=061|8=FIX.4.4|9=113|35=5|34=55|49=Jeff5|52=20230918-11:22:51.006944|56=BfxComp|58=MsgSeqNum too low, expecting 16437 but received 15|10=217|8=FIX.4.4|9=213|35=A|34=56|49=Jeff5|52=20230918-11:22:51.008078|56=BfxComp|98=0|108=30|141=N|341=20230918-10:45:00.000|553=ileMZ7r7aA9dg1f0qZ2KzFnJl010FZ9LX0JERBKs5D7|554=XgorEH1OJblVE4bs3iu8hdiWaMsCoeD39wjskZmsNBb|9010=Y|9011=Y|10=047|8=FIX.4.4|9=213|35=A|34=57|49=Jeff5|52=20230918-11:22:52.995031|56=BfxComp|98=0|108=30|141=N|341=20230918-10:45:00.000|553=ileMZ7r7aA9dg1f0qZ2KzFnJl010FZ9LX0JERBKs5D7|554=XgorEH1OJblVE4bs3iu8hdiWaMsCoeD39wjskZmsNBb|9010=Y|9011=Y|10=053|8=FIX.4.4|9=213|35=A|34=58|49=Jeff5|52=20230918-11:22:53.015894|56=BfxComp|98=0|108=30|141=N|341=20230918-10:45:00.000|553=ileMZ7r7aA9dg1f0qZ2KzFnJl010FZ9LX0JERBKs5D7|554=XgorEH1OJblVE4bs3iu8hdiWaMsCoeD39wjskZmsNBb|9010=Y|9011=Y|10=055|8=FIX.4.4|9=213|35=A|34=59|49=Jeff5|52=20230918-11:22:54.013078|56=BfxComp|98=0|108=30|141=N|341=20230918-10:45:00.000|553=ileMZ7r7aA9dg1f0qZ2KzFnJl010FZ9LX0JERBKs5D7|554=XgorEH1OJblVE4bs3iu8hdiWaMsCoeD39wjskZmsNBb|9010=Y|9011=Y|10=049|8=FIX.4.4|9=115|35=5|34=60|49=Jeff5|52=20230918-11:22:54.039322|56=BfxComp|58=MsgSeqNum too low, expecting 16437 but received 1408|10=061|8=FIX.4.4|9=213|35=A|34=61|49=Jeff5|52=20230918-11:22:54.040072|56=BfxComp|98=0|108=30|141=N|341=20230918-10:45:00.000|553=ileMZ7r7aA9dg1f0qZ2KzFnJl010FZ9LX0JERBKs5D7|554=XgorEH1OJblVE4bs3iu8hdiWaMsCoeD39wjskZmsNBb|9010=Y|9011=Y|10=036|8=FIX.4.4|9=213|35=A|34=62|49=Jeff5|52=20230918-11:22:56.021532|56=BfxComp|98=0|108=30|141=N|341=20230918-10:45:00.000|553=ileMZ7r7aA9dg1f0qZ2KzFnJl010FZ9LX0JERBKs5D7|554=XgorEH1OJblVE4bs3iu8hdiWaMsCoeD39wjskZmsNBb|9010=Y|9011=Y|10=039|8=FIX.4.4|9=115|35=5|34=63|49=Jeff5|52=20230918-11:22:56.032598|56=BfxComp|58=MsgSeqNum too low, expecting 16437 but received 2436|10=076|8=FIX.4.4|9=213|35=A|34=64|49=Jeff5|52=20230918-11:22:56.033295|56=BfxComp|98=0|108=30|141=N|341=20230918-10:45:00.000|553=ileMZ7r7aA9dg1f0qZ2KzFnJl010FZ9LX0JERBKs5D7|554=XgorEH1OJblVE4bs3iu8hdiWaMsCoeD39wjskZmsNBb|9010=Y|9011=Y|10=050|8=FIX.4.4|9=213|35=A|34=65|49=Jeff5|52=20230918-11:22:58.014532|56=BfxComp|98=0|108=30|141=N|341=20230918-10:45:00.000|553=ileMZ7r7aA9dg1f0qZ2KzFnJl010FZ9LX0JERBKs5D7|554=XgorEH1OJblVE4bs3iu8hdiWaMsCoeD39wjskZmsNBb|9010=Y|9011=Y|10=046|8=FIX.4.4|9=115|35=5|34=66|49=Jeff5|52=20230918-11:22:58.027596|56=BfxComp|58=MsgSeqNum too low, expecting 16437 but received 2525|10=082|8=FIX.4.4|9=213|35=A|34=67|49=Jeff5|52=20230918-11:22:58.028756|56=BfxComp|98=0|108=30|141=N|341=20230918-10:45:00.000|553=ileMZ7r7aA9dg1f0qZ2KzFnJl010FZ9LX0JERBKs5D7|554=XgorEH1OJblVE4bs3iu8hdiWaMsCoeD39wjskZmsNBb|9010=Y|9011=Y|10=061|8=FIX.4.4|9=213|35=A|34=68|49=Jeff5|52=20230918-11:23:00.039566|56=BfxComp|98=0|108=30|141=N|341=20230918-10:45:00.000|553=ileMZ7r7aA9dg1f0qZ2KzFnJl010FZ9LX0JERBKs5D7|554=XgorEH1OJblVE4bs3iu8hdiWaMsCoeD39wjskZmsNBb|9010=Y|9011=Y|10=051|8=FIX.4.4|9=115|35=5|34=69|49=Jeff5|52=20230918-11:23:00.052862|56=BfxComp|58=MsgSeqNum too low, expecting 16437 but received 2528|10=070|8=FIX.4.4|9=213|35=A|34=70|49=Jeff5|52=20230918-11:23:00.053662|56=BfxComp|98=0|108=30|141=N|341=20230918-10:45:00.000|553=ileMZ7r7aA9dg1f0qZ2KzFnJl010FZ9LX0JERBKs5D7|554=XgorEH1OJblVE4bs3iu8hdiWaMsCoeD39wjskZmsNBb|9010=Y|9011=Y|10=037|8=FIX.4.4|9=213|35=A|34=71|49=Jeff5|52=20230918-11:23:02.042414|56=BfxComp|98=0|108=30|141=N|341=20230918-10:45:00.000|553=ileMZ7r7aA9dg1f0qZ2KzFnJl010FZ9LX0JERBKs5D7|554=XgorEH1OJblVE4bs3iu8hdiWaMsCoeD39wjskZmsNBb|9010=Y|9011=Y|10=033|8=FIX.4.4|9=115|35=5|34=72|49=Jeff5|52=20230918-11:23:02.054389|56=BfxComp|58=MsgSeqNum too low, expecting 16437 but received 2631|10=067|8=FIX.4.4|9=213|35=A|34=73|49=Jeff5|52=20230918-11:23:02.055005|56=BfxComp|98=0|108=30|141=N|341=20230918-10:45:00.000|553=ileMZ7r7aA9dg1f0qZ2KzFnJl010FZ9LX0JERBKs5D7|554=XgorEH1OJblVE4bs3iu8hdiWaMsCoeD39wjskZmsNBb|9010=Y|9011=Y|10=035|8=FIX.4.4|9=213|35=A|34=74|49=Jeff5|52=20230918-11:23:04.030023|56=BfxComp|98=0|108=30|141=N|341=20230918-10:45:00.000|553=ileMZ7r7aA9dg1f0qZ2KzFnJl010FZ9LX0JERBKs5D7|554=XgorEH1OJblVE4bs3iu8hdiWaMsCoeD39wjskZmsNBb|9010=Y|9011=Y|10=031|8=FIX.4.4|9=115|35=5|34=75|49=Jeff5|52=20230918-11:23:04.042598|56=BfxComp|58=MsgSeqNum too low, expecting 16437 but received 3535|10=075|8=FIX.4.4|9=213|35=A|34=76|49=Jeff5|52=20230918-11:23:04.043396|56=BfxComp|98=0|108=30|141=N|341=20230918-10:45:00.000|553=ileMZ7r7aA9dg1f0qZ2KzFnJl010FZ9LX0JERBKs5D7|554=XgorEH1OJblVE4bs3iu8hdiWaMsCoeD39wjskZmsNBb|9010=Y|9011=Y|10=050|8=FIX.4.4|9=213|35=A|34=77|49=Jeff5|52=20230918-11:23:06.015434|56=BfxComp|98=0|108=30|141=N|341=20230918-10:45:00.000|553=ileMZ7r7aA9dg1f0qZ2KzFnJl010FZ9LX0JERBKs5D7|554=XgorEH1OJblVE4bs3iu8hdiWaMsCoeD39wjskZmsNBb|9010=Y|9011=Y|10=045|8=FIX.4.4|9=115|35=5|34=78|49=Jeff5|52=20230918-11:23:06.029867|56=BfxComp|58=MsgSeqNum too low, expecting 16437 but received 4533|10=083|8=FIX.4.4|9=213|35=A|34=79|49=Jeff5|52=20230918-11:23:06.030327|56=BfxComp|98=0|108=30|141=N|341=20230918-10:45:00.000|553=ileMZ7r7aA9dg1f0qZ2KzFnJl010FZ9LX0JERBKs5D7|554=XgorEH1OJblVE4bs3iu8hdiWaMsCoeD39wjskZmsNBb|9010=Y|9011=Y|10=045|8=FIX.4.4|9=213|35=A|34=80|49=Jeff5|52=20230918-11:23:08.007796|56=BfxComp|98=0|108=30|141=N|341=20230918-10:45:00.000|553=ileMZ7r7aA9dg1f0qZ2KzFnJl010FZ9LX0JERBKs5D7|554=XgorEH1OJblVE4bs3iu8hdiWaMsCoeD39wjskZmsNBb|9010=Y|9011=Y|10=053|8=FIX.4.4|9=115|35=5|34=81|49=Jeff5|52=20230918-11:23:08.022011|56=BfxComp|58=MsgSeqNum too low, expecting 16437 but received 4983|10=062|8=FIX.4.4|9=213|35=A|34=82|49=Jeff5|52=20230918-11:23:08.022570|56=BfxComp|98=0|108=30|141=N|341=20230918-10:45:00.000|553=ileMZ7r7aA9dg1f0qZ2KzFnJl010FZ9LX0JERBKs5D7|554=XgorEH1OJblVE4bs3iu8hdiWaMsCoeD39wjskZmsNBb|9010=Y|9011=Y|10=042|8=FIX.4.4|9=213|35=A|34=83|49=Jeff5|52=20230918-11:23:10.007372|56=BfxComp|98=0|108=30|141=N|341=20230918-10:45:00.000|553=ileMZ7r7aA9dg1f0qZ2KzFnJl010FZ9LX0JERBKs5D7|554=XgorEH1OJblVE4bs3iu8hdiWaMsCoeD39wjskZmsNBb|9010=Y|9011=Y|10=039|8=FIX.4.4|9=115|35=5|34=84|49=Jeff5|52=20230918-11:23:10.018660|56=BfxComp|58=MsgSeqNum too low, expecting 16437 but received 4986|10=076|8=FIX.4.4|9=213|35=A|34=85|49=Jeff5|52=20230918-11:23:10.019620|56=BfxComp|98=0|108=30|141=N|341=20230918-10:45:00.000|553=ileMZ7r7aA9dg1f0qZ2KzFnJl010FZ9LX0JERBKs5D7|554=XgorEH1OJblVE4bs3iu8hdiWaMsCoeD39wjskZmsNBb|9010=Y|9011=Y|10=040|8=FIX.4.4|9=213|35=A|34=86|49=Jeff5|52=20230918-11:23:12.975470|56=BfxComp|98=0|108=30|141=N|341=20230918-10:45:00.000|553=ileMZ7r7aA9dg1f0qZ2KzFnJl010FZ9LX0JERBKs5D7|554=XgorEH1OJblVE4bs3iu8hdiWaMsCoeD39wjskZmsNBb|9010=Y|9011=Y|10=057|8=FIX.4.4|9=115|35=5|34=87|49=Jeff5|52=20230918-11:23:12.996140|56=BfxComp|58=MsgSeqNum too low, expecting 16437 but received 5183|10=079|8=FIX.4.4|9=213|35=A|34=88|49=Jeff5|52=20230918-11:23:12.996503|56=BfxComp|98=0|108=30|141=N|341=20230918-10:45:00.000|553=ileMZ7r7aA9dg1f0qZ2KzFnJl010FZ9LX0JERBKs5D7|554=XgorEH1OJblVE4bs3iu8hdiWaMsCoeD39wjskZmsNBb|9010=Y|9011=Y|10=059|8=FIX.4.4|9=213|35=A|34=89|49=Jeff5|52=20230918-11:23:14.962399|56=BfxComp|98=0|108=30|141=N|341=20230918-10:45:00.000|553=ileMZ7r7aA9dg1f0qZ2KzFnJl010FZ9LX0JERBKs5D7|554=XgorEH1OJblVE4bs3iu8hdiWaMsCoeD39wjskZmsNBb|9010=Y|9011=Y|10=068|8=FIX.4.4|9=213|35=A|34=90|49=Jeff5|52=20230918-11:23:14.991325|56=BfxComp|98=0|108=30|141=N|341=20230918-10:45:00.000|553=ileMZ7r7aA9dg1f0qZ2KzFnJl010FZ9LX0JERBKs5D7|554=XgorEH1OJblVE4bs3iu8hdiWaMsCoeD39wjskZmsNBb|9010=Y|9011=Y|10=051|8=FIX.4.4|9=213|35=A|34=91|49=Jeff5|52=20230918-11:23:16.956020|56=BfxComp|98=0|108=30|141=N|341=20230918-10:45:00.000|553=ileMZ7r7aA9dg1f0qZ2KzFnJl010FZ9LX0JERBKs5D7|554=XgorEH1OJblVE4bs3iu8hdiWaMsCoeD39wjskZmsNBb|9010=Y|9011=Y|10=047|8=FIX.4.4|9=115|35=5|34=92|49=Jeff5|52=20230918-11:23:16.975094|56=BfxComp|58=MsgSeqNum too low, expecting 16437 but received 7085|10=087|8=FIX.4.4|9=213|35=A|34=93|49=Jeff5|52=20230918-11:23:16.975471|56=BfxComp|98=0|108=30|141=N|341=20230918-10:45:00.000|553=ileMZ7r7aA9dg1f0qZ2KzFnJl010FZ9LX0JERBKs5D7|554=XgorEH1OJblVE4bs3iu8hdiWaMsCoeD39wjskZmsNBb|9010=Y|9011=Y|10=060|8=FIX.4.4|9=213|35=A|34=94|49=Jeff5|52=20230918-11:23:18.942975|56=BfxComp|98=0|108=30|141=N|341=20230918-10:45:00.000|553=ileMZ7r7aA9dg1f0qZ2KzFnJl010FZ9LX0JERBKs5D7|554=XgorEH1OJblVE4bs3iu8hdiWaMsCoeD39wjskZmsNBb|9010=Y|9011=Y|10=066|8=FIX.4.4|9=115|35=5|34=95|49=Jeff5|52=20230918-11:23:18.955762|56=BfxComp|58=MsgSeqNum too low, expecting 16437 but received 7355|10=092|8=FIX.4.4|9=213|35=A|34=96|49=Jeff5|52=20230918-11:23:18.956305|56=BfxComp|98=0|108=30|141=N|341=20230918-10:45:00.000|553=ileMZ7r7aA9dg1f0qZ2KzFnJl010FZ9LX0JERBKs5D7|554=XgorEH1OJblVE4bs3iu8hdiWaMsCoeD39wjskZmsNBb|9010=Y|9011=Y|10=060|8=FIX.4.4|9=213|35=A|34=97|49=Jeff5|52=20230918-11:23:20.931645|56=BfxComp|98=0|108=30|141=N|341=20230918-10:45:00.000|553=ileMZ7r7aA9dg1f0qZ2KzFnJl010FZ9LX0JERBKs5D7|554=XgorEH1OJblVE4bs3iu8hdiWaMsCoeD39wjskZmsNBb|9010=Y|9011=Y|10=054|8=FIX.4.4|9=115|35=5|34=98|49=Jeff5|52=20230918-11:23:20.942913|56=BfxComp|58=MsgSeqNum too low, expecting 16437 but received 7358|10=085|8=FIX.4.4|9=213|35=A|34=99|49=Jeff5|52=20230918-11:23:20.943352|56=BfxComp|98=0|108=30|141=N|341=20230918-10:45:00.000|553=ileMZ7r7aA9dg1f0qZ2KzFnJl010FZ9LX0JERBKs5D7|554=XgorEH1OJblVE4bs3iu8hdiWaMsCoeD39wjskZmsNBb|9010=Y|9011=Y|10=054|8=FIX.4.4|9=214|35=A|34=100|49=Jeff5|52=20230918-11:23:22.911609|56=BfxComp|98=0|108=30|141=N|341=20230918-10:45:00.000|553=ileMZ7r7aA9dg1f0qZ2KzFnJl010FZ9LX0JERBKs5D7|554=XgorEH1OJblVE4bs3iu8hdiWaMsCoeD39wjskZmsNBb|9010=Y|9011=Y|10=088|8=FIX.4.4|9=116|35=5|34=101|49=Jeff5|52=20230918-11:23:22.924478|56=BfxComp|58=MsgSeqNum too low, expecting 16437 but received 7361|10=121|8=FIX.4.4|9=214|35=A|34=102|49=Jeff5|52=20230918-11:23:22.925119|56=BfxComp|98=0|108=30|141=N|341=20230918-10:45:00.000|553=ileMZ7r7aA9dg1f0qZ2KzFnJl010FZ9LX0JERBKs5D7|554=XgorEH1OJblVE4bs3iu8hdiWaMsCoeD39wjskZmsNBb|9010=Y|9011=Y|10=091|8=FIX.4.4|9=214|35=A|34=103|49=Jeff5|52=20230918-11:23:24.884230|56=BfxComp|98=0|108=30|141=N|341=20230918-10:45:00.000|553=ileMZ7r7aA9dg1f0qZ2KzFnJl010FZ9LX0JERBKs5D7|554=XgorEH1OJblVE4bs3iu8hdiWaMsCoeD39wjskZmsNBb|9010=Y|9011=Y|10=092|8=FIX.4.4|9=116|35=5|34=104|49=Jeff5|52=20230918-11:23:24.900135|56=BfxComp|58=MsgSeqNum too low, expecting 16437 but received 8075|10=113|8=FIX.4.4|9=214|35=A|34=105|49=Jeff5|52=20230918-11:23:24.900626|56=BfxComp|98=0|108=30|141=N|341=20230918-10:45:00.000|553=ileMZ7r7aA9dg1f0qZ2KzFnJl010FZ9LX0JERBKs5D7|554=XgorEH1OJblVE4bs3iu8hdiWaMsCoeD39wjskZmsNBb|9010=Y|9011=Y|10=092|8=FIX.4.4|9=214|35=A|34=106|49=Jeff5|52=20230918-11:23:26.858208|56=BfxComp|98=0|108=30|141=N|341=20230918-10:45:00.000|553=ileMZ7r7aA9dg1f0qZ2KzFnJl010FZ9LX0JERBKs5D7|554=XgorEH1OJblVE4bs3iu8hdiWaMsCoeD39wjskZmsNBb|9010=Y|9011=Y|10=103|8=FIX.4.4|9=116|35=5|34=107|49=Jeff5|52=20230918-11:23:26.872152|56=BfxComp|58=MsgSeqNum too low, expecting 16437 but received 9099|10=132|8=FIX.4.4|9=214|35=A|34=108|49=Jeff5|52=20230918-11:23:26.872842|56=BfxComp|98=0|108=30|141=N|341=20230918-10:45:00.000|553=ileMZ7r7aA9dg1f0qZ2KzFnJl010FZ9LX0JERBKs5D7|554=XgorEH1OJblVE4bs3iu8hdiWaMsCoeD39wjskZmsNBb|9010=Y|9011=Y|10=105|8=FIX.4.4|9=214|35=A|34=109|49=Jeff5|52=20230918-11:23:28.825929|56=BfxComp|98=0|108=30|141=N|341=20230918-10:45:00.000|553=ileMZ7r7aA9dg1f0qZ2KzFnJl010FZ9LX0JERBKs5D7|554=XgorEH1OJblVE4bs3iu8hdiWaMsCoeD39wjskZmsNBb|9010=Y|9011=Y|10=112|8=FIX.4.4|9=116|35=5|34=110|49=Jeff5|52=20230918-11:23:28.840959|56=BfxComp|58=MsgSeqNum too low, expecting 16437 but received 9828|10=138|8=FIX.4.4|9=214|35=A|34=111|49=Jeff5|52=20230918-11:23:28.842246|56=BfxComp|98=0|108=30|141=N|341=20230918-10:45:00.000|553=ileMZ7r7aA9dg1f0qZ2KzFnJl010FZ9LX0JERBKs5D7|554=XgorEH1OJblVE4bs3iu8hdiWaMsCoeD39wjskZmsNBb|9010=Y|9011=Y|10=096|8=FIX.4.4|9=214|35=A|34=112|49=Jeff5|52=20230918-11:23:30.801302|56=BfxComp|98=0|108=30|141=N|341=20230918-10:45:00.000|553=ileMZ7r7aA9dg1f0qZ2KzFnJl010FZ9LX0JERBKs5D7|554=XgorEH1OJblVE4bs3iu8hdiWaMsCoeD39wjskZmsNBb|9010=Y|9011=Y|10=078|8=FIX.4.4|9=116|35=5|34=113|49=Jeff5|52=20230918-11:23:30.812685|56=BfxComp|58=MsgSeqNum too low, expecting 16437 but received 9831|10=123|8=FIX.4.4|9=214|35=A|34=114|49=Jeff5|52=20230918-11:23:30.813350|56=BfxComp|98=0|108=30|141=N|341=20230918-10:45:00.000|553=ileMZ7r7aA9dg1f0qZ2KzFnJl010FZ9LX0JERBKs5D7|554=XgorEH1OJblVE4bs3iu8hdiWaMsCoeD39wjskZmsNBb|9010=Y|9011=Y|10=086|8=FIX.4.4|9=214|35=A|34=115|49=Jeff5|52=20230918-11:23:32.823387|56=BfxComp|98=0|108=30|141=N|341=20230918-10:45:00.000|553=ileMZ7r7aA9dg1f0qZ2KzFnJl010FZ9LX0JERBKs5D7|554=XgorEH1OJblVE4bs3iu8hdiWaMsCoeD39wjskZmsNBb|9010=Y|9011=Y|10=100|8=FIX.4.4|9=116|35=5|34=116|49=Jeff5|52=20230918-11:23:32.836394|56=BfxComp|58=MsgSeqNum too low, expecting 16437 but received 9834|10=134|8=FIX.4.4|9=214|35=A|34=117|49=Jeff5|52=20230918-11:23:32.837121|56=BfxComp|98=0|108=30|141=N|341=20230918-10:45:00.000|553=ileMZ7r7aA9dg1f0qZ2KzFnJl010FZ9LX0JERBKs5D7|554=XgorEH1OJblVE4bs3iu8hdiWaMsCoeD39wjskZmsNBb|9010=Y|9011=Y|10=093|8=FIX.4.4|9=214|35=A|34=118|49=Jeff5|52=20230918-11:23:34.785745|56=BfxComp|98=0|108=30|141=N|341=20230918-10:45:00.000|553=ileMZ7r7aA9dg1f0qZ2KzFnJl010FZ9LX0JERBKs5D7|554=XgorEH1OJblVE4bs3iu8hdiWaMsCoeD39wjskZmsNBb|9010=Y|9011=Y|10=110|8=FIX.4.4|9=117|35=5|34=119|49=Jeff5|52=20230918-11:23:34.798640|56=BfxComp|58=MsgSeqNum too low, expecting 16437 but received 10295|10=182|8=FIX.4.4|9=214|35=A|34=120|49=Jeff5|52=20230918-11:23:34.799297|56=BfxComp|98=0|108=30|141=N|341=20230918-10:45:00.000|553=ileMZ7r7aA9dg1f0qZ2KzFnJl010FZ9LX0JERBKs5D7|554=XgorEH1OJblVE4bs3iu8hdiWaMsCoeD39wjskZmsNBb|9010=Y|9011=Y|10=110|8=FIX.4.4|9=214|35=A|34=121|49=Jeff5|52=20230918-11:23:36.746132|56=BfxComp|98=0|108=30|141=N|341=20230918-10:45:00.000|553=ileMZ7r7aA9dg1f0qZ2KzFnJl010FZ9LX0JERBKs5D7|554=XgorEH1OJblVE4bs3iu8hdiWaMsCoeD39wjskZmsNBb|9010=Y|9011=Y|10=093|8=FIX.4.4|9=117|35=5|34=122|49=Jeff5|52=20230918-11:23:36.765580|56=BfxComp|58=MsgSeqNum too low, expecting 16437 but received 11310|10=164|8=FIX.4.4|9=214|35=A|34=123|49=Jeff5|52=20230918-11:23:36.766136|56=BfxComp|98=0|108=30|141=N|341=20230918-10:45:00.000|553=ileMZ7r7aA9dg1f0qZ2KzFnJl010FZ9LX0JERBKs5D7|554=XgorEH1OJblVE4bs3iu8hdiWaMsCoeD39wjskZmsNBb|9010=Y|9011=Y|10=101|8=FIX.4.4|9=214|35=A|34=124|49=Jeff5|52=20230918-11:23:38.709954|56=BfxComp|98=0|108=30|141=N|341=20230918-10:45:00.000|553=ileMZ7r7aA9dg1f0qZ2KzFnJl010FZ9LX0JERBKs5D7|554=XgorEH1OJblVE4bs3iu8hdiWaMsCoeD39wjskZmsNBb|9010=Y|9011=Y|10=109|8=FIX.4.4|9=117|35=5|34=125|49=Jeff5|52=20230918-11:23:38.731566|56=BfxComp|58=MsgSeqNum too low, expecting 16437 but received 12334|10=173|8=FIX.4.4|9=214|35=A|34=126|49=Jeff5|52=20230918-11:23:38.732121|56=BfxComp|98=0|108=30|141=N|341=20230918-10:45:00.000|553=ileMZ7r7aA9dg1f0qZ2KzFnJl010FZ9LX0JERBKs5D7|554=XgorEH1OJblVE4bs3iu8hdiWaMsCoeD39wjskZmsNBb|9010=Y|9011=Y|10=093|8=FIX.4.4|9=214|35=A|34=127|49=Jeff5|52=20230918-11:23:40.179414|56=BfxComp|98=0|108=30|141=N|341=20230918-10:45:00.000|553=ileMZ7r7aA9dg1f0qZ2KzFnJl010FZ9LX0JERBKs5D7|554=XgorEH1OJblVE4bs3iu8hdiWaMsCoeD39wjskZmsNBb|9010=Y|9011=Y|10=097|8=FIX.4.4|9=117|35=5|34=128|49=Jeff5|52=20230918-11:23:40.195193|56=BfxComp|58=MsgSeqNum too low, expecting 16437 but received 12337|10=172|8=FIX.4.4|9=214|35=A|34=129|49=Jeff5|52=20230918-11:23:40.195739|56=BfxComp|98=0|108=30|141=N|341=20230918-10:45:00.000|553=ileMZ7r7aA9dg1f0qZ2KzFnJl010FZ9LX0JERBKs5D7|554=XgorEH1OJblVE4bs3iu8hdiWaMsCoeD39wjskZmsNBb|9010=Y|9011=Y|10=107|8=FIX.4.4|9=214|35=A|34=130|49=Jeff5|52=20230918-11:23:43.115243|56=BfxComp|98=0|108=30|141=N|341=20230918-10:45:00.000|553=ileMZ7r7aA9dg1f0qZ2KzFnJl010FZ9LX0JERBKs5D7|554=XgorEH1OJblVE4bs3iu8hdiWaMsCoeD39wjskZmsNBb|9010=Y|9011=Y|10=084|8=FIX.4.4|9=117|35=5|34=131|49=Jeff5|52=20230918-11:23:43.127307|56=BfxComp|58=MsgSeqNum too low, expecting 16437 but received 12340|10=155|8=FIX.4.4|9=214|35=A|34=132|49=Jeff5|52=20230918-11:23:43.127780|56=BfxComp|98=0|108=30|141=N|341=20230918-10:45:00.000|553=ileMZ7r7aA9dg1f0qZ2KzFnJl010FZ9LX0JERBKs5D7|554=XgorEH1OJblVE4bs3iu8hdiWaMsCoeD39wjskZmsNBb|9010=Y|9011=Y|10=095|8=FIX.4.4|9=214|35=A|34=133|49=Jeff5|52=20230918-11:23:45.125833|56=BfxComp|98=0|108=30|141=N|341=20230918-10:45:00.000|553=ileMZ7r7aA9dg1f0qZ2KzFnJl010FZ9LX0JERBKs5D7|554=XgorEH1OJblVE4bs3iu8hdiWaMsCoeD39wjskZmsNBb|9010=Y|9011=Y|10=095|8=FIX.4.4|9=117|35=5|34=134|49=Jeff5|52=20230918-11:23:45.152714|56=BfxComp|58=MsgSeqNum too low, expecting 16437 but received 12780|10=168|8=FIX.4.4|9=214|35=A|34=135|49=Jeff5|52=20230918-11:23:45.153231|56=BfxComp|98=0|108=30|141=N|341=20230918-10:45:00.000|553=ileMZ7r7aA9dg1f0qZ2KzFnJl010FZ9LX0JERBKs5D7|554=XgorEH1OJblVE4bs3iu8hdiWaMsCoeD39wjskZmsNBb|9010=Y|9011=Y|10=090|8=FIX.4.4|9=214|35=A|34=136|49=Jeff5|52=20230918-11:23:47.149645|56=BfxComp|98=0|108=30|141=N|341=20230918-10:45:00.000|553=ileMZ7r7aA9dg1f0qZ2KzFnJl010FZ9LX0JERBKs5D7|554=XgorEH1OJblVE4bs3iu8hdiWaMsCoeD39wjskZmsNBb|9010=Y|9011=Y|10=107|8=FIX.4.4|9=117|35=5|34=137|49=Jeff5|52=20230918-11:23:47.202725|56=BfxComp|58=MsgSeqNum too low, expecting 16437 but received 13584|10=174|8=FIX.4.4|9=214|35=A|34=138|49=Jeff5|52=20230918-11:23:47.203387|56=BfxComp|98=0|108=30|141=N|341=20230918-10:45:00.000|553=ileMZ7r7aA9dg1f0qZ2KzFnJl010FZ9LX0JERBKs5D7|554=XgorEH1OJblVE4bs3iu8hdiWaMsCoeD39wjskZmsNBb|9010=Y|9011=Y|10=103|8=FIX.4.4|9=214|35=A|34=139|49=Jeff5|52=20230918-11:23:49.211889|56=BfxComp|98=0|108=30|141=N|341=20230918-10:45:00.000|553=ileMZ7r7aA9dg1f0qZ2KzFnJl010FZ9LX0JERBKs5D7|554=XgorEH1OJblVE4bs3iu8hdiWaMsCoeD39wjskZmsNBb|9010=Y|9011=Y|10=112|8=FIX.4.4|9=117|35=5|34=140|49=Jeff5|52=20230918-11:23:49.226550|56=BfxComp|58=MsgSeqNum too low, expecting 16437 but received 14612|10=165|8=FIX.4.4|9=214|35=A|34=141|49=Jeff5|52=20230918-11:23:49.226940|56=BfxComp|98=0|108=30|141=N|341=20230918-10:45:00.000|553=ileMZ7r7aA9dg1f0qZ2KzFnJl010FZ9LX0JERBKs5D7|554=XgorEH1OJblVE4bs3iu8hdiWaMsCoeD39wjskZmsNBb|9010=Y|9011=Y|10=099|8=FIX.4.4|9=214|35=A|34=142|49=Jeff5|52=20230918-11:23:51.224675|56=BfxComp|98=0|108=30|141=N|341=20230918-10:45:00.000|553=ileMZ7r7aA9dg1f0qZ2KzFnJl010FZ9LX0JERBKs5D7|554=XgorEH1OJblVE4bs3iu8hdiWaMsCoeD39wjskZmsNBb|9010=Y|9011=Y|10=096|8=FIX.4.4|9=117|35=5|34=143|49=Jeff5|52=20230918-11:23:51.243492|56=BfxComp|58=MsgSeqNum too low, expecting 16437 but received 14776|10=176|8=FIX.4.4|9=214|35=A|34=144|49=Jeff5|52=20230918-11:23:51.243933|56=BfxComp|98=0|108=30|141=N|341=20230918-10:45:00.000|553=ileMZ7r7aA9dg1f0qZ2KzFnJl010FZ9LX0JERBKs5D7|554=XgorEH1OJblVE4bs3iu8hdiWaMsCoeD39wjskZmsNBb|9010=Y|9011=Y|10=096|8=FIX.4.4|9=214|35=A|34=145|49=Jeff5|52=20230918-11:23:53.240532|56=BfxComp|98=0|108=30|141=N|341=20230918-10:45:00.000|553=ileMZ7r7aA9dg1f0qZ2KzFnJl010FZ9LX0JERBKs5D7|554=XgorEH1OJblVE4bs3iu8hdiWaMsCoeD39wjskZmsNBb|9010=Y|9011=Y|10=091|8=FIX.4.4|9=117|35=5|34=146|49=Jeff5|52=20230918-11:23:53.275235|56=BfxComp|58=MsgSeqNum too low, expecting 16437 but received 14779|10=184|8=FIX.4.4|9=214|35=A|34=147|49=Jeff5|52=20230918-11:23:53.276566|56=BfxComp|98=0|108=30|141=N|341=20230918-10:45:00.000|553=ileMZ7r7aA9dg1f0qZ2KzFnJl010FZ9LX0JERBKs5D7|554=XgorEH1OJblVE4bs3iu8hdiWaMsCoeD39wjskZmsNBb|9010=Y|9011=Y|10=109|8=FIX.4.4|9=214|35=A|34=148|49=Jeff5|52=20230918-11:23:55.266974|56=BfxComp|98=0|108=30|141=N|341=20230918-10:45:00.000|553=ileMZ7r7aA9dg1f0qZ2KzFnJl010FZ9LX0JERBKs5D7|554=XgorEH1OJblVE4bs3iu8hdiWaMsCoeD39wjskZmsNBb|9010=Y|9011=Y|10=114|8=FIX.4.4|9=117|35=5|34=149|49=Jeff5|52=20230918-11:23:55.293994|56=BfxComp|58=MsgSeqNum too low, expecting 16437 but received 14868|10=200|8=FIX.4.4|9=214|35=A|34=150|49=Jeff5|52=20230918-11:23:55.294481|56=BfxComp|98=0|108=30|141=N|341=20230918-10:45:00.000|553=ileMZ7r7aA9dg1f0qZ2KzFnJl010FZ9LX0JERBKs5D7|554=XgorEH1OJblVE4bs3iu8hdiWaMsCoeD39wjskZmsNBb|9010=Y|9011=Y|10=101|8=FIX.4.4|9=214|35=A|34=151|49=Jeff5|52=20230918-11:23:57.282568|56=BfxComp|98=0|108=30|141=N|341=20230918-10:45:00.000|553=ileMZ7r7aA9dg1f0qZ2KzFnJl010FZ9LX0JERBKs5D7|554=XgorEH1OJblVE4bs3iu8hdiWaMsCoeD39wjskZmsNBb|9010=Y|9011=Y|10=107|8=FIX.4.4|9=117|35=5|34=152|49=Jeff5|52=20230918-11:23:57.295994|56=BfxComp|58=MsgSeqNum too low, expecting 16437 but received 15855|10=195|8=FIX.4.4|9=214|35=A|34=153|49=Jeff5|52=20230918-11:23:57.296515|56=BfxComp|98=0|108=30|141=N|341=20230918-10:45:00.000|553=ileMZ7r7aA9dg1f0qZ2KzFnJl010FZ9LX0JERBKs5D7|554=XgorEH1OJblVE4bs3iu8hdiWaMsCoeD39wjskZmsNBb|9010=Y|9011=Y|10=106|8=FIX.4.4|9=214|35=A|34=154|49=Jeff5|52=20230918-11:23:59.286193|56=BfxComp|98=0|108=30|141=N|341=20230918-10:45:00.000|553=ileMZ7r7aA9dg1f0qZ2KzFnJl010FZ9LX0JERBKs5D7|554=XgorEH1OJblVE4bs3iu8hdiWaMsCoeD39wjskZmsNBb|9010=Y|9011=Y|10=110|8=FIX.4.4|9=73|35=2|34=155|49=Jeff5|52=20230918-11:23:59.310471|56=BfxComp|7=16437|16=0|10=142|8=FIX.4.4|9=73|35=2|34=156|49=Jeff5|52=20230918-11:23:59.455237|56=BfxComp|7=16816|16=0|10=154|8=FIX.4.4|9=60|35=0|34=157|49=Jeff5|52=20230918-11:24:29.085631|56=BfxComp|10=064|8=FIX.4.4|9=60|35=0|34=158|49=Jeff5|52=20230918-11:24:59.148992|56=BfxComp|10=078|8=FIX.4.4|9=60|35=0|34=159|49=Jeff5|52=20230918-11:25:29.096093|56=BfxComp|10=071|8=FIX.4.4|9=60|35=0|34=160|49=Jeff5|52=20230918-11:25:59.210313|56=BfxComp|10=049|8=FIX.4.4|9=60|35=0|34=161|49=Jeff5|52=20230918-11:26:29.047822|56=BfxComp|10=061|8=FIX.4.4|9=60|35=0|34=162|49=Jeff5|52=20230918-11:26:59.391704|56=BfxComp|10=066|8=FIX.4.4|9=60|35=0|34=163|49=Jeff5|52=20230918-11:27:29.127252|56=BfxComp|10=060|8=FIX.4.4|9=60|35=0|34=164|49=Jeff5|52=20230918-11:27:59.148054|56=BfxComp|10=067|8=FIX.4.4|9=60|35=0|34=165|49=Jeff5|52=20230918-11:28:29.448443|56=BfxComp|10=071|8=FIX.4.4|9=60|35=0|34=166|49=Jeff5|52=20230918-11:28:59.441070|56=BfxComp|10=064|8=FIX.4.4|9=60|35=0|34=167|49=Jeff5|52=20230918-11:29:29.000886|56=BfxComp|10=069|8=FIX.4.4|9=60|35=0|34=168|49=Jeff5|52=20230918-11:29:59.198186|56=BfxComp|10=084|8=FIX.4.4|9=60|35=0|34=169|49=Jeff5|52=20230918-11:30:29.250931|56=BfxComp|10=061|8=FIX.4.4|9=60|35=0|34=170|49=Jeff5|52=20230918-11:30:59.229597|56=BfxComp|10=070|8=FIX.4.4|9=60|35=0|34=171|49=Jeff5|52=20230918-11:31:29.243521|56=BfxComp|10=052|8=FIX.4.4|9=60|35=0|34=172|49=Jeff5|52=20230918-11:31:59.188239|56=BfxComp|10=070|8=FIX.4.4|9=60|35=0|34=173|49=Jeff5|52=20230918-11:32:29.006480|56=BfxComp|10=056|8=FIX.4.4|9=60|35=0|34=174|49=Jeff5|52=20230918-11:32:59.152986|56=BfxComp|10=073|