8=FIX.4.4|9=188|35=A|34=1|49=ValonOrdComp20|52=20231220-10:33:47.902288|56=GtwComp|98=0|108=30|141=Y|553=cf0eee11c55ad5fcb5c7da0ec7f307ca14a04672e9b|554=2f3b831bd94a60e3e3ec60771d2d4594b85d85a7de5|9011=Y|10=129|