8=FIX.4.4|9=218|35=A|34=1|49=ValonOrdComp01-4|52=20230913-15:21:50.215921|56=BfxComp|98=0|108=30|141=Y|341=20230101-00:00:00|553=m54BjlKMRYHDSjSGGcQJESF39EOtQy1Iwjqfd0BUVDB|554=fLZfKy8EeescQ6Kl5D9npvllZwuQvCYdoTBZcPkPTw|9010=Y|9011=Y|10=117|