8=FIX.4.4|9=120|35=A|34=1|49=ValonMDComp04|52=20240404-16:07:58.204173|56=GtwComp|98=0|108=30|141=Y|553=test|554=password|9010=Y|9011=Y|10=228|