8=FIX.4.4|9=212|35=A|34=1|49=Jeff7|52=20230918-11:41:26.426651|56=BfxComp|98=0|108=30|141=N|341=20230918-08:00:00.000|553=ileMZ7r7aA9dg1f0qZ2KzFnJl010FZ9LX0JERBKs5D7|554=XgorEH1OJblVE4bs3iu8hdiWaMsCoeD39wjskZmsNBb|9010=Y|9011=Y|10=248|8=FIX.4.4|9=212|35=A|34=2|49=Jeff7|52=20230918-11:41:28.144691|56=BfxComp|98=0|108=30|141=N|341=20230918-08:00:00.000|553=ileMZ7r7aA9dg1f0qZ2KzFnJl010FZ9LX0JERBKs5D7|554=XgorEH1OJblVE4bs3iu8hdiWaMsCoeD39wjskZmsNBb|9010=Y|9011=Y|10=252|8=FIX.4.4|9=212|35=A|34=3|49=Jeff7|52=20230918-11:41:30.128118|56=BfxComp|98=0|108=30|141=N|341=20230918-08:00:00.000|553=ileMZ7r7aA9dg1f0qZ2KzFnJl010FZ9LX0JERBKs5D7|554=XgorEH1OJblVE4bs3iu8hdiWaMsCoeD39wjskZmsNBb|9010=Y|9011=Y|10=242|8=FIX.4.4|9=212|35=A|34=4|49=Jeff7|52=20230918-11:41:32.027235|56=BfxComp|98=0|108=30|141=N|341=20230918-08:00:00.000|553=ileMZ7r7aA9dg1f0qZ2KzFnJl010FZ9LX0JERBKs5D7|554=XgorEH1OJblVE4bs3iu8hdiWaMsCoeD39wjskZmsNBb|9010=Y|9011=Y|10=243|8=FIX.4.4|9=212|35=A|34=5|49=Jeff7|52=20230918-11:41:42.049257|56=BfxComp|98=0|108=30|141=N|341=20230918-08:00:00.000|553=ileMZ7r7aA9dg1f0qZ2KzFnJl010FZ9LX0JERBKs5D7|554=XgorEH1OJblVE4bs3iu8hdiWaMsCoeD39wjskZmsNBb|9010=Y|9011=Y|10=253|8=FIX.4.4|9=212|35=A|34=6|49=Jeff7|52=20230918-11:41:43.944821|56=BfxComp|98=0|108=30|141=N|341=20230918-08:00:00.000|553=ileMZ7r7aA9dg1f0qZ2KzFnJl010FZ9LX0JERBKs5D7|554=XgorEH1OJblVE4bs3iu8hdiWaMsCoeD39wjskZmsNBb|9010=Y|9011=Y|10=000|8=FIX.4.4|9=67|35=2|34=7|49=Jeff7|52=20230918-11:41:43.957553|56=BfxComp|7=1|16=0|10=102|8=FIX.4.4|9=212|35=A|34=8|49=Jeff7|52=20230918-11:41:46.494752|56=BfxComp|98=0|108=30|141=N|341=20230918-08:00:00.000|553=ileMZ7r7aA9dg1f0qZ2KzFnJl010FZ9LX0JERBKs5D7|554=XgorEH1OJblVE4bs3iu8hdiWaMsCoeD39wjskZmsNBb|9010=Y|9011=Y|10=008|8=FIX.4.4|9=212|35=A|34=9|49=Jeff7|52=20230918-11:41:47.873490|56=BfxComp|98=0|108=30|141=N|341=20230918-08:00:00.000|553=ileMZ7r7aA9dg1f0qZ2KzFnJl010FZ9LX0JERBKs5D7|554=XgorEH1OJblVE4bs3iu8hdiWaMsCoeD39wjskZmsNBb|9010=Y|9011=Y|10=010|8=FIX.4.4|9=213|35=A|34=10|49=Jeff7|52=20230918-11:41:50.376501|56=BfxComp|98=0|108=30|141=N|341=20230918-08:00:00.000|553=ileMZ7r7aA9dg1f0qZ2KzFnJl010FZ9LX0JERBKs5D7|554=XgorEH1OJblVE4bs3iu8hdiWaMsCoeD39wjskZmsNBb|9010=Y|9011=Y|10=036|8=FIX.4.4|9=213|35=A|34=11|49=Jeff7|52=20230918-11:46:00.173179|56=BfxComp|98=0|108=30|141=N|341=20230918-08:00:00.000|553=ileMZ7r7aA9dg1f0qZ2KzFnJl010FZ9LX0JERBKs5D7|554=XgorEH1OJblVE4bs3iu8hdiWaMsCoeD39wjskZmsNBb|9010=Y|9011=Y|10=043|8=FIX.4.4|9=69|35=2|34=12|49=Jeff7|52=20230918-11:46:00.195517|56=BfxComp|7=11|16=0|10=189|8=FIX.4.4|9=59|35=0|34=13|49=Jeff7|52=20230918-11:46:30.012273|56=BfxComp|10=005|8=FIX.4.4|9=59|35=0|34=14|49=Jeff7|52=20230918-11:47:00.000622|56=BfxComp|10=255|8=FIX.4.4|9=59|35=0|34=15|49=Jeff7|52=20230918-11:47:30.000603|56=BfxComp|10=002|8=FIX.4.4|9=59|35=0|34=16|49=Jeff7|52=20230918-11:48:00.002525|56=BfxComp|10=006|8=FIX.4.4|9=59|35=5|34=17|49=Jeff7|52=20230918-11:48:04.331196|56=BfxComp|10=025|8=FIX.4.4|9=213|35=A|34=18|49=Jeff7|52=20230918-11:48:04.333728|56=BfxComp|98=0|108=30|141=N|341=20230918-08:00:00.000|553=ileMZ7r7aA9dg1f0qZ2KzFnJl010FZ9LX0JERBKs5D7|554=XgorEH1OJblVE4bs3iu8hdiWaMsCoeD39wjskZmsNBb|9010=Y|9011=Y|10=054|8=FIX.4.4|9=213|35=A|34=19|49=Jeff7|52=20230918-11:48:06.016753|56=BfxComp|98=0|108=30|141=N|341=20230918-08:00:00.000|553=ileMZ7r7aA9dg1f0qZ2KzFnJl010FZ9LX0JERBKs5D7|554=XgorEH1OJblVE4bs3iu8hdiWaMsCoeD39wjskZmsNBb|9010=Y|9011=Y|10=053|8=FIX.4.4|9=213|35=A|34=20|49=Jeff7|52=20230918-11:48:08.648891|56=BfxComp|98=0|108=30|141=N|341=20230918-08:00:00.000|553=ileMZ7r7aA9dg1f0qZ2KzFnJl010FZ9LX0JERBKs5D7|554=XgorEH1OJblVE4bs3iu8hdiWaMsCoeD39wjskZmsNBb|9010=Y|9011=Y|10=061|8=FIX.4.4|9=213|35=A|34=21|49=Jeff7|52=20230918-11:48:10.727802|56=BfxComp|98=0|108=30|141=N|341=20230918-08:00:00.000|553=ileMZ7r7aA9dg1f0qZ2KzFnJl010FZ9LX0JERBKs5D7|554=XgorEH1OJblVE4bs3iu8hdiWaMsCoeD39wjskZmsNBb|9010=Y|9011=Y|10=045|8=FIX.4.4|9=213|35=A|34=22|49=Jeff7|52=20230918-11:48:12.727756|56=BfxComp|98=0|108=30|141=N|341=20230918-08:00:00.000|553=ileMZ7r7aA9dg1f0qZ2KzFnJl010FZ9LX0JERBKs5D7|554=XgorEH1OJblVE4bs3iu8hdiWaMsCoeD39wjskZmsNBb|9010=Y|9011=Y|10=056|8=FIX.4.4|9=213|35=A|34=23|49=Jeff7|52=20230918-11:48:14.804377|56=BfxComp|98=0|108=30|141=N|341=20230918-08:00:00.000|553=ileMZ7r7aA9dg1f0qZ2KzFnJl010FZ9LX0JERBKs5D7|554=XgorEH1OJblVE4bs3iu8hdiWaMsCoeD39wjskZmsNBb|9010=Y|9011=Y|10=054|8=FIX.4.4|9=213|35=A|34=24|49=Jeff7|52=20230918-11:48:16.832173|56=BfxComp|98=0|108=30|141=N|341=20230918-08:00:00.000|553=ileMZ7r7aA9dg1f0qZ2KzFnJl010FZ9LX0JERBKs5D7|554=XgorEH1OJblVE4bs3iu8hdiWaMsCoeD39wjskZmsNBb|9010=Y|9011=Y|10=052|8=FIX.4.4|9=213|35=A|34=25|49=Jeff7|52=20230918-11:48:18.831198|56=BfxComp|98=0|108=30|141=N|341=20230918-08:00:00.000|553=ileMZ7r7aA9dg1f0qZ2KzFnJl010FZ9LX0JERBKs5D7|554=XgorEH1OJblVE4bs3iu8hdiWaMsCoeD39wjskZmsNBb|9010=Y|9011=Y|10=061|8=FIX.4.4|9=213|35=A|34=26|49=Jeff7|52=20230918-11:48:20.851600|56=BfxComp|98=0|108=30|141=N|341=20230918-08:00:00.000|553=ileMZ7r7aA9dg1f0qZ2KzFnJl010FZ9LX0JERBKs5D7|554=XgorEH1OJblVE4bs3iu8hdiWaMsCoeD39wjskZmsNBb|9010=Y|9011=Y|10=045|8=FIX.4.4|9=213|35=A|34=27|49=Jeff7|52=20230918-11:48:22.847068|56=BfxComp|98=0|108=30|141=N|341=20230918-08:00:00.000|553=ileMZ7r7aA9dg1f0qZ2KzFnJl010FZ9LX0JERBKs5D7|554=XgorEH1OJblVE4bs3iu8hdiWaMsCoeD39wjskZmsNBb|9010=Y|9011=Y|10=061|8=FIX.4.4|9=213|35=A|34=28|49=Jeff7|52=20230918-11:48:24.846146|56=BfxComp|98=0|108=30|141=N|341=20230918-08:00:00.000|553=ileMZ7r7aA9dg1f0qZ2KzFnJl010FZ9LX0JERBKs5D7|554=XgorEH1OJblVE4bs3iu8hdiWaMsCoeD39wjskZmsNBb|9010=Y|9011=Y|10=060|8=FIX.4.4|9=213|35=A|34=29|49=Jeff7|52=20230918-11:48:26.843928|56=BfxComp|98=0|108=30|141=N|341=20230918-08:00:00.000|553=ileMZ7r7aA9dg1f0qZ2KzFnJl010FZ9LX0JERBKs5D7|554=XgorEH1OJblVE4bs3iu8hdiWaMsCoeD39wjskZmsNBb|9010=Y|9011=Y|10=068|8=FIX.4.4|9=213|35=A|34=30|49=Jeff7|52=20230918-11:48:28.838040|56=BfxComp|98=0|108=30|141=N|341=20230918-08:00:00.000|553=ileMZ7r7aA9dg1f0qZ2KzFnJl010FZ9LX0JERBKs5D7|554=XgorEH1OJblVE4bs3iu8hdiWaMsCoeD39wjskZmsNBb|9010=Y|9011=Y|10=051|8=FIX.4.4|9=213|35=A|34=31|49=Jeff7|52=20230918-11:48:30.830658|56=BfxComp|98=0|108=30|141=N|341=20230918-08:00:00.000|553=ileMZ7r7aA9dg1f0qZ2KzFnJl010FZ9LX0JERBKs5D7|554=XgorEH1OJblVE4bs3iu8hdiWaMsCoeD39wjskZmsNBb|9010=Y|9011=Y|10=052|8=FIX.4.4|9=213|35=A|34=32|49=Jeff7|52=20230918-11:48:32.819202|56=BfxComp|98=0|108=30|141=N|341=20230918-08:00:00.000|553=ileMZ7r7aA9dg1f0qZ2KzFnJl010FZ9LX0JERBKs5D7|554=XgorEH1OJblVE4bs3iu8hdiWaMsCoeD39wjskZmsNBb|9010=Y|9011=Y|10=047|8=FIX.4.4|9=213|35=A|34=33|49=Jeff7|52=20230918-11:48:34.885367|56=BfxComp|98=0|108=30|141=N|341=20230918-08:00:00.000|553=ileMZ7r7aA9dg1f0qZ2KzFnJl010FZ9LX0JERBKs5D7|554=XgorEH1OJblVE4bs3iu8hdiWaMsCoeD39wjskZmsNBb|9010=Y|9011=Y|10=065|8=FIX.4.4|9=213|35=A|34=34|49=Jeff7|52=20230918-11:48:36.869380|56=BfxComp|98=0|108=30|141=N|341=20230918-08:00:00.000|553=ileMZ7r7aA9dg1f0qZ2KzFnJl010FZ9LX0JERBKs5D7|554=XgorEH1OJblVE4bs3iu8hdiWaMsCoeD39wjskZmsNBb|9010=Y|9011=Y|10=065|8=FIX.4.4|9=213|35=A|34=35|49=Jeff7|52=20230918-11:48:38.864090|56=BfxComp|98=0|108=30|141=N|341=20230918-08:00:00.000|553=ileMZ7r7aA9dg1f0qZ2KzFnJl010FZ9LX0JERBKs5D7|554=XgorEH1OJblVE4bs3iu8hdiWaMsCoeD39wjskZmsNBb|9010=Y|9011=Y|10=061|8=FIX.4.4|9=213|35=A|34=36|49=Jeff7|52=20230918-11:48:40.847937|56=BfxComp|98=0|108=30|141=N|341=20230918-08:00:00.000|553=ileMZ7r7aA9dg1f0qZ2KzFnJl010FZ9LX0JERBKs5D7|554=XgorEH1OJblVE4bs3iu8hdiWaMsCoeD39wjskZmsNBb|9010=Y|9011=Y|10=066|8=FIX.4.4|9=213|35=A|34=37|49=Jeff7|52=20230918-11:48:42.835082|56=BfxComp|98=0|108=30|141=N|341=20230918-08:00:00.000|553=ileMZ7r7aA9dg1f0qZ2KzFnJl010FZ9LX0JERBKs5D7|554=XgorEH1OJblVE4bs3iu8hdiWaMsCoeD39wjskZmsNBb|9010=Y|9011=Y|10=057|8=FIX.4.4|9=213|35=A|34=38|49=Jeff7|52=20230918-11:48:44.827038|56=BfxComp|98=0|108=30|141=N|341=20230918-08:00:00.000|553=ileMZ7r7aA9dg1f0qZ2KzFnJl010FZ9LX0JERBKs5D7|554=XgorEH1OJblVE4bs3iu8hdiWaMsCoeD39wjskZmsNBb|9010=Y|9011=Y|10=062|8=FIX.4.4|9=213|35=A|34=39|49=Jeff7|52=20230918-11:48:46.813342|56=BfxComp|98=0|108=30|141=N|341=20230918-08:00:00.000|553=ileMZ7r7aA9dg1f0qZ2KzFnJl010FZ9LX0JERBKs5D7|554=XgorEH1OJblVE4bs3iu8hdiWaMsCoeD39wjskZmsNBb|9010=Y|9011=Y|10=058|8=FIX.4.4|9=213|35=A|34=40|49=Jeff7|52=20230918-11:48:48.827863|56=BfxComp|98=0|108=30|141=N|341=20230918-08:00:00.000|553=ileMZ7r7aA9dg1f0qZ2KzFnJl010FZ9LX0JERBKs5D7|554=XgorEH1OJblVE4bs3iu8hdiWaMsCoeD39wjskZmsNBb|9010=Y|9011=Y|10=065|8=FIX.4.4|9=213|35=A|34=41|49=Jeff7|52=20230918-11:48:50.832833|56=BfxComp|98=0|108=30|141=N|341=20230918-08:00:00.000|553=ileMZ7r7aA9dg1f0qZ2KzFnJl010FZ9LX0JERBKs5D7|554=XgorEH1OJblVE4bs3iu8hdiWaMsCoeD39wjskZmsNBb|9010=Y|9011=Y|10=052|8=FIX.4.4|9=213|35=A|34=42|49=Jeff7|52=20230918-11:48:52.815450|56=BfxComp|98=0|108=30|141=N|341=20230918-08:00:00.000|553=ileMZ7r7aA9dg1f0qZ2KzFnJl010FZ9LX0JERBKs5D7|554=XgorEH1OJblVE4bs3iu8hdiWaMsCoeD39wjskZmsNBb|9010=Y|9011=Y|10=051|8=FIX.4.4|9=213|35=A|34=43|49=Jeff7|52=20230918-11:48:54.804863|56=BfxComp|98=0|108=30|141=N|341=20230918-08:00:00.000|553=ileMZ7r7aA9dg1f0qZ2KzFnJl010FZ9LX0JERBKs5D7|554=XgorEH1OJblVE4bs3iu8hdiWaMsCoeD39wjskZmsNBb|9010=Y|9011=Y|10=060|8=FIX.4.4|9=213|35=A|34=44|49=Jeff7|52=20230918-11:48:56.124700|56=BfxComp|98=0|108=30|141=N|341=20230918-08:00:00.000|553=ileMZ7r7aA9dg1f0qZ2KzFnJl010FZ9LX0JERBKs5D7|554=XgorEH1OJblVE4bs3iu8hdiWaMsCoeD39wjskZmsNBb|9010=Y|9011=Y|10=048|8=FIX.4.4|9=213|35=A|34=45|49=Jeff7|52=20230918-11:48:58.089594|56=BfxComp|98=0|108=30|141=N|341=20230918-08:00:00.000|553=ileMZ7r7aA9dg1f0qZ2KzFnJl010FZ9LX0JERBKs5D7|554=XgorEH1OJblVE4bs3iu8hdiWaMsCoeD39wjskZmsNBb|9010=Y|9011=Y|10=072|8=FIX.4.4|9=213|35=A|34=46|49=Jeff7|52=20230918-11:49:00.193639|56=BfxComp|98=0|108=30|141=N|341=20230918-08:00:00.000|553=ileMZ7r7aA9dg1f0qZ2KzFnJl010FZ9LX0JERBKs5D7|554=XgorEH1OJblVE4bs3iu8hdiWaMsCoeD39wjskZmsNBb|9010=Y|9011=Y|10=057|8=FIX.4.4|9=213|35=A|34=47|49=Jeff7|52=20230918-11:49:02.157290|56=BfxComp|98=0|108=30|141=N|341=20230918-08:00:00.000|553=ileMZ7r7aA9dg1f0qZ2KzFnJl010FZ9LX0JERBKs5D7|554=XgorEH1OJblVE4bs3iu8hdiWaMsCoeD39wjskZmsNBb|9010=Y|9011=Y|10=053|8=FIX.4.4|9=213|35=A|34=48|49=Jeff7|52=20230918-11:49:04.128188|56=BfxComp|98=0|108=30|141=N|341=20230918-08:00:00.000|553=ileMZ7r7aA9dg1f0qZ2KzFnJl010FZ9LX0JERBKs5D7|554=XgorEH1OJblVE4bs3iu8hdiWaMsCoeD39wjskZmsNBb|9010=Y|9011=Y|10=060|8=FIX.4.4|9=213|35=A|34=49|49=Jeff7|52=20230918-11:49:06.088338|56=BfxComp|98=0|108=30|141=N|341=20230918-08:00:00.000|553=ileMZ7r7aA9dg1f0qZ2KzFnJl010FZ9LX0JERBKs5D7|554=XgorEH1OJblVE4bs3iu8hdiWaMsCoeD39wjskZmsNBb|9010=Y|9011=Y|10=065|8=FIX.4.4|9=213|35=A|34=50|49=Jeff7|52=20230918-11:49:08.047233|56=BfxComp|98=0|108=30|141=N|341=20230918-08:00:00.000|553=ileMZ7r7aA9dg1f0qZ2KzFnJl010FZ9LX0JERBKs5D7|554=XgorEH1OJblVE4bs3iu8hdiWaMsCoeD39wjskZmsNBb|9010=Y|9011=Y|10=048|8=FIX.4.4|9=213|35=A|34=51|49=Jeff7|52=20230918-11:49:10.155232|56=BfxComp|98=0|108=30|141=N|341=20230918-08:00:00.000|553=ileMZ7r7aA9dg1f0qZ2KzFnJl010FZ9LX0JERBKs5D7|554=XgorEH1OJblVE4bs3iu8hdiWaMsCoeD39wjskZmsNBb|9010=Y|9011=Y|10=041|8=FIX.4.4|9=213|35=A|34=52|49=Jeff7|52=20230918-11:49:12.120943|56=BfxComp|98=0|108=30|141=N|341=20230918-08:00:00.000|553=ileMZ7r7aA9dg1f0qZ2KzFnJl010FZ9LX0JERBKs5D7|554=XgorEH1OJblVE4bs3iu8hdiWaMsCoeD39wjskZmsNBb|9010=Y|9011=Y|10=045|8=FIX.4.4|9=213|35=A|34=53|49=Jeff7|52=20230918-11:49:14.103863|56=BfxComp|98=0|108=30|141=N|341=20230918-08:00:00.000|553=ileMZ7r7aA9dg1f0qZ2KzFnJl010FZ9LX0JERBKs5D7|554=XgorEH1OJblVE4bs3iu8hdiWaMsCoeD39wjskZmsNBb|9010=Y|9011=Y|10=050|8=FIX.4.4|9=213|35=A|34=54|49=Jeff7|52=20230918-11:49:16.178664|56=BfxComp|98=0|108=30|141=N|341=20230918-08:00:00.000|553=ileMZ7r7aA9dg1f0qZ2KzFnJl010FZ9LX0JERBKs5D7|554=XgorEH1OJblVE4bs3iu8hdiWaMsCoeD39wjskZmsNBb|9010=Y|9011=Y|10=064|8=FIX.4.4|9=213|35=A|34=55|49=Jeff7|52=20230918-11:49:18.137578|56=BfxComp|98=0|108=30|141=N|341=20230918-08:00:00.000|553=ileMZ7r7aA9dg1f0qZ2KzFnJl010FZ9LX0JERBKs5D7|554=XgorEH1OJblVE4bs3iu8hdiWaMsCoeD39wjskZmsNBb|9010=Y|9011=Y|10=066|8=FIX.4.4|9=213|35=A|34=56|49=Jeff7|52=20230918-11:49:20.081159|56=BfxComp|98=0|108=30|141=N|341=20230918-08:00:00.000|553=ileMZ7r7aA9dg1f0qZ2KzFnJl010FZ9LX0JERBKs5D7|554=XgorEH1OJblVE4bs3iu8hdiWaMsCoeD39wjskZmsNBb|9010=Y|9011=Y|10=053|8=FIX.4.4|9=213|35=A|34=57|49=Jeff7|52=20230918-11:49:22.022277|56=BfxComp|98=0|108=30|141=N|341=20230918-08:00:00.000|553=ileMZ7r7aA9dg1f0qZ2KzFnJl010FZ9LX0JERBKs5D7|554=XgorEH1OJblVE4bs3iu8hdiWaMsCoeD39wjskZmsNBb|9010=Y|9011=Y|10=052|8=FIX.4.4|9=213|35=A|34=58|49=Jeff7|52=20230918-11:49:24.931766|56=BfxComp|98=0|108=30|141=N|341=20230918-08:00:00.000|553=ileMZ7r7aA9dg1f0qZ2KzFnJl010FZ9LX0JERBKs5D7|554=XgorEH1OJblVE4bs3iu8hdiWaMsCoeD39wjskZmsNBb|9010=Y|9011=Y|10=067|8=FIX.4.4|9=213|35=A|34=59|49=Jeff7|52=20230918-11:49:26.877961|56=BfxComp|98=0|108=30|141=N|341=20230918-08:00:00.000|553=ileMZ7r7aA9dg1f0qZ2KzFnJl010FZ9LX0JERBKs5D7|554=XgorEH1OJblVE4bs3iu8hdiWaMsCoeD39wjskZmsNBb|9010=Y|9011=Y|10=076|8=FIX.4.4|9=213|35=A|34=60|49=Jeff7|52=20230918-11:49:28.824258|56=BfxComp|98=0|108=30|141=N|341=20230918-08:00:00.000|553=ileMZ7r7aA9dg1f0qZ2KzFnJl010FZ9LX0JERBKs5D7|554=XgorEH1OJblVE4bs3iu8hdiWaMsCoeD39wjskZmsNBb|9010=Y|9011=Y|10=061|8=FIX.4.4|9=213|35=A|34=61|49=Jeff7|52=20230918-11:49:30.783171|56=BfxComp|98=0|108=30|141=N|341=20230918-08:00:00.000|553=ileMZ7r7aA9dg1f0qZ2KzFnJl010FZ9LX0JERBKs5D7|554=XgorEH1OJblVE4bs3iu8hdiWaMsCoeD39wjskZmsNBb|9010=Y|9011=Y|10=053|8=FIX.4.4|9=213|35=A|34=62|49=Jeff7|52=20230918-11:49:32.744274|56=BfxComp|98=0|108=30|141=N|341=20230918-08:00:00.000|553=ileMZ7r7aA9dg1f0qZ2KzFnJl010FZ9LX0JERBKs5D7|554=XgorEH1OJblVE4bs3iu8hdiWaMsCoeD39wjskZmsNBb|9010=Y|9011=Y|10=057|8=FIX.4.4|9=213|35=A|34=63|49=Jeff7|52=20230918-11:49:34.698928|56=BfxComp|98=0|108=30|141=N|341=20230918-08:00:00.000|553=ileMZ7r7aA9dg1f0qZ2KzFnJl010FZ9LX0JERBKs5D7|554=XgorEH1OJblVE4bs3iu8hdiWaMsCoeD39wjskZmsNBb|9010=Y|9011=Y|10=074|8=FIX.4.4|9=213|35=A|34=64|49=Jeff7|52=20230918-11:49:36.626945|56=BfxComp|98=0|108=30|141=N|341=20230918-08:00:00.000|553=ileMZ7r7aA9dg1f0qZ2KzFnJl010FZ9LX0JERBKs5D7|554=XgorEH1OJblVE4bs3iu8hdiWaMsCoeD39wjskZmsNBb|9010=Y|9011=Y|10=067|8=FIX.4.4|9=213|35=A|34=65|49=Jeff7|52=20230918-11:49:38.554509|56=BfxComp|98=0|108=30|141=N|341=20230918-08:00:00.000|553=ileMZ7r7aA9dg1f0qZ2KzFnJl010FZ9LX0JERBKs5D7|554=XgorEH1OJblVE4bs3iu8hdiWaMsCoeD39wjskZmsNBb|9010=Y|9011=Y|10=066|8=FIX.4.4|9=213|35=A|34=66|49=Jeff7|52=20230918-11:49:40.478891|56=BfxComp|98=0|108=30|141=N|341=20230918-08:00:00.000|553=ileMZ7r7aA9dg1f0qZ2KzFnJl010FZ9LX0JERBKs5D7|554=XgorEH1OJblVE4bs3iu8hdiWaMsCoeD39wjskZmsNBb|9010=Y|9011=Y|10=069|8=FIX.4.4|9=213|35=A|34=67|49=Jeff7|52=20230918-11:49:42.403215|56=BfxComp|98=0|108=30|141=N|341=20230918-08:00:00.000|553=ileMZ7r7aA9dg1f0qZ2KzFnJl010FZ9LX0JERBKs5D7|554=XgorEH1OJblVE4bs3iu8hdiWaMsCoeD39wjskZmsNBb|9010=Y|9011=Y|10=050|8=FIX.4.4|9=213|35=A|34=68|49=Jeff7|52=20230918-11:49:44.328460|56=BfxComp|98=0|108=30|141=N|341=20230918-08:00:00.000|553=ileMZ7r7aA9dg1f0qZ2KzFnJl010FZ9LX0JERBKs5D7|554=XgorEH1OJblVE4bs3iu8hdiWaMsCoeD39wjskZmsNBb|9010=Y|9011=Y|10=061|8=FIX.4.4|9=213|35=A|34=69|49=Jeff7|52=20230918-11:49:46.254121|56=BfxComp|98=0|108=30|141=N|341=20230918-08:00:00.000|553=ileMZ7r7aA9dg1f0qZ2KzFnJl010FZ9LX0JERBKs5D7|554=XgorEH1OJblVE4bs3iu8hdiWaMsCoeD39wjskZmsNBb|9010=Y|9011=Y|10=056|8=FIX.4.4|9=213|35=A|34=70|49=Jeff7|52=20230918-11:49:48.174477|56=BfxComp|98=0|108=30|141=N|341=20230918-08:00:00.000|553=ileMZ7r7aA9dg1f0qZ2KzFnJl010FZ9LX0JERBKs5D7|554=XgorEH1OJblVE4bs3iu8hdiWaMsCoeD39wjskZmsNBb|9010=Y|9011=Y|10=065|8=FIX.4.4|9=213|35=A|34=71|49=Jeff7|52=20230918-11:49:50.098032|56=BfxComp|98=0|108=30|141=N|341=20230918-08:00:00.000|553=ileMZ7r7aA9dg1f0qZ2KzFnJl010FZ9LX0JERBKs5D7|554=XgorEH1OJblVE4bs3iu8hdiWaMsCoeD39wjskZmsNBb|9010=Y|9011=Y|10=051|8=FIX.4.4|9=213|35=A|34=72|49=Jeff7|52=20230918-11:49:52.039464|56=BfxComp|98=0|108=30|141=N|341=20230918-08:00:00.000|553=ileMZ7r7aA9dg1f0qZ2KzFnJl010FZ9LX0JERBKs5D7|554=XgorEH1OJblVE4bs3iu8hdiWaMsCoeD39wjskZmsNBb|9010=Y|9011=Y|10=058|8=FIX.4.4|9=213|35=A|34=73|49=Jeff7|52=20230918-11:49:54.941955|56=BfxComp|98=0|108=30|141=N|341=20230918-08:00:00.000|553=ileMZ7r7aA9dg1f0qZ2KzFnJl010FZ9LX0JERBKs5D7|554=XgorEH1OJblVE4bs3iu8hdiWaMsCoeD39wjskZmsNBb|9010=Y|9011=Y|10=068|8=FIX.4.4|9=213|35=A|34=74|49=Jeff7|52=20230918-11:49:56.875070|56=BfxComp|98=0|108=30|141=N|341=20230918-08:00:00.000|553=ileMZ7r7aA9dg1f0qZ2KzFnJl010FZ9LX0JERBKs5D7|554=XgorEH1OJblVE4bs3iu8hdiWaMsCoeD39wjskZmsNBb|9010=Y|9011=Y|10=065|8=FIX.4.4|9=213|35=A|34=75|49=Jeff7|52=20230918-11:49:58.800283|56=BfxComp|98=0|108=30|141=N|341=20230918-08:00:00.000|553=ileMZ7r7aA9dg1f0qZ2KzFnJl010FZ9LX0JERBKs5D7|554=XgorEH1OJblVE4bs3iu8hdiWaMsCoeD39wjskZmsNBb|9010=Y|9011=Y|10=062|8=FIX.4.4|9=213|35=A|34=76|49=Jeff7|52=20230918-11:50:00.756969|56=BfxComp|98=0|108=30|141=N|341=20230918-08:00:00.000|553=ileMZ7r7aA9dg1f0qZ2KzFnJl010FZ9LX0JERBKs5D7|554=XgorEH1OJblVE4bs3iu8hdiWaMsCoeD39wjskZmsNBb|9010=Y|9011=Y|10=063|8=FIX.4.4|9=213|35=A|34=77|49=Jeff7|52=20230918-11:50:02.661872|56=BfxComp|98=0|108=30|141=N|341=20230918-08:00:00.000|553=ileMZ7r7aA9dg1f0qZ2KzFnJl010FZ9LX0JERBKs5D7|554=XgorEH1OJblVE4bs3iu8hdiWaMsCoeD39wjskZmsNBb|9010=Y|9011=Y|10=054|8=FIX.4.4|9=213|35=A|34=78|49=Jeff7|52=20230918-11:50:04.566517|56=BfxComp|98=0|108=30|141=N|341=20230918-08:00:00.000|553=ileMZ7r7aA9dg1f0qZ2KzFnJl010FZ9LX0JERBKs5D7|554=XgorEH1OJblVE4bs3iu8hdiWaMsCoeD39wjskZmsNBb|9010=Y|9011=Y|10=057|8=FIX.4.4|9=213|35=A|34=79|49=Jeff7|52=20230918-11:50:06.466175|56=BfxComp|98=0|108=30|141=N|341=20230918-08:00:00.000|553=ileMZ7r7aA9dg1f0qZ2KzFnJl010FZ9LX0JERBKs5D7|554=XgorEH1OJblVE4bs3iu8hdiWaMsCoeD39wjskZmsNBb|9010=Y|9011=Y|10=059|8=FIX.4.4|9=213|35=A|34=80|49=Jeff7|52=20230918-11:50:08.371594|56=BfxComp|98=0|108=30|141=N|341=20230918-08:00:00.000|553=ileMZ7r7aA9dg1f0qZ2KzFnJl010FZ9LX0JERBKs5D7|554=XgorEH1OJblVE4bs3iu8hdiWaMsCoeD39wjskZmsNBb|9010=Y|9011=Y|10=053|8=FIX.4.4|9=213|35=A|34=81|49=Jeff7|52=20230918-11:50:10.269688|56=BfxComp|98=0|108=30|141=N|341=20230918-08:00:00.000|553=ileMZ7r7aA9dg1f0qZ2KzFnJl010FZ9LX0JERBKs5D7|554=XgorEH1OJblVE4bs3iu8hdiWaMsCoeD39wjskZmsNBb|9010=Y|9011=Y|10=057|8=FIX.4.4|9=213|35=A|34=82|49=Jeff7|52=20230918-11:50:12.164578|56=BfxComp|98=0|108=30|141=N|341=20230918-08:00:00.000|553=ileMZ7r7aA9dg1f0qZ2KzFnJl010FZ9LX0JERBKs5D7|554=XgorEH1OJblVE4bs3iu8hdiWaMsCoeD39wjskZmsNBb|9010=Y|9011=Y|10=052|8=FIX.4.4|9=213|35=A|34=83|49=Jeff7|52=20230918-11:50:14.059976|56=BfxComp|98=0|108=30|141=N|341=20230918-08:00:00.000|553=ileMZ7r7aA9dg1f0qZ2KzFnJl010FZ9LX0JERBKs5D7|554=XgorEH1OJblVE4bs3iu8hdiWaMsCoeD39wjskZmsNBb|9010=Y|9011=Y|10=060|8=FIX.4.4|9=213|35=A|34=84|49=Jeff7|52=20230918-11:50:16.898104|56=BfxComp|98=0|108=30|141=N|341=20230918-08:00:00.000|553=ileMZ7r7aA9dg1f0qZ2KzFnJl010FZ9LX0JERBKs5D7|554=XgorEH1OJblVE4bs3iu8hdiWaMsCoeD39wjskZmsNBb|9010=Y|9011=Y|10=057|8=FIX.4.4|9=213|35=A|34=85|49=Jeff7|52=20230918-11:50:18.787293|56=BfxComp|98=0|108=30|141=N|341=20230918-08:00:00.000|553=ileMZ7r7aA9dg1f0qZ2KzFnJl010FZ9LX0JERBKs5D7|554=XgorEH1OJblVE4bs3iu8hdiWaMsCoeD39wjskZmsNBb|9010=Y|9011=Y|10=066|8=FIX.4.4|9=213|35=A|34=86|49=Jeff7|52=20230918-11:50:20.682525|56=BfxComp|98=0|108=30|141=N|341=20230918-08:00:00.000|553=ileMZ7r7aA9dg1f0qZ2KzFnJl010FZ9LX0JERBKs5D7|554=XgorEH1OJblVE4bs3iu8hdiWaMsCoeD39wjskZmsNBb|9010=Y|9011=Y|10=052|8=FIX.4.4|9=213|35=A|34=87|49=Jeff7|52=20230918-11:50:22.586673|56=BfxComp|98=0|108=30|141=N|341=20230918-08:00:00.000|553=ileMZ7r7aA9dg1f0qZ2KzFnJl010FZ9LX0JERBKs5D7|554=XgorEH1OJblVE4bs3iu8hdiWaMsCoeD39wjskZmsNBb|9010=Y|9011=Y|10=062|8=FIX.4.4|9=213|35=A|34=88|49=Jeff7|52=20230918-11:50:24.473646|56=BfxComp|98=0|108=30|141=N|341=20230918-08:00:00.000|553=ileMZ7r7aA9dg1f0qZ2KzFnJl010FZ9LX0JERBKs5D7|554=XgorEH1OJblVE4bs3iu8hdiWaMsCoeD39wjskZmsNBb|9010=Y|9011=Y|10=060|8=FIX.4.4|9=213|35=A|34=89|49=Jeff7|52=20230918-11:50:26.384475|56=BfxComp|98=0|108=30|141=N|341=20230918-08:00:00.000|553=ileMZ7r7aA9dg1f0qZ2KzFnJl010FZ9LX0JERBKs5D7|554=XgorEH1OJblVE4bs3iu8hdiWaMsCoeD39wjskZmsNBb|9010=Y|9011=Y|10=064|8=FIX.4.4|9=213|35=A|34=90|49=Jeff7|52=20230918-11:50:28.273105|56=BfxComp|98=0|108=30|141=N|341=20230918-08:00:00.000|553=ileMZ7r7aA9dg1f0qZ2KzFnJl010FZ9LX0JERBKs5D7|554=XgorEH1OJblVE4bs3iu8hdiWaMsCoeD39wjskZmsNBb|9010=Y|9011=Y|10=045|8=FIX.4.4|9=213|35=A|34=91|49=Jeff7|52=20230918-11:50:30.158887|56=BfxComp|98=0|108=30|141=N|341=20230918-08:00:00.000|553=ileMZ7r7aA9dg1f0qZ2KzFnJl010FZ9LX0JERBKs5D7|554=XgorEH1OJblVE4bs3iu8hdiWaMsCoeD39wjskZmsNBb|9010=Y|9011=Y|10=058|8=FIX.4.4|9=213|35=A|34=92|49=Jeff7|52=20230918-11:50:32.036519|56=BfxComp|98=0|108=30|141=N|341=20230918-08:00:00.000|553=ileMZ7r7aA9dg1f0qZ2KzFnJl010FZ9LX0JERBKs5D7|554=XgorEH1OJblVE4bs3iu8hdiWaMsCoeD39wjskZmsNBb|9010=Y|9011=Y|10=048|8=FIX.4.4|9=213|35=A|34=93|49=Jeff7|52=20230918-11:50:34.852178|56=BfxComp|98=0|108=30|141=N|341=20230918-08:00:00.000|553=ileMZ7r7aA9dg1f0qZ2KzFnJl010FZ9LX0JERBKs5D7|554=XgorEH1OJblVE4bs3iu8hdiWaMsCoeD39wjskZmsNBb|9010=Y|9011=Y|10=058|8=FIX.4.4|9=213|35=A|34=94|49=Jeff7|52=20230918-11:50:36.726708|56=BfxComp|98=0|108=30|141=N|341=20230918-08:00:00.000|553=ileMZ7r7aA9dg1f0qZ2KzFnJl010FZ9LX0JERBKs5D7|554=XgorEH1OJblVE4bs3iu8hdiWaMsCoeD39wjskZmsNBb|9010=Y|9011=Y|10=060|8=FIX.4.4|9=213|35=A|34=95|49=Jeff7|52=20230918-11:50:38.615539|56=BfxComp|98=0|108=30|141=N|341=20230918-08:00:00.000|553=ileMZ7r7aA9dg1f0qZ2KzFnJl010FZ9LX0JERBKs5D7|554=XgorEH1OJblVE4bs3iu8hdiWaMsCoeD39wjskZmsNBb|9010=Y|9011=Y|10=062|8=FIX.4.4|9=213|35=A|34=96|49=Jeff7|52=20230918-11:50:40.499176|56=BfxComp|98=0|108=30|141=N|341=20230918-08:00:00.000|553=ileMZ7r7aA9dg1f0qZ2KzFnJl010FZ9LX0JERBKs5D7|554=XgorEH1OJblVE4bs3iu8hdiWaMsCoeD39wjskZmsNBb|9010=Y|9011=Y|10=063|8=FIX.4.4|9=213|35=A|34=97|49=Jeff7|52=20230918-11:50:42.379222|56=BfxComp|98=0|108=30|141=N|341=20230918-08:00:00.000|553=ileMZ7r7aA9dg1f0qZ2KzFnJl010FZ9LX0JERBKs5D7|554=XgorEH1OJblVE4bs3iu8hdiWaMsCoeD39wjskZmsNBb|9010=Y|9011=Y|10=055|8=FIX.4.4|9=213|35=A|34=98|49=Jeff7|52=20230918-11:50:44.360659|56=BfxComp|98=0|108=30|141=N|341=20230918-08:00:00.000|553=ileMZ7r7aA9dg1f0qZ2KzFnJl010FZ9LX0JERBKs5D7|554=XgorEH1OJblVE4bs3iu8hdiWaMsCoeD39wjskZmsNBb|9010=Y|9011=Y|10=062|8=FIX.4.4|9=213|35=A|34=99|49=Jeff7|52=20230918-11:50:46.258797|56=BfxComp|98=0|108=30|141=N|341=20230918-08:00:00.000|553=ileMZ7r7aA9dg1f0qZ2KzFnJl010FZ9LX0JERBKs5D7|554=XgorEH1OJblVE4bs3iu8hdiWaMsCoeD39wjskZmsNBb|9010=Y|9011=Y|10=074|8=FIX.4.4|9=214|35=A|34=100|49=Jeff7|52=20230918-11:50:48.122111|56=BfxComp|98=0|108=30|141=N|341=20230918-08:00:00.000|553=ileMZ7r7aA9dg1f0qZ2KzFnJl010FZ9LX0JERBKs5D7|554=XgorEH1OJblVE4bs3iu8hdiWaMsCoeD39wjskZmsNBb|9010=Y|9011=Y|10=078|8=FIX.4.4|9=214|35=A|34=101|49=Jeff7|52=20230918-11:50:50.915428|56=BfxComp|98=0|108=30|141=N|341=20230918-08:00:00.000|553=ileMZ7r7aA9dg1f0qZ2KzFnJl010FZ9LX0JERBKs5D7|554=XgorEH1OJblVE4bs3iu8hdiWaMsCoeD39wjskZmsNBb|9010=Y|9011=Y|10=093|8=FIX.4.4|9=214|35=A|34=102|49=Jeff7|52=20230918-11:50:52.778322|56=BfxComp|98=0|108=30|141=N|341=20230918-08:00:00.000|553=ileMZ7r7aA9dg1f0qZ2KzFnJl010FZ9LX0JERBKs5D7|554=XgorEH1OJblVE4bs3iu8hdiWaMsCoeD39wjskZmsNBb|9010=Y|9011=Y|10=096|8=FIX.4.4|9=214|35=A|34=103|49=Jeff7|52=20230918-11:50:54.637242|56=BfxComp|98=0|108=30|141=N|341=20230918-08:00:00.000|553=ileMZ7r7aA9dg1f0qZ2KzFnJl010FZ9LX0JERBKs5D7|554=XgorEH1OJblVE4bs3iu8hdiWaMsCoeD39wjskZmsNBb|9010=Y|9011=Y|10=094|8=FIX.4.4|9=214|35=A|34=104|49=Jeff7|52=20230918-11:50:56.501805|56=BfxComp|98=0|108=30|141=N|341=20230918-08:00:00.000|553=ileMZ7r7aA9dg1f0qZ2KzFnJl010FZ9LX0JERBKs5D7|554=XgorEH1OJblVE4bs3iu8hdiWaMsCoeD39wjskZmsNBb|9010=Y|9011=Y|10=092|8=FIX.4.4|9=214|35=A|34=105|49=Jeff7|52=20230918-11:50:58.354442|56=BfxComp|98=0|108=30|141=N|341=20230918-08:00:00.000|553=ileMZ7r7aA9dg1f0qZ2KzFnJl010FZ9LX0JERBKs5D7|554=XgorEH1OJblVE4bs3iu8hdiWaMsCoeD39wjskZmsNBb|9010=Y|9011=Y|10=098|8=FIX.4.4|9=214|35=A|34=106|49=Jeff7|52=20230918-11:51:00.202921|56=BfxComp|98=0|108=30|141=N|341=20230918-08:00:00.000|553=ileMZ7r7aA9dg1f0qZ2KzFnJl010FZ9LX0JERBKs5D7|554=XgorEH1OJblVE4bs3iu8hdiWaMsCoeD39wjskZmsNBb|9010=Y|9011=Y|10=081|8=FIX.4.4|9=214|35=A|34=107|49=Jeff7|52=20230918-11:51:02.091517|56=BfxComp|98=0|108=30|141=N|341=20230918-08:00:00.000|553=ileMZ7r7aA9dg1f0qZ2KzFnJl010FZ9LX0JERBKs5D7|554=XgorEH1OJblVE4bs3iu8hdiWaMsCoeD39wjskZmsNBb|9010=Y|9011=Y|10=091|8=FIX.4.4|9=214|35=A|34=108|49=Jeff7|52=20230918-11:51:04.019172|56=BfxComp|98=0|108=30|141=N|341=20230918-08:00:00.000|553=ileMZ7r7aA9dg1f0qZ2KzFnJl010FZ9LX0JERBKs5D7|554=XgorEH1OJblVE4bs3iu8hdiWaMsCoeD39wjskZmsNBb|9010=Y|9011=Y|10=091|8=FIX.4.4|9=214|35=A|34=109|49=Jeff7|52=20230918-11:51:06.787763|56=BfxComp|98=0|108=30|141=N|341=20230918-08:00:00.000|553=ileMZ7r7aA9dg1f0qZ2KzFnJl010FZ9LX0JERBKs5D7|554=XgorEH1OJblVE4bs3iu8hdiWaMsCoeD39wjskZmsNBb|9010=Y|9011=Y|10=112|8=FIX.4.4|9=214|35=A|34=110|49=Jeff7|52=20230918-11:51:08.719962|56=BfxComp|98=0|108=30|141=N|341=20230918-08:00:00.000|553=ileMZ7r7aA9dg1f0qZ2KzFnJl010FZ9LX0JERBKs5D7|554=XgorEH1OJblVE4bs3iu8hdiWaMsCoeD39wjskZmsNBb|9010=Y|9011=Y|10=102|8=FIX.4.4|9=214|35=A|34=111|49=Jeff7|52=20230918-11:51:10.641244|56=BfxComp|98=0|108=30|141=N|341=20230918-08:00:00.000|553=ileMZ7r7aA9dg1f0qZ2KzFnJl010FZ9LX0JERBKs5D7|554=XgorEH1OJblVE4bs3iu8hdiWaMsCoeD39wjskZmsNBb|9010=Y|9011=Y|10=083|8=FIX.4.4|9=214|35=A|34=112|49=Jeff7|52=20230918-11:51:12.477436|56=BfxComp|98=0|108=30|141=N|341=20230918-08:00:00.000|553=ileMZ7r7aA9dg1f0qZ2KzFnJl010FZ9LX0JERBKs5D7|554=XgorEH1OJblVE4bs3iu8hdiWaMsCoeD39wjskZmsNBb|9010=Y|9011=Y|10=096|8=FIX.4.4|9=214|35=A|34=113|49=Jeff7|52=20230918-11:51:14.317202|56=BfxComp|98=0|108=30|141=N|341=20230918-08:00:00.000|553=ileMZ7r7aA9dg1f0qZ2KzFnJl010FZ9LX0JERBKs5D7|554=XgorEH1OJblVE4bs3iu8hdiWaMsCoeD39wjskZmsNBb|9010=Y|9011=Y|10=083|8=FIX.4.4|9=214|35=A|34=114|49=Jeff7|52=20230918-11:51:16.318005|56=BfxComp|98=0|108=30|141=N|341=20230918-08:00:00.000|553=ileMZ7r7aA9dg1f0qZ2KzFnJl010FZ9LX0JERBKs5D7|554=XgorEH1OJblVE4bs3iu8hdiWaMsCoeD39wjskZmsNBb|9010=Y|9011=Y|10=088|8=FIX.4.4|9=214|35=A|34=115|49=Jeff7|52=20230918-11:51:18.149586|56=BfxComp|98=0|108=30|141=N|341=20230918-08:00:00.000|553=ileMZ7r7aA9dg1f0qZ2KzFnJl010FZ9LX0JERBKs5D7|554=XgorEH1OJblVE4bs3iu8hdiWaMsCoeD39wjskZmsNBb|9010=Y|9011=Y|10=107|8=FIX.4.4|9=214|35=A|34=116|49=Jeff7|52=20230918-11:51:20.893381|56=BfxComp|98=0|108=30|141=N|341=20230918-08:00:00.000|553=ileMZ7r7aA9dg1f0qZ2KzFnJl010FZ9LX0JERBKs5D7|554=XgorEH1OJblVE4bs3iu8hdiWaMsCoeD39wjskZmsNBb|9010=Y|9011=Y|10=100|8=FIX.4.4|9=214|35=A|34=117|49=Jeff7|52=20230918-11:51:22.789898|56=BfxComp|98=0|108=30|141=N|341=20230918-08:00:00.000|553=ileMZ7r7aA9dg1f0qZ2KzFnJl010FZ9LX0JERBKs5D7|554=XgorEH1OJblVE4bs3iu8hdiWaMsCoeD39wjskZmsNBb|9010=Y|9011=Y|10=120|8=FIX.4.4|9=214|35=A|34=118|49=Jeff7|52=20230918-11:51:24.617915|56=BfxComp|98=0|108=30|141=N|341=20230918-08:00:00.000|553=ileMZ7r7aA9dg1f0qZ2KzFnJl010FZ9LX0JERBKs5D7|554=XgorEH1OJblVE4bs3iu8hdiWaMsCoeD39wjskZmsNBb|9010=Y|9011=Y|10=103|8=FIX.4.4|9=214|35=A|34=119|49=Jeff7|52=20230918-11:51:26.455127|56=BfxComp|98=0|108=30|141=N|341=20230918-08:00:00.000|553=ileMZ7r7aA9dg1f0qZ2KzFnJl010FZ9LX0JERBKs5D7|554=XgorEH1OJblVE4bs3iu8hdiWaMsCoeD39wjskZmsNBb|9010=Y|9011=Y|10=101|8=FIX.4.4|9=214|35=A|34=120|49=Jeff7|52=20230918-11:51:28.296541|56=BfxComp|98=0|108=30|141=N|341=20230918-08:00:00.000|553=ileMZ7r7aA9dg1f0qZ2KzFnJl010FZ9LX0JERBKs5D7|554=XgorEH1OJblVE4bs3iu8hdiWaMsCoeD39wjskZmsNBb|9010=Y|9011=Y|10=098|8=FIX.4.4|9=214|35=A|34=121|49=Jeff7|52=20230918-11:51:30.113666|56=BfxComp|98=0|108=30|141=N|341=20230918-08:00:00.000|553=ileMZ7r7aA9dg1f0qZ2KzFnJl010FZ9LX0JERBKs5D7|554=XgorEH1OJblVE4bs3iu8hdiWaMsCoeD39wjskZmsNBb|9010=Y|9011=Y|10=088|8=FIX.4.4|9=214|35=A|34=122|49=Jeff7|52=20230918-11:51:32.050485|56=BfxComp|98=0|108=30|141=N|341=20230918-08:00:00.000|553=ileMZ7r7aA9dg1f0qZ2KzFnJl010FZ9LX0JERBKs5D7|554=XgorEH1OJblVE4bs3iu8hdiWaMsCoeD39wjskZmsNBb|9010=Y|9011=Y|10=090|8=FIX.4.4|9=214|35=A|34=123|49=Jeff7|52=20230918-11:51:34.887653|56=BfxComp|98=0|108=30|141=N|341=20230918-08:00:00.000|553=ileMZ7r7aA9dg1f0qZ2KzFnJl010FZ9LX0JERBKs5D7|554=XgorEH1OJblVE4bs3iu8hdiWaMsCoeD39wjskZmsNBb|9010=Y|9011=Y|10=108|8=FIX.4.4|9=214|35=A|34=124|49=Jeff7|52=20230918-11:51:36.704826|56=BfxComp|98=0|108=30|141=N|341=20230918-08:00:00.000|553=ileMZ7r7aA9dg1f0qZ2KzFnJl010FZ9LX0JERBKs5D7|554=XgorEH1OJblVE4bs3iu8hdiWaMsCoeD39wjskZmsNBb|9010=Y|9011=Y|10=101|8=FIX.4.4|9=214|35=A|34=125|49=Jeff7|52=20230918-11:51:38.523005|56=BfxComp|98=0|108=30|141=N|341=20230918-08:00:00.000|553=ileMZ7r7aA9dg1f0qZ2KzFnJl010FZ9LX0JERBKs5D7|554=XgorEH1OJblVE4bs3iu8hdiWaMsCoeD39wjskZmsNBb|9010=Y|9011=Y|10=092|8=FIX.4.4|9=214|35=A|34=126|49=Jeff7|52=20230918-11:51:40.388844|56=BfxComp|98=0|108=30|141=N|341=20230918-08:00:00.000|553=ileMZ7r7aA9dg1f0qZ2KzFnJl010FZ9LX0JERBKs5D7|554=XgorEH1OJblVE4bs3iu8hdiWaMsCoeD39wjskZmsNBb|9010=Y|9011=Y|10=106|8=FIX.4.4|9=214|35=A|34=127|49=Jeff7|52=20230918-11:51:42.202642|56=BfxComp|98=0|108=30|141=N|341=20230918-08:00:00.000|553=ileMZ7r7aA9dg1f0qZ2KzFnJl010FZ9LX0JERBKs5D7|554=XgorEH1OJblVE4bs3iu8hdiWaMsCoeD39wjskZmsNBb|9010=Y|9011=Y|10=090|8=FIX.4.4|9=214|35=A|34=128|49=Jeff7|52=20230918-11:51:44.163013|56=BfxComp|98=0|108=30|141=N|341=20230918-08:00:00.000|553=ileMZ7r7aA9dg1f0qZ2KzFnJl010FZ9LX0JERBKs5D7|554=XgorEH1OJblVE4bs3iu8hdiWaMsCoeD39wjskZmsNBb|9010=Y|9011=Y|10=091|8=FIX.4.4|9=214|35=A|34=129|49=Jeff7|52=20230918-11:51:46.895876|56=BfxComp|98=0|108=30|141=N|341=20230918-08:00:00.000|553=ileMZ7r7aA9dg1f0qZ2KzFnJl010FZ9LX0JERBKs5D7|554=XgorEH1OJblVE4bs3iu8hdiWaMsCoeD39wjskZmsNBb|9010=Y|9011=Y|10=123|8=FIX.4.4|9=214|35=A|34=130|49=Jeff7|52=20230918-11:51:48.700778|56=BfxComp|98=0|108=30|141=N|341=20230918-08:00:00.000|553=ileMZ7r7aA9dg1f0qZ2KzFnJl010FZ9LX0JERBKs5D7|554=XgorEH1OJblVE4bs3iu8hdiWaMsCoeD39wjskZmsNBb|9010=Y|9011=Y|10=103|8=FIX.4.4|9=214|35=A|34=131|49=Jeff7|52=20230918-11:51:50.502642|56=BfxComp|98=0|108=30|141=N|341=20230918-08:00:00.000|553=ileMZ7r7aA9dg1f0qZ2KzFnJl010FZ9LX0JERBKs5D7|554=XgorEH1OJblVE4bs3iu8hdiWaMsCoeD39wjskZmsNBb|9010=Y|9011=Y|10=087|8=FIX.4.4|9=214|35=A|34=132|49=Jeff7|52=20230918-11:51:52.314669|56=BfxComp|98=0|108=30|141=N|341=20230918-08:00:00.000|553=ileMZ7r7aA9dg1f0qZ2KzFnJl010FZ9LX0JERBKs5D7|554=XgorEH1OJblVE4bs3iu8hdiWaMsCoeD39wjskZmsNBb|9010=Y|9011=Y|10=100|8=FIX.4.4|9=214|35=A|34=133|49=Jeff7|52=20230918-11:51:54.114956|56=BfxComp|98=0|108=30|141=N|341=20230918-08:00:00.000|553=ileMZ7r7aA9dg1f0qZ2KzFnJl010FZ9LX0JERBKs5D7|554=XgorEH1OJblVE4bs3iu8hdiWaMsCoeD39wjskZmsNBb|9010=Y|9011=Y|10=100|8=FIX.4.4|9=214|35=A|34=134|49=Jeff7|52=20230918-11:51:56.901844|56=BfxComp|98=0|108=30|141=N|341=20230918-08:00:00.000|553=ileMZ7r7aA9dg1f0qZ2KzFnJl010FZ9LX0JERBKs5D7|554=XgorEH1OJblVE4bs3iu8hdiWaMsCoeD39wjskZmsNBb|9010=Y|9011=Y|10=103|8=FIX.4.4|9=214|35=A|34=135|49=Jeff7|52=20230918-11:51:58.698350|56=BfxComp|98=0|108=30|141=N|341=20230918-08:00:00.000|553=ileMZ7r7aA9dg1f0qZ2KzFnJl010FZ9LX0JERBKs5D7|554=XgorEH1OJblVE4bs3iu8hdiWaMsCoeD39wjskZmsNBb|9010=Y|9011=Y|10=111|8=FIX.4.4|9=214|35=A|34=136|49=Jeff7|52=20230918-11:52:00.491881|56=BfxComp|98=0|108=30|141=N|341=20230918-08:00:00.000|553=ileMZ7r7aA9dg1f0qZ2KzFnJl010FZ9LX0JERBKs5D7|554=XgorEH1OJblVE4bs3iu8hdiWaMsCoeD39wjskZmsNBb|9010=Y|9011=Y|10=100|8=FIX.4.4|9=214|35=A|34=137|49=Jeff7|52=20230918-11:52:02.290666|56=BfxComp|98=0|108=30|141=N|341=20230918-08:00:00.000|553=ileMZ7r7aA9dg1f0qZ2KzFnJl010FZ9LX0JERBKs5D7|554=XgorEH1OJblVE4bs3iu8hdiWaMsCoeD39wjskZmsNBb|9010=Y|9011=Y|10=101|8=FIX.4.4|9=214|35=A|34=138|49=Jeff7|52=20230918-11:52:04.081018|56=BfxComp|98=0|108=30|141=N|341=20230918-08:00:00.000|553=ileMZ7r7aA9dg1f0qZ2KzFnJl010FZ9LX0JERBKs5D7|554=XgorEH1OJblVE4bs3iu8hdiWaMsCoeD39wjskZmsNBb|9010=Y|9011=Y|10=093|8=FIX.4.4|9=214|35=A|34=139|49=Jeff7|52=20230918-11:52:06.769859|56=BfxComp|98=0|108=30|141=N|341=20230918-08:00:00.000|553=ileMZ7r7aA9dg1f0qZ2KzFnJl010FZ9LX0JERBKs5D7|554=XgorEH1OJblVE4bs3iu8hdiWaMsCoeD39wjskZmsNBb|9010=Y|9011=Y|10=122|8=FIX.4.4|9=214|35=A|34=140|49=Jeff7|52=20230918-11:52:08.577308|56=BfxComp|98=0|108=30|141=N|341=20230918-08:00:00.000|553=ileMZ7r7aA9dg1f0qZ2KzFnJl010FZ9LX0JERBKs5D7|554=XgorEH1OJblVE4bs3iu8hdiWaMsCoeD39wjskZmsNBb|9010=Y|9011=Y|10=102|8=FIX.4.4|9=214|35=A|34=141|49=Jeff7|52=20230918-11:52:10.390985|56=BfxComp|98=0|108=30|141=N|341=20230918-08:00:00.000|553=ileMZ7r7aA9dg1f0qZ2KzFnJl010FZ9LX0JERBKs5D7|554=XgorEH1OJblVE4bs3iu8hdiWaMsCoeD39wjskZmsNBb|9010=Y|9011=Y|10=100|8=FIX.4.4|9=214|35=A|34=142|49=Jeff7|52=20230918-11:52:12.187235|56=BfxComp|98=0|108=30|141=N|341=20230918-08:00:00.000|553=ileMZ7r7aA9dg1f0qZ2KzFnJl010FZ9LX0JERBKs5D7|554=XgorEH1OJblVE4bs3iu8hdiWaMsCoeD39wjskZmsNBb|9010=Y|9011=Y|10=095|8=FIX.4.4|9=214|35=A|34=143|49=Jeff7|52=20230918-11:52:14.876861|56=BfxComp|98=0|108=30|141=N|341=20230918-08:00:00.000|553=ileMZ7r7aA9dg1f0qZ2KzFnJl010FZ9LX0JERBKs5D7|554=XgorEH1OJblVE4bs3iu8hdiWaMsCoeD39wjskZmsNBb|9010=Y|9011=Y|10=108|8=FIX.4.4|9=214|35=A|34=144|49=Jeff7|52=20230918-11:52:16.669299|56=BfxComp|98=0|108=30|141=N|341=20230918-08:00:00.000|553=ileMZ7r7aA9dg1f0qZ2KzFnJl010FZ9LX0JERBKs5D7|554=XgorEH1OJblVE4bs3iu8hdiWaMsCoeD39wjskZmsNBb|9010=Y|9011=Y|10=116|8=FIX.4.4|9=214|35=A|34=145|49=Jeff7|52=20230918-11:52:18.452314|56=BfxComp|98=0|108=30|141=N|341=20230918-08:00:00.000|553=ileMZ7r7aA9dg1f0qZ2KzFnJl010FZ9LX0JERBKs5D7|554=XgorEH1OJblVE4bs3iu8hdiWaMsCoeD39wjskZmsNBb|9010=Y|9011=Y|10=097|8=FIX.4.4|9=214|35=A|34=146|49=Jeff7|52=20230918-11:52:20.236449|56=BfxComp|98=0|108=30|141=N|341=20230918-08:00:00.000|553=ileMZ7r7aA9dg1f0qZ2KzFnJl010FZ9LX0JERBKs5D7|554=XgorEH1OJblVE4bs3iu8hdiWaMsCoeD39wjskZmsNBb|9010=Y|9011=Y|10=100|8=FIX.4.4|9=214|35=A|34=147|49=Jeff7|52=20230918-11:52:22.045645|56=BfxComp|98=0|108=30|141=N|341=20230918-08:00:00.000|553=ileMZ7r7aA9dg1f0qZ2KzFnJl010FZ9LX0JERBKs5D7|554=XgorEH1OJblVE4bs3iu8hdiWaMsCoeD39wjskZmsNBb|9010=Y|9011=Y|10=099|8=FIX.4.4|9=214|35=A|34=148|49=Jeff7|52=20230918-11:52:24.718116|56=BfxComp|98=0|108=30|141=N|341=20230918-08:00:00.000|553=ileMZ7r7aA9dg1f0qZ2KzFnJl010FZ9LX0JERBKs5D7|554=XgorEH1OJblVE4bs3iu8hdiWaMsCoeD39wjskZmsNBb|9010=Y|9011=Y|10=102|8=FIX.4.4|9=214|35=A|34=149|49=Jeff7|52=20230918-11:52:26.525984|56=BfxComp|98=0|108=30|141=N|341=20230918-08:00:00.000|553=ileMZ7r7aA9dg1f0qZ2KzFnJl010FZ9LX0JERBKs5D7|554=XgorEH1OJblVE4bs3iu8hdiWaMsCoeD39wjskZmsNBb|9010=Y|9011=Y|10=114|8=FIX.4.4|9=214|35=A|34=150|49=Jeff7|52=20230918-11:52:28.303448|56=BfxComp|98=0|108=30|141=N|341=20230918-08:00:00.000|553=ileMZ7r7aA9dg1f0qZ2KzFnJl010FZ9LX0JERBKs5D7|554=XgorEH1OJblVE4bs3iu8hdiWaMsCoeD39wjskZmsNBb|9010=Y|9011=Y|10=097|8=FIX.4.4|9=214|35=A|34=151|49=Jeff7|52=20230918-11:52:30.096729|56=BfxComp|98=0|108=30|141=N|341=20230918-08:00:00.000|553=ileMZ7r7aA9dg1f0qZ2KzFnJl010FZ9LX0JERBKs5D7|554=XgorEH1OJblVE4bs3iu8hdiWaMsCoeD39wjskZmsNBb|9010=Y|9011=Y|10=102|8=FIX.4.4|9=214|35=A|34=152|49=Jeff7|52=20230918-11:52:32.774617|56=BfxComp|98=0|108=30|141=N|341=20230918-08:00:00.000|553=ileMZ7r7aA9dg1f0qZ2KzFnJl010FZ9LX0JERBKs5D7|554=XgorEH1OJblVE4bs3iu8hdiWaMsCoeD39wjskZmsNBb|9010=Y|9011=Y|10=104|8=FIX.4.4|9=214|35=A|34=153|49=Jeff7|52=20230918-11:52:34.583856|56=BfxComp|98=0|108=30|141=N|341=20230918-08:00:00.000|553=ileMZ7r7aA9dg1f0qZ2KzFnJl010FZ9LX0JERBKs5D7|554=XgorEH1OJblVE4bs3iu8hdiWaMsCoeD39wjskZmsNBb|9010=Y|9011=Y|10=110|8=FIX.4.4|9=214|35=A|34=154|49=Jeff7|52=20230918-11:52:36.357967|56=BfxComp|98=0|108=30|141=N|341=20230918-08:00:00.000|553=ileMZ7r7aA9dg1f0qZ2KzFnJl010FZ9LX0JERBKs5D7|554=XgorEH1OJblVE4bs3iu8hdiWaMsCoeD39wjskZmsNBb|9010=Y|9011=Y|10=115|8=FIX.4.4|9=214|35=A|34=155|49=Jeff7|52=20230918-11:52:38.129850|56=BfxComp|98=0|108=30|141=N|341=20230918-08:00:00.000|553=ileMZ7r7aA9dg1f0qZ2KzFnJl010FZ9LX0JERBKs5D7|554=XgorEH1OJblVE4bs3iu8hdiWaMsCoeD39wjskZmsNBb|9010=Y|9011=Y|10=106|8=FIX.4.4|9=214|35=A|34=156|49=Jeff7|52=20230918-11:52:40.784135|56=BfxComp|98=0|108=30|141=N|341=20230918-08:00:00.000|553=ileMZ7r7aA9dg1f0qZ2KzFnJl010FZ9LX0JERBKs5D7|554=XgorEH1OJblVE4bs3iu8hdiWaMsCoeD39wjskZmsNBb|9010=Y|9011=Y|10=103|8=FIX.4.4|9=214|35=A|34=157|49=Jeff7|52=20230918-11:52:42.553055|56=BfxComp|98=0|108=30|141=N|341=20230918-08:00:00.000|553=ileMZ7r7aA9dg1f0qZ2KzFnJl010FZ9LX0JERBKs5D7|554=XgorEH1OJblVE4bs3iu8hdiWaMsCoeD39wjskZmsNBb|9010=Y|9011=Y|10=101|8=FIX.4.4|9=214|35=A|34=158|49=Jeff7|52=20230918-11:52:44.320122|56=BfxComp|98=0|108=30|141=N|341=20230918-08:00:00.000|553=ileMZ7r7aA9dg1f0qZ2KzFnJl010FZ9LX0JERBKs5D7|554=XgorEH1OJblVE4bs3iu8hdiWaMsCoeD39wjskZmsNBb|9010=Y|9011=Y|10=091|8=FIX.4.4|9=214|35=A|34=159|49=Jeff7|52=20230918-11:52:46.092174|56=BfxComp|98=0|108=30|141=N|341=20230918-08:00:00.000|553=ileMZ7r7aA9dg1f0qZ2KzFnJl010FZ9LX0JERBKs5D7|554=XgorEH1OJblVE4bs3iu8hdiWaMsCoeD39wjskZmsNBb|9010=Y|9011=Y|10=107|8=FIX.4.4|9=214|35=A|34=160|49=Jeff7|52=20230918-11:52:48.132191|56=BfxComp|98=0|108=30|141=N|341=20230918-08:00:00.000|553=ileMZ7r7aA9dg1f0qZ2KzFnJl010FZ9LX0JERBKs5D7|554=XgorEH1OJblVE4bs3iu8hdiWaMsCoeD39wjskZmsNBb|9010=Y|9011=Y|10=095|8=FIX.4.4|9=214|35=A|34=161|49=Jeff7|52=20230918-11:52:50.785038|56=BfxComp|98=0|108=30|141=N|341=20230918-08:00:00.000|553=ileMZ7r7aA9dg1f0qZ2KzFnJl010FZ9LX0JERBKs5D7|554=XgorEH1OJblVE4bs3iu8hdiWaMsCoeD39wjskZmsNBb|9010=Y|9011=Y|10=103|8=FIX.4.4|9=214|35=A|34=162|49=Jeff7|52=20230918-11:52:52.544560|56=BfxComp|98=0|108=30|141=N|341=20230918-08:00:00.000|553=ileMZ7r7aA9dg1f0qZ2KzFnJl010FZ9LX0JERBKs5D7|554=XgorEH1OJblVE4bs3iu8hdiWaMsCoeD39wjskZmsNBb|9010=Y|9011=Y|10=099|8=FIX.4.4|9=214|35=A|34=163|49=Jeff7|52=20230918-11:52:54.298877|56=BfxComp|98=0|108=30|141=N|341=20230918-08:00:00.000|553=ileMZ7r7aA9dg1f0qZ2KzFnJl010FZ9LX0JERBKs5D7|554=XgorEH1OJblVE4bs3iu8hdiWaMsCoeD39wjskZmsNBb|9010=Y|9011=Y|10=119|8=FIX.4.4|9=214|35=A|34=164|49=Jeff7|52=20230918-11:52:56.051716|56=BfxComp|98=0|108=30|141=N|341=20230918-08:00:00.000|553=ileMZ7r7aA9dg1f0qZ2KzFnJl010FZ9LX0JERBKs5D7|554=XgorEH1OJblVE4bs3iu8hdiWaMsCoeD39wjskZmsNBb|9010=Y|9011=Y|10=101|8=FIX.4.4|9=214|35=A|34=165|49=Jeff7|52=20230918-11:52:58.717838|56=BfxComp|98=0|108=30|141=N|341=20230918-08:00:00.000|553=ileMZ7r7aA9dg1f0qZ2KzFnJl010FZ9LX0JERBKs5D7|554=XgorEH1OJblVE4bs3iu8hdiWaMsCoeD39wjskZmsNBb|9010=Y|9011=Y|10=118|8=FIX.4.4|9=214|35=A|34=166|49=Jeff7|52=20230918-11:53:00.464929|56=BfxComp|98=0|108=30|141=N|341=20230918-08:00:00.000|553=ileMZ7r7aA9dg1f0qZ2KzFnJl010FZ9LX0JERBKs5D7|554=XgorEH1OJblVE4bs3iu8hdiWaMsCoeD39wjskZmsNBb|9010=Y|9011=Y|10=107|8=FIX.4.4|9=214|35=A|34=167|49=Jeff7|52=20230918-11:53:02.210184|56=BfxComp|98=0|108=30|141=N|341=20230918-08:00:00.000|553=ileMZ7r7aA9dg1f0qZ2KzFnJl010FZ9LX0JERBKs5D7|554=XgorEH1OJblVE4bs3iu8hdiWaMsCoeD39wjskZmsNBb|9010=Y|9011=Y|10=092|8=FIX.4.4|9=214|35=A|34=168|49=Jeff7|52=20230918-11:53:04.833713|56=BfxComp|98=0|108=30|141=N|341=20230918-08:00:00.000|553=ileMZ7r7aA9dg1f0qZ2KzFnJl010FZ9LX0JERBKs5D7|554=XgorEH1OJblVE4bs3iu8hdiWaMsCoeD39wjskZmsNBb|9010=Y|9011=Y|10=104|8=FIX.4.4|9=214|35=A|34=169|49=Jeff7|52=20230918-11:53:06.578225|56=BfxComp|98=0|108=30|141=N|341=20230918-08:00:00.000|553=ileMZ7r7aA9dg1f0qZ2KzFnJl010FZ9LX0JERBKs5D7|554=XgorEH1OJblVE4bs3iu8hdiWaMsCoeD39wjskZmsNBb|9010=Y|9011=Y|10=111|8=FIX.4.4|9=214|35=A|34=170|49=Jeff7|52=20230918-11:53:08.321842|56=BfxComp|98=0|108=30|141=N|341=20230918-08:00:00.000|553=ileMZ7r7aA9dg1f0qZ2KzFnJl010FZ9LX0JERBKs5D7|554=XgorEH1OJblVE4bs3iu8hdiWaMsCoeD39wjskZmsNBb|9010=Y|9011=Y|10=096|8=FIX.4.4|9=214|35=A|34=171|49=Jeff7|52=20230918-11:53:10.057305|56=BfxComp|98=0|108=30|141=N|341=20230918-08:00:00.000|553=ileMZ7r7aA9dg1f0qZ2KzFnJl010FZ9LX0JERBKs5D7|554=XgorEH1OJblVE4bs3iu8hdiWaMsCoeD39wjskZmsNBb|9010=Y|9011=Y|10=090|8=FIX.4.4|9=214|35=A|34=172|49=Jeff7|52=20230918-11:53:12.659640|56=BfxComp|98=0|108=30|141=N|341=20230918-08:00:00.000|553=ileMZ7r7aA9dg1f0qZ2KzFnJl010FZ9LX0JERBKs5D7|554=XgorEH1OJblVE4bs3iu8hdiWaMsCoeD39wjskZmsNBb|9010=Y|9011=Y|10=103|8=FIX.4.4|9=214|35=A|34=173|49=Jeff7|52=20230918-11:53:14.429567|56=BfxComp|98=0|108=30|141=N|341=20230918-08:00:00.000|553=ileMZ7r7aA9dg1f0qZ2KzFnJl010FZ9LX0JERBKs5D7|554=XgorEH1OJblVE4bs3iu8hdiWaMsCoeD39wjskZmsNBb|9010=Y|9011=Y|10=109|8=FIX.4.4|9=214|35=A|34=174|49=Jeff7|52=20230918-11:53:16.160473|56=BfxComp|98=0|108=30|141=N|341=20230918-08:00:00.000|553=ileMZ7r7aA9dg1f0qZ2KzFnJl010FZ9LX0JERBKs5D7|554=XgorEH1OJblVE4bs3iu8hdiWaMsCoeD39wjskZmsNBb|9010=Y|9011=Y|10=100|8=FIX.4.4|9=214|35=A|34=175|49=Jeff7|52=20230918-11:53:18.753200|56=BfxComp|98=0|108=30|141=N|341=20230918-08:00:00.000|553=ileMZ7r7aA9dg1f0qZ2KzFnJl010FZ9LX0JERBKs5D7|554=XgorEH1OJblVE4bs3iu8hdiWaMsCoeD39wjskZmsNBb|9010=Y|9011=Y|10=099|8=FIX.4.4|9=214|35=A|34=176|49=Jeff7|52=20230918-11:53:20.505407|56=BfxComp|98=0|108=30|141=N|341=20230918-08:00:00.000|553=ileMZ7r7aA9dg1f0qZ2KzFnJl010FZ9LX0JERBKs5D7|554=XgorEH1OJblVE4bs3iu8hdiWaMsCoeD39wjskZmsNBb|9010=Y|9011=Y|10=097|8=FIX.4.4|9=214|35=A|34=177|49=Jeff7|52=20230918-11:53:22.232195|56=BfxComp|98=0|108=30|141=N|341=20230918-08:00:00.000|553=ileMZ7r7aA9dg1f0qZ2KzFnJl010FZ9LX0JERBKs5D7|554=XgorEH1OJblVE4bs3iu8hdiWaMsCoeD39wjskZmsNBb|9010=Y|9011=Y|10=101|8=FIX.4.4|9=214|35=A|34=178|49=Jeff7|52=20230918-11:53:24.841622|56=BfxComp|98=0|108=30|141=N|341=20230918-08:00:00.000|553=ileMZ7r7aA9dg1f0qZ2KzFnJl010FZ9LX0JERBKs5D7|554=XgorEH1OJblVE4bs3iu8hdiWaMsCoeD39wjskZmsNBb|9010=Y|9011=Y|10=105|8=FIX.4.4|9=214|35=A|34=179|49=Jeff7|52=20230918-11:53:26.576019|56=BfxComp|98=0|108=30|141=N|341=20230918-08:00:00.000|553=ileMZ7r7aA9dg1f0qZ2KzFnJl010FZ9LX0JERBKs5D7|554=XgorEH1OJblVE4bs3iu8hdiWaMsCoeD39wjskZmsNBb|9010=Y|9011=Y|10=113|8=FIX.4.4|9=214|35=A|34=180|49=Jeff7|52=20230918-11:53:28.301573|56=BfxComp|98=0|108=30|141=N|341=20230918-08:00:00.000|553=ileMZ7r7aA9dg1f0qZ2KzFnJl010FZ9LX0JERBKs5D7|554=XgorEH1OJblVE4bs3iu8hdiWaMsCoeD39wjskZmsNBb|9010=Y|9011=Y|10=098|8=FIX.4.4|9=214|35=A|34=181|49=Jeff7|52=20230918-11:53:30.023540|56=BfxComp|98=0|108=30|141=N|341=20230918-08:00:00.000|553=ileMZ7r7aA9dg1f0qZ2KzFnJl010FZ9LX0JERBKs5D7|554=XgorEH1OJblVE4bs3iu8hdiWaMsCoeD39wjskZmsNBb|9010=Y|9011=Y|10=087|8=FIX.4.4|9=214|35=A|34=182|49=Jeff7|52=20230918-11:53:32.608450|56=BfxComp|98=0|108=30|141=N|341=20230918-08:00:00.000|553=ileMZ7r7aA9dg1f0qZ2KzFnJl010FZ9LX0JERBKs5D7|554=XgorEH1OJblVE4bs3iu8hdiWaMsCoeD39wjskZmsNBb|9010=Y|9011=Y|10=099|8=FIX.4.4|9=214|35=A|34=183|49=Jeff7|52=20230918-11:53:34.348727|56=BfxComp|98=0|108=30|141=N|341=20230918-08:00:00.000|553=ileMZ7r7aA9dg1f0qZ2KzFnJl010FZ9LX0JERBKs5D7|554=XgorEH1OJblVE4bs3iu8hdiWaMsCoeD39wjskZmsNBb|9010=Y|9011=Y|10=110|8=FIX.4.4|9=214|35=A|34=184|49=Jeff7|52=20230918-11:53:36.066683|56=BfxComp|98=0|108=30|141=N|341=20230918-08:00:00.000|553=ileMZ7r7aA9dg1f0qZ2KzFnJl010FZ9LX0JERBKs5D7|554=XgorEH1OJblVE4bs3iu8hdiWaMsCoeD39wjskZmsNBb|9010=Y|9011=Y|10=111|8=FIX.4.4|9=214|35=A|34=185|49=Jeff7|52=20230918-11:53:38.642728|56=BfxComp|98=0|108=30|141=N|341=20230918-08:00:00.000|553=ileMZ7r7aA9dg1f0qZ2KzFnJl010FZ9LX0JERBKs5D7|554=XgorEH1OJblVE4bs3iu8hdiWaMsCoeD39wjskZmsNBb|9010=Y|9011=Y|10=114|8=FIX.4.4|9=214|35=A|34=186|49=Jeff7|52=20230918-11:53:40.367621|56=BfxComp|98=0|108=30|141=N|341=20230918-08:00:00.000|553=ileMZ7r7aA9dg1f0qZ2KzFnJl010FZ9LX0JERBKs5D7|554=XgorEH1OJblVE4bs3iu8hdiWaMsCoeD39wjskZmsNBb|9010=Y|9011=Y|10=104|8=FIX.4.4|9=214|35=A|34=187|49=Jeff7|52=20230918-11:53:42.365828|56=BfxComp|98=0|108=30|141=N|341=20230918-08:00:00.000|553=ileMZ7r7aA9dg1f0qZ2KzFnJl010FZ9LX0JERBKs5D7|554=XgorEH1OJblVE4bs3iu8hdiWaMsCoeD39wjskZmsNBb|9010=Y|9011=Y|10=114|8=FIX.4.4|9=214|35=A|34=188|49=Jeff7|52=20230918-11:53:44.081053|56=BfxComp|98=0|108=30|141=N|341=20230918-08:00:00.000|553=ileMZ7r7aA9dg1f0qZ2KzFnJl010FZ9LX0JERBKs5D7|554=XgorEH1OJblVE4bs3iu8hdiWaMsCoeD39wjskZmsNBb|9010=Y|9011=Y|10=102|8=FIX.4.4|9=214|35=A|34=189|49=Jeff7|52=20230918-11:53:46.642906|56=BfxComp|98=0|108=30|141=N|341=20230918-08:00:00.000|553=ileMZ7r7aA9dg1f0qZ2KzFnJl010FZ9LX0JERBKs5D7|554=XgorEH1OJblVE4bs3iu8hdiWaMsCoeD39wjskZmsNBb|9010=Y|9011=Y|10=115|8=FIX.4.4|9=214|35=A|34=190|49=Jeff7|52=20230918-11:53:48.351366|56=BfxComp|98=0|108=30|141=N|341=20230918-08:00:00.000|553=ileMZ7r7aA9dg1f0qZ2KzFnJl010FZ9LX0JERBKs5D7|554=XgorEH1OJblVE4bs3iu8hdiWaMsCoeD39wjskZmsNBb|9010=Y|9011=Y|10=106|8=FIX.4.4|9=214|35=A|34=191|49=Jeff7|52=20230918-11:53:50.055959|56=BfxComp|98=0|108=30|141=N|341=20230918-08:00:00.000|553=ileMZ7r7aA9dg1f0qZ2KzFnJl010FZ9LX0JERBKs5D7|554=XgorEH1OJblVE4bs3iu8hdiWaMsCoeD39wjskZmsNBb|9010=Y|9011=Y|10=109|8=FIX.4.4|9=214|35=A|34=192|49=Jeff7|52=20230918-11:53:52.608290|56=BfxComp|98=0|108=30|141=N|341=20230918-08:00:00.000|553=ileMZ7r7aA9dg1f0qZ2KzFnJl010FZ9LX0JERBKs5D7|554=XgorEH1OJblVE4bs3iu8hdiWaMsCoeD39wjskZmsNBb|9010=Y|9011=Y|10=104|8=FIX.4.4|9=214|35=A|34=193|49=Jeff7|52=20230918-11:53:54.314599|56=BfxComp|98=0|108=30|141=N|341=20230918-08:00:00.000|553=ileMZ7r7aA9dg1f0qZ2KzFnJl010FZ9LX0JERBKs5D7|554=XgorEH1OJblVE4bs3iu8hdiWaMsCoeD39wjskZmsNBb|9010=Y|9011=Y|10=113|8=FIX.4.4|9=214|35=A|34=194|49=Jeff7|52=20230918-11:53:56.017495|56=BfxComp|98=0|108=30|141=N|341=20230918-08:00:00.000|553=ileMZ7r7aA9dg1f0qZ2KzFnJl010FZ9LX0JERBKs5D7|554=XgorEH1OJblVE4bs3iu8hdiWaMsCoeD39wjskZmsNBb|9010=Y|9011=Y|10=111|8=FIX.4.4|9=214|35=A|34=195|49=Jeff7|52=20230918-11:53:58.614082|56=BfxComp|98=0|108=30|141=N|341=20230918-08:00:00.000|553=ileMZ7r7aA9dg1f0qZ2KzFnJl010FZ9LX0JERBKs5D7|554=XgorEH1OJblVE4bs3iu8hdiWaMsCoeD39wjskZmsNBb|9010=Y|9011=Y|10=109|8=FIX.4.4|9=214|35=A|34=196|49=Jeff7|52=20230918-11:54:00.313461|56=BfxComp|98=0|108=30|141=N|341=20230918-08:00:00.000|553=ileMZ7r7aA9dg1f0qZ2KzFnJl010FZ9LX0JERBKs5D7|554=XgorEH1OJblVE4bs3iu8hdiWaMsCoeD39wjskZmsNBb|9010=Y|9011=Y|10=095|8=FIX.4.4|9=214|35=A|34=197|49=Jeff7|52=20230918-11:54:02.010240|56=BfxComp|98=0|108=30|141=N|341=20230918-08:00:00.000|553=ileMZ7r7aA9dg1f0qZ2KzFnJl010FZ9LX0JERBKs5D7|554=XgorEH1OJblVE4bs3iu8hdiWaMsCoeD39wjskZmsNBb|9010=Y|9011=Y|10=087|8=FIX.4.4|9=214|35=A|34=198|49=Jeff7|52=20230918-11:54:04.594313|56=BfxComp|98=0|108=30|141=N|341=20230918-08:00:00.000|553=ileMZ7r7aA9dg1f0qZ2KzFnJl010FZ9LX0JERBKs5D7|554=XgorEH1OJblVE4bs3iu8hdiWaMsCoeD39wjskZmsNBb|9010=Y|9011=Y|10=108|8=FIX.4.4|9=214|35=A|34=199|49=Jeff7|52=20230918-11:54:06.294547|56=BfxComp|98=0|108=30|141=N|341=20230918-08:00:00.000|553=ileMZ7r7aA9dg1f0qZ2KzFnJl010FZ9LX0JERBKs5D7|554=XgorEH1OJblVE4bs3iu8hdiWaMsCoeD39wjskZmsNBb|9010=Y|9011=Y|10=117|8=FIX.4.4|9=214|35=A|34=200|49=Jeff7|52=20230918-11:54:08.829342|56=BfxComp|98=0|108=30|141=N|341=20230918-08:00:00.000|553=ileMZ7r7aA9dg1f0qZ2KzFnJl010FZ9LX0JERBKs5D7|554=XgorEH1OJblVE4bs3iu8hdiWaMsCoeD39wjskZmsNBb|9010=Y|9011=Y|10=099|8=FIX.4.4|9=214|35=A|34=201|49=Jeff7|52=20230918-11:54:10.515495|56=BfxComp|98=0|108=30|141=N|341=20230918-08:00:00.000|553=ileMZ7r7aA9dg1f0qZ2KzFnJl010FZ9LX0JERBKs5D7|554=XgorEH1OJblVE4bs3iu8hdiWaMsCoeD39wjskZmsNBb|9010=Y|9011=Y|10=094|8=FIX.4.4|9=214|35=A|34=202|49=Jeff7|52=20230918-11:54:12.199316|56=BfxComp|98=0|108=30|141=N|341=20230918-08:00:00.000|553=ileMZ7r7aA9dg1f0qZ2KzFnJl010FZ9LX0JERBKs5D7|554=XgorEH1OJblVE4bs3iu8hdiWaMsCoeD39wjskZmsNBb|9010=Y|9011=Y|10=097|8=FIX.4.4|9=214|35=A|34=203|49=Jeff7|52=20230918-11:54:14.733335|56=BfxComp|98=0|108=30|141=N|341=20230918-08:00:00.000|553=ileMZ7r7aA9dg1f0qZ2KzFnJl010FZ9LX0JERBKs5D7|554=XgorEH1OJblVE4bs3iu8hdiWaMsCoeD39wjskZmsNBb|9010=Y|9011=Y|10=095|8=FIX.4.4|9=214|35=A|34=204|49=Jeff7|52=20230918-11:54:16.412857|56=BfxComp|98=0|108=30|141=N|341=20230918-08:00:00.000|553=ileMZ7r7aA9dg1f0qZ2KzFnJl010FZ9LX0JERBKs5D7|554=XgorEH1OJblVE4bs3iu8hdiWaMsCoeD39wjskZmsNBb|9010=Y|9011=Y|10=101|8=FIX.4.4|9=214|35=A|34=205|49=Jeff7|52=20230918-11:54:18.091103|56=BfxComp|98=0|108=30|141=N|341=20230918-08:00:00.000|553=ileMZ7r7aA9dg1f0qZ2KzFnJl010FZ9LX0JERBKs5D7|554=XgorEH1OJblVE4bs3iu8hdiWaMsCoeD39wjskZmsNBb|9010=Y|9011=Y|10=091|8=FIX.4.4|9=214|35=A|34=206|49=Jeff7|52=20230918-11:54:20.603611|56=BfxComp|98=0|108=30|141=N|341=20230918-08:00:00.000|553=ileMZ7r7aA9dg1f0qZ2KzFnJl010FZ9LX0JERBKs5D7|554=XgorEH1OJblVE4bs3iu8hdiWaMsCoeD39wjskZmsNBb|9010=Y|9011=Y|10=088|8=FIX.4.4|9=214|35=A|34=207|49=Jeff7|52=20230918-11:54:22.282205|56=BfxComp|98=0|108=30|141=N|341=20230918-08:00:00.000|553=ileMZ7r7aA9dg1f0qZ2KzFnJl010FZ9LX0JERBKs5D7|554=XgorEH1OJblVE4bs3iu8hdiWaMsCoeD39wjskZmsNBb|9010=Y|9011=Y|10=093|8=FIX.4.4|9=214|35=A|34=208|49=Jeff7|52=20230918-11:54:24.014591|56=BfxComp|98=0|108=30|141=N|341=20230918-08:00:00.000|553=ileMZ7r7aA9dg1f0qZ2KzFnJl010FZ9LX0JERBKs5D7|554=XgorEH1OJblVE4bs3iu8hdiWaMsCoeD39wjskZmsNBb|9010=Y|9011=Y|10=097|8=FIX.4.4|9=214|35=A|34=209|49=Jeff7|52=20230918-11:54:26.673289|56=BfxComp|98=0|108=30|141=N|341=20230918-08:00:00.000|553=ileMZ7r7aA9dg1f0qZ2KzFnJl010FZ9LX0JERBKs5D7|554=XgorEH1OJblVE4bs3iu8hdiWaMsCoeD39wjskZmsNBb|9010=Y|9011=Y|10=115|8=FIX.4.4|9=214|35=A|34=210|49=Jeff7|52=20230918-11:54:28.339166|56=BfxComp|98=0|108=30|141=N|341=20230918-08:00:00.000|553=ileMZ7r7aA9dg1f0qZ2KzFnJl010FZ9LX0JERBKs5D7|554=XgorEH1OJblVE4bs3iu8hdiWaMsCoeD39wjskZmsNBb|9010=Y|9011=Y|10=102|8=FIX.4.4|9=214|35=A|34=211|49=Jeff7|52=20230918-11:54:30.047518|56=BfxComp|98=0|108=30|141=N|341=20230918-08:00:00.000|553=ileMZ7r7aA9dg1f0qZ2KzFnJl010FZ9LX0JERBKs5D7|554=XgorEH1OJblVE4bs3iu8hdiWaMsCoeD39wjskZmsNBb|9010=Y|9011=Y|10=093|8=FIX.4.4|9=214|35=A|34=212|49=Jeff7|52=20230918-11:54:32.637246|56=BfxComp|98=0|108=30|141=N|341=20230918-08:00:00.000|553=ileMZ7r7aA9dg1f0qZ2KzFnJl010FZ9LX0JERBKs5D7|554=XgorEH1OJblVE4bs3iu8hdiWaMsCoeD39wjskZmsNBb|9010=Y|9011=Y|10=099|8=FIX.4.4|9=214|35=A|34=213|49=Jeff7|52=20230918-11:54:34.302248|56=BfxComp|98=0|108=30|141=N|341=20230918-08:00:00.000|553=ileMZ7r7aA9dg1f0qZ2KzFnJl010FZ9LX0JERBKs5D7|554=XgorEH1OJblVE4bs3iu8hdiWaMsCoeD39wjskZmsNBb|9010=Y|9011=Y|10=093|8=FIX.4.4|9=214|35=A|34=214|49=Jeff7|52=20230918-11:54:36.849006|56=BfxComp|98=0|108=30|141=N|341=20230918-08:00:00.000|553=ileMZ7r7aA9dg1f0qZ2KzFnJl010FZ9LX0JERBKs5D7|554=XgorEH1OJblVE4bs3iu8hdiWaMsCoeD39wjskZmsNBb|9010=Y|9011=Y|10=104|8=FIX.4.4|9=214|35=A|34=215|49=Jeff7|52=20230918-11:54:38.508988|56=BfxComp|98=0|108=30|141=N|341=20230918-08:00:00.000|553=ileMZ7r7aA9dg1f0qZ2KzFnJl010FZ9LX0JERBKs5D7|554=XgorEH1OJblVE4bs3iu8hdiWaMsCoeD39wjskZmsNBb|9010=Y|9011=Y|10=118|8=FIX.4.4|9=214|35=A|34=216|49=Jeff7|52=20230918-11:54:40.166288|56=BfxComp|98=0|108=30|141=N|341=20230918-08:00:00.000|553=ileMZ7r7aA9dg1f0qZ2KzFnJl010FZ9LX0JERBKs5D7|554=XgorEH1OJblVE4bs3iu8hdiWaMsCoeD39wjskZmsNBb|9010=Y|9011=Y|10=105|8=FIX.4.4|9=214|35=A|34=217|49=Jeff7|52=20230918-11:54:42.656338|56=BfxComp|98=0|108=30|141=N|341=20230918-08:00:00.000|553=ileMZ7r7aA9dg1f0qZ2KzFnJl010FZ9LX0JERBKs5D7|554=XgorEH1OJblVE4bs3iu8hdiWaMsCoeD39wjskZmsNBb|9010=Y|9011=Y|10=108|8=FIX.4.4|9=214|35=A|34=218|49=Jeff7|52=20230918-11:54:44.309450|56=BfxComp|98=0|108=30|141=N|341=20230918-08:00:00.000|553=ileMZ7r7aA9dg1f0qZ2KzFnJl010FZ9LX0JERBKs5D7|554=XgorEH1OJblVE4bs3iu8hdiWaMsCoeD39wjskZmsNBb|9010=Y|9011=Y|10=101|8=FIX.4.4|9=214|35=A|34=219|49=Jeff7|52=20230918-11:54:46.797837|56=BfxComp|98=0|108=30|141=N|341=20230918-08:00:00.000|553=ileMZ7r7aA9dg1f0qZ2KzFnJl010FZ9LX0JERBKs5D7|554=XgorEH1OJblVE4bs3iu8hdiWaMsCoeD39wjskZmsNBb|9010=Y|9011=Y|10=124|8=FIX.4.4|9=214|35=A|34=220|49=Jeff7|52=20230918-11:54:48.452139|56=BfxComp|98=0|108=30|141=N|341=20230918-08:00:00.000|553=ileMZ7r7aA9dg1f0qZ2KzFnJl010FZ9LX0JERBKs5D7|554=XgorEH1OJblVE4bs3iu8hdiWaMsCoeD39wjskZmsNBb|9010=Y|9011=Y|10=101|8=FIX.4.4|9=214|35=A|34=221|49=Jeff7|52=20230918-11:54:50.102153|56=BfxComp|98=0|108=30|141=N|341=20230918-08:00:00.000|553=ileMZ7r7aA9dg1f0qZ2KzFnJl010FZ9LX0JERBKs5D7|554=XgorEH1OJblVE4bs3iu8hdiWaMsCoeD39wjskZmsNBb|9010=Y|9011=Y|10=083|8=FIX.4.4|9=214|35=A|34=222|49=Jeff7|52=20230918-11:54:52.580950|56=BfxComp|98=0|108=30|141=N|341=20230918-08:00:00.000|553=ileMZ7r7aA9dg1f0qZ2KzFnJl010FZ9LX0JERBKs5D7|554=XgorEH1OJblVE4bs3iu8hdiWaMsCoeD39wjskZmsNBb|9010=Y|9011=Y|10=101|8=FIX.4.4|9=214|35=A|34=223|49=Jeff7|52=20230918-11:54:54.226599|56=BfxComp|98=0|108=30|141=N|341=20230918-08:00:00.000|553=ileMZ7r7aA9dg1f0qZ2KzFnJl010FZ9LX0JERBKs5D7|554=XgorEH1OJblVE4bs3iu8hdiWaMsCoeD39wjskZmsNBb|9010=Y|9011=Y|10=110|8=FIX.4.4|9=214|35=A|34=224|49=Jeff7|52=20230918-11:54:56.790866|56=BfxComp|98=0|108=30|141=N|341=20230918-08:00:00.000|553=ileMZ7r7aA9dg1f0qZ2KzFnJl010FZ9LX0JERBKs5D7|554=XgorEH1OJblVE4bs3iu8hdiWaMsCoeD39wjskZmsNBb|9010=Y|9011=Y|10=116|8=FIX.4.4|9=214|35=A|34=225|49=Jeff7|52=20230918-11:54:58.438507|56=BfxComp|98=0|108=30|141=N|341=20230918-08:00:00.000|553=ileMZ7r7aA9dg1f0qZ2KzFnJl010FZ9LX0JERBKs5D7|554=XgorEH1OJblVE4bs3iu8hdiWaMsCoeD39wjskZmsNBb|9010=Y|9011=Y|10=110|8=FIX.4.4|9=214|35=A|34=226|49=Jeff7|52=20230918-11:55:00.078511|56=BfxComp|98=0|108=30|141=N|341=20230918-08:00:00.000|553=ileMZ7r7aA9dg1f0qZ2KzFnJl010FZ9LX0JERBKs5D7|554=XgorEH1OJblVE4bs3iu8hdiWaMsCoeD39wjskZmsNBb|9010=Y|9011=Y|10=094|8=FIX.4.4|9=214|35=A|34=227|49=Jeff7|52=20230918-11:55:02.533823|56=BfxComp|98=0|108=30|141=N|341=20230918-08:00:00.000|553=ileMZ7r7aA9dg1f0qZ2KzFnJl010FZ9LX0JERBKs5D7|554=XgorEH1OJblVE4bs3iu8hdiWaMsCoeD39wjskZmsNBb|9010=Y|9011=Y|10=099|8=FIX.4.4|9=214|35=A|34=228|49=Jeff7|52=20230918-11:55:04.186468|56=BfxComp|98=0|108=30|141=N|341=20230918-08:00:00.000|553=ileMZ7r7aA9dg1f0qZ2KzFnJl010FZ9LX0JERBKs5D7|554=XgorEH1OJblVE4bs3iu8hdiWaMsCoeD39wjskZmsNBb|9010=Y|9011=Y|10=111|8=FIX.4.4|9=214|35=A|34=229|49=Jeff7|52=20230918-11:55:06.670181|56=BfxComp|98=0|108=30|141=N|341=20230918-08:00:00.000|553=ileMZ7r7aA9dg1f0qZ2KzFnJl010FZ9LX0JERBKs5D7|554=XgorEH1OJblVE4bs3iu8hdiWaMsCoeD39wjskZmsNBb|9010=Y|9011=Y|10=104|8=FIX.4.4|9=214|35=A|34=230|49=Jeff7|52=20230918-11:55:08.310042|56=BfxComp|98=0|108=30|141=N|341=20230918-08:00:00.000|553=ileMZ7r7aA9dg1f0qZ2KzFnJl010FZ9LX0JERBKs5D7|554=XgorEH1OJblVE4bs3iu8hdiWaMsCoeD39wjskZmsNBb|9010=Y|9011=Y|10=085|8=FIX.4.4|9=214|35=A|34=231|49=Jeff7|52=20230918-11:55:10.780715|56=BfxComp|98=0|108=30|141=N|341=20230918-08:00:00.000|553=ileMZ7r7aA9dg1f0qZ2KzFnJl010FZ9LX0JERBKs5D7|554=XgorEH1OJblVE4bs3iu8hdiWaMsCoeD39wjskZmsNBb|9010=Y|9011=Y|10=097|8=FIX.4.4|9=214|35=A|34=232|49=Jeff7|52=20230918-11:55:12.410190|56=BfxComp|98=0|108=30|141=N|341=20230918-08:00:00.000|553=ileMZ7r7aA9dg1f0qZ2KzFnJl010FZ9LX0JERBKs5D7|554=XgorEH1OJblVE4bs3iu8hdiWaMsCoeD39wjskZmsNBb|9010=Y|9011=Y|10=087|8=FIX.4.4|9=214|35=A|34=233|49=Jeff7|52=20230918-11:55:14.038094|56=BfxComp|98=0|108=30|141=N|341=20230918-08:00:00.000|553=ileMZ7r7aA9dg1f0qZ2KzFnJl010FZ9LX0JERBKs5D7|554=XgorEH1OJblVE4bs3iu8hdiWaMsCoeD39wjskZmsNBb|9010=Y|9011=Y|10=099|8=FIX.4.4|9=214|35=A|34=234|49=Jeff7|52=20230918-11:55:16.478136|56=BfxComp|98=0|108=30|141=N|341=20230918-08:00:00.000|553=ileMZ7r7aA9dg1f0qZ2KzFnJl010FZ9LX0JERBKs5D7|554=XgorEH1OJblVE4bs3iu8hdiWaMsCoeD39wjskZmsNBb|9010=Y|9011=Y|10=107|8=FIX.4.4|9=214|35=A|34=235|49=Jeff7|52=20230918-11:55:18.104746|56=BfxComp|98=0|108=30|141=N|341=20230918-08:00:00.000|553=ileMZ7r7aA9dg1f0qZ2KzFnJl010FZ9LX0JERBKs5D7|554=XgorEH1OJblVE4bs3iu8hdiWaMsCoeD39wjskZmsNBb|9010=Y|9011=Y|10=103|8=FIX.4.4|9=214|35=A|34=236|49=Jeff7|52=20230918-11:55:20.605200|56=BfxComp|98=0|108=30|141=N|341=20230918-08:00:00.000|553=ileMZ7r7aA9dg1f0qZ2KzFnJl010FZ9LX0JERBKs5D7|554=XgorEH1OJblVE4bs3iu8hdiWaMsCoeD39wjskZmsNBb|9010=Y|9011=Y|10=088|