8=FIX.4.4|9=109|35=A|34=1|49=ValonOrdComp06|52=20230926-08:20:49.672569|56=GtwComp|98=0|108=30|141=Y|553=|554=|9010=Y|9011=Y|10=100|