8=FIX.4.4|9=126|35=A|34=1|49=ValonPaperOrdComp02|52=20240428-15:32:06.512641|56=GtwComp|98=0|108=30|141=Y|553=test|554=password|9010=Y|9011=Y|10=114|