8=FIX.4.4|9=195|35=A|34=1|49=ValonOrdComp02|52=20240405-16:10:25.313311|56=GtwComp|98=0|108=30|141=Y|553=a5a0e05c8c33c3715d52187103cc38e5d6d8d630724|554=9403a29082bb436248a63dd33a60ccb8c5dca635775|9010=Y|9011=Y|10=182|8=FIX.4.4|9=146|35=V|34=2|49=ValonOrdComp02|52=20240405-16:10:41.811617|56=GtwComp|146=1|55=BTCUSD|262=1712333426|263=1|264=0|265=1|266=N|267=3|269=0|269=1|269=2|10=116|8=FIX.4.4|9=67|35=0|34=3|49=ValonOrdComp02|52=20240405-16:11:11.891379|56=GtwComp|10=083|8=FIX.4.4|9=67|35=0|34=4|49=ValonOrdComp02|52=20240405-16:11:41.912097|56=GtwComp|10=078|