8=FIX.4.4|9=219|35=A|34=1|49=ValonOrdComp01-5|52=20230915-10:46:53.944187|56=BfxComp|98=0|108=30|141=Y|341=20230101-00:00:00|553=EMM3Izbejj3FcNwAE8k34OHXnCdbQRmZq5fuq6Oy1Mt|554=i9xxjLbyuTwPtmngA1uBhiQfv8SGSsDh45r2SgvLMVy|9010=Y|9011=Y|10=149|