8=FIX.4.4|9=219|35=A|34=1|49=ValonOrdComp01-2|52=20230914-08:50:22.222340|56=BfxComp|98=0|108=30|141=Y|341=20230101-00:00:00|553=c21nzgw5aU0gZMK2k0wJK2J9TQZLWjonjZS4XIadVPj|554=03v0jVNKhHAXkNSLG1hoHPf5sycnSBYDcLTeos9sDFc|9010=Y|9011=Y|10=062|