8=FIX.4.4|9=211|35=A|34=1|49=Jeff|52=20230916-17:52:26.966435|56=BfxComp|98=0|108=30|141=N|341=20230916-17:00:00.000|553=ileMZ7r7aA9dg1f0qZ2KzFnJl010FZ9LX0JERBKs5D7|554=XgorEH1OJblVE4bs3iu8hdiWaMsCoeD39wjskZmsNBb|9010=Y|9011=Y|10=205|8=FIX.4.4|9=57|35=5|34=2|49=Jeff|52=20230916-17:52:26.989714|56=BfxComp|10=188|8=FIX.4.4|9=211|35=A|34=3|49=Jeff|52=20230916-17:52:26.990186|56=BfxComp|98=0|108=30|141=N|341=20230916-17:00:00.000|553=ileMZ7r7aA9dg1f0qZ2KzFnJl010FZ9LX0JERBKs5D7|554=XgorEH1OJblVE4bs3iu8hdiWaMsCoeD39wjskZmsNBb|9010=Y|9011=Y|10=207|8=FIX.4.4|9=211|35=A|34=4|49=Jeff|52=20230916-17:52:28.994285|56=BfxComp|98=0|108=30|141=N|341=20230916-17:00:00.000|553=ileMZ7r7aA9dg1f0qZ2KzFnJl010FZ9LX0JERBKs5D7|554=XgorEH1OJblVE4bs3iu8hdiWaMsCoeD39wjskZmsNBb|9010=Y|9011=Y|10=214|8=FIX.4.4|9=57|35=5|34=5|49=Jeff|52=20230916-17:52:29.037175|56=BfxComp|10=179|8=FIX.4.4|9=211|35=A|34=6|49=Jeff|52=20230916-17:52:29.037851|56=BfxComp|98=0|108=30|141=N|341=20230916-17:00:00.000|553=ileMZ7r7aA9dg1f0qZ2KzFnJl010FZ9LX0JERBKs5D7|554=XgorEH1OJblVE4bs3iu8hdiWaMsCoeD39wjskZmsNBb|9010=Y|9011=Y|10=204|8=FIX.4.4|9=211|35=A|34=7|49=Jeff|52=20230916-17:52:30.037672|56=BfxComp|98=0|108=30|141=N|341=20230916-17:00:00.000|553=ileMZ7r7aA9dg1f0qZ2KzFnJl010FZ9LX0JERBKs5D7|554=XgorEH1OJblVE4bs3iu8hdiWaMsCoeD39wjskZmsNBb|9010=Y|9011=Y|10=198|8=FIX.4.4|9=57|35=5|34=8|49=Jeff|52=20230916-17:52:30.058360|56=BfxComp|10=173|8=FIX.4.4|9=211|35=A|34=9|49=Jeff|52=20230916-17:52:30.059556|56=BfxComp|98=0|108=30|141=N|341=20230916-17:00:00.000|553=ileMZ7r7aA9dg1f0qZ2KzFnJl010FZ9LX0JERBKs5D7|554=XgorEH1OJblVE4bs3iu8hdiWaMsCoeD39wjskZmsNBb|9010=Y|9011=Y|10=205|8=FIX.4.4|9=212|35=A|34=10|49=Jeff|52=20230916-17:52:32.132091|56=BfxComp|98=0|108=30|141=N|341=20230916-17:00:00.000|553=ileMZ7r7aA9dg1f0qZ2KzFnJl010FZ9LX0JERBKs5D7|554=XgorEH1OJblVE4bs3iu8hdiWaMsCoeD39wjskZmsNBb|9010=Y|9011=Y|10=234|8=FIX.4.4|9=58|35=5|34=11|49=Jeff|52=20230916-17:52:32.155524|56=BfxComp|10=218|8=FIX.4.4|9=212|35=A|34=12|49=Jeff|52=20230916-17:52:32.156620|56=BfxComp|98=0|108=30|141=N|341=20230916-17:00:00.000|553=ileMZ7r7aA9dg1f0qZ2KzFnJl010FZ9LX0JERBKs5D7|554=XgorEH1OJblVE4bs3iu8hdiWaMsCoeD39wjskZmsNBb|9010=Y|9011=Y|10=240|8=FIX.4.4|9=212|35=A|34=13|49=Jeff|52=20230916-17:52:34.121618|56=BfxComp|98=0|108=30|141=N|341=20230916-17:00:00.000|553=ileMZ7r7aA9dg1f0qZ2KzFnJl010FZ9LX0JERBKs5D7|554=XgorEH1OJblVE4bs3iu8hdiWaMsCoeD39wjskZmsNBb|9010=Y|9011=Y|10=242|8=FIX.4.4|9=58|35=5|34=14|49=Jeff|52=20230916-17:52:34.136793|56=BfxComp|10=230|8=FIX.4.4|9=212|35=A|34=15|49=Jeff|52=20230916-17:52:34.137676|56=BfxComp|98=0|108=30|141=N|341=20230916-17:00:00.000|553=ileMZ7r7aA9dg1f0qZ2KzFnJl010FZ9LX0JERBKs5D7|554=XgorEH1OJblVE4bs3iu8hdiWaMsCoeD39wjskZmsNBb|9010=Y|9011=Y|10=255|8=FIX.4.4|9=212|35=A|34=16|49=Jeff|52=20230916-17:52:36.098669|56=BfxComp|98=0|108=30|141=N|341=20230916-17:00:00.000|553=ileMZ7r7aA9dg1f0qZ2KzFnJl010FZ9LX0JERBKs5D7|554=XgorEH1OJblVE4bs3iu8hdiWaMsCoeD39wjskZmsNBb|9010=Y|9011=Y|10=010|8=FIX.4.4|9=58|35=5|34=17|49=Jeff|52=20230916-17:52:36.113233|56=BfxComp|10=219|8=FIX.4.4|9=212|35=A|34=18|49=Jeff|52=20230916-17:52:36.114014|56=BfxComp|98=0|108=30|141=N|341=20230916-17:00:00.000|553=ileMZ7r7aA9dg1f0qZ2KzFnJl010FZ9LX0JERBKs5D7|554=XgorEH1OJblVE4bs3iu8hdiWaMsCoeD39wjskZmsNBb|9010=Y|9011=Y|10=241|8=FIX.4.4|9=212|35=A|34=19|49=Jeff|52=20230916-17:52:38.125180|56=BfxComp|98=0|108=30|141=N|341=20230916-17:00:00.000|553=ileMZ7r7aA9dg1f0qZ2KzFnJl010FZ9LX0JERBKs5D7|554=XgorEH1OJblVE4bs3iu8hdiWaMsCoeD39wjskZmsNBb|9010=Y|9011=Y|10=250|8=FIX.4.4|9=58|35=5|34=20|49=Jeff|52=20230916-17:52:38.141226|56=BfxComp|10=218|8=FIX.4.4|9=212|35=A|34=21|49=Jeff|52=20230916-17:52:38.142121|56=BfxComp|98=0|108=30|141=N|341=20230916-17:00:00.000|553=ileMZ7r7aA9dg1f0qZ2KzFnJl010FZ9LX0JERBKs5D7|554=XgorEH1OJblVE4bs3iu8hdiWaMsCoeD39wjskZmsNBb|9010=Y|9011=Y|10=237|8=FIX.4.4|9=212|35=A|34=22|49=Jeff|52=20230916-17:52:40.107903|56=BfxComp|98=0|108=30|141=N|341=20230916-17:00:00.000|553=ileMZ7r7aA9dg1f0qZ2KzFnJl010FZ9LX0JERBKs5D7|554=XgorEH1OJblVE4bs3iu8hdiWaMsCoeD39wjskZmsNBb|9010=Y|9011=Y|10=240|8=FIX.4.4|9=58|35=5|34=23|49=Jeff|52=20230916-17:52:40.122833|56=BfxComp|10=217|8=FIX.4.4|9=212|35=A|34=24|49=Jeff|52=20230916-17:52:40.123906|56=BfxComp|98=0|108=30|141=N|341=20230916-17:00:00.000|553=ileMZ7r7aA9dg1f0qZ2KzFnJl010FZ9LX0JERBKs5D7|554=XgorEH1OJblVE4bs3iu8hdiWaMsCoeD39wjskZmsNBb|9010=Y|9011=Y|10=243|8=FIX.4.4|9=212|35=A|34=25|49=Jeff|52=20230916-17:52:42.102197|56=BfxComp|98=0|108=30|141=N|341=20230916-17:00:00.000|553=ileMZ7r7aA9dg1f0qZ2KzFnJl010FZ9LX0JERBKs5D7|554=XgorEH1OJblVE4bs3iu8hdiWaMsCoeD39wjskZmsNBb|9010=Y|9011=Y|10=245|8=FIX.4.4|9=58|35=5|34=26|49=Jeff|52=20230916-17:52:42.117618|56=BfxComp|10=227|8=FIX.4.4|9=212|35=A|34=27|49=Jeff|52=20230916-17:52:42.118609|56=BfxComp|98=0|108=30|141=N|341=20230916-17:00:00.000|553=ileMZ7r7aA9dg1f0qZ2KzFnJl010FZ9LX0JERBKs5D7|554=XgorEH1OJblVE4bs3iu8hdiWaMsCoeD39wjskZmsNBb|9010=Y|9011=Y|10=252|8=FIX.4.4|9=212|35=A|34=28|49=Jeff|52=20230916-17:52:44.086287|56=BfxComp|98=0|108=30|141=N|341=20230916-17:00:00.000|553=ileMZ7r7aA9dg1f0qZ2KzFnJl010FZ9LX0JERBKs5D7|554=XgorEH1OJblVE4bs3iu8hdiWaMsCoeD39wjskZmsNBb|9010=Y|9011=Y|10=005|8=FIX.4.4|9=58|35=5|34=29|49=Jeff|52=20230916-17:52:44.101363|56=BfxComp|10=222|8=FIX.4.4|9=212|35=A|34=30|49=Jeff|52=20230916-17:52:44.102143|56=BfxComp|98=0|108=30|141=N|341=20230916-17:00:00.000|553=ileMZ7r7aA9dg1f0qZ2KzFnJl010FZ9LX0JERBKs5D7|554=XgorEH1OJblVE4bs3iu8hdiWaMsCoeD39wjskZmsNBb|9010=Y|9011=Y|10=234|8=FIX.4.4|9=212|35=A|34=31|49=Jeff|52=20230916-17:52:46.081341|56=BfxComp|98=0|108=30|141=N|341=20230916-17:00:00.000|553=ileMZ7r7aA9dg1f0qZ2KzFnJl010FZ9LX0JERBKs5D7|554=XgorEH1OJblVE4bs3iu8hdiWaMsCoeD39wjskZmsNBb|9010=Y|9011=Y|10=243|8=FIX.4.4|9=58|35=5|34=32|49=Jeff|52=20230916-17:52:46.098171|56=BfxComp|10=230|8=FIX.4.4|9=212|35=A|34=33|49=Jeff|52=20230916-17:52:46.099179|56=BfxComp|98=0|108=30|141=N|341=20230916-17:00:00.000|553=ileMZ7r7aA9dg1f0qZ2KzFnJl010FZ9LX0JERBKs5D7|554=XgorEH1OJblVE4bs3iu8hdiWaMsCoeD39wjskZmsNBb|9010=Y|9011=Y|10=007|8=FIX.4.4|9=212|35=A|34=34|49=Jeff|52=20230916-17:52:48.158308|56=BfxComp|98=0|108=30|141=N|341=20230916-17:00:00.000|553=ileMZ7r7aA9dg1f0qZ2KzFnJl010FZ9LX0JERBKs5D7|554=XgorEH1OJblVE4bs3iu8hdiWaMsCoeD39wjskZmsNBb|9010=Y|9011=Y|10=000|8=FIX.4.4|9=58|35=5|34=35|49=Jeff|52=20230916-17:52:48.200685|56=BfxComp|10=230|8=FIX.4.4|9=212|35=A|34=36|49=Jeff|52=20230916-17:52:48.201470|56=BfxComp|98=0|108=30|141=N|341=20230916-17:00:00.000|553=ileMZ7r7aA9dg1f0qZ2KzFnJl010FZ9LX0JERBKs5D7|554=XgorEH1OJblVE4bs3iu8hdiWaMsCoeD39wjskZmsNBb|9010=Y|9011=Y|10=247|8=FIX.4.4|9=212|35=A|34=37|49=Jeff|52=20230916-17:52:50.171861|56=BfxComp|98=0|108=30|141=N|341=20230916-17:00:00.000|553=ileMZ7r7aA9dg1f0qZ2KzFnJl010FZ9LX0JERBKs5D7|554=XgorEH1OJblVE4bs3iu8hdiWaMsCoeD39wjskZmsNBb|9010=Y|9011=Y|10=251|8=FIX.4.4|9=58|35=5|34=38|49=Jeff|52=20230916-17:52:50.187957|56=BfxComp|10=242|8=FIX.4.4|9=212|35=A|34=39|49=Jeff|52=20230916-17:52:50.188757|56=BfxComp|98=0|108=30|141=N|341=20230916-17:00:00.000|553=ileMZ7r7aA9dg1f0qZ2KzFnJl010FZ9LX0JERBKs5D7|554=XgorEH1OJblVE4bs3iu8hdiWaMsCoeD39wjskZmsNBb|9010=Y|9011=Y|10=009|8=FIX.4.4|9=212|35=A|34=40|49=Jeff|52=20230916-17:52:52.199553|56=BfxComp|98=0|108=30|141=N|341=20230916-17:00:00.000|553=ileMZ7r7aA9dg1f0qZ2KzFnJl010FZ9LX0JERBKs5D7|554=XgorEH1OJblVE4bs3iu8hdiWaMsCoeD39wjskZmsNBb|9010=Y|9011=Y|10=255|8=FIX.4.4|9=58|35=5|34=41|49=Jeff|52=20230916-17:52:52.227018|56=BfxComp|10=221|8=FIX.4.4|9=212|35=A|34=42|49=Jeff|52=20230916-17:52:52.227665|56=BfxComp|98=0|108=30|141=N|341=20230916-17:00:00.000|553=ileMZ7r7aA9dg1f0qZ2KzFnJl010FZ9LX0JERBKs5D7|554=XgorEH1OJblVE4bs3iu8hdiWaMsCoeD39wjskZmsNBb|9010=Y|9011=Y|10=253|8=FIX.4.4|9=212|35=A|34=43|49=Jeff|52=20230916-17:52:54.235627|56=BfxComp|98=0|108=30|141=N|341=20230916-17:00:00.000|553=ileMZ7r7aA9dg1f0qZ2KzFnJl010FZ9LX0JERBKs5D7|554=XgorEH1OJblVE4bs3iu8hdiWaMsCoeD39wjskZmsNBb|9010=Y|9011=Y|10=253|8=FIX.4.4|9=58|35=5|34=44|49=Jeff|52=20230916-17:52:54.259522|56=BfxComp|10=231|8=FIX.4.4|9=212|35=A|34=45|49=Jeff|52=20230916-17:52:54.260134|56=BfxComp|98=0|108=30|141=N|341=20230916-17:00:00.000|553=ileMZ7r7aA9dg1f0qZ2KzFnJl010FZ9LX0JERBKs5D7|554=XgorEH1OJblVE4bs3iu8hdiWaMsCoeD39wjskZmsNBb|9010=Y|9011=Y|10=246|8=FIX.4.4|9=212|35=A|34=46|49=Jeff|52=20230916-17:52:56.207098|56=BfxComp|98=0|108=30|141=N|341=20230916-17:00:00.000|553=ileMZ7r7aA9dg1f0qZ2KzFnJl010FZ9LX0JERBKs5D7|554=XgorEH1OJblVE4bs3iu8hdiWaMsCoeD39wjskZmsNBb|9010=Y|9011=Y|10=003|8=FIX.4.4|9=58|35=5|34=47|49=Jeff|52=20230916-17:52:56.222711|56=BfxComp|10=226|8=FIX.4.4|9=212|35=A|34=48|49=Jeff|52=20230916-17:52:56.223644|56=BfxComp|98=0|108=30|141=N|341=20230916-17:00:00.000|553=ileMZ7r7aA9dg1f0qZ2KzFnJl010FZ9LX0JERBKs5D7|554=XgorEH1OJblVE4bs3iu8hdiWaMsCoeD39wjskZmsNBb|9010=Y|9011=Y|10=000|8=FIX.4.4|9=212|35=A|34=49|49=Jeff|52=20230916-17:52:58.161000|56=BfxComp|98=0|108=30|141=N|341=20230916-17:00:00.000|553=ileMZ7r7aA9dg1f0qZ2KzFnJl010FZ9LX0JERBKs5D7|554=XgorEH1OJblVE4bs3iu8hdiWaMsCoeD39wjskZmsNBb|9010=Y|9011=Y|10=246|8=FIX.4.4|9=58|35=5|34=50|49=Jeff|52=20230916-17:52:58.192507|56=BfxComp|10=231|8=FIX.4.4|9=212|35=A|34=51|49=Jeff|52=20230916-17:52:58.193286|56=BfxComp|98=0|108=30|141=N|341=20230916-17:00:00.000|553=ileMZ7r7aA9dg1f0qZ2KzFnJl010FZ9LX0JERBKs5D7|554=XgorEH1OJblVE4bs3iu8hdiWaMsCoeD39wjskZmsNBb|9010=Y|9011=Y|10=004|8=FIX.4.4|9=212|35=A|34=52|49=Jeff|52=20230916-17:53:00.180953|56=BfxComp|98=0|108=30|141=N|341=20230916-17:00:00.000|553=ileMZ7r7aA9dg1f0qZ2KzFnJl010FZ9LX0JERBKs5D7|554=XgorEH1OJblVE4bs3iu8hdiWaMsCoeD39wjskZmsNBb|9010=Y|9011=Y|10=246|8=FIX.4.4|9=58|35=5|34=53|49=Jeff|52=20230916-17:53:00.235466|56=BfxComp|10=224|8=FIX.4.4|9=212|35=A|34=54|49=Jeff|52=20230916-17:53:00.236271|56=BfxComp|98=0|108=30|141=N|341=20230916-17:00:00.000|553=ileMZ7r7aA9dg1f0qZ2KzFnJl010FZ9LX0JERBKs5D7|554=XgorEH1OJblVE4bs3iu8hdiWaMsCoeD39wjskZmsNBb|9010=Y|9011=Y|10=243|8=FIX.4.4|9=212|35=A|34=55|49=Jeff|52=20230916-17:53:02.211172|56=BfxComp|98=0|108=30|141=N|341=20230916-17:00:00.000|553=ileMZ7r7aA9dg1f0qZ2KzFnJl010FZ9LX0JERBKs5D7|554=XgorEH1OJblVE4bs3iu8hdiWaMsCoeD39wjskZmsNBb|9010=Y|9011=Y|10=239|8=FIX.4.4|9=58|35=5|34=56|49=Jeff|52=20230916-17:53:02.226803|56=BfxComp|10=224|8=FIX.4.4|9=212|35=A|34=57|49=Jeff|52=20230916-17:53:02.227445|56=BfxComp|98=0|108=30|141=N|341=20230916-17:00:00.000|553=ileMZ7r7aA9dg1f0qZ2KzFnJl010FZ9LX0JERBKs5D7|554=XgorEH1OJblVE4bs3iu8hdiWaMsCoeD39wjskZmsNBb|9010=Y|9011=Y|10=251|8=FIX.4.4|9=212|35=A|34=58|49=Jeff|52=20230916-17:53:04.151521|56=BfxComp|98=0|108=30|141=N|341=20230916-17:00:00.000|553=ileMZ7r7aA9dg1f0qZ2KzFnJl010FZ9LX0JERBKs5D7|554=XgorEH1OJblVE4bs3iu8hdiWaMsCoeD39wjskZmsNBb|9010=Y|9011=Y|10=245|8=FIX.4.4|9=58|35=5|34=59|49=Jeff|52=20230916-17:53:04.165186|56=BfxComp|10=235|8=FIX.4.4|9=212|35=A|34=60|49=Jeff|52=20230916-17:53:04.165853|56=BfxComp|98=0|108=30|141=N|341=20230916-17:00:00.000|553=ileMZ7r7aA9dg1f0qZ2KzFnJl010FZ9LX0JERBKs5D7|554=XgorEH1OJblVE4bs3iu8hdiWaMsCoeD39wjskZmsNBb|9010=Y|9011=Y|10=251|8=FIX.4.4|9=212|35=A|34=61|49=Jeff|52=20230916-17:53:06.115796|56=BfxComp|98=0|108=30|141=N|341=20230916-17:00:00.000|553=ileMZ7r7aA9dg1f0qZ2KzFnJl010FZ9LX0JERBKs5D7|554=XgorEH1OJblVE4bs3iu8hdiWaMsCoeD39wjskZmsNBb|9010=Y|9011=Y|10=255|8=FIX.4.4|9=58|35=5|34=62|49=Jeff|52=20230916-17:53:06.130449|56=BfxComp|10=225|8=FIX.4.4|9=212|35=A|34=63|49=Jeff|52=20230916-17:53:06.131228|56=BfxComp|98=0|108=30|141=N|341=20230916-17:00:00.000|553=ileMZ7r7aA9dg1f0qZ2KzFnJl010FZ9LX0JERBKs5D7|554=XgorEH1OJblVE4bs3iu8hdiWaMsCoeD39wjskZmsNBb|9010=Y|9011=Y|10=245|8=FIX.4.4|9=212|35=A|34=64|49=Jeff|52=20230916-17:53:08.048835|56=BfxComp|98=0|108=30|141=N|341=20230916-17:00:00.000|553=ileMZ7r7aA9dg1f0qZ2KzFnJl010FZ9LX0JERBKs5D7|554=XgorEH1OJblVE4bs3iu8hdiWaMsCoeD39wjskZmsNBb|9010=Y|9011=Y|10=003|8=FIX.4.4|9=58|35=5|34=65|49=Jeff|52=20230916-17:53:08.074924|56=BfxComp|10=235|8=FIX.4.4|9=212|35=A|34=66|49=Jeff|52=20230916-17:53:08.075720|56=BfxComp|98=0|108=30|141=N|341=20230916-17:00:00.000|553=ileMZ7r7aA9dg1f0qZ2KzFnJl010FZ9LX0JERBKs5D7|554=XgorEH1OJblVE4bs3iu8hdiWaMsCoeD39wjskZmsNBb|9010=Y|9011=Y|10=254|8=FIX.4.4|9=212|35=A|34=67|49=Jeff|52=20230916-17:53:10.947671|56=BfxComp|98=0|108=30|141=N|341=20230916-17:00:00.000|553=ileMZ7r7aA9dg1f0qZ2KzFnJl010FZ9LX0JERBKs5D7|554=XgorEH1OJblVE4bs3iu8hdiWaMsCoeD39wjskZmsNBb|9010=Y|9011=Y|10=005|8=FIX.4.4|9=68|35=2|34=68|49=Jeff|52=20230916-17:53:10.966057|56=BfxComp|7=23|16=0|10=155|8=FIX.4.4|9=212|35=A|34=69|49=Jeff|52=20230916-17:53:23.350429|56=BfxComp|98=0|108=30|141=N|341=20230916-17:00:00.000|553=ileMZ7r7aA9dg1f0qZ2KzFnJl010FZ9LX0JERBKs5D7|554=XgorEH1OJblVE4bs3iu8hdiWaMsCoeD39wjskZmsNBb|9010=Y|9011=Y|10=000|8=FIX.4.4|9=212|35=A|34=70|49=Jeff|52=20230916-17:53:34.149406|56=BfxComp|98=0|108=30|141=N|341=20230916-17:00:00.000|553=ileMZ7r7aA9dg1f0qZ2KzFnJl010FZ9LX0JERBKs5D7|554=XgorEH1OJblVE4bs3iu8hdiWaMsCoeD39wjskZmsNBb|9010=Y|9011=Y|10=251|8=FIX.4.4|9=69|35=2|34=71|49=Jeff|52=20230916-17:53:34.165939|56=BfxComp|7=147|16=0|10=211|8=FIX.4.4|9=212|35=A|34=72|49=Jeff|52=20230916-17:53:35.479641|56=BfxComp|98=0|108=30|141=N|341=20230916-17:00:00.000|553=ileMZ7r7aA9dg1f0qZ2KzFnJl010FZ9LX0JERBKs5D7|554=XgorEH1OJblVE4bs3iu8hdiWaMsCoeD39wjskZmsNBb|9010=Y|9011=Y|10=005|8=FIX.4.4|9=69|35=2|34=73|49=Jeff|52=20230916-17:53:35.499161|56=BfxComp|7=162|16=0|10=208|8=FIX.4.4|9=212|35=A|34=74|49=Jeff|52=20230916-17:53:37.168588|56=BfxComp|98=0|108=30|141=N|341=20230916-17:00:00.000|553=ileMZ7r7aA9dg1f0qZ2KzFnJl010FZ9LX0JERBKs5D7|554=XgorEH1OJblVE4bs3iu8hdiWaMsCoeD39wjskZmsNBb|9010=Y|9011=Y|10=014|