8=FIX.4.4|9=219|35=A|34=1|49=ValonOrdComp01-3|52=20230914-08:50:25.761148|56=BfxComp|98=0|108=30|141=N|341=20230101-00:00:00|553=Q3hyTE8bgkdLmOh4t22QNSTo8Vvwi563TECskCoh2Ug|554=Pys5cnzNQiGYJpF6DqY6iyAjTTdcmCZcAAMxMoxxYWM|9010=Y|9011=Y|10=048|8=FIX.4.4|9=219|35=A|34=2|49=ValonOrdComp01-3|52=20230914-08:50:27.116227|56=BfxComp|98=0|108=30|141=N|341=20230101-00:00:00|553=Q3hyTE8bgkdLmOh4t22QNSTo8Vvwi563TECskCoh2Ug|554=Pys5cnzNQiGYJpF6DqY6iyAjTTdcmCZcAAMxMoxxYWM|9010=Y|9011=Y|10=043|8=FIX.4.4|9=219|35=A|34=3|49=ValonOrdComp01-3|52=20230914-08:50:29.530551|56=BfxComp|98=0|108=30|141=N|341=20230101-00:00:00|553=Q3hyTE8bgkdLmOh4t22QNSTo8Vvwi563TECskCoh2Ug|554=Pys5cnzNQiGYJpF6DqY6iyAjTTdcmCZcAAMxMoxxYWM|9010=Y|9011=Y|10=046|8=FIX.4.4|9=219|35=A|34=4|49=ValonOrdComp01-3|52=20230914-08:50:31.820177|56=BfxComp|98=0|108=30|141=N|341=20230101-00:00:00|553=Q3hyTE8bgkdLmOh4t22QNSTo8Vvwi563TECskCoh2Ug|554=Pys5cnzNQiGYJpF6DqY6iyAjTTdcmCZcAAMxMoxxYWM|9010=Y|9011=Y|10=046|8=FIX.4.4|9=219|35=A|34=5|49=ValonOrdComp01-3|52=20230914-08:50:33.280040|56=BfxComp|98=0|108=30|141=N|341=20230101-00:00:00|553=Q3hyTE8bgkdLmOh4t22QNSTo8Vvwi563TECskCoh2Ug|554=Pys5cnzNQiGYJpF6DqY6iyAjTTdcmCZcAAMxMoxxYWM|9010=Y|9011=Y|10=038|8=FIX.4.4|9=219|35=A|34=6|49=ValonOrdComp01-3|52=20230914-08:50:35.273238|56=BfxComp|98=0|108=30|141=N|341=20230101-00:00:00|553=Q3hyTE8bgkdLmOh4t22QNSTo8Vvwi563TECskCoh2Ug|554=Pys5cnzNQiGYJpF6DqY6iyAjTTdcmCZcAAMxMoxxYWM|9010=Y|9011=Y|10=052|