8=FIX.4.4|9=113|35=A|34=1|49=ValonMDComp10|52=20240205-21:10:15.318575|56=GtwComp|98=0|108=30|141=Y|553=test|554=password|9011=Y|10=124|