8=FIX.4.4|9=111|35=A|34=1|49=ValonMDComp05|52=20230726-20:15:39.561193|56=BfxComp|98=0|108=30|553=valonmd|554=y4=#I~5&Stiqf$Xg|10=193|8=FIX.4.4|9=111|35=A|34=2|49=ValonMDComp05|52=20230726-20:15:43.218291|56=BfxComp|98=0|108=30|553=valonmd|554=y4=#I~5&Stiqf$Xg|10=187|8=FIX.4.4|9=111|35=A|34=3|49=ValonMDComp05|52=20230726-20:15:45.870031|56=BfxComp|98=0|108=30|553=valonmd|554=y4=#I~5&Stiqf$Xg|10=186|8=FIX.4.4|9=111|35=A|34=4|49=ValonMDComp05|52=20230726-20:15:49.519443|56=BfxComp|98=0|108=30|553=valonmd|554=y4=#I~5&Stiqf$Xg|10=198|8=FIX.4.4|9=111|35=A|34=5|49=ValonMDComp05|52=20230726-20:15:53.268635|56=BfxComp|98=0|108=30|553=valonmd|554=y4=#I~5&Stiqf$Xg|10=198|8=FIX.4.4|9=111|35=A|34=6|49=ValonMDComp05|52=20230726-20:15:55.948866|56=BfxComp|98=0|108=30|553=valonmd|554=y4=#I~5&Stiqf$Xg|10=212|8=FIX.4.4|9=111|35=A|34=7|49=ValonMDComp05|52=20230726-20:15:59.591620|56=BfxComp|98=0|108=30|553=valonmd|554=y4=#I~5&Stiqf$Xg|10=199|8=FIX.4.4|9=111|35=A|34=8|49=ValonMDComp05|52=20230726-20:16:03.633003|56=BfxComp|98=0|108=30|553=valonmd|554=y4=#I~5&Stiqf$Xg|10=182|8=FIX.4.4|9=111|35=A|34=9|49=ValonMDComp05|52=20230726-20:16:07.375194|56=BfxComp|98=0|108=30|553=valonmd|554=y4=#I~5&Stiqf$Xg|10=201|8=FIX.4.4|9=112|35=A|34=10|49=ValonMDComp05|52=20230726-20:16:10.062048|56=BfxComp|98=0|108=30|553=valonmd|554=y4=#I~5&Stiqf$Xg|10=227|8=FIX.4.4|9=112|35=A|34=11|49=ValonMDComp05|52=20230726-20:16:13.701690|56=BfxComp|98=0|108=30|553=valonmd|554=y4=#I~5&Stiqf$Xg|10=234|8=FIX.4.4|9=112|35=A|34=12|49=ValonMDComp05|52=20230726-20:16:17.547276|56=BfxComp|98=0|108=30|553=valonmd|554=y4=#I~5&Stiqf$Xg|10=247|8=FIX.4.4|9=112|35=A|34=13|49=ValonMDComp05|52=20230726-20:16:21.217059|56=BfxComp|98=0|108=30|553=valonmd|554=y4=#I~5&Stiqf$Xg|10=236|