8=FIX.4.4|9=212|35=A|34=1|49=Jeff8|52=20230918-12:03:56.752038|56=BfxComp|98=0|108=30|141=N|341=20230918-08:00:00.000|553=ileMZ7r7aA9dg1f0qZ2KzFnJl010FZ9LX0JERBKs5D7|554=XgorEH1OJblVE4bs3iu8hdiWaMsCoeD39wjskZmsNBb|9010=Y|9011=Y|10=252|8=FIX.4.4|9=212|35=A|34=2|49=Jeff8|52=20230918-12:04:06.984739|56=BfxComp|98=0|108=30|141=N|341=20230918-08:00:00.000|553=ileMZ7r7aA9dg1f0qZ2KzFnJl010FZ9LX0JERBKs5D7|554=XgorEH1OJblVE4bs3iu8hdiWaMsCoeD39wjskZmsNBb|9010=Y|9011=Y|10=008|8=FIX.4.4|9=212|35=A|34=3|49=Jeff8|52=20230918-12:04:08.982008|56=BfxComp|98=0|108=30|141=N|341=20230918-08:00:00.000|553=ileMZ7r7aA9dg1f0qZ2KzFnJl010FZ9LX0JERBKs5D7|554=XgorEH1OJblVE4bs3iu8hdiWaMsCoeD39wjskZmsNBb|9010=Y|9011=Y|10=254|8=FIX.4.4|9=67|35=2|34=4|49=Jeff8|52=20230918-12:04:12.357957|56=BfxComp|7=1|16=0|10=098|8=FIX.4.4|9=58|35=5|34=5|49=Jeff8|52=20230918-12:04:29.281788|56=BfxComp|10=241|8=FIX.4.4|9=212|35=A|34=6|49=Jeff8|52=20230918-12:04:29.282273|56=BfxComp|98=0|108=30|141=N|341=20230918-08:00:00.000|553=ileMZ7r7aA9dg1f0qZ2KzFnJl010FZ9LX0JERBKs5D7|554=XgorEH1OJblVE4bs3iu8hdiWaMsCoeD39wjskZmsNBb|9010=Y|9011=Y|10=001|8=FIX.4.4|9=212|35=A|34=7|49=Jeff8|52=20230918-12:04:30.072629|56=BfxComp|98=0|108=30|141=N|341=20230918-08:00:00.000|553=ileMZ7r7aA9dg1f0qZ2KzFnJl010FZ9LX0JERBKs5D7|554=XgorEH1OJblVE4bs3iu8hdiWaMsCoeD39wjskZmsNBb|9010=Y|9011=Y|10=252|8=FIX.4.4|9=212|35=A|34=8|49=Jeff8|52=20230918-12:04:32.443543|56=BfxComp|98=0|108=30|141=N|341=20230918-08:00:00.000|553=ileMZ7r7aA9dg1f0qZ2KzFnJl010FZ9LX0JERBKs5D7|554=XgorEH1OJblVE4bs3iu8hdiWaMsCoeD39wjskZmsNBb|9010=Y|9011=Y|10=252|8=FIX.4.4|9=70|35=2|34=9|49=Jeff8|52=20230918-12:04:32.459833|56=BfxComp|7=1648|16=0|10=001|8=FIX.4.4|9=59|35=5|34=10|49=Jeff8|52=20230918-12:04:46.286584|56=BfxComp|10=028|8=FIX.4.4|9=213|35=A|34=11|49=Jeff8|52=20230918-12:04:46.287355|56=BfxComp|98=0|108=30|141=N|341=20230918-08:00:00.000|553=ileMZ7r7aA9dg1f0qZ2KzFnJl010FZ9LX0JERBKs5D7|554=XgorEH1OJblVE4bs3iu8hdiWaMsCoeD39wjskZmsNBb|9010=Y|9011=Y|10=051|8=FIX.4.4|9=213|35=A|34=12|49=Jeff8|52=20230918-12:04:48.727276|56=BfxComp|98=0|108=30|141=N|341=20230918-08:00:00.000|553=ileMZ7r7aA9dg1f0qZ2KzFnJl010FZ9LX0JERBKs5D7|554=XgorEH1OJblVE4bs3iu8hdiWaMsCoeD39wjskZmsNBb|9010=Y|9011=Y|10=055|