8=FIX.4.4|9=126|35=A|34=1|49=ValonPaperOrdComp01|52=20240428-16:24:53.410507|56=GtwComp|98=0|108=30|141=Y|553=test|554=password|9010=Y|9011=Y|10=115|8=FIX.4.4|9=147|35=D|34=2|49=ValonPaperOrdComp01|52=20240428-16:24:55.618109|56=GtwComp|11=0|38=0.0001|40=2|44=1|54=1|55=TESTBTC:TESTUSD|59=0|60=20240428-16:24:55|10=193|8=FIX.4.4|9=147|35=D|34=3|49=ValonPaperOrdComp01|52=20240428-16:24:55.618612|56=GtwComp|11=1|38=0.0001|40=2|44=1|54=1|55=TESTBTC:TESTUSD|59=0|60=20240428-16:24:55|10=194|8=FIX.4.4|9=147|35=D|34=4|49=ValonPaperOrdComp01|52=20240428-16:24:55.618920|56=GtwComp|11=2|38=0.0001|40=2|44=1|54=1|55=TESTBTC:TESTUSD|59=0|60=20240428-16:24:55|10=198|8=FIX.4.4|9=147|35=D|34=5|49=ValonPaperOrdComp01|52=20240428-16:24:55.619259|56=GtwComp|11=3|38=0.0001|40=2|44=1|54=1|55=TESTBTC:TESTUSD|59=0|60=20240428-16:24:55|10=206|8=FIX.4.4|9=147|35=D|34=6|49=ValonPaperOrdComp01|52=20240428-16:24:55.619590|56=GtwComp|11=4|38=0.0001|40=2|44=1|54=1|55=TESTBTC:TESTUSD|59=0|60=20240428-16:24:55|10=206|8=FIX.4.4|9=147|35=D|34=7|49=ValonPaperOrdComp01|52=20240428-16:24:55.619847|56=GtwComp|11=5|38=0.0001|40=2|44=1|54=1|55=TESTBTC:TESTUSD|59=0|60=20240428-16:24:55|10=213|8=FIX.4.4|9=147|35=D|34=8|49=ValonPaperOrdComp01|52=20240428-16:24:55.620127|56=GtwComp|11=6|38=0.0001|40=2|44=1|54=1|55=TESTBTC:TESTUSD|59=0|60=20240428-16:24:55|10=198|8=FIX.4.4|9=147|35=D|34=9|49=ValonPaperOrdComp01|52=20240428-16:24:55.620419|56=GtwComp|11=7|38=0.0001|40=2|44=1|54=1|55=TESTBTC:TESTUSD|59=0|60=20240428-16:24:55|10=204|8=FIX.4.4|9=148|35=D|34=10|49=ValonPaperOrdComp01|52=20240428-16:24:55.620726|56=GtwComp|11=8|38=0.0001|40=2|44=1|54=1|55=TESTBTC:TESTUSD|59=0|60=20240428-16:24:55|10=247|8=FIX.4.4|9=148|35=D|34=11|49=ValonPaperOrdComp01|52=20240428-16:24:55.620947|56=GtwComp|11=9|38=0.0001|40=2|44=1|54=1|55=TESTBTC:TESTUSD|59=0|60=20240428-16:24:55|10=254|8=FIX.4.4|9=149|35=D|34=12|49=ValonPaperOrdComp01|52=20240428-16:24:55.621227|56=GtwComp|11=10|38=0.0001|40=2|44=1|54=1|55=TESTBTC:TESTUSD|59=0|60=20240428-16:24:55|10=032|8=FIX.4.4|9=149|35=D|34=13|49=ValonPaperOrdComp01|52=20240428-16:24:55.621484|56=GtwComp|11=11|38=0.0001|40=2|44=1|54=1|55=TESTBTC:TESTUSD|59=0|60=20240428-16:24:55|10=039|8=FIX.4.4|9=149|35=D|34=14|49=ValonPaperOrdComp01|52=20240428-16:24:55.621737|56=GtwComp|11=12|38=0.0001|40=2|44=1|54=1|55=TESTBTC:TESTUSD|59=0|60=20240428-16:24:55|10=042|8=FIX.4.4|9=149|35=D|34=15|49=ValonPaperOrdComp01|52=20240428-16:24:55.622051|56=GtwComp|11=13|38=0.0001|40=2|44=1|54=1|55=TESTBTC:TESTUSD|59=0|60=20240428-16:24:55|10=034|8=FIX.4.4|9=149|35=D|34=16|49=ValonPaperOrdComp01|52=20240428-16:24:55.622291|56=GtwComp|11=14|38=0.0001|40=2|44=1|54=1|55=TESTBTC:TESTUSD|59=0|60=20240428-16:24:55|10=042|8=FIX.4.4|9=149|35=D|34=17|49=ValonPaperOrdComp01|52=20240428-16:24:55.622685|56=GtwComp|11=15|38=0.0001|40=2|44=1|54=1|55=TESTBTC:TESTUSD|59=0|60=20240428-16:24:55|10=051|8=FIX.4.4|9=149|35=D|34=18|49=ValonPaperOrdComp01|52=20240428-16:24:55.622966|56=GtwComp|11=16|38=0.0001|40=2|44=1|54=1|55=TESTBTC:TESTUSD|59=0|60=20240428-16:24:55|10=055|8=FIX.4.4|9=149|35=D|34=19|49=ValonPaperOrdComp01|52=20240428-16:24:55.623296|56=GtwComp|11=17|38=0.0001|40=2|44=1|54=1|55=TESTBTC:TESTUSD|59=0|60=20240428-16:24:55|10=054|8=FIX.4.4|9=149|35=D|34=20|49=ValonPaperOrdComp01|52=20240428-16:24:55.623622|56=GtwComp|11=18|38=0.0001|40=2|44=1|54=1|55=TESTBTC:TESTUSD|59=0|60=20240428-16:24:55|10=040|8=FIX.4.4|9=149|35=D|34=21|49=ValonPaperOrdComp01|52=20240428-16:24:55.623908|56=GtwComp|11=19|38=0.0001|40=2|44=1|54=1|55=TESTBTC:TESTUSD|59=0|60=20240428-16:24:55|10=049|8=FIX.4.4|9=149|35=D|34=22|49=ValonPaperOrdComp01|52=20240428-16:24:55.624316|56=GtwComp|11=20|38=0.0001|40=2|44=1|54=1|55=TESTBTC:TESTUSD|59=0|60=20240428-16:24:55|10=036|8=FIX.4.4|9=149|35=D|34=23|49=ValonPaperOrdComp01|52=20240428-16:24:55.624569|56=GtwComp|11=21|38=0.0001|40=2|44=1|54=1|55=TESTBTC:TESTUSD|59=0|60=20240428-16:24:55|10=048|8=FIX.4.4|9=149|35=D|34=24|49=ValonPaperOrdComp01|52=20240428-16:24:55.624886|56=GtwComp|11=22|38=0.0001|40=2|44=1|54=1|55=TESTBTC:TESTUSD|59=0|60=20240428-16:24:55|10=052|8=FIX.4.4|9=149|35=D|34=25|49=ValonPaperOrdComp01|52=20240428-16:24:55.625322|56=GtwComp|11=23|38=0.0001|40=2|44=1|54=1|55=TESTBTC:TESTUSD|59=0|60=20240428-16:24:55|10=040|8=FIX.4.4|9=149|35=D|34=26|49=ValonPaperOrdComp01|52=20240428-16:24:55.625830|56=GtwComp|11=24|38=0.0001|40=2|44=1|54=1|55=TESTBTC:TESTUSD|59=0|60=20240428-16:24:55|10=046|8=FIX.4.4|9=149|35=D|34=27|49=ValonPaperOrdComp01|52=20240428-16:24:55.626134|56=GtwComp|11=25|38=0.0001|40=2|44=1|54=1|55=TESTBTC:TESTUSD|59=0|60=20240428-16:24:55|10=046|8=FIX.4.4|9=149|35=D|34=28|49=ValonPaperOrdComp01|52=20240428-16:24:55.626588|56=GtwComp|11=26|38=0.0001|40=2|44=1|54=1|55=TESTBTC:TESTUSD|59=0|60=20240428-16:24:55|10=061|8=FIX.4.4|9=149|35=D|34=29|49=ValonPaperOrdComp01|52=20240428-16:24:55.626887|56=GtwComp|11=27|38=0.0001|40=2|44=1|54=1|55=TESTBTC:TESTUSD|59=0|60=20240428-16:24:55|10=065|8=FIX.4.4|9=149|35=D|34=30|49=ValonPaperOrdComp01|52=20240428-16:24:55.627282|56=GtwComp|11=28|38=0.0001|40=2|44=1|54=1|55=TESTBTC:TESTUSD|59=0|60=20240428-16:24:55|10=048|8=FIX.4.4|9=149|35=D|34=31|49=ValonPaperOrdComp01|52=20240428-16:24:55.627642|56=GtwComp|11=29|38=0.0001|40=2|44=1|54=1|55=TESTBTC:TESTUSD|59=0|60=20240428-16:24:55|10=050|8=FIX.4.4|9=149|35=D|34=32|49=ValonPaperOrdComp01|52=20240428-16:24:55.627900|56=GtwComp|11=30|38=0.0001|40=2|44=1|54=1|55=TESTBTC:TESTUSD|59=0|60=20240428-16:24:55|10=040|8=FIX.4.4|9=149|35=D|34=33|49=ValonPaperOrdComp01|52=20240428-16:24:55.628165|56=GtwComp|11=31|38=0.0001|40=2|44=1|54=1|55=TESTBTC:TESTUSD|59=0|60=20240428-16:24:55|10=046|8=FIX.4.4|9=149|35=D|34=34|49=ValonPaperOrdComp01|52=20240428-16:24:55.628459|56=GtwComp|11=32|38=0.0001|40=2|44=1|54=1|55=TESTBTC:TESTUSD|59=0|60=20240428-16:24:55|10=054|8=FIX.4.4|9=149|35=D|34=35|49=ValonPaperOrdComp01|52=20240428-16:24:55.628760|56=GtwComp|11=33|38=0.0001|40=2|44=1|54=1|55=TESTBTC:TESTUSD|59=0|60=20240428-16:24:55|10=051|8=FIX.4.4|9=149|35=D|34=36|49=ValonPaperOrdComp01|52=20240428-16:24:55.643166|56=GtwComp|11=34|38=0.0001|40=2|44=1|54=1|55=TESTBTC:TESTUSD|59=0|60=20240428-16:24:55|10=050|8=FIX.4.4|9=149|35=D|34=37|49=ValonPaperOrdComp01|52=20240428-16:24:55.643930|56=GtwComp|11=35|38=0.0001|40=2|44=1|54=1|55=TESTBTC:TESTUSD|59=0|60=20240428-16:24:55|10=051|8=FIX.4.4|9=149|35=D|34=38|49=ValonPaperOrdComp01|52=20240428-16:24:55.644323|56=GtwComp|11=36|38=0.0001|40=2|44=1|54=1|55=TESTBTC:TESTUSD|59=0|60=20240428-16:24:55|10=050|8=FIX.4.4|9=149|35=D|34=39|49=ValonPaperOrdComp01|52=20240428-16:24:55.644643|56=GtwComp|11=37|38=0.0001|40=2|44=1|54=1|55=TESTBTC:TESTUSD|59=0|60=20240428-16:24:55|10=057|8=FIX.4.4|9=149|35=D|34=40|49=ValonPaperOrdComp01|52=20240428-16:24:55.644978|56=GtwComp|11=38|38=0.0001|40=2|44=1|54=1|55=TESTBTC:TESTUSD|59=0|60=20240428-16:24:55|10=061|8=FIX.4.4|9=149|35=D|34=41|49=ValonPaperOrdComp01|52=20240428-16:24:55.645329|56=GtwComp|11=39|38=0.0001|40=2|44=1|54=1|55=TESTBTC:TESTUSD|59=0|60=20240428-16:24:55|10=054|8=FIX.4.4|9=149|35=D|34=42|49=ValonPaperOrdComp01|52=20240428-16:24:55.645709|56=GtwComp|11=40|38=0.0001|40=2|44=1|54=1|55=TESTBTC:TESTUSD|59=0|60=20240428-16:24:55|10=049|8=FIX.4.4|9=149|35=D|34=43|49=ValonPaperOrdComp01|52=20240428-16:24:55.646054|56=GtwComp|11=41|38=0.0001|40=2|44=1|54=1|55=TESTBTC:TESTUSD|59=0|60=20240428-16:24:55|10=045|8=FIX.4.4|9=149|35=D|34=44|49=ValonPaperOrdComp01|52=20240428-16:24:55.646416|56=GtwComp|11=42|38=0.0001|40=2|44=1|54=1|55=TESTBTC:TESTUSD|59=0|60=20240428-16:24:55|10=049|8=FIX.4.4|9=149|35=D|34=45|49=ValonPaperOrdComp01|52=20240428-16:24:55.646780|56=GtwComp|11=43|38=0.0001|40=2|44=1|54=1|55=TESTBTC:TESTUSD|59=0|60=20240428-16:24:55|10=055|8=FIX.4.4|9=149|35=D|34=46|49=ValonPaperOrdComp01|52=20240428-16:24:55.647125|56=GtwComp|11=44|38=0.0001|40=2|44=1|54=1|55=TESTBTC:TESTUSD|59=0|60=20240428-16:24:55|10=051|8=FIX.4.4|9=149|35=D|34=47|49=ValonPaperOrdComp01|52=20240428-16:24:55.647438|56=GtwComp|11=45|38=0.0001|40=2|44=1|54=1|55=TESTBTC:TESTUSD|59=0|60=20240428-16:24:55|10=060|8=FIX.4.4|9=149|35=D|34=48|49=ValonPaperOrdComp01|52=20240428-16:24:55.647778|56=GtwComp|11=46|38=0.0001|40=2|44=1|54=1|55=TESTBTC:TESTUSD|59=0|60=20240428-16:24:55|10=069|8=FIX.4.4|9=149|35=D|34=49|49=ValonPaperOrdComp01|52=20240428-16:24:55.648145|56=GtwComp|11=47|38=0.0001|40=2|44=1|54=1|55=TESTBTC:TESTUSD|59=0|60=20240428-16:24:55|10=060|8=FIX.4.4|9=149|35=D|34=50|49=ValonPaperOrdComp01|52=20240428-16:24:55.648621|56=GtwComp|11=48|38=0.0001|40=2|44=1|54=1|55=TESTBTC:TESTUSD|59=0|60=20240428-16:24:55|10=052|8=FIX.4.4|9=149|35=D|34=51|49=ValonPaperOrdComp01|52=20240428-16:24:55.648908|56=GtwComp|11=49|38=0.0001|40=2|44=1|54=1|55=TESTBTC:TESTUSD|59=0|60=20240428-16:24:55|10=062|8=FIX.4.4|9=149|35=D|34=52|49=ValonPaperOrdComp01|52=20240428-16:24:55.649233|56=GtwComp|11=50|38=0.0001|40=2|44=1|54=1|55=TESTBTC:TESTUSD|59=0|60=20240428-16:24:55|10=047|8=FIX.4.4|9=149|35=D|34=53|49=ValonPaperOrdComp01|52=20240428-16:24:55.649537|56=GtwComp|11=51|38=0.0001|40=2|44=1|54=1|55=TESTBTC:TESTUSD|59=0|60=20240428-16:24:55|10=056|8=FIX.4.4|9=149|35=D|34=54|49=ValonPaperOrdComp01|52=20240428-16:24:55.649866|56=GtwComp|11=52|38=0.0001|40=2|44=1|54=1|55=TESTBTC:TESTUSD|59=0|60=20240428-16:24:55|10=063|8=FIX.4.4|9=149|35=D|34=55|49=ValonPaperOrdComp01|52=20240428-16:24:55.650230|56=GtwComp|11=53|38=0.0001|40=2|44=1|54=1|55=TESTBTC:TESTUSD|59=0|60=20240428-16:24:55|10=042|8=FIX.4.4|9=149|35=D|34=56|49=ValonPaperOrdComp01|52=20240428-16:24:55.650618|56=GtwComp|11=54|38=0.0001|40=2|44=1|54=1|55=TESTBTC:TESTUSD|59=0|60=20240428-16:24:55|10=054|8=FIX.4.4|9=149|35=D|34=57|49=ValonPaperOrdComp01|52=20240428-16:24:55.650951|56=GtwComp|11=55|38=0.0001|40=2|44=1|54=1|55=TESTBTC:TESTUSD|59=0|60=20240428-16:24:55|10=056|8=FIX.4.4|9=149|35=D|34=58|49=ValonPaperOrdComp01|52=20240428-16:24:55.651241|56=GtwComp|11=56|38=0.0001|40=2|44=1|54=1|55=TESTBTC:TESTUSD|59=0|60=20240428-16:24:55|10=051|8=FIX.4.4|9=149|35=D|34=59|49=ValonPaperOrdComp01|52=20240428-16:24:55.651460|56=GtwComp|11=57|38=0.0001|40=2|44=1|54=1|55=TESTBTC:TESTUSD|59=0|60=20240428-16:24:55|10=056|8=FIX.4.4|9=149|35=D|34=60|49=ValonPaperOrdComp01|52=20240428-16:24:55.651749|56=GtwComp|11=58|38=0.0001|40=2|44=1|54=1|55=TESTBTC:TESTUSD|59=0|60=20240428-16:24:55|10=059|8=FIX.4.4|9=149|35=D|34=61|49=ValonPaperOrdComp01|52=20240428-16:24:55.651986|56=GtwComp|11=59|38=0.0001|40=2|44=1|54=1|55=TESTBTC:TESTUSD|59=0|60=20240428-16:24:55|10=064|8=FIX.4.4|9=149|35=D|34=62|49=ValonPaperOrdComp01|52=20240428-16:24:55.652204|56=GtwComp|11=60|38=0.0001|40=2|44=1|54=1|55=TESTBTC:TESTUSD|59=0|60=20240428-16:24:55|10=041|8=FIX.4.4|9=149|35=D|34=63|49=ValonPaperOrdComp01|52=20240428-16:24:55.652409|56=GtwComp|11=61|38=0.0001|40=2|44=1|54=1|55=TESTBTC:TESTUSD|59=0|60=20240428-16:24:55|10=050|8=FIX.4.4|9=149|35=D|34=64|49=ValonPaperOrdComp01|52=20240428-16:24:55.652567|56=GtwComp|11=62|38=0.0001|40=2|44=1|54=1|55=TESTBTC:TESTUSD|59=0|60=20240428-16:24:55|10=057|8=FIX.4.4|9=149|35=D|34=65|49=ValonPaperOrdComp01|52=20240428-16:24:55.652715|56=GtwComp|11=63|38=0.0001|40=2|44=1|54=1|55=TESTBTC:TESTUSD|59=0|60=20240428-16:24:55|10=054|8=FIX.4.4|9=149|35=D|34=66|49=ValonPaperOrdComp01|52=20240428-16:24:55.652859|56=GtwComp|11=64|38=0.0001|40=2|44=1|54=1|55=TESTBTC:TESTUSD|59=0|60=20240428-16:24:55|10=065|8=FIX.4.4|9=149|35=D|34=67|49=ValonPaperOrdComp01|52=20240428-16:24:55.653001|56=GtwComp|11=65|38=0.0001|40=2|44=1|54=1|55=TESTBTC:TESTUSD|59=0|60=20240428-16:24:55|10=047|8=FIX.4.4|9=149|35=D|34=68|49=ValonPaperOrdComp01|52=20240428-16:24:55.653140|56=GtwComp|11=66|38=0.0001|40=2|44=1|54=1|55=TESTBTC:TESTUSD|59=0|60=20240428-16:24:55|10=053|8=FIX.4.4|9=149|35=D|34=69|49=ValonPaperOrdComp01|52=20240428-16:24:55.653277|56=GtwComp|11=67|38=0.0001|40=2|44=1|54=1|55=TESTBTC:TESTUSD|59=0|60=20240428-16:24:55|10=066|8=FIX.4.4|9=149|35=D|34=70|49=ValonPaperOrdComp01|52=20240428-16:24:55.653416|56=GtwComp|11=68|38=0.0001|40=2|44=1|54=1|55=TESTBTC:TESTUSD|59=0|60=20240428-16:24:55|10=054|8=FIX.4.4|9=149|35=D|34=71|49=ValonPaperOrdComp01|52=20240428-16:24:55.653576|56=GtwComp|11=69|38=0.0001|40=2|44=1|54=1|55=TESTBTC:TESTUSD|59=0|60=20240428-16:24:55|10=063|8=FIX.4.4|9=149|35=D|34=72|49=ValonPaperOrdComp01|52=20240428-16:24:55.653795|56=GtwComp|11=70|38=0.0001|40=2|44=1|54=1|55=TESTBTC:TESTUSD|59=0|60=20240428-16:24:55|10=059|8=FIX.4.4|9=149|35=D|34=73|49=ValonPaperOrdComp01|52=20240428-16:24:55.656715|56=GtwComp|11=71|38=0.0001|40=2|44=1|54=1|55=TESTBTC:TESTUSD|59=0|60=20240428-16:24:55|10=056|8=FIX.4.4|9=149|35=D|34=74|49=ValonPaperOrdComp01|52=20240428-16:24:55.657150|56=GtwComp|11=72|38=0.0001|40=2|44=1|54=1|55=TESTBTC:TESTUSD|59=0|60=20240428-16:24:55|10=052|8=FIX.4.4|9=149|35=D|34=75|49=ValonPaperOrdComp01|52=20240428-16:24:55.657506|56=GtwComp|11=73|38=0.0001|40=2|44=1|54=1|55=TESTBTC:TESTUSD|59=0|60=20240428-16:24:55|10=059|8=FIX.4.4|9=149|35=D|34=76|49=ValonPaperOrdComp01|52=20240428-16:24:55.657820|56=GtwComp|11=74|38=0.0001|40=2|44=1|54=1|55=TESTBTC:TESTUSD|59=0|60=20240428-16:24:55|10=060|8=FIX.4.4|9=149|35=D|34=77|49=ValonPaperOrdComp01|52=20240428-16:24:55.658158|56=GtwComp|11=75|38=0.0001|40=2|44=1|54=1|55=TESTBTC:TESTUSD|59=0|60=20240428-16:24:55|10=067|8=FIX.4.4|9=149|35=D|34=78|49=ValonPaperOrdComp01|52=20240428-16:24:55.658423|56=GtwComp|11=76|38=0.0001|40=2|44=1|54=1|55=TESTBTC:TESTUSD|59=0|60=20240428-16:24:55|10=064|8=FIX.4.4|9=149|35=D|34=79|49=ValonPaperOrdComp01|52=20240428-16:24:55.658805|56=GtwComp|11=77|38=0.0001|40=2|44=1|54=1|55=TESTBTC:TESTUSD|59=0|60=20240428-16:24:55|10=070|8=FIX.4.4|9=149|35=D|34=80|49=ValonPaperOrdComp01|52=20240428-16:24:55.659149|56=GtwComp|11=78|38=0.0001|40=2|44=1|54=1|55=TESTBTC:TESTUSD|59=0|60=20240428-16:24:55|10=065|8=FIX.4.4|9=149|35=D|34=81|49=ValonPaperOrdComp01|52=20240428-16:24:55.659578|56=GtwComp|11=79|38=0.0001|40=2|44=1|54=1|55=TESTBTC:TESTUSD|59=0|60=20240428-16:24:55|10=073|8=FIX.4.4|9=149|35=D|34=82|49=ValonPaperOrdComp01|52=20240428-16:24:55.659835|56=GtwComp|11=80|38=0.0001|40=2|44=1|54=1|55=TESTBTC:TESTUSD|59=0|60=20240428-16:24:55|10=062|8=FIX.4.4|9=149|35=D|34=83|49=ValonPaperOrdComp01|52=20240428-16:24:55.660353|56=GtwComp|11=81|38=0.0001|40=2|44=1|54=1|55=TESTBTC:TESTUSD|59=0|60=20240428-16:24:55|10=051|8=FIX.4.4|9=149|35=D|34=84|49=ValonPaperOrdComp01|52=20240428-16:24:55.660774|56=GtwComp|11=82|38=0.0001|40=2|44=1|54=1|55=TESTBTC:TESTUSD|59=0|60=20240428-16:24:55|10=060|8=FIX.4.4|9=149|35=D|34=85|49=ValonPaperOrdComp01|52=20240428-16:24:55.661098|56=GtwComp|11=83|38=0.0001|40=2|44=1|54=1|55=TESTBTC:TESTUSD|59=0|60=20240428-16:24:55|10=062|8=FIX.4.4|9=149|35=D|34=86|49=ValonPaperOrdComp01|52=20240428-16:24:55.661426|56=GtwComp|11=84|38=0.0001|40=2|44=1|54=1|55=TESTBTC:TESTUSD|59=0|60=20240428-16:24:55|10=059|8=FIX.4.4|9=149|35=D|34=87|49=ValonPaperOrdComp01|52=20240428-16:24:55.661847|56=GtwComp|11=85|38=0.0001|40=2|44=1|54=1|55=TESTBTC:TESTUSD|59=0|60=20240428-16:24:55|10=068|8=FIX.4.4|9=149|35=D|34=88|49=ValonPaperOrdComp01|52=20240428-16:24:55.663744|56=GtwComp|11=86|38=0.0001|40=2|44=1|54=1|55=TESTBTC:TESTUSD|59=0|60=20240428-16:24:55|10=068|8=FIX.4.4|9=149|35=D|34=89|49=ValonPaperOrdComp01|52=20240428-16:24:55.664079|56=GtwComp|11=87|38=0.0001|40=2|44=1|54=1|55=TESTBTC:TESTUSD|59=0|60=20240428-16:24:55|10=072|8=FIX.4.4|9=149|35=D|34=90|49=ValonPaperOrdComp01|52=20240428-16:24:55.664486|56=GtwComp|11=88|38=0.0001|40=2|44=1|54=1|55=TESTBTC:TESTUSD|59=0|60=20240428-16:24:55|10=067|8=FIX.4.4|9=149|35=D|34=91|49=ValonPaperOrdComp01|52=20240428-16:24:55.664916|56=GtwComp|11=89|38=0.0001|40=2|44=1|54=1|55=TESTBTC:TESTUSD|59=0|60=20240428-16:24:55|10=067|8=FIX.4.4|9=149|35=D|34=92|49=ValonPaperOrdComp01|52=20240428-16:24:55.665257|56=GtwComp|11=90|38=0.0001|40=2|44=1|54=1|55=TESTBTC:TESTUSD|59=0|60=20240428-16:24:55|10=059|8=FIX.4.4|9=149|35=D|34=93|49=ValonPaperOrdComp01|52=20240428-16:24:55.665575|56=GtwComp|11=91|38=0.0001|40=2|44=1|54=1|55=TESTBTC:TESTUSD|59=0|60=20240428-16:24:55|10=064|8=FIX.4.4|9=149|35=D|34=94|49=ValonPaperOrdComp01|52=20240428-16:24:55.665900|56=GtwComp|11=92|38=0.0001|40=2|44=1|54=1|55=TESTBTC:TESTUSD|59=0|60=20240428-16:24:55|10=058|8=FIX.4.4|9=149|35=D|34=95|49=ValonPaperOrdComp01|52=20240428-16:24:55.666204|56=GtwComp|11=93|38=0.0001|40=2|44=1|54=1|55=TESTBTC:TESTUSD|59=0|60=20240428-16:24:55|10=058|8=FIX.4.4|9=149|35=D|34=96|49=ValonPaperOrdComp01|52=20240428-16:24:55.666492|56=GtwComp|11=94|38=0.0001|40=2|44=1|54=1|55=TESTBTC:TESTUSD|59=0|60=20240428-16:24:55|10=069|8=FIX.4.4|9=149|35=D|34=97|49=ValonPaperOrdComp01|52=20240428-16:24:55.666996|56=GtwComp|11=95|38=0.0001|40=2|44=1|54=1|55=TESTBTC:TESTUSD|59=0|60=20240428-16:24:55|10=080|8=FIX.4.4|9=149|35=D|34=98|49=ValonPaperOrdComp01|52=20240428-16:24:55.667296|56=GtwComp|11=96|38=0.0001|40=2|44=1|54=1|55=TESTBTC:TESTUSD|59=0|60=20240428-16:24:55|10=076|8=FIX.4.4|9=149|35=D|34=99|49=ValonPaperOrdComp01|52=20240428-16:24:55.667956|56=GtwComp|11=97|38=0.0001|40=2|44=1|54=1|55=TESTBTC:TESTUSD|59=0|60=20240428-16:24:55|10=081|8=FIX.4.4|9=150|35=D|34=100|49=ValonPaperOrdComp01|52=20240428-16:24:55.668246|56=GtwComp|11=98|38=0.0001|40=2|44=1|54=1|55=TESTBTC:TESTUSD|59=0|60=20240428-16:24:55|10=098|8=FIX.4.4|9=150|35=D|34=101|49=ValonPaperOrdComp01|52=20240428-16:24:55.668656|56=GtwComp|11=99|38=0.0001|40=2|44=1|54=1|55=TESTBTC:TESTUSD|59=0|60=20240428-16:24:55|10=105|8=FIX.4.4|9=151|35=D|34=102|49=ValonPaperOrdComp01|52=20240428-16:24:55.669044|56=GtwComp|11=100|38=0.0001|40=2|44=1|54=1|55=TESTBTC:TESTUSD|59=0|60=20240428-16:24:55|10=130|8=FIX.4.4|9=151|35=D|34=103|49=ValonPaperOrdComp01|52=20240428-16:24:55.669417|56=GtwComp|11=101|38=0.0001|40=2|44=1|54=1|55=TESTBTC:TESTUSD|59=0|60=20240428-16:24:55|10=136|8=FIX.4.4|9=151|35=D|34=104|49=ValonPaperOrdComp01|52=20240428-16:24:55.674027|56=GtwComp|11=102|38=0.0001|40=2|44=1|54=1|55=TESTBTC:TESTUSD|59=0|60=20240428-16:24:55|10=131|8=FIX.4.4|9=151|35=D|34=105|49=ValonPaperOrdComp01|52=20240428-16:24:55.674736|56=GtwComp|11=103|38=0.0001|40=2|44=1|54=1|55=TESTBTC:TESTUSD|59=0|60=20240428-16:24:55|10=140|8=FIX.4.4|9=151|35=D|34=106|49=ValonPaperOrdComp01|52=20240428-16:24:55.679094|56=GtwComp|11=104|38=0.0001|40=2|44=1|54=1|55=TESTBTC:TESTUSD|59=0|60=20240428-16:24:55|10=144|8=FIX.4.4|9=151|35=D|34=107|49=ValonPaperOrdComp01|52=20240428-16:24:55.679577|56=GtwComp|11=105|38=0.0001|40=2|44=1|54=1|55=TESTBTC:TESTUSD|59=0|60=20240428-16:24:55|10=152|8=FIX.4.4|9=151|35=D|34=108|49=ValonPaperOrdComp01|52=20240428-16:24:55.679903|56=GtwComp|11=106|38=0.0001|40=2|44=1|54=1|55=TESTBTC:TESTUSD|59=0|60=20240428-16:24:55|10=147|8=FIX.4.4|9=151|35=D|34=109|49=ValonPaperOrdComp01|52=20240428-16:24:55.680232|56=GtwComp|11=107|38=0.0001|40=2|44=1|54=1|55=TESTBTC:TESTUSD|59=0|60=20240428-16:24:55|10=136|8=FIX.4.4|9=151|35=D|34=110|49=ValonPaperOrdComp01|52=20240428-16:24:55.680471|56=GtwComp|11=108|38=0.0001|40=2|44=1|54=1|55=TESTBTC:TESTUSD|59=0|60=20240428-16:24:55|10=134|8=FIX.4.4|9=151|35=D|34=111|49=ValonPaperOrdComp01|52=20240428-16:24:55.680862|56=GtwComp|11=109|38=0.0001|40=2|44=1|54=1|55=TESTBTC:TESTUSD|59=0|60=20240428-16:24:55|10=140|8=FIX.4.4|9=151|35=D|34=112|49=ValonPaperOrdComp01|52=20240428-16:24:55.681156|56=GtwComp|11=110|38=0.0001|40=2|44=1|54=1|55=TESTBTC:TESTUSD|59=0|60=20240428-16:24:55|10=130|8=FIX.4.4|9=151|35=D|34=113|49=ValonPaperOrdComp01|52=20240428-16:24:55.681515|56=GtwComp|11=111|38=0.0001|40=2|44=1|54=1|55=TESTBTC:TESTUSD|59=0|60=20240428-16:24:55|10=131|8=FIX.4.4|9=151|35=D|34=114|49=ValonPaperOrdComp01|52=20240428-16:24:55.681847|56=GtwComp|11=112|38=0.0001|40=2|44=1|54=1|55=TESTBTC:TESTUSD|59=0|60=20240428-16:24:55|10=141|8=FIX.4.4|9=151|35=D|34=115|49=ValonPaperOrdComp01|52=20240428-16:24:55.682046|56=GtwComp|11=113|38=0.0001|40=2|44=1|54=1|55=TESTBTC:TESTUSD|59=0|60=20240428-16:24:55|10=135|8=FIX.4.4|9=151|35=D|34=116|49=ValonPaperOrdComp01|52=20240428-16:24:55.682371|56=GtwComp|11=114|38=0.0001|40=2|44=1|54=1|55=TESTBTC:TESTUSD|59=0|60=20240428-16:24:55|10=138|8=FIX.4.4|9=151|35=D|34=117|49=ValonPaperOrdComp01|52=20240428-16:24:55.682730|56=GtwComp|11=115|38=0.0001|40=2|44=1|54=1|55=TESTBTC:TESTUSD|59=0|60=20240428-16:24:55|10=139|8=FIX.4.4|9=151|35=D|34=118|49=ValonPaperOrdComp01|52=20240428-16:24:55.683096|56=GtwComp|11=116|38=0.0001|40=2|44=1|54=1|55=TESTBTC:TESTUSD|59=0|60=20240428-16:24:55|10=147|8=FIX.4.4|9=151|35=D|34=119|49=ValonPaperOrdComp01|52=20240428-16:24:55.683487|56=GtwComp|11=117|38=0.0001|40=2|44=1|54=1|55=TESTBTC:TESTUSD|59=0|60=20240428-16:24:55|10=153|8=FIX.4.4|9=151|35=D|34=120|49=ValonPaperOrdComp01|52=20240428-16:24:55.683814|56=GtwComp|11=118|38=0.0001|40=2|44=1|54=1|55=TESTBTC:TESTUSD|59=0|60=20240428-16:24:55|10=140|8=FIX.4.4|9=151|35=D|34=121|49=ValonPaperOrdComp01|52=20240428-16:24:55.684206|56=GtwComp|11=119|38=0.0001|40=2|44=1|54=1|55=TESTBTC:TESTUSD|59=0|60=20240428-16:24:55|10=138|8=FIX.4.4|9=151|35=D|34=122|49=ValonPaperOrdComp01|52=20240428-16:24:55.684586|56=GtwComp|11=120|38=0.0001|40=2|44=1|54=1|55=TESTBTC:TESTUSD|59=0|60=20240428-16:24:55|10=142|8=FIX.4.4|9=151|35=D|34=123|49=ValonPaperOrdComp01|52=20240428-16:24:55.684739|56=GtwComp|11=121|38=0.0001|40=2|44=1|54=1|55=TESTBTC:TESTUSD|59=0|60=20240428-16:24:55|10=144|8=FIX.4.4|9=151|35=D|34=124|49=ValonPaperOrdComp01|52=20240428-16:24:55.684959|56=GtwComp|11=122|38=0.0001|40=2|44=1|54=1|55=TESTBTC:TESTUSD|59=0|60=20240428-16:24:55|10=150|8=FIX.4.4|9=151|35=D|34=125|49=ValonPaperOrdComp01|52=20240428-16:24:55.685158|56=GtwComp|11=123|38=0.0001|40=2|44=1|54=1|55=TESTBTC:TESTUSD|59=0|60=20240428-16:24:55|10=144|8=FIX.4.4|9=151|35=D|34=126|49=ValonPaperOrdComp01|52=20240428-16:24:55.685402|56=GtwComp|11=124|38=0.0001|40=2|44=1|54=1|55=TESTBTC:TESTUSD|59=0|60=20240428-16:24:55|10=138|8=FIX.4.4|9=151|35=D|34=127|49=ValonPaperOrdComp01|52=20240428-16:24:55.685599|56=GtwComp|11=125|38=0.0001|40=2|44=1|54=1|55=TESTBTC:TESTUSD|59=0|60=20240428-16:24:55|10=157|8=FIX.4.4|9=151|35=D|34=128|49=ValonPaperOrdComp01|52=20240428-16:24:55.685789|56=GtwComp|11=126|38=0.0001|40=2|44=1|54=1|55=TESTBTC:TESTUSD|59=0|60=20240428-16:24:55|10=160|8=FIX.4.4|9=151|35=D|34=129|49=ValonPaperOrdComp01|52=20240428-16:24:55.685983|56=GtwComp|11=127|38=0.0001|40=2|44=1|54=1|55=TESTBTC:TESTUSD|59=0|60=20240428-16:24:55|10=158|8=FIX.4.4|9=151|35=D|34=130|49=ValonPaperOrdComp01|52=20240428-16:24:55.686178|56=GtwComp|11=128|38=0.0001|40=2|44=1|54=1|55=TESTBTC:TESTUSD|59=0|60=20240428-16:24:55|10=148|8=FIX.4.4|9=151|35=D|34=131|49=ValonPaperOrdComp01|52=20240428-16:24:55.686388|56=GtwComp|11=129|38=0.0001|40=2|44=1|54=1|55=TESTBTC:TESTUSD|59=0|60=20240428-16:24:55|10=153|8=FIX.4.4|9=151|35=D|34=132|49=ValonPaperOrdComp01|52=20240428-16:24:55.686601|56=GtwComp|11=130|38=0.0001|40=2|44=1|54=1|55=TESTBTC:TESTUSD|59=0|60=20240428-16:24:55|10=134|8=FIX.4.4|9=151|35=D|34=133|49=ValonPaperOrdComp01|52=20240428-16:24:55.686790|56=GtwComp|11=131|38=0.0001|40=2|44=1|54=1|55=TESTBTC:TESTUSD|59=0|60=20240428-16:24:55|10=145|8=FIX.4.4|9=151|35=D|34=134|49=ValonPaperOrdComp01|52=20240428-16:24:55.686978|56=GtwComp|11=132|38=0.0001|40=2|44=1|54=1|55=TESTBTC:TESTUSD|59=0|60=20240428-16:24:55|10=155|8=FIX.4.4|9=151|35=D|34=135|49=ValonPaperOrdComp01|52=20240428-16:24:55.687172|56=GtwComp|11=133|38=0.0001|40=2|44=1|54=1|55=TESTBTC:TESTUSD|59=0|60=20240428-16:24:55|10=144|8=FIX.4.4|9=151|35=D|34=136|49=ValonPaperOrdComp01|52=20240428-16:24:55.687347|56=GtwComp|11=134|38=0.0001|40=2|44=1|54=1|55=TESTBTC:TESTUSD|59=0|60=20240428-16:24:55|10=150|8=FIX.4.4|9=151|35=D|34=137|49=ValonPaperOrdComp01|52=20240428-16:24:55.687557|56=GtwComp|11=135|38=0.0001|40=2|44=1|54=1|55=TESTBTC:TESTUSD|59=0|60=20240428-16:24:55|10=155|8=FIX.4.4|9=151|35=D|34=138|49=ValonPaperOrdComp01|52=20240428-16:24:55.687694|56=GtwComp|11=136|38=0.0001|40=2|44=1|54=1|55=TESTBTC:TESTUSD|59=0|60=20240428-16:24:55|10=159|8=FIX.4.4|9=151|35=D|34=139|49=ValonPaperOrdComp01|52=20240428-16:24:55.687826|56=GtwComp|11=137|38=0.0001|40=2|44=1|54=1|55=TESTBTC:TESTUSD|59=0|60=20240428-16:24:55|10=158|8=FIX.4.4|9=151|35=D|34=140|49=ValonPaperOrdComp01|52=20240428-16:24:55.687961|56=GtwComp|11=138|38=0.0001|40=2|44=1|54=1|55=TESTBTC:TESTUSD|59=0|60=20240428-16:24:55|10=151|8=FIX.4.4|9=151|35=D|34=141|49=ValonPaperOrdComp01|52=20240428-16:24:55.688097|56=GtwComp|11=139|38=0.0001|40=2|44=1|54=1|55=TESTBTC:TESTUSD|59=0|60=20240428-16:24:55|10=154|8=FIX.4.4|9=151|35=D|34=142|49=ValonPaperOrdComp01|52=20240428-16:24:55.688279|56=GtwComp|11=140|38=0.0001|40=2|44=1|54=1|55=TESTBTC:TESTUSD|59=0|60=20240428-16:24:55|10=149|8=FIX.4.4|9=151|35=D|34=143|49=ValonPaperOrdComp01|52=20240428-16:24:55.688453|56=GtwComp|11=141|38=0.0001|40=2|44=1|54=1|55=TESTBTC:TESTUSD|59=0|60=20240428-16:24:55|10=145|8=FIX.4.4|9=151|35=D|34=144|49=ValonPaperOrdComp01|52=20240428-16:24:55.688602|56=GtwComp|11=142|38=0.0001|40=2|44=1|54=1|55=TESTBTC:TESTUSD|59=0|60=20240428-16:24:55|10=143|8=FIX.4.4|9=151|35=D|34=145|49=ValonPaperOrdComp01|52=20240428-16:24:55.688770|56=GtwComp|11=143|38=0.0001|40=2|44=1|54=1|55=TESTBTC:TESTUSD|59=0|60=20240428-16:24:55|10=151|8=FIX.4.4|9=151|35=D|34=146|49=ValonPaperOrdComp01|52=20240428-16:24:55.688908|56=GtwComp|11=144|38=0.0001|40=2|44=1|54=1|55=TESTBTC:TESTUSD|59=0|60=20240428-16:24:55|10=156|8=FIX.4.4|9=151|35=D|34=147|49=ValonPaperOrdComp01|52=20240428-16:24:55.689045|56=GtwComp|11=145|38=0.0001|40=2|44=1|54=1|55=TESTBTC:TESTUSD|59=0|60=20240428-16:24:55|10=151|8=FIX.4.4|9=151|35=D|34=148|49=ValonPaperOrdComp01|52=20240428-16:24:55.689222|56=GtwComp|11=146|38=0.0001|40=2|44=1|54=1|55=TESTBTC:TESTUSD|59=0|60=20240428-16:24:55|10=150|8=FIX.4.4|9=151|35=D|34=149|49=ValonPaperOrdComp01|52=20240428-16:24:55.689480|56=GtwComp|11=147|38=0.0001|40=2|44=1|54=1|55=TESTBTC:TESTUSD|59=0|60=20240428-16:24:55|10=158|8=FIX.4.4|9=151|35=D|34=150|49=ValonPaperOrdComp01|52=20240428-16:24:55.690803|56=GtwComp|11=148|38=0.0001|40=2|44=1|54=1|55=TESTBTC:TESTUSD|59=0|60=20240428-16:24:55|10=142|8=FIX.4.4|9=151|35=D|34=151|49=ValonPaperOrdComp01|52=20240428-16:24:55.691157|56=GtwComp|11=149|38=0.0001|40=2|44=1|54=1|55=TESTBTC:TESTUSD|59=0|60=20240428-16:24:55|10=147|8=FIX.4.4|9=151|35=D|34=152|49=ValonPaperOrdComp01|52=20240428-16:24:55.691465|56=GtwComp|11=150|38=0.0001|40=2|44=1|54=1|55=TESTBTC:TESTUSD|59=0|60=20240428-16:24:55|10=142|8=FIX.4.4|9=151|35=D|34=153|49=ValonPaperOrdComp01|52=20240428-16:24:55.691782|56=GtwComp|11=151|38=0.0001|40=2|44=1|54=1|55=TESTBTC:TESTUSD|59=0|60=20240428-16:24:55|10=146|8=FIX.4.4|9=151|35=D|34=154|49=ValonPaperOrdComp01|52=20240428-16:24:55.692192|56=GtwComp|11=152|38=0.0001|40=2|44=1|54=1|55=TESTBTC:TESTUSD|59=0|60=20240428-16:24:55|10=144|8=FIX.4.4|9=151|35=D|34=155|49=ValonPaperOrdComp01|52=20240428-16:24:55.692477|56=GtwComp|11=153|38=0.0001|40=2|44=1|54=1|55=TESTBTC:TESTUSD|59=0|60=20240428-16:24:55|10=152|8=FIX.4.4|9=151|35=D|34=156|49=ValonPaperOrdComp01|52=20240428-16:24:55.692850|56=GtwComp|11=154|38=0.0001|40=2|44=1|54=1|55=TESTBTC:TESTUSD|59=0|60=20240428-16:24:55|10=149|8=FIX.4.4|9=151|35=D|34=157|49=ValonPaperOrdComp01|52=20240428-16:24:55.693128|56=GtwComp|11=155|38=0.0001|40=2|44=1|54=1|55=TESTBTC:TESTUSD|59=0|60=20240428-16:24:55|10=150|8=FIX.4.4|9=151|35=D|34=158|49=ValonPaperOrdComp01|52=20240428-16:24:55.693379|56=GtwComp|11=156|38=0.0001|40=2|44=1|54=1|55=TESTBTC:TESTUSD|59=0|60=20240428-16:24:55|10=160|8=FIX.4.4|9=151|35=D|34=159|49=ValonPaperOrdComp01|52=20240428-16:24:55.693658|56=GtwComp|11=157|38=0.0001|40=2|44=1|54=1|55=TESTBTC:TESTUSD|59=0|60=20240428-16:24:55|10=162|8=FIX.4.4|9=151|35=D|34=160|49=ValonPaperOrdComp01|52=20240428-16:24:55.694041|56=GtwComp|11=158|38=0.0001|40=2|44=1|54=1|55=TESTBTC:TESTUSD|59=0|60=20240428-16:24:55|10=142|8=FIX.4.4|9=151|35=D|34=161|49=ValonPaperOrdComp01|52=20240428-16:24:55.694299|56=GtwComp|11=159|38=0.0001|40=2|44=1|54=1|55=TESTBTC:TESTUSD|59=0|60=20240428-16:24:55|10=159|8=FIX.4.4|9=151|35=D|34=162|49=ValonPaperOrdComp01|52=20240428-16:24:55.694708|56=GtwComp|11=160|38=0.0001|40=2|44=1|54=1|55=TESTBTC:TESTUSD|59=0|60=20240428-16:24:55|10=147|8=FIX.4.4|9=151|35=D|34=163|49=ValonPaperOrdComp01|52=20240428-16:24:55.694945|56=GtwComp|11=161|38=0.0001|40=2|44=1|54=1|55=TESTBTC:TESTUSD|59=0|60=20240428-16:24:55|10=152|8=FIX.4.4|9=151|35=D|34=164|49=ValonPaperOrdComp01|52=20240428-16:24:55.695137|56=GtwComp|11=162|38=0.0001|40=2|44=1|54=1|55=TESTBTC:TESTUSD|59=0|60=20240428-16:24:55|10=148|8=FIX.4.4|9=151|35=D|34=165|49=ValonPaperOrdComp01|52=20240428-16:24:55.695348|56=GtwComp|11=163|38=0.0001|40=2|44=1|54=1|55=TESTBTC:TESTUSD|59=0|60=20240428-16:24:55|10=154|8=FIX.4.4|9=151|35=D|34=166|49=ValonPaperOrdComp01|52=20240428-16:24:55.695552|56=GtwComp|11=164|38=0.0001|40=2|44=1|54=1|55=TESTBTC:TESTUSD|59=0|60=20240428-16:24:55|10=153|8=FIX.4.4|9=151|35=D|34=167|49=ValonPaperOrdComp01|52=20240428-16:24:55.695768|56=GtwComp|11=165|38=0.0001|40=2|44=1|54=1|55=TESTBTC:TESTUSD|59=0|60=20240428-16:24:55|10=164|8=FIX.4.4|9=151|35=D|34=168|49=ValonPaperOrdComp01|52=20240428-16:24:55.695992|56=GtwComp|11=166|38=0.0001|40=2|44=1|54=1|55=TESTBTC:TESTUSD|59=0|60=20240428-16:24:55|10=165|8=FIX.4.4|9=151|35=D|34=169|49=ValonPaperOrdComp01|52=20240428-16:24:55.696228|56=GtwComp|11=167|38=0.0001|40=2|44=1|54=1|55=TESTBTC:TESTUSD|59=0|60=20240428-16:24:55|10=160|8=FIX.4.4|9=151|35=D|34=170|49=ValonPaperOrdComp01|52=20240428-16:24:55.696528|56=GtwComp|11=168|38=0.0001|40=2|44=1|54=1|55=TESTBTC:TESTUSD|59=0|60=20240428-16:24:55|10=156|8=FIX.4.4|9=151|35=D|34=171|49=ValonPaperOrdComp01|52=20240428-16:24:55.696860|56=GtwComp|11=169|38=0.0001|40=2|44=1|54=1|55=TESTBTC:TESTUSD|59=0|60=20240428-16:24:55|10=157|8=FIX.4.4|9=151|35=D|34=172|49=ValonPaperOrdComp01|52=20240428-16:24:55.697154|56=GtwComp|11=170|38=0.0001|40=2|44=1|54=1|55=TESTBTC:TESTUSD|59=0|60=20240428-16:24:55|10=147|8=FIX.4.4|9=151|35=D|34=173|49=ValonPaperOrdComp01|52=20240428-16:24:55.697601|56=GtwComp|11=171|38=0.0001|40=2|44=1|54=1|55=TESTBTC:TESTUSD|59=0|60=20240428-16:24:55|10=146|8=FIX.4.4|9=151|35=D|34=174|49=ValonPaperOrdComp01|52=20240428-16:24:55.697883|56=GtwComp|11=172|38=0.0001|40=2|44=1|54=1|55=TESTBTC:TESTUSD|59=0|60=20240428-16:24:55|10=160|8=FIX.4.4|9=151|35=D|34=175|49=ValonPaperOrdComp01|52=20240428-16:24:55.698087|56=GtwComp|11=173|38=0.0001|40=2|44=1|54=1|55=TESTBTC:TESTUSD|59=0|60=20240428-16:24:55|10=159|8=FIX.4.4|9=151|35=D|34=176|49=ValonPaperOrdComp01|52=20240428-16:24:55.698294|56=GtwComp|11=174|38=0.0001|40=2|44=1|54=1|55=TESTBTC:TESTUSD|59=0|60=20240428-16:24:55|10=161|8=FIX.4.4|9=151|35=D|34=177|49=ValonPaperOrdComp01|52=20240428-16:24:55.698499|56=GtwComp|11=175|38=0.0001|40=2|44=1|54=1|55=TESTBTC:TESTUSD|59=0|60=20240428-16:24:55|10=170|8=FIX.4.4|9=151|35=D|34=178|49=ValonPaperOrdComp01|52=20240428-16:24:55.698709|56=GtwComp|11=176|38=0.0001|40=2|44=1|54=1|55=TESTBTC:TESTUSD|59=0|60=20240428-16:24:55|10=166|8=FIX.4.4|9=151|35=D|34=179|49=ValonPaperOrdComp01|52=20240428-16:24:55.698922|56=GtwComp|11=177|38=0.0001|40=2|44=1|54=1|55=TESTBTC:TESTUSD|59=0|60=20240428-16:24:55|10=165|8=FIX.4.4|9=151|35=D|34=180|49=ValonPaperOrdComp01|52=20240428-16:24:55.699128|56=GtwComp|11=178|38=0.0001|40=2|44=1|54=1|55=TESTBTC:TESTUSD|59=0|60=20240428-16:24:55|10=157|8=FIX.4.4|9=151|35=D|34=181|49=ValonPaperOrdComp01|52=20240428-16:24:55.699351|56=GtwComp|11=179|38=0.0001|40=2|44=1|54=1|55=TESTBTC:TESTUSD|59=0|60=20240428-16:24:55|10=157|8=FIX.4.4|9=151|35=D|34=182|49=ValonPaperOrdComp01|52=20240428-16:24:55.699563|56=GtwComp|11=180|38=0.0001|40=2|44=1|54=1|55=TESTBTC:TESTUSD|59=0|60=20240428-16:24:55|10=155|8=FIX.4.4|9=151|35=D|34=183|49=ValonPaperOrdComp01|52=20240428-16:24:55.699779|56=GtwComp|11=181|38=0.0001|40=2|44=1|54=1|55=TESTBTC:TESTUSD|59=0|60=20240428-16:24:55|10=166|8=FIX.4.4|9=151|35=D|34=184|49=ValonPaperOrdComp01|52=20240428-16:24:55.702388|56=GtwComp|11=182|38=0.0001|40=2|44=1|54=1|55=TESTBTC:TESTUSD|59=0|60=20240428-16:24:55|10=149|8=FIX.4.4|9=151|35=D|34=185|49=ValonPaperOrdComp01|52=20240428-16:24:55.702689|56=GtwComp|11=183|38=0.0001|40=2|44=1|54=1|55=TESTBTC:TESTUSD|59=0|60=20240428-16:24:55|10=155|8=FIX.4.4|9=151|35=D|34=186|49=ValonPaperOrdComp01|52=20240428-16:24:55.702995|56=GtwComp|11=184|38=0.0001|40=2|44=1|54=1|55=TESTBTC:TESTUSD|59=0|60=20240428-16:24:55|10=157|8=FIX.4.4|9=151|35=D|34=187|49=ValonPaperOrdComp01|52=20240428-16:24:55.703234|56=GtwComp|11=185|38=0.0001|40=2|44=1|54=1|55=TESTBTC:TESTUSD|59=0|60=20240428-16:24:55|10=146|8=FIX.4.4|9=151|35=D|34=188|49=ValonPaperOrdComp01|52=20240428-16:24:55.703576|56=GtwComp|11=186|38=0.0001|40=2|44=1|54=1|55=TESTBTC:TESTUSD|59=0|60=20240428-16:24:55|10=157|8=FIX.4.4|9=151|35=D|34=189|49=ValonPaperOrdComp01|52=20240428-16:24:55.703945|56=GtwComp|11=187|38=0.0001|40=2|44=1|54=1|55=TESTBTC:TESTUSD|59=0|60=20240428-16:24:55|10=159|8=FIX.4.4|9=151|35=D|34=190|49=ValonPaperOrdComp01|52=20240428-16:24:55.704301|56=GtwComp|11=188|38=0.0001|40=2|44=1|54=1|55=TESTBTC:TESTUSD|59=0|60=20240428-16:24:55|10=139|8=FIX.4.4|9=151|35=D|34=191|49=ValonPaperOrdComp01|52=20240428-16:24:55.704553|56=GtwComp|11=189|38=0.0001|40=2|44=1|54=1|55=TESTBTC:TESTUSD|59=0|60=20240428-16:24:55|10=150|8=FIX.4.4|9=151|35=D|34=192|49=ValonPaperOrdComp01|52=20240428-16:24:55.704827|56=GtwComp|11=190|38=0.0001|40=2|44=1|54=1|55=TESTBTC:TESTUSD|59=0|60=20240428-16:24:55|10=147|8=FIX.4.4|9=151|35=D|34=193|49=ValonPaperOrdComp01|52=20240428-16:24:55.705090|56=GtwComp|11=191|38=0.0001|40=2|44=1|54=1|55=TESTBTC:TESTUSD|59=0|60=20240428-16:24:55|10=142|8=FIX.4.4|9=151|35=D|34=194|49=ValonPaperOrdComp01|52=20240428-16:24:55.705270|56=GtwComp|11=192|38=0.0001|40=2|44=1|54=1|55=TESTBTC:TESTUSD|59=0|60=20240428-16:24:55|10=144|8=FIX.4.4|9=151|35=D|34=195|49=ValonPaperOrdComp01|52=20240428-16:24:55.705469|56=GtwComp|11=193|38=0.0001|40=2|44=1|54=1|55=TESTBTC:TESTUSD|59=0|60=20240428-16:24:55|10=156|8=FIX.4.4|9=151|35=D|34=196|49=ValonPaperOrdComp01|52=20240428-16:24:55.705664|56=GtwComp|11=194|38=0.0001|40=2|44=1|54=1|55=TESTBTC:TESTUSD|59=0|60=20240428-16:24:55|10=155|8=FIX.4.4|9=151|35=D|34=197|49=ValonPaperOrdComp01|52=20240428-16:24:55.705877|56=GtwComp|11=195|38=0.0001|40=2|44=1|54=1|55=TESTBTC:TESTUSD|59=0|60=20240428-16:24:55|10=163|8=FIX.4.4|9=151|35=D|34=198|49=ValonPaperOrdComp01|52=20240428-16:24:55.706070|56=GtwComp|11=196|38=0.0001|40=2|44=1|54=1|55=TESTBTC:TESTUSD|59=0|60=20240428-16:24:55|10=151|8=FIX.4.4|9=151|35=D|34=199|49=ValonPaperOrdComp01|52=20240428-16:24:55.706261|56=GtwComp|11=197|38=0.0001|40=2|44=1|54=1|55=TESTBTC:TESTUSD|59=0|60=20240428-16:24:55|10=155|8=FIX.4.4|9=151|35=D|34=200|49=ValonPaperOrdComp01|52=20240428-16:24:55.706741|56=GtwComp|11=198|38=0.0001|40=2|44=1|54=1|55=TESTBTC:TESTUSD|59=0|60=20240428-16:24:55|10=142|8=FIX.4.4|9=151|35=D|34=201|49=ValonPaperOrdComp01|52=20240428-16:24:55.706958|56=GtwComp|11=199|38=0.0001|40=2|44=1|54=1|55=TESTBTC:TESTUSD|59=0|60=20240428-16:24:55|10=154|8=FIX.4.4|9=151|35=D|34=202|49=ValonPaperOrdComp01|52=20240428-16:24:55.707162|56=GtwComp|11=200|38=0.0001|40=2|44=1|54=1|55=TESTBTC:TESTUSD|59=0|60=20240428-16:24:55|10=126|8=FIX.4.4|9=151|35=D|34=203|49=ValonPaperOrdComp01|52=20240428-16:24:55.707353|56=GtwComp|11=201|38=0.0001|40=2|44=1|54=1|55=TESTBTC:TESTUSD|59=0|60=20240428-16:24:55|10=130|8=FIX.4.4|9=151|35=D|34=204|49=ValonPaperOrdComp01|52=20240428-16:24:55.707589|56=GtwComp|11=202|38=0.0001|40=2|44=1|54=1|55=TESTBTC:TESTUSD|59=0|60=20240428-16:24:55|10=143|8=FIX.4.4|9=151|35=D|34=205|49=ValonPaperOrdComp01|52=20240428-16:24:55.707788|56=GtwComp|11=203|38=0.0001|40=2|44=1|54=1|55=TESTBTC:TESTUSD|59=0|60=20240428-16:24:55|10=146|8=FIX.4.4|9=151|35=D|34=206|49=ValonPaperOrdComp01|52=20240428-16:24:55.708053|56=GtwComp|11=204|38=0.0001|40=2|44=1|54=1|55=TESTBTC:TESTUSD|59=0|60=20240428-16:24:55|10=134|8=FIX.4.4|9=151|35=D|34=207|49=ValonPaperOrdComp01|52=20240428-16:24:55.708246|56=GtwComp|11=205|38=0.0001|40=2|44=1|54=1|55=TESTBTC:TESTUSD|59=0|60=20240428-16:24:55|10=140|8=FIX.4.4|9=151|35=D|34=208|49=ValonPaperOrdComp01|52=20240428-16:24:55.708436|56=GtwComp|11=206|38=0.0001|40=2|44=1|54=1|55=TESTBTC:TESTUSD|59=0|60=20240428-16:24:55|10=143|8=FIX.4.4|9=151|35=D|34=209|49=ValonPaperOrdComp01|52=20240428-16:24:55.708635|56=GtwComp|11=207|38=0.0001|40=2|44=1|54=1|55=TESTBTC:TESTUSD|59=0|60=20240428-16:24:55|10=146|8=FIX.4.4|9=151|35=D|34=210|49=ValonPaperOrdComp01|52=20240428-16:24:55.708826|56=GtwComp|11=208|38=0.0001|40=2|44=1|54=1|55=TESTBTC:TESTUSD|59=0|60=20240428-16:24:55|10=141|8=FIX.4.4|9=151|35=D|34=211|49=ValonPaperOrdComp01|52=20240428-16:24:55.709016|56=GtwComp|11=209|38=0.0001|40=2|44=1|54=1|55=TESTBTC:TESTUSD|59=0|60=20240428-16:24:55|10=135|8=FIX.4.4|9=151|35=D|34=212|49=ValonPaperOrdComp01|52=20240428-16:24:55.709202|56=GtwComp|11=210|38=0.0001|40=2|44=1|54=1|55=TESTBTC:TESTUSD|59=0|60=20240428-16:24:55|10=125|8=FIX.4.4|9=151|35=D|34=213|49=ValonPaperOrdComp01|52=20240428-16:24:55.709378|56=GtwComp|11=211|38=0.0001|40=2|44=1|54=1|55=TESTBTC:TESTUSD|59=0|60=20240428-16:24:55|10=141|8=FIX.4.4|9=151|35=D|34=214|49=ValonPaperOrdComp01|52=20240428-16:24:55.709544|56=GtwComp|11=212|38=0.0001|40=2|44=1|54=1|55=TESTBTC:TESTUSD|59=0|60=20240428-16:24:55|10=138|8=FIX.4.4|9=151|35=D|34=215|49=ValonPaperOrdComp01|52=20240428-16:24:55.709903|56=GtwComp|11=213|38=0.0001|40=2|44=1|54=1|55=TESTBTC:TESTUSD|59=0|60=20240428-16:24:55|10=139|8=FIX.4.4|9=151|35=D|34=216|49=ValonPaperOrdComp01|52=20240428-16:24:55.712861|56=GtwComp|11=214|38=0.0001|40=2|44=1|54=1|55=TESTBTC:TESTUSD|59=0|60=20240428-16:24:55|10=138|8=FIX.4.4|9=151|35=D|34=217|49=ValonPaperOrdComp01|52=20240428-16:24:55.713436|56=GtwComp|11=215|38=0.0001|40=2|44=1|54=1|55=TESTBTC:TESTUSD|59=0|60=20240428-16:24:55|10=139|8=FIX.4.4|9=151|35=D|34=218|49=ValonPaperOrdComp01|52=20240428-16:24:55.713850|56=GtwComp|11=216|38=0.0001|40=2|44=1|54=1|55=TESTBTC:TESTUSD|59=0|60=20240428-16:24:55|10=141|8=FIX.4.4|9=151|35=D|34=219|49=ValonPaperOrdComp01|52=20240428-16:24:55.714167|56=GtwComp|11=217|38=0.0001|40=2|44=1|54=1|55=TESTBTC:TESTUSD|59=0|60=20240428-16:24:55|10=145|8=FIX.4.4|9=151|35=D|34=220|49=ValonPaperOrdComp01|52=20240428-16:24:55.714524|56=GtwComp|11=218|38=0.0001|40=2|44=1|54=1|55=TESTBTC:TESTUSD|59=0|60=20240428-16:24:55|10=135|8=FIX.4.4|9=151|35=D|34=221|49=ValonPaperOrdComp01|52=20240428-16:24:55.714815|56=GtwComp|11=219|38=0.0001|40=2|44=1|54=1|55=TESTBTC:TESTUSD|59=0|60=20240428-16:24:55|10=140|8=FIX.4.4|9=151|35=D|34=222|49=ValonPaperOrdComp01|52=20240428-16:24:55.714979|56=GtwComp|11=220|38=0.0001|40=2|44=1|54=1|55=TESTBTC:TESTUSD|59=0|60=20240428-16:24:55|10=144|8=FIX.4.4|9=151|35=D|34=223|49=ValonPaperOrdComp01|52=20240428-16:24:55.715371|56=GtwComp|11=221|38=0.0001|40=2|44=1|54=1|55=TESTBTC:TESTUSD|59=0|60=20240428-16:24:55|10=133|8=FIX.4.4|9=151|35=D|34=224|49=ValonPaperOrdComp01|52=20240428-16:24:55.715606|56=GtwComp|11=222|38=0.0001|40=2|44=1|54=1|55=TESTBTC:TESTUSD|59=0|60=20240428-16:24:55|10=136|8=FIX.4.4|9=151|35=D|34=225|49=ValonPaperOrdComp01|52=20240428-16:24:55.715911|56=GtwComp|11=223|38=0.0001|40=2|44=1|54=1|55=TESTBTC:TESTUSD|59=0|60=20240428-16:24:55|10=137|8=FIX.4.4|9=151|35=D|34=226|49=ValonPaperOrdComp01|52=20240428-16:24:55.716249|56=GtwComp|11=224|38=0.0001|40=2|44=1|54=1|55=TESTBTC:TESTUSD|59=0|60=20240428-16:24:55|10=144|8=FIX.4.4|9=151|35=D|34=227|49=ValonPaperOrdComp01|52=20240428-16:24:55.716649|56=GtwComp|11=225|38=0.0001|40=2|44=1|54=1|55=TESTBTC:TESTUSD|59=0|60=20240428-16:24:55|10=150|8=FIX.4.4|9=151|35=D|34=228|49=ValonPaperOrdComp01|52=20240428-16:24:55.716953|56=GtwComp|11=226|38=0.0001|40=2|44=1|54=1|55=TESTBTC:TESTUSD|59=0|60=20240428-16:24:55|10=150|8=FIX.4.4|9=151|35=D|34=229|49=ValonPaperOrdComp01|52=20240428-16:24:55.717217|56=GtwComp|11=227|38=0.0001|40=2|44=1|54=1|55=TESTBTC:TESTUSD|59=0|60=20240428-16:24:55|10=146|8=FIX.4.4|9=151|35=D|34=230|49=ValonPaperOrdComp01|52=20240428-16:24:55.717482|56=GtwComp|11=228|38=0.0001|40=2|44=1|54=1|55=TESTBTC:TESTUSD|59=0|60=20240428-16:24:55|10=143|8=FIX.4.4|9=151|35=D|34=231|49=ValonPaperOrdComp01|52=20240428-16:24:55.717723|56=GtwComp|11=229|38=0.0001|40=2|44=1|54=1|55=TESTBTC:TESTUSD|59=0|60=20240428-16:24:55|10=143|8=FIX.4.4|9=151|35=D|34=232|49=ValonPaperOrdComp01|52=20240428-16:24:55.718006|56=GtwComp|11=230|38=0.0001|40=2|44=1|54=1|55=TESTBTC:TESTUSD|59=0|60=20240428-16:24:55|10=131|8=FIX.4.4|9=151|35=D|34=233|49=ValonPaperOrdComp01|52=20240428-16:24:55.718280|56=GtwComp|11=231|38=0.0001|40=2|44=1|54=1|55=TESTBTC:TESTUSD|59=0|60=20240428-16:24:55|10=137|8=FIX.4.4|9=151|35=D|34=234|49=ValonPaperOrdComp01|52=20240428-16:24:55.718505|56=GtwComp|11=232|38=0.0001|40=2|44=1|54=1|55=TESTBTC:TESTUSD|59=0|60=20240428-16:24:55|10=139|8=FIX.4.4|9=151|35=D|34=235|49=ValonPaperOrdComp01|52=20240428-16:24:55.718699|56=GtwComp|11=233|38=0.0001|40=2|44=1|54=1|55=TESTBTC:TESTUSD|59=0|60=20240428-16:24:55|10=155|8=FIX.4.4|9=151|35=D|34=236|49=ValonPaperOrdComp01|52=20240428-16:24:55.718910|56=GtwComp|11=234|38=0.0001|40=2|44=1|54=1|55=TESTBTC:TESTUSD|59=0|60=20240428-16:24:55|10=143|8=FIX.4.4|9=151|35=D|34=237|49=ValonPaperOrdComp01|52=20240428-16:24:55.719107|56=GtwComp|11=235|38=0.0001|40=2|44=1|54=1|55=TESTBTC:TESTUSD|59=0|60=20240428-16:24:55|10=144|8=FIX.4.4|9=151|35=D|34=238|49=ValonPaperOrdComp01|52=20240428-16:24:55.719316|56=GtwComp|11=236|38=0.0001|40=2|44=1|54=1|55=TESTBTC:TESTUSD|59=0|60=20240428-16:24:55|10=148|8=FIX.4.4|9=151|35=D|34=239|49=ValonPaperOrdComp01|52=20240428-16:24:55.719512|56=GtwComp|11=237|38=0.0001|40=2|44=1|54=1|55=TESTBTC:TESTUSD|59=0|60=20240428-16:24:55|10=148|8=FIX.4.4|9=151|35=D|34=240|49=ValonPaperOrdComp01|52=20240428-16:24:55.719705|56=GtwComp|11=238|38=0.0001|40=2|44=1|54=1|55=TESTBTC:TESTUSD|59=0|60=20240428-16:24:55|10=145|8=FIX.4.4|9=151|35=D|34=241|49=ValonPaperOrdComp01|52=20240428-16:24:55.719901|56=GtwComp|11=239|38=0.0001|40=2|44=1|54=1|55=TESTBTC:TESTUSD|59=0|60=20240428-16:24:55|10=145|8=FIX.4.4|9=151|35=D|34=242|49=ValonPaperOrdComp01|52=20240428-16:24:55.720099|56=GtwComp|11=240|38=0.0001|40=2|44=1|54=1|55=TESTBTC:TESTUSD|59=0|60=20240428-16:24:55|10=138|8=FIX.4.4|9=151|35=D|34=243|49=ValonPaperOrdComp01|52=20240428-16:24:55.720311|56=GtwComp|11=241|38=0.0001|40=2|44=1|54=1|55=TESTBTC:TESTUSD|59=0|60=20240428-16:24:55|10=127|8=FIX.4.4|9=151|35=D|34=244|49=ValonPaperOrdComp01|52=20240428-16:24:55.720517|56=GtwComp|11=242|38=0.0001|40=2|44=1|54=1|55=TESTBTC:TESTUSD|59=0|60=20240428-16:24:55|10=137|8=FIX.4.4|9=151|35=D|34=245|49=ValonPaperOrdComp01|52=20240428-16:24:55.720733|56=GtwComp|11=243|38=0.0001|40=2|44=1|54=1|55=TESTBTC:TESTUSD|59=0|60=20240428-16:24:55|10=139|8=FIX.4.4|9=151|35=D|34=246|49=ValonPaperOrdComp01|52=20240428-16:24:55.720941|56=GtwComp|11=244|38=0.0001|40=2|44=1|54=1|55=TESTBTC:TESTUSD|59=0|60=20240428-16:24:55|10=142|8=FIX.4.4|9=151|35=D|34=247|49=ValonPaperOrdComp01|52=20240428-16:24:55.721135|56=GtwComp|11=245|38=0.0001|40=2|44=1|54=1|55=TESTBTC:TESTUSD|59=0|60=20240428-16:24:55|10=140|8=FIX.4.4|9=151|35=D|34=248|49=ValonPaperOrdComp01|52=20240428-16:24:55.721326|56=GtwComp|11=246|38=0.0001|40=2|44=1|54=1|55=TESTBTC:TESTUSD|59=0|60=20240428-16:24:55|10=144|8=FIX.4.4|9=151|35=D|34=249|49=ValonPaperOrdComp01|52=20240428-16:24:55.721549|56=GtwComp|11=247|38=0.0001|40=2|44=1|54=1|55=TESTBTC:TESTUSD|59=0|60=20240428-16:24:55|10=153|8=FIX.4.4|9=151|35=D|34=250|49=ValonPaperOrdComp01|52=20240428-16:24:55.721764|56=GtwComp|11=248|38=0.0001|40=2|44=1|54=1|55=TESTBTC:TESTUSD|59=0|60=20240428-16:24:55|10=145|8=FIX.4.4|9=151|35=D|34=251|49=ValonPaperOrdComp01|52=20240428-16:24:55.721971|56=GtwComp|11=249|38=0.0001|40=2|44=1|54=1|55=TESTBTC:TESTUSD|59=0|60=20240428-16:24:55|10=147|8=FIX.4.4|9=151|35=D|34=252|49=ValonPaperOrdComp01|52=20240428-16:24:55.722183|56=GtwComp|11=250|38=0.0001|40=2|44=1|54=1|55=TESTBTC:TESTUSD|59=0|60=20240428-16:24:55|10=136|8=FIX.4.4|9=151|35=D|34=253|49=ValonPaperOrdComp01|52=20240428-16:24:55.722395|56=GtwComp|11=251|38=0.0001|40=2|44=1|54=1|55=TESTBTC:TESTUSD|59=0|60=20240428-16:24:55|10=143|8=FIX.4.4|9=151|35=D|34=254|49=ValonPaperOrdComp01|52=20240428-16:24:55.722616|56=GtwComp|11=252|38=0.0001|40=2|44=1|54=1|55=TESTBTC:TESTUSD|59=0|60=20240428-16:24:55|10=141|8=FIX.4.4|9=151|35=D|34=255|49=ValonPaperOrdComp01|52=20240428-16:24:55.722832|56=GtwComp|11=253|38=0.0001|40=2|44=1|54=1|55=TESTBTC:TESTUSD|59=0|60=20240428-16:24:55|10=143|8=FIX.4.4|9=151|35=D|34=256|49=ValonPaperOrdComp01|52=20240428-16:24:55.723042|56=GtwComp|11=254|38=0.0001|40=2|44=1|54=1|55=TESTBTC:TESTUSD|59=0|60=20240428-16:24:55|10=139|8=FIX.4.4|9=151|35=D|34=257|49=ValonPaperOrdComp01|52=20240428-16:24:55.723250|56=GtwComp|11=255|38=0.0001|40=2|44=1|54=1|55=TESTBTC:TESTUSD|59=0|60=20240428-16:24:55|10=142|8=FIX.4.4|9=151|35=D|34=258|49=ValonPaperOrdComp01|52=20240428-16:24:55.723487|56=GtwComp|11=256|38=0.0001|40=2|44=1|54=1|55=TESTBTC:TESTUSD|59=0|60=20240428-16:24:55|10=156|8=FIX.4.4|9=151|35=D|34=259|49=ValonPaperOrdComp01|52=20240428-16:24:55.723721|56=GtwComp|11=257|38=0.0001|40=2|44=1|54=1|55=TESTBTC:TESTUSD|59=0|60=20240428-16:24:55|10=149|8=FIX.4.4|9=151|35=D|34=260|49=ValonPaperOrdComp01|52=20240428-16:24:55.723979|56=GtwComp|11=258|38=0.0001|40=2|44=1|54=1|55=TESTBTC:TESTUSD|59=0|60=20240428-16:24:55|10=157|8=FIX.4.4|9=151|35=D|34=261|49=ValonPaperOrdComp01|52=20240428-16:24:55.724237|56=GtwComp|11=259|38=0.0001|40=2|44=1|54=1|55=TESTBTC:TESTUSD|59=0|60=20240428-16:24:55|10=147|8=FIX.4.4|9=151|35=D|34=262|49=ValonPaperOrdComp01|52=20240428-16:24:55.724517|56=GtwComp|11=260|38=0.0001|40=2|44=1|54=1|55=TESTBTC:TESTUSD|59=0|60=20240428-16:24:55|10=141|8=FIX.4.4|9=151|35=D|34=263|49=ValonPaperOrdComp01|52=20240428-16:24:55.724759|56=GtwComp|11=261|38=0.0001|40=2|44=1|54=1|55=TESTBTC:TESTUSD|59=0|60=20240428-16:24:55|10=151|8=FIX.4.4|9=151|35=D|34=264|49=ValonPaperOrdComp01|52=20240428-16:24:55.725037|56=GtwComp|11=262|38=0.0001|40=2|44=1|54=1|55=TESTBTC:TESTUSD|59=0|60=20240428-16:24:55|10=143|8=FIX.4.4|9=151|35=D|34=265|49=ValonPaperOrdComp01|52=20240428-16:24:55.725275|56=GtwComp|11=263|38=0.0001|40=2|44=1|54=1|55=TESTBTC:TESTUSD|59=0|60=20240428-16:24:55|10=149|8=FIX.4.4|9=151|35=D|34=266|49=ValonPaperOrdComp01|52=20240428-16:24:55.725521|56=GtwComp|11=264|38=0.0001|40=2|44=1|54=1|55=TESTBTC:TESTUSD|59=0|60=20240428-16:24:55|10=145|8=FIX.4.4|9=151|35=D|34=267|49=ValonPaperOrdComp01|52=20240428-16:24:55.725759|56=GtwComp|11=265|38=0.0001|40=2|44=1|54=1|55=TESTBTC:TESTUSD|59=0|60=20240428-16:24:55|10=160|8=FIX.4.4|9=151|35=D|34=268|49=ValonPaperOrdComp01|52=20240428-16:24:55.725999|56=GtwComp|11=266|38=0.0001|40=2|44=1|54=1|55=TESTBTC:TESTUSD|59=0|60=20240428-16:24:55|10=168|8=FIX.4.4|9=151|35=D|34=269|49=ValonPaperOrdComp01|52=20240428-16:24:55.726227|56=GtwComp|11=267|38=0.0001|40=2|44=1|54=1|55=TESTBTC:TESTUSD|59=0|60=20240428-16:24:55|10=155|8=FIX.4.4|9=151|35=D|34=270|49=ValonPaperOrdComp01|52=20240428-16:24:55.726439|56=GtwComp|11=268|38=0.0001|40=2|44=1|54=1|55=TESTBTC:TESTUSD|59=0|60=20240428-16:24:55|10=153|8=FIX.4.4|9=151|35=D|34=271|49=ValonPaperOrdComp01|52=20240428-16:24:55.726648|56=GtwComp|11=269|38=0.0001|40=2|44=1|54=1|55=TESTBTC:TESTUSD|59=0|60=20240428-16:24:55|10=157|8=FIX.4.4|9=151|35=D|34=272|49=ValonPaperOrdComp01|52=20240428-16:24:55.726864|56=GtwComp|11=270|38=0.0001|40=2|44=1|54=1|55=TESTBTC:TESTUSD|59=0|60=20240428-16:24:55|10=150|8=FIX.4.4|9=151|35=D|34=273|49=ValonPaperOrdComp01|52=20240428-16:24:55.727080|56=GtwComp|11=271|38=0.0001|40=2|44=1|54=1|55=TESTBTC:TESTUSD|59=0|60=20240428-16:24:55|10=143|8=FIX.4.4|9=151|35=D|34=274|49=ValonPaperOrdComp01|52=20240428-16:24:55.727292|56=GtwComp|11=272|38=0.0001|40=2|44=1|54=1|55=TESTBTC:TESTUSD|59=0|60=20240428-16:24:55|10=150|8=FIX.4.4|9=151|35=D|34=275|49=ValonPaperOrdComp01|52=20240428-16:24:55.727507|56=GtwComp|11=273|38=0.0001|40=2|44=1|54=1|55=TESTBTC:TESTUSD|59=0|60=20240428-16:24:55|10=151|8=FIX.4.4|9=151|35=D|34=276|49=ValonPaperOrdComp01|52=20240428-16:24:55.727719|56=GtwComp|11=274|38=0.0001|40=2|44=1|54=1|55=TESTBTC:TESTUSD|59=0|60=20240428-16:24:55|10=158|8=FIX.4.4|9=151|35=D|34=277|49=ValonPaperOrdComp01|52=20240428-16:24:55.728017|56=GtwComp|11=275|38=0.0001|40=2|44=1|54=1|55=TESTBTC:TESTUSD|59=0|60=20240428-16:24:55|10=152|8=FIX.4.4|9=151|35=D|34=278|49=ValonPaperOrdComp01|52=20240428-16:24:55.728249|56=GtwComp|11=276|38=0.0001|40=2|44=1|54=1|55=TESTBTC:TESTUSD|59=0|60=20240428-16:24:55|10=161|8=FIX.4.4|9=151|35=D|34=279|49=ValonPaperOrdComp01|52=20240428-16:24:55.728531|56=GtwComp|11=277|38=0.0001|40=2|44=1|54=1|55=TESTBTC:TESTUSD|59=0|60=20240428-16:24:55|10=157|8=FIX.4.4|9=151|35=D|34=280|49=ValonPaperOrdComp01|52=20240428-16:24:55.728798|56=GtwComp|11=278|38=0.0001|40=2|44=1|54=1|55=TESTBTC:TESTUSD|59=0|60=20240428-16:24:55|10=165|8=FIX.4.4|9=151|35=D|34=281|49=ValonPaperOrdComp01|52=20240428-16:24:55.729283|56=GtwComp|11=279|38=0.0001|40=2|44=1|54=1|55=TESTBTC:TESTUSD|59=0|60=20240428-16:24:55|10=157|8=FIX.4.4|9=151|35=D|34=282|49=ValonPaperOrdComp01|52=20240428-16:24:55.729804|56=GtwComp|11=280|38=0.0001|40=2|44=1|54=1|55=TESTBTC:TESTUSD|59=0|60=20240428-16:24:55|10=149|8=FIX.4.4|9=151|35=D|34=283|49=ValonPaperOrdComp01|52=20240428-16:24:55.730180|56=GtwComp|11=281|38=0.0001|40=2|44=1|54=1|55=TESTBTC:TESTUSD|59=0|60=20240428-16:24:55|10=140|8=FIX.4.4|9=151|35=D|34=284|49=ValonPaperOrdComp01|52=20240428-16:24:55.730617|56=GtwComp|11=282|38=0.0001|40=2|44=1|54=1|55=TESTBTC:TESTUSD|59=0|60=20240428-16:24:55|10=147|8=FIX.4.4|9=151|35=D|34=285|49=ValonPaperOrdComp01|52=20240428-16:24:55.731130|56=GtwComp|11=283|38=0.0001|40=2|44=1|54=1|55=TESTBTC:TESTUSD|59=0|60=20240428-16:24:55|10=140|8=FIX.4.4|9=151|35=D|34=286|49=ValonPaperOrdComp01|52=20240428-16:24:55.731546|56=GtwComp|11=284|38=0.0001|40=2|44=1|54=1|55=TESTBTC:TESTUSD|59=0|60=20240428-16:24:55|10=153|8=FIX.4.4|9=151|35=D|34=287|49=ValonPaperOrdComp01|52=20240428-16:24:55.731835|56=GtwComp|11=285|38=0.0001|40=2|44=1|54=1|55=TESTBTC:TESTUSD|59=0|60=20240428-16:24:55|10=156|8=FIX.4.4|9=151|35=D|34=288|49=ValonPaperOrdComp01|52=20240428-16:24:55.732132|56=GtwComp|11=286|38=0.0001|40=2|44=1|54=1|55=TESTBTC:TESTUSD|59=0|60=20240428-16:24:55|10=149|8=FIX.4.4|9=151|35=D|34=289|49=ValonPaperOrdComp01|52=20240428-16:24:55.732321|56=GtwComp|11=287|38=0.0001|40=2|44=1|54=1|55=TESTBTC:TESTUSD|59=0|60=20240428-16:24:55|10=151|8=FIX.4.4|9=151|35=D|34=290|49=ValonPaperOrdComp01|52=20240428-16:24:55.732550|56=GtwComp|11=288|38=0.0001|40=2|44=1|54=1|55=TESTBTC:TESTUSD|59=0|60=20240428-16:24:55|10=148|8=FIX.4.4|9=151|35=D|34=291|49=ValonPaperOrdComp01|52=20240428-16:24:55.732781|56=GtwComp|11=289|38=0.0001|40=2|44=1|54=1|55=TESTBTC:TESTUSD|59=0|60=20240428-16:24:55|10=156|8=FIX.4.4|9=151|35=D|34=292|49=ValonPaperOrdComp01|52=20240428-16:24:55.733016|56=GtwComp|11=290|38=0.0001|40=2|44=1|54=1|55=TESTBTC:TESTUSD|59=0|60=20240428-16:24:55|10=141|8=FIX.4.4|9=151|35=D|34=293|49=ValonPaperOrdComp01|52=20240428-16:24:55.733181|56=GtwComp|11=291|38=0.0001|40=2|44=1|54=1|55=TESTBTC:TESTUSD|59=0|60=20240428-16:24:55|10=146|8=FIX.4.4|9=151|35=D|34=294|49=ValonPaperOrdComp01|52=20240428-16:24:55.733410|56=GtwComp|11=292|38=0.0001|40=2|44=1|54=1|55=TESTBTC:TESTUSD|59=0|60=20240428-16:24:55|10=143|8=FIX.4.4|9=151|35=D|34=295|49=ValonPaperOrdComp01|52=20240428-16:24:55.733642|56=GtwComp|11=293|38=0.0001|40=2|44=1|54=1|55=TESTBTC:TESTUSD|59=0|60=20240428-16:24:55|10=152|8=FIX.4.4|9=151|35=D|34=296|49=ValonPaperOrdComp01|52=20240428-16:24:55.733808|56=GtwComp|11=294|38=0.0001|40=2|44=1|54=1|55=TESTBTC:TESTUSD|59=0|60=20240428-16:24:55|10=158|8=FIX.4.4|9=151|35=D|34=297|49=ValonPaperOrdComp01|52=20240428-16:24:55.734035|56=GtwComp|11=295|38=0.0001|40=2|44=1|54=1|55=TESTBTC:TESTUSD|59=0|60=20240428-16:24:55|10=153|8=FIX.4.4|9=151|35=D|34=298|49=ValonPaperOrdComp01|52=20240428-16:24:55.734239|56=GtwComp|11=296|38=0.0001|40=2|44=1|54=1|55=TESTBTC:TESTUSD|59=0|60=20240428-16:24:55|10=161|8=FIX.4.4|9=151|35=D|34=299|49=ValonPaperOrdComp01|52=20240428-16:24:55.734549|56=GtwComp|11=297|38=0.0001|40=2|44=1|54=1|55=TESTBTC:TESTUSD|59=0|60=20240428-16:24:55|10=167|8=FIX.4.4|9=151|35=D|34=300|49=ValonPaperOrdComp01|52=20240428-16:24:55.734967|56=GtwComp|11=298|38=0.0001|40=2|44=1|54=1|55=TESTBTC:TESTUSD|59=0|60=20240428-16:24:55|10=155|8=FIX.4.4|9=151|35=D|34=301|49=ValonPaperOrdComp01|52=20240428-16:24:55.735304|56=GtwComp|11=299|38=0.0001|40=2|44=1|54=1|55=TESTBTC:TESTUSD|59=0|60=20240428-16:24:55|10=143|8=FIX.4.4|9=151|35=D|34=302|49=ValonPaperOrdComp01|52=20240428-16:24:55.735676|56=GtwComp|11=300|38=0.0001|40=2|44=1|54=1|55=TESTBTC:TESTUSD|59=0|60=20240428-16:24:55|10=139|8=FIX.4.4|9=151|35=D|34=303|49=ValonPaperOrdComp01|52=20240428-16:24:55.736056|56=GtwComp|11=301|38=0.0001|40=2|44=1|54=1|55=TESTBTC:TESTUSD|59=0|60=20240428-16:24:55|10=134|8=FIX.4.4|9=151|35=D|34=304|49=ValonPaperOrdComp01|52=20240428-16:24:55.736397|56=GtwComp|11=302|38=0.0001|40=2|44=1|54=1|55=TESTBTC:TESTUSD|59=0|60=20240428-16:24:55|10=144|8=FIX.4.4|9=151|35=D|34=305|49=ValonPaperOrdComp01|52=20240428-16:24:55.736739|56=GtwComp|11=303|38=0.0001|40=2|44=1|54=1|55=TESTBTC:TESTUSD|59=0|60=20240428-16:24:55|10=146|8=FIX.4.4|9=151|35=D|34=306|49=ValonPaperOrdComp01|52=20240428-16:24:55.742366|56=GtwComp|11=304|38=0.0001|40=2|44=1|54=1|55=TESTBTC:TESTUSD|59=0|60=20240428-16:24:55|10=141|8=FIX.4.4|9=151|35=D|34=307|49=ValonPaperOrdComp01|52=20240428-16:24:55.742696|56=GtwComp|11=305|38=0.0001|40=2|44=1|54=1|55=TESTBTC:TESTUSD|59=0|60=20240428-16:24:55|10=149|8=FIX.4.4|9=151|35=D|34=308|49=ValonPaperOrdComp01|52=20240428-16:24:55.742937|56=GtwComp|11=306|38=0.0001|40=2|44=1|54=1|55=TESTBTC:TESTUSD|59=0|60=20240428-16:24:55|10=149|8=FIX.4.4|9=151|35=D|34=309|49=ValonPaperOrdComp01|52=20240428-16:24:55.743469|56=GtwComp|11=307|38=0.0001|40=2|44=1|54=1|55=TESTBTC:TESTUSD|59=0|60=20240428-16:24:55|10=152|8=FIX.4.4|9=151|35=D|34=310|49=ValonPaperOrdComp01|52=20240428-16:24:55.743809|56=GtwComp|11=308|38=0.0001|40=2|44=1|54=1|55=TESTBTC:TESTUSD|59=0|60=20240428-16:24:55|10=143|8=FIX.4.4|9=151|35=D|34=311|49=ValonPaperOrdComp01|52=20240428-16:24:55.744423|56=GtwComp|11=309|38=0.0001|40=2|44=1|54=1|55=TESTBTC:TESTUSD|59=0|60=20240428-16:24:55|10=138|8=FIX.4.4|9=151|35=D|34=312|49=ValonPaperOrdComp01|52=20240428-16:24:55.744782|56=GtwComp|11=310|38=0.0001|40=2|44=1|54=1|55=TESTBTC:TESTUSD|59=0|60=20240428-16:24:55|10=139|8=FIX.4.4|9=151|35=D|34=313|49=ValonPaperOrdComp01|52=20240428-16:24:55.745102|56=GtwComp|11=311|38=0.0001|40=2|44=1|54=1|55=TESTBTC:TESTUSD|59=0|60=20240428-16:24:55|10=128|8=FIX.4.4|9=151|35=D|34=314|49=ValonPaperOrdComp01|52=20240428-16:24:55.745383|56=GtwComp|11=312|38=0.0001|40=2|44=1|54=1|55=TESTBTC:TESTUSD|59=0|60=20240428-16:24:55|10=141|8=FIX.4.4|9=151|35=D|34=315|49=ValonPaperOrdComp01|52=20240428-16:24:55.745611|56=GtwComp|11=313|38=0.0001|40=2|44=1|54=1|55=TESTBTC:TESTUSD|59=0|60=20240428-16:24:55|10=137|8=FIX.4.4|9=151|35=D|34=316|49=ValonPaperOrdComp01|52=20240428-16:24:55.745859|56=GtwComp|11=314|38=0.0001|40=2|44=1|54=1|55=TESTBTC:TESTUSD|59=0|60=20240428-16:24:55|10=153|8=FIX.4.4|9=151|35=D|34=317|49=ValonPaperOrdComp01|52=20240428-16:24:55.746128|56=GtwComp|11=315|38=0.0001|40=2|44=1|54=1|55=TESTBTC:TESTUSD|59=0|60=20240428-16:24:55|10=145|8=FIX.4.4|9=151|35=D|34=318|49=ValonPaperOrdComp01|52=20240428-16:24:55.746405|56=GtwComp|11=316|38=0.0001|40=2|44=1|54=1|55=TESTBTC:TESTUSD|59=0|60=20240428-16:24:55|10=145|8=FIX.4.4|9=151|35=D|34=319|49=ValonPaperOrdComp01|52=20240428-16:24:55.746719|56=GtwComp|11=317|38=0.0001|40=2|44=1|54=1|55=TESTBTC:TESTUSD|59=0|60=20240428-16:24:55|10=155|8=FIX.4.4|9=151|35=D|34=320|49=ValonPaperOrdComp01|52=20240428-16:24:55.746947|56=GtwComp|11=318|38=0.0001|40=2|44=1|54=1|55=TESTBTC:TESTUSD|59=0|60=20240428-16:24:55|10=151|8=FIX.4.4|9=151|35=D|34=321|49=ValonPaperOrdComp01|52=20240428-16:24:55.747166|56=GtwComp|11=319|38=0.0001|40=2|44=1|54=1|55=TESTBTC:TESTUSD|59=0|60=20240428-16:24:55|10=147|8=FIX.4.4|9=151|35=D|34=322|49=ValonPaperOrdComp01|52=20240428-16:24:55.747382|56=GtwComp|11=320|38=0.0001|40=2|44=1|54=1|55=TESTBTC:TESTUSD|59=0|60=20240428-16:24:55|10=140|8=FIX.4.4|9=151|35=D|34=323|49=ValonPaperOrdComp01|52=20240428-16:24:55.747608|56=GtwComp|11=321|38=0.0001|40=2|44=1|54=1|55=TESTBTC:TESTUSD|59=0|60=20240428-16:24:55|10=143|8=FIX.4.4|9=151|35=D|34=324|49=ValonPaperOrdComp01|52=20240428-16:24:55.747826|56=GtwComp|11=322|38=0.0001|40=2|44=1|54=1|55=TESTBTC:TESTUSD|59=0|60=20240428-16:24:55|10=147|8=FIX.4.4|9=151|35=D|34=325|49=ValonPaperOrdComp01|52=20240428-16:24:55.748139|56=GtwComp|11=323|38=0.0001|40=2|44=1|54=1|55=TESTBTC:TESTUSD|59=0|60=20240428-16:24:55|10=147|8=FIX.4.4|9=151|35=D|34=326|49=ValonPaperOrdComp01|52=20240428-16:24:55.748376|56=GtwComp|11=324|38=0.0001|40=2|44=1|54=1|55=TESTBTC:TESTUSD|59=0|60=20240428-16:24:55|10=152|8=FIX.4.4|9=151|35=D|34=327|49=ValonPaperOrdComp01|52=20240428-16:24:55.748602|56=GtwComp|11=325|38=0.0001|40=2|44=1|54=1|55=TESTBTC:TESTUSD|59=0|60=20240428-16:24:55|10=146|8=FIX.4.4|9=151|35=D|34=328|49=ValonPaperOrdComp01|52=20240428-16:24:55.748865|56=GtwComp|11=326|38=0.0001|40=2|44=1|54=1|55=TESTBTC:TESTUSD|59=0|60=20240428-16:24:55|10=159|8=FIX.4.4|9=151|35=D|34=329|49=ValonPaperOrdComp01|52=20240428-16:24:55.749098|56=GtwComp|11=327|38=0.0001|40=2|44=1|54=1|55=TESTBTC:TESTUSD|59=0|60=20240428-16:24:55|10=160|8=FIX.4.4|9=151|35=D|34=330|49=ValonPaperOrdComp01|52=20240428-16:24:55.749324|56=GtwComp|11=328|38=0.0001|40=2|44=1|54=1|55=TESTBTC:TESTUSD|59=0|60=20240428-16:24:55|10=145|8=FIX.4.4|9=151|35=D|34=331|49=ValonPaperOrdComp01|52=20240428-16:24:55.749553|56=GtwComp|11=329|38=0.0001|40=2|44=1|54=1|55=TESTBTC:TESTUSD|59=0|60=20240428-16:24:55|10=151|8=FIX.4.4|9=151|35=D|34=332|49=ValonPaperOrdComp01|52=20240428-16:24:55.749790|56=GtwComp|11=330|38=0.0001|40=2|44=1|54=1|55=TESTBTC:TESTUSD|59=0|60=20240428-16:24:55|10=147|8=FIX.4.4|9=151|35=D|34=333|49=ValonPaperOrdComp01|52=20240428-16:24:55.750054|56=GtwComp|11=331|38=0.0001|40=2|44=1|54=1|55=TESTBTC:TESTUSD|59=0|60=20240428-16:24:55|10=134|8=FIX.4.4|9=151|35=D|34=334|49=ValonPaperOrdComp01|52=20240428-16:24:55.755692|56=GtwComp|11=332|38=0.0001|40=2|44=1|54=1|55=TESTBTC:TESTUSD|59=0|60=20240428-16:24:55|10=149|8=FIX.4.4|9=151|35=D|34=335|49=ValonPaperOrdComp01|52=20240428-16:24:55.755979|56=GtwComp|11=333|38=0.0001|40=2|44=1|54=1|55=TESTBTC:TESTUSD|59=0|60=20240428-16:24:55|10=159|8=FIX.4.4|9=151|35=D|34=336|49=ValonPaperOrdComp01|52=20240428-16:24:55.756239|56=GtwComp|11=334|38=0.0001|40=2|44=1|54=1|55=TESTBTC:TESTUSD|59=0|60=20240428-16:24:55|10=151|8=FIX.4.4|9=151|35=D|34=337|49=ValonPaperOrdComp01|52=20240428-16:24:55.756563|56=GtwComp|11=335|38=0.0001|40=2|44=1|54=1|55=TESTBTC:TESTUSD|59=0|60=20240428-16:24:55|10=153|8=FIX.4.4|9=151|35=D|34=338|49=ValonPaperOrdComp01|52=20240428-16:24:55.756844|56=GtwComp|11=336|38=0.0001|40=2|44=1|54=1|55=TESTBTC:TESTUSD|59=0|60=20240428-16:24:55|10=157|8=FIX.4.4|9=151|35=D|34=339|49=ValonPaperOrdComp01|52=20240428-16:24:55.757316|56=GtwComp|11=337|38=0.0001|40=2|44=1|54=1|55=TESTBTC:TESTUSD|59=0|60=20240428-16:24:55|10=154|8=FIX.4.4|9=151|35=D|34=340|49=ValonPaperOrdComp01|52=20240428-16:24:55.757652|56=GtwComp|11=338|38=0.0001|40=2|44=1|54=1|55=TESTBTC:TESTUSD|59=0|60=20240428-16:24:55|10=150|8=FIX.4.4|9=151|35=D|34=341|49=ValonPaperOrdComp01|52=20240428-16:24:55.757925|56=GtwComp|11=339|38=0.0001|40=2|44=1|54=1|55=TESTBTC:TESTUSD|59=0|60=20240428-16:24:55|10=155|8=FIX.4.4|9=151|35=D|34=342|49=ValonPaperOrdComp01|52=20240428-16:24:55.758193|56=GtwComp|11=340|38=0.0001|40=2|44=1|54=1|55=TESTBTC:TESTUSD|59=0|60=20240428-16:24:55|10=146|8=FIX.4.4|9=151|35=D|34=343|49=ValonPaperOrdComp01|52=20240428-16:24:55.758503|56=GtwComp|11=341|38=0.0001|40=2|44=1|54=1|55=TESTBTC:TESTUSD|59=0|60=20240428-16:24:55|10=143|8=FIX.4.4|9=151|35=D|34=344|49=ValonPaperOrdComp01|52=20240428-16:24:55.758869|56=GtwComp|11=342|38=0.0001|40=2|44=1|54=1|55=TESTBTC:TESTUSD|59=0|60=20240428-16:24:55|10=160|8=FIX.4.4|9=151|35=D|34=345|49=ValonPaperOrdComp01|52=20240428-16:24:55.759202|56=GtwComp|11=343|38=0.0001|40=2|44=1|54=1|55=TESTBTC:TESTUSD|59=0|60=20240428-16:24:55|10=144|8=FIX.4.4|9=151|35=D|34=346|49=ValonPaperOrdComp01|52=20240428-16:24:55.759536|56=GtwComp|11=344|38=0.0001|40=2|44=1|54=1|55=TESTBTC:TESTUSD|59=0|60=20240428-16:24:55|10=156|8=FIX.4.4|9=151|35=D|34=347|49=ValonPaperOrdComp01|52=20240428-16:24:55.759899|56=GtwComp|11=345|38=0.0001|40=2|44=1|54=1|55=TESTBTC:TESTUSD|59=0|60=20240428-16:24:55|10=170|8=FIX.4.4|9=151|35=D|34=348|49=ValonPaperOrdComp01|52=20240428-16:24:55.760407|56=GtwComp|11=346|38=0.0001|40=2|44=1|54=1|55=TESTBTC:TESTUSD|59=0|60=20240428-16:24:55|10=149|8=FIX.4.4|9=151|35=D|34=349|49=ValonPaperOrdComp01|52=20240428-16:24:55.760750|56=GtwComp|11=347|38=0.0001|40=2|44=1|54=1|55=TESTBTC:TESTUSD|59=0|60=20240428-16:24:55|10=152|8=FIX.4.4|9=151|35=D|34=350|49=ValonPaperOrdComp01|52=20240428-16:24:55.761058|56=GtwComp|11=348|38=0.0001|40=2|44=1|54=1|55=TESTBTC:TESTUSD|59=0|60=20240428-16:24:55|10=147|8=FIX.4.4|9=151|35=D|34=351|49=ValonPaperOrdComp01|52=20240428-16:24:55.761408|56=GtwComp|11=349|38=0.0001|40=2|44=1|54=1|55=TESTBTC:TESTUSD|59=0|60=20240428-16:24:55|10=148|8=FIX.4.4|9=151|35=D|34=352|49=ValonPaperOrdComp01|52=20240428-16:24:55.761775|56=GtwComp|11=350|38=0.0001|40=2|44=1|54=1|55=TESTBTC:TESTUSD|59=0|60=20240428-16:24:55|10=148|8=FIX.4.4|9=151|35=D|34=353|49=ValonPaperOrdComp01|52=20240428-16:24:55.762107|56=GtwComp|11=351|38=0.0001|40=2|44=1|54=1|55=TESTBTC:TESTUSD|59=0|60=20240428-16:24:55|10=140|8=FIX.4.4|9=151|35=D|34=354|49=ValonPaperOrdComp01|52=20240428-16:24:55.762522|56=GtwComp|11=352|38=0.0001|40=2|44=1|54=1|55=TESTBTC:TESTUSD|59=0|60=20240428-16:24:55|10=143|8=FIX.4.4|9=151|35=D|34=355|49=ValonPaperOrdComp01|52=20240428-16:24:55.762776|56=GtwComp|11=353|38=0.0001|40=2|44=1|54=1|55=TESTBTC:TESTUSD|59=0|60=20240428-16:24:55|10=156|8=FIX.4.4|9=151|35=D|34=356|49=ValonPaperOrdComp01|52=20240428-16:24:55.763128|56=GtwComp|11=354|38=0.0001|40=2|44=1|54=1|55=TESTBTC:TESTUSD|59=0|60=20240428-16:24:55|10=150|8=FIX.4.4|9=151|35=D|34=357|49=ValonPaperOrdComp01|52=20240428-16:24:55.763405|56=GtwComp|11=355|38=0.0001|40=2|44=1|54=1|55=TESTBTC:TESTUSD|59=0|60=20240428-16:24:55|10=150|8=FIX.4.4|9=151|35=D|34=358|49=ValonPaperOrdComp01|52=20240428-16:24:55.763628|56=GtwComp|11=356|38=0.0001|40=2|44=1|54=1|55=TESTBTC:TESTUSD|59=0|60=20240428-16:24:55|10=159|8=FIX.4.4|9=151|35=D|34=359|49=ValonPaperOrdComp01|52=20240428-16:24:55.763859|56=GtwComp|11=357|38=0.0001|40=2|44=1|54=1|55=TESTBTC:TESTUSD|59=0|60=20240428-16:24:55|10=167|8=FIX.4.4|9=151|35=D|34=360|49=ValonPaperOrdComp01|52=20240428-16:24:55.764116|56=GtwComp|11=358|38=0.0001|40=2|44=1|54=1|55=TESTBTC:TESTUSD|59=0|60=20240428-16:24:55|10=147|8=FIX.4.4|9=151|35=D|34=361|49=ValonPaperOrdComp01|52=20240428-16:24:55.764618|56=GtwComp|11=359|38=0.0001|40=2|44=1|54=1|55=TESTBTC:TESTUSD|59=0|60=20240428-16:24:55|10=156|8=FIX.4.4|9=151|35=D|34=362|49=ValonPaperOrdComp01|52=20240428-16:24:55.764776|56=GtwComp|11=360|38=0.0001|40=2|44=1|54=1|55=TESTBTC:TESTUSD|59=0|60=20240428-16:24:55|10=154|8=FIX.4.4|9=151|35=D|34=363|49=ValonPaperOrdComp01|52=20240428-16:24:55.764927|56=GtwComp|11=361|38=0.0001|40=2|44=1|54=1|55=TESTBTC:TESTUSD|59=0|60=20240428-16:24:55|10=154|8=FIX.4.4|9=151|35=D|34=364|49=ValonPaperOrdComp01|52=20240428-16:24:55.765069|56=GtwComp|11=362|38=0.0001|40=2|44=1|54=1|55=TESTBTC:TESTUSD|59=0|60=20240428-16:24:55|10=154|8=FIX.4.4|9=151|35=D|34=365|49=ValonPaperOrdComp01|52=20240428-16:24:55.765210|56=GtwComp|11=363|38=0.0001|40=2|44=1|54=1|55=TESTBTC:TESTUSD|59=0|60=20240428-16:24:55|10=144|8=FIX.4.4|9=151|35=D|34=366|49=ValonPaperOrdComp01|52=20240428-16:24:55.765342|56=GtwComp|11=364|38=0.0001|40=2|44=1|54=1|55=TESTBTC:TESTUSD|59=0|60=20240428-16:24:55|10=152|8=FIX.4.4|9=151|35=D|34=367|49=ValonPaperOrdComp01|52=20240428-16:24:55.765487|56=GtwComp|11=365|38=0.0001|40=2|44=1|54=1|55=TESTBTC:TESTUSD|59=0|60=20240428-16:24:55|10=164|8=FIX.4.4|9=151|35=D|34=368|49=ValonPaperOrdComp01|52=20240428-16:24:55.765629|56=GtwComp|11=366|38=0.0001|40=2|44=1|54=1|55=TESTBTC:TESTUSD|59=0|60=20240428-16:24:55|10=164|8=FIX.4.4|9=151|35=D|34=369|49=ValonPaperOrdComp01|52=20240428-16:24:55.767934|56=GtwComp|11=367|38=0.0001|40=2|44=1|54=1|55=TESTBTC:TESTUSD|59=0|60=20240428-16:24:55|10=167|8=FIX.4.4|9=151|35=D|34=370|49=ValonPaperOrdComp01|52=20240428-16:24:55.768260|56=GtwComp|11=368|38=0.0001|40=2|44=1|54=1|55=TESTBTC:TESTUSD|59=0|60=20240428-16:24:55|10=153|8=FIX.4.4|9=151|35=D|34=371|49=ValonPaperOrdComp01|52=20240428-16:24:55.768495|56=GtwComp|11=369|38=0.0001|40=2|44=1|54=1|55=TESTBTC:TESTUSD|59=0|60=20240428-16:24:55|10=165|8=FIX.4.4|9=151|35=D|34=372|49=ValonPaperOrdComp01|52=20240428-16:24:55.773475|56=GtwComp|11=370|38=0.0001|40=2|44=1|54=1|55=TESTBTC:TESTUSD|59=0|60=20240428-16:24:55|10=152|8=FIX.4.4|9=151|35=D|34=373|49=ValonPaperOrdComp01|52=20240428-16:24:55.773936|56=GtwComp|11=371|38=0.0001|40=2|44=1|54=1|55=TESTBTC:TESTUSD|59=0|60=20240428-16:24:55|10=156|8=FIX.4.4|9=151|35=D|34=374|49=ValonPaperOrdComp01|52=20240428-16:24:55.785290|56=GtwComp|11=372|38=0.0001|40=2|44=1|54=1|55=TESTBTC:TESTUSD|59=0|60=20240428-16:24:55|10=154|8=FIX.4.4|9=151|35=D|34=375|49=ValonPaperOrdComp01|52=20240428-16:24:55.786107|56=GtwComp|11=373|38=0.0001|40=2|44=1|54=1|55=TESTBTC:TESTUSD|59=0|60=20240428-16:24:55|10=154|8=FIX.4.4|9=151|35=D|34=376|49=ValonPaperOrdComp01|52=20240428-16:24:55.787285|56=GtwComp|11=374|38=0.0001|40=2|44=1|54=1|55=TESTBTC:TESTUSD|59=0|60=20240428-16:24:55|10=164|8=FIX.4.4|9=151|35=D|34=377|49=ValonPaperOrdComp01|52=20240428-16:24:55.787925|56=GtwComp|11=375|38=0.0001|40=2|44=1|54=1|55=TESTBTC:TESTUSD|59=0|60=20240428-16:24:55|10=167|8=FIX.4.4|9=151|35=D|34=378|49=ValonPaperOrdComp01|52=20240428-16:24:55.788494|56=GtwComp|11=376|38=0.0001|40=2|44=1|54=1|55=TESTBTC:TESTUSD|59=0|60=20240428-16:24:55|10=171|8=FIX.4.4|9=151|35=D|34=379|49=ValonPaperOrdComp01|52=20240428-16:24:55.788874|56=GtwComp|11=377|38=0.0001|40=2|44=1|54=1|55=TESTBTC:TESTUSD|59=0|60=20240428-16:24:55|10=175|8=FIX.4.4|9=151|35=D|34=380|49=ValonPaperOrdComp01|52=20240428-16:24:55.789183|56=GtwComp|11=378|38=0.0001|40=2|44=1|54=1|55=TESTBTC:TESTUSD|59=0|60=20240428-16:24:55|10=162|8=FIX.4.4|9=151|35=D|34=381|49=ValonPaperOrdComp01|52=20240428-16:24:55.789530|56=GtwComp|11=379|38=0.0001|40=2|44=1|54=1|55=TESTBTC:TESTUSD|59=0|60=20240428-16:24:55|10=160|8=FIX.4.4|9=151|35=D|34=382|49=ValonPaperOrdComp01|52=20240428-16:24:55.790149|56=GtwComp|11=380|38=0.0001|40=2|44=1|54=1|55=TESTBTC:TESTUSD|59=0|60=20240428-16:24:55|10=151|8=FIX.4.4|9=151|35=D|34=383|49=ValonPaperOrdComp01|52=20240428-16:24:55.790438|56=GtwComp|11=381|38=0.0001|40=2|44=1|54=1|55=TESTBTC:TESTUSD|59=0|60=20240428-16:24:55|10=154|8=FIX.4.4|9=151|35=D|34=384|49=ValonPaperOrdComp01|52=20240428-16:24:55.790674|56=GtwComp|11=382|38=0.0001|40=2|44=1|54=1|55=TESTBTC:TESTUSD|59=0|60=20240428-16:24:55|10=158|8=FIX.4.4|9=151|35=D|34=385|49=ValonPaperOrdComp01|52=20240428-16:24:55.790981|56=GtwComp|11=383|38=0.0001|40=2|44=1|54=1|55=TESTBTC:TESTUSD|59=0|60=20240428-16:24:55|10=161|8=FIX.4.4|9=151|35=D|34=386|49=ValonPaperOrdComp01|52=20240428-16:24:55.791347|56=GtwComp|11=384|38=0.0001|40=2|44=1|54=1|55=TESTBTC:TESTUSD|59=0|60=20240428-16:24:55|10=160|8=FIX.4.4|9=151|35=D|34=387|49=ValonPaperOrdComp01|52=20240428-16:24:55.791780|56=GtwComp|11=385|38=0.0001|40=2|44=1|54=1|55=TESTBTC:TESTUSD|59=0|60=20240428-16:24:55|10=163|8=FIX.4.4|9=151|35=D|34=388|49=ValonPaperOrdComp01|52=20240428-16:24:55.792602|56=GtwComp|11=386|38=0.0001|40=2|44=1|54=1|55=TESTBTC:TESTUSD|59=0|60=20240428-16:24:55|10=159|8=FIX.4.4|9=151|35=D|34=389|49=ValonPaperOrdComp01|52=20240428-16:24:55.792901|56=GtwComp|11=387|38=0.0001|40=2|44=1|54=1|55=TESTBTC:TESTUSD|59=0|60=20240428-16:24:55|10=163|8=FIX.4.4|9=151|35=D|34=390|49=ValonPaperOrdComp01|52=20240428-16:24:55.793306|56=GtwComp|11=388|38=0.0001|40=2|44=1|54=1|55=TESTBTC:TESTUSD|59=0|60=20240428-16:24:55|10=156|8=FIX.4.4|9=151|35=D|34=391|49=ValonPaperOrdComp01|52=20240428-16:24:55.793822|56=GtwComp|11=389|38=0.0001|40=2|44=1|54=1|55=TESTBTC:TESTUSD|59=0|60=20240428-16:24:55|10=161|8=FIX.4.4|9=151|35=D|34=392|49=ValonPaperOrdComp01|52=20240428-16:24:55.794221|56=GtwComp|11=390|38=0.0001|40=2|44=1|54=1|55=TESTBTC:TESTUSD|59=0|60=20240428-16:24:55|10=148|8=FIX.4.4|9=151|35=D|34=393|49=ValonPaperOrdComp01|52=20240428-16:24:55.795948|56=GtwComp|11=391|38=0.0001|40=2|44=1|54=1|55=TESTBTC:TESTUSD|59=0|60=20240428-16:24:55|10=167|8=FIX.4.4|9=151|35=D|34=394|49=ValonPaperOrdComp01|52=20240428-16:24:55.796482|56=GtwComp|11=392|38=0.0001|40=2|44=1|54=1|55=TESTBTC:TESTUSD|59=0|60=20240428-16:24:55|10=163|8=FIX.4.4|9=151|35=D|34=395|49=ValonPaperOrdComp01|52=20240428-16:24:55.806426|56=GtwComp|11=393|38=0.0001|40=2|44=1|54=1|55=TESTBTC:TESTUSD|59=0|60=20240428-16:24:55|10=155|8=FIX.4.4|9=151|35=D|34=396|49=ValonPaperOrdComp01|52=20240428-16:24:55.807088|56=GtwComp|11=394|38=0.0001|40=2|44=1|54=1|55=TESTBTC:TESTUSD|59=0|60=20240428-16:24:55|10=162|8=FIX.4.4|9=151|35=D|34=397|49=ValonPaperOrdComp01|52=20240428-16:24:55.807535|56=GtwComp|11=395|38=0.0001|40=2|44=1|54=1|55=TESTBTC:TESTUSD|59=0|60=20240428-16:24:55|10=161|8=FIX.4.4|9=151|35=D|34=398|49=ValonPaperOrdComp01|52=20240428-16:24:55.815790|56=GtwComp|11=396|38=0.0001|40=2|44=1|54=1|55=TESTBTC:TESTUSD|59=0|60=20240428-16:24:55|10=165|8=FIX.4.4|9=151|35=D|34=399|49=ValonPaperOrdComp01|52=20240428-16:24:55.816245|56=GtwComp|11=397|38=0.0001|40=2|44=1|54=1|55=TESTBTC:TESTUSD|59=0|60=20240428-16:24:55|10=163|8=FIX.4.4|9=151|35=D|34=400|49=ValonPaperOrdComp01|52=20240428-16:24:55.816571|56=GtwComp|11=398|38=0.0001|40=2|44=1|54=1|55=TESTBTC:TESTUSD|59=0|60=20240428-16:24:55|10=149|8=FIX.4.4|9=151|35=D|34=401|49=ValonPaperOrdComp01|52=20240428-16:24:55.817069|56=GtwComp|11=399|38=0.0001|40=2|44=1|54=1|55=TESTBTC:TESTUSD|59=0|60=20240428-16:24:55|10=154|8=FIX.4.4|9=151|35=D|34=402|49=ValonPaperOrdComp01|52=20240428-16:24:55.817418|56=GtwComp|11=400|38=0.0001|40=2|44=1|54=1|55=TESTBTC:TESTUSD|59=0|60=20240428-16:24:55|10=136|8=FIX.4.4|9=151|35=D|34=403|49=ValonPaperOrdComp01|52=20240428-16:24:55.817851|56=GtwComp|11=401|38=0.0001|40=2|44=1|54=1|55=TESTBTC:TESTUSD|59=0|60=20240428-16:24:55|10=139|8=FIX.4.4|9=151|35=D|34=404|49=ValonPaperOrdComp01|52=20240428-16:24:55.818232|56=GtwComp|11=402|38=0.0001|40=2|44=1|54=1|55=TESTBTC:TESTUSD|59=0|60=20240428-16:24:55|10=135|8=FIX.4.4|9=151|35=D|34=405|49=ValonPaperOrdComp01|52=20240428-16:24:55.818707|56=GtwComp|11=403|38=0.0001|40=2|44=1|54=1|55=TESTBTC:TESTUSD|59=0|60=20240428-16:24:55|10=144|8=FIX.4.4|9=151|35=D|34=406|49=ValonPaperOrdComp01|52=20240428-16:24:55.819056|56=GtwComp|11=404|38=0.0001|40=2|44=1|54=1|55=TESTBTC:TESTUSD|59=0|60=20240428-16:24:55|10=144|8=FIX.4.4|9=151|35=D|34=407|49=ValonPaperOrdComp01|52=20240428-16:24:55.819474|56=GtwComp|11=405|38=0.0001|40=2|44=1|54=1|55=TESTBTC:TESTUSD|59=0|60=20240428-16:24:55|10=150|8=FIX.4.4|9=151|35=D|34=408|49=ValonPaperOrdComp01|52=20240428-16:24:55.819856|56=GtwComp|11=406|38=0.0001|40=2|44=1|54=1|55=TESTBTC:TESTUSD|59=0|60=20240428-16:24:55|10=156|8=FIX.4.4|9=151|35=D|34=409|49=ValonPaperOrdComp01|52=20240428-16:24:55.820275|56=GtwComp|11=407|38=0.0001|40=2|44=1|54=1|55=TESTBTC:TESTUSD|59=0|60=20240428-16:24:55|10=145|8=FIX.4.4|9=151|35=D|34=410|49=ValonPaperOrdComp01|52=20240428-16:24:55.821100|56=GtwComp|11=408|38=0.0001|40=2|44=1|54=1|55=TESTBTC:TESTUSD|59=0|60=20240428-16:24:55|10=126|8=FIX.4.4|9=151|35=D|34=411|49=ValonPaperOrdComp01|52=20240428-16:24:55.821657|56=GtwComp|11=409|38=0.0001|40=2|44=1|54=1|55=TESTBTC:TESTUSD|59=0|60=20240428-16:24:55|10=145|8=FIX.4.4|9=151|35=D|34=412|49=ValonPaperOrdComp01|52=20240428-16:24:55.822097|56=GtwComp|11=410|38=0.0001|40=2|44=1|54=1|55=TESTBTC:TESTUSD|59=0|60=20240428-16:24:55|10=137|8=FIX.4.4|9=151|35=D|34=413|49=ValonPaperOrdComp01|52=20240428-16:24:55.822539|56=GtwComp|11=411|38=0.0001|40=2|44=1|54=1|55=TESTBTC:TESTUSD|59=0|60=20240428-16:24:55|10=140|8=FIX.4.4|9=151|35=D|34=414|49=ValonPaperOrdComp01|52=20240428-16:24:55.822859|56=GtwComp|11=412|38=0.0001|40=2|44=1|54=1|55=TESTBTC:TESTUSD|59=0|60=20240428-16:24:55|10=147|8=FIX.4.4|9=151|35=D|34=415|49=ValonPaperOrdComp01|52=20240428-16:24:55.823266|56=GtwComp|11=413|38=0.0001|40=2|44=1|54=1|55=TESTBTC:TESTUSD|59=0|60=20240428-16:24:55|10=142|8=FIX.4.4|9=151|35=D|34=416|49=ValonPaperOrdComp01|52=20240428-16:24:55.823713|56=GtwComp|11=414|38=0.0001|40=2|44=1|54=1|55=TESTBTC:TESTUSD|59=0|60=20240428-16:24:55|10=141|8=FIX.4.4|9=151|35=D|34=417|49=ValonPaperOrdComp01|52=20240428-16:24:55.824057|56=GtwComp|11=415|38=0.0001|40=2|44=1|54=1|55=TESTBTC:TESTUSD|59=0|60=20240428-16:24:55|10=145|8=FIX.4.4|9=151|35=D|34=418|49=ValonPaperOrdComp01|52=20240428-16:24:55.824516|56=GtwComp|11=416|38=0.0001|40=2|44=1|54=1|55=TESTBTC:TESTUSD|59=0|60=20240428-16:24:55|10=147|8=FIX.4.4|9=151|35=D|34=419|49=ValonPaperOrdComp01|52=20240428-16:24:55.825019|56=GtwComp|11=417|38=0.0001|40=2|44=1|54=1|55=TESTBTC:TESTUSD|59=0|60=20240428-16:24:55|10=148|8=FIX.4.4|9=151|35=D|34=420|49=ValonPaperOrdComp01|52=20240428-16:24:55.825405|56=GtwComp|11=418|38=0.0001|40=2|44=1|54=1|55=TESTBTC:TESTUSD|59=0|60=20240428-16:24:55|10=140|8=FIX.4.4|9=151|35=D|34=421|49=ValonPaperOrdComp01|52=20240428-16:24:55.826150|56=GtwComp|11=419|38=0.0001|40=2|44=1|54=1|55=TESTBTC:TESTUSD|59=0|60=20240428-16:24:55|10=140|8=FIX.4.4|9=151|35=D|34=422|49=ValonPaperOrdComp01|52=20240428-16:24:55.826463|56=GtwComp|11=420|38=0.0001|40=2|44=1|54=1|55=TESTBTC:TESTUSD|59=0|60=20240428-16:24:55|10=140|8=FIX.4.4|9=151|35=D|34=423|49=ValonPaperOrdComp01|52=20240428-16:24:55.826906|56=GtwComp|11=421|38=0.0001|40=2|44=1|54=1|55=TESTBTC:TESTUSD|59=0|60=20240428-16:24:55|10=144|8=FIX.4.4|9=151|35=D|34=424|49=ValonPaperOrdComp01|52=20240428-16:24:55.829355|56=GtwComp|11=422|38=0.0001|40=2|44=1|54=1|55=TESTBTC:TESTUSD|59=0|60=20240428-16:24:55|10=147|8=FIX.4.4|9=151|35=D|34=425|49=ValonPaperOrdComp01|52=20240428-16:24:55.829856|56=GtwComp|11=423|38=0.0001|40=2|44=1|54=1|55=TESTBTC:TESTUSD|59=0|60=20240428-16:24:55|10=155|8=FIX.4.4|9=151|35=D|34=426|49=ValonPaperOrdComp01|52=20240428-16:24:55.830191|56=GtwComp|11=424|38=0.0001|40=2|44=1|54=1|55=TESTBTC:TESTUSD|59=0|60=20240428-16:24:55|10=141|8=FIX.4.4|9=151|35=D|34=427|49=ValonPaperOrdComp01|52=20240428-16:24:55.830730|56=GtwComp|11=425|38=0.0001|40=2|44=1|54=1|55=TESTBTC:TESTUSD|59=0|60=20240428-16:24:55|10=142|8=FIX.4.4|9=151|35=D|34=428|49=ValonPaperOrdComp01|52=20240428-16:24:55.831264|56=GtwComp|11=426|38=0.0001|40=2|44=1|54=1|55=TESTBTC:TESTUSD|59=0|60=20240428-16:24:55|10=147|8=FIX.4.4|9=151|35=D|34=429|49=ValonPaperOrdComp01|52=20240428-16:24:55.831642|56=GtwComp|11=427|38=0.0001|40=2|44=1|54=1|55=TESTBTC:TESTUSD|59=0|60=20240428-16:24:55|10=149|8=FIX.4.4|9=151|35=D|34=430|49=ValonPaperOrdComp01|52=20240428-16:24:55.832118|56=GtwComp|11=428|38=0.0001|40=2|44=1|54=1|55=TESTBTC:TESTUSD|59=0|60=20240428-16:24:55|10=141|8=FIX.4.4|9=151|35=D|34=431|49=ValonPaperOrdComp01|52=20240428-16:24:55.832762|56=GtwComp|11=429|38=0.0001|40=2|44=1|54=1|55=TESTBTC:TESTUSD|59=0|60=20240428-16:24:55|10=148|8=FIX.4.4|9=151|35=D|34=432|49=ValonPaperOrdComp01|52=20240428-16:24:55.833647|56=GtwComp|11=430|38=0.0001|40=2|44=1|54=1|55=TESTBTC:TESTUSD|59=0|60=20240428-16:24:55|10=144|8=FIX.4.4|9=151|35=D|34=433|49=ValonPaperOrdComp01|52=20240428-16:24:55.842492|56=GtwComp|11=431|38=0.0001|40=2|44=1|54=1|55=TESTBTC:TESTUSD|59=0|60=20240428-16:24:55|10=144|8=FIX.4.4|9=151|35=D|34=434|49=ValonPaperOrdComp01|52=20240428-16:24:55.845668|56=GtwComp|11=432|38=0.0001|40=2|44=1|54=1|55=TESTBTC:TESTUSD|59=0|60=20240428-16:24:55|10=154|8=FIX.4.4|9=151|35=D|34=435|49=ValonPaperOrdComp01|52=20240428-16:24:55.849007|56=GtwComp|11=433|38=0.0001|40=2|44=1|54=1|55=TESTBTC:TESTUSD|59=0|60=20240428-16:24:55|10=147|8=FIX.4.4|9=151|35=D|34=436|49=ValonPaperOrdComp01|52=20240428-16:24:55.849322|56=GtwComp|11=434|38=0.0001|40=2|44=1|54=1|55=TESTBTC:TESTUSD|59=0|60=20240428-16:24:55|10=149|8=FIX.4.4|9=151|35=D|34=437|49=ValonPaperOrdComp01|52=20240428-16:24:55.857383|56=GtwComp|11=435|38=0.0001|40=2|44=1|54=1|55=TESTBTC:TESTUSD|59=0|60=20240428-16:24:55|10=157|8=FIX.4.4|9=151|35=D|34=438|49=ValonPaperOrdComp01|52=20240428-16:24:55.858036|56=GtwComp|11=436|38=0.0001|40=2|44=1|54=1|55=TESTBTC:TESTUSD|59=0|60=20240428-16:24:55|10=155|8=FIX.4.4|9=151|35=D|34=439|49=ValonPaperOrdComp01|52=20240428-16:24:55.858337|56=GtwComp|11=437|38=0.0001|40=2|44=1|54=1|55=TESTBTC:TESTUSD|59=0|60=20240428-16:24:55|10=161|8=FIX.4.4|9=151|35=D|34=440|49=ValonPaperOrdComp01|52=20240428-16:24:55.858695|56=GtwComp|11=438|38=0.0001|40=2|44=1|54=1|55=TESTBTC:TESTUSD|59=0|60=20240428-16:24:55|10=161|8=FIX.4.4|9=151|35=D|34=441|49=ValonPaperOrdComp01|52=20240428-16:24:55.859136|56=GtwComp|11=439|38=0.0001|40=2|44=1|54=1|55=TESTBTC:TESTUSD|59=0|60=20240428-16:24:55|10=154|8=FIX.4.4|9=151|35=D|34=442|49=ValonPaperOrdComp01|52=20240428-16:24:55.859563|56=GtwComp|11=440|38=0.0001|40=2|44=1|54=1|55=TESTBTC:TESTUSD|59=0|60=20240428-16:24:55|10=151|8=FIX.4.4|9=151|35=D|34=443|49=ValonPaperOrdComp01|52=20240428-16:24:55.859991|56=GtwComp|11=441|38=0.0001|40=2|44=1|54=1|55=TESTBTC:TESTUSD|59=0|60=20240428-16:24:55|10=158|8=FIX.4.4|9=151|35=D|34=444|49=ValonPaperOrdComp01|52=20240428-16:24:55.860523|56=GtwComp|11=442|38=0.0001|40=2|44=1|54=1|55=TESTBTC:TESTUSD|59=0|60=20240428-16:24:55|10=143|8=FIX.4.4|9=151|35=D|34=445|49=ValonPaperOrdComp01|52=20240428-16:24:55.860989|56=GtwComp|11=443|38=0.0001|40=2|44=1|54=1|55=TESTBTC:TESTUSD|59=0|60=20240428-16:24:55|10=161|8=FIX.4.4|9=151|35=D|34=446|49=ValonPaperOrdComp01|52=20240428-16:24:55.861405|56=GtwComp|11=444|38=0.0001|40=2|44=1|54=1|55=TESTBTC:TESTUSD|59=0|60=20240428-16:24:55|10=147|8=FIX.4.4|9=151|35=D|34=447|49=ValonPaperOrdComp01|52=20240428-16:24:55.861754|56=GtwComp|11=445|38=0.0001|40=2|44=1|54=1|55=TESTBTC:TESTUSD|59=0|60=20240428-16:24:55|10=156|8=FIX.4.4|9=151|35=D|34=448|49=ValonPaperOrdComp01|52=20240428-16:24:55.862158|56=GtwComp|11=446|38=0.0001|40=2|44=1|54=1|55=TESTBTC:TESTUSD|59=0|60=20240428-16:24:55|10=157|8=FIX.4.4|9=151|35=D|34=449|49=ValonPaperOrdComp01|52=20240428-16:24:55.862593|56=GtwComp|11=447|38=0.0001|40=2|44=1|54=1|55=TESTBTC:TESTUSD|59=0|60=20240428-16:24:55|10=162|8=FIX.4.4|9=151|35=D|34=450|49=ValonPaperOrdComp01|52=20240428-16:24:55.862950|56=GtwComp|11=448|38=0.0001|40=2|44=1|54=1|55=TESTBTC:TESTUSD|59=0|60=20240428-16:24:55|10=152|8=FIX.4.4|9=151|35=D|34=451|49=ValonPaperOrdComp01|52=20240428-16:24:55.863356|56=GtwComp|11=449|38=0.0001|40=2|44=1|54=1|55=TESTBTC:TESTUSD|59=0|60=20240428-16:24:55|10=155|8=FIX.4.4|9=151|35=D|34=452|49=ValonPaperOrdComp01|52=20240428-16:24:55.863754|56=GtwComp|11=450|38=0.0001|40=2|44=1|54=1|55=TESTBTC:TESTUSD|59=0|60=20240428-16:24:55|10=150|8=FIX.4.4|9=151|35=D|34=453|49=ValonPaperOrdComp01|52=20240428-16:24:55.864399|56=GtwComp|11=451|38=0.0001|40=2|44=1|54=1|55=TESTBTC:TESTUSD|59=0|60=20240428-16:24:55|10=158|8=FIX.4.4|9=151|35=D|34=454|49=ValonPaperOrdComp01|52=20240428-16:24:55.864682|56=GtwComp|11=452|38=0.0001|40=2|44=1|54=1|55=TESTBTC:TESTUSD|59=0|60=20240428-16:24:55|10=155|8=FIX.4.4|9=151|35=D|34=455|49=ValonPaperOrdComp01|52=20240428-16:24:55.865056|56=GtwComp|11=453|38=0.0001|40=2|44=1|54=1|55=TESTBTC:TESTUSD|59=0|60=20240428-16:24:55|10=153|8=FIX.4.4|9=151|35=D|34=456|49=ValonPaperOrdComp01|52=20240428-16:24:55.865510|56=GtwComp|11=454|38=0.0001|40=2|44=1|54=1|55=TESTBTC:TESTUSD|59=0|60=20240428-16:24:55|10=150|8=FIX.4.4|9=151|35=D|34=457|49=ValonPaperOrdComp01|52=20240428-16:24:55.865861|56=GtwComp|11=455|38=0.0001|40=2|44=1|54=1|55=TESTBTC:TESTUSD|59=0|60=20240428-16:24:55|10=161|8=FIX.4.4|9=151|35=D|34=458|49=ValonPaperOrdComp01|52=20240428-16:24:55.866282|56=GtwComp|11=456|38=0.0001|40=2|44=1|54=1|55=TESTBTC:TESTUSD|59=0|60=20240428-16:24:55|10=161|8=FIX.4.4|9=151|35=D|34=459|49=ValonPaperOrdComp01|52=20240428-16:24:55.866685|56=GtwComp|11=457|38=0.0001|40=2|44=1|54=1|55=TESTBTC:TESTUSD|59=0|60=20240428-16:24:55|10=170|8=FIX.4.4|9=151|35=D|34=460|49=ValonPaperOrdComp01|52=20240428-16:24:55.867029|56=GtwComp|11=458|38=0.0001|40=2|44=1|54=1|55=TESTBTC:TESTUSD|59=0|60=20240428-16:24:55|10=156|8=FIX.4.4|9=151|35=D|34=461|49=ValonPaperOrdComp01|52=20240428-16:24:55.867553|56=GtwComp|11=459|38=0.0001|40=2|44=1|54=1|55=TESTBTC:TESTUSD|59=0|60=20240428-16:24:55|10=160|8=FIX.4.4|9=151|35=D|34=462|49=ValonPaperOrdComp01|52=20240428-16:24:55.867905|56=GtwComp|11=460|38=0.0001|40=2|44=1|54=1|55=TESTBTC:TESTUSD|59=0|60=20240428-16:24:55|10=154|8=FIX.4.4|9=151|35=D|34=463|49=ValonPaperOrdComp01|52=20240428-16:24:55.868230|56=GtwComp|11=461|38=0.0001|40=2|44=1|54=1|55=TESTBTC:TESTUSD|59=0|60=20240428-16:24:55|10=148|8=FIX.4.4|9=151|35=D|34=464|49=ValonPaperOrdComp01|52=20240428-16:24:55.868593|56=GtwComp|11=462|38=0.0001|40=2|44=1|54=1|55=TESTBTC:TESTUSD|59=0|60=20240428-16:24:55|10=162|8=FIX.4.4|9=151|35=D|34=465|49=ValonPaperOrdComp01|52=20240428-16:24:55.868902|56=GtwComp|11=463|38=0.0001|40=2|44=1|54=1|55=TESTBTC:TESTUSD|59=0|60=20240428-16:24:55|10=158|8=FIX.4.4|9=151|35=D|34=466|49=ValonPaperOrdComp01|52=20240428-16:24:55.869133|56=GtwComp|11=464|38=0.0001|40=2|44=1|54=1|55=TESTBTC:TESTUSD|59=0|60=20240428-16:24:55|10=157|8=FIX.4.4|9=151|35=D|34=467|49=ValonPaperOrdComp01|52=20240428-16:24:55.869714|56=GtwComp|11=465|38=0.0001|40=2|44=1|54=1|55=TESTBTC:TESTUSD|59=0|60=20240428-16:24:55|10=164|8=FIX.4.4|9=151|35=D|34=468|49=ValonPaperOrdComp01|52=20240428-16:24:55.870042|56=GtwComp|11=466|38=0.0001|40=2|44=1|54=1|55=TESTBTC:TESTUSD|59=0|60=20240428-16:24:55|10=152|8=FIX.4.4|9=151|35=D|34=469|49=ValonPaperOrdComp01|52=20240428-16:24:55.870370|56=GtwComp|11=467|38=0.0001|40=2|44=1|54=1|55=TESTBTC:TESTUSD|59=0|60=20240428-16:24:55|10=158|8=FIX.4.4|9=151|35=D|34=470|49=ValonPaperOrdComp01|52=20240428-16:24:55.870543|56=GtwComp|11=468|38=0.0001|40=2|44=1|54=1|55=TESTBTC:TESTUSD|59=0|60=20240428-16:24:55|10=153|8=FIX.4.4|9=151|35=D|34=471|49=ValonPaperOrdComp01|52=20240428-16:24:55.870694|56=GtwComp|11=469|38=0.0001|40=2|44=1|54=1|55=TESTBTC:TESTUSD|59=0|60=20240428-16:24:55|10=162|8=FIX.4.4|9=151|35=D|34=472|49=ValonPaperOrdComp01|52=20240428-16:24:55.870910|56=GtwComp|11=470|38=0.0001|40=2|44=1|54=1|55=TESTBTC:TESTUSD|59=0|60=20240428-16:24:55|10=146|8=FIX.4.4|9=151|35=D|34=473|49=ValonPaperOrdComp01|52=20240428-16:24:55.871068|56=GtwComp|11=471|38=0.0001|40=2|44=1|54=1|55=TESTBTC:TESTUSD|59=0|60=20240428-16:24:55|10=153|8=FIX.4.4|9=151|35=D|34=474|49=ValonPaperOrdComp01|52=20240428-16:24:55.871226|56=GtwComp|11=472|38=0.0001|40=2|44=1|54=1|55=TESTBTC:TESTUSD|59=0|60=20240428-16:24:55|10=151|8=FIX.4.4|9=151|35=D|34=475|49=ValonPaperOrdComp01|52=20240428-16:24:55.871363|56=GtwComp|11=473|38=0.0001|40=2|44=1|54=1|55=TESTBTC:TESTUSD|59=0|60=20240428-16:24:55|10=155|8=FIX.4.4|9=151|35=D|34=476|49=ValonPaperOrdComp01|52=20240428-16:24:55.871505|56=GtwComp|11=474|38=0.0001|40=2|44=1|54=1|55=TESTBTC:TESTUSD|59=0|60=20240428-16:24:55|10=155|8=FIX.4.4|9=151|35=D|34=477|49=ValonPaperOrdComp01|52=20240428-16:24:55.871646|56=GtwComp|11=475|38=0.0001|40=2|44=1|54=1|55=TESTBTC:TESTUSD|59=0|60=20240428-16:24:55|10=163|8=FIX.4.4|9=151|35=D|34=478|49=ValonPaperOrdComp01|52=20240428-16:24:55.871826|56=GtwComp|11=476|38=0.0001|40=2|44=1|54=1|55=TESTBTC:TESTUSD|59=0|60=20240428-16:24:55|10=165|8=FIX.4.4|9=151|35=D|34=479|49=ValonPaperOrdComp01|52=20240428-16:24:55.871969|56=GtwComp|11=477|38=0.0001|40=2|44=1|54=1|55=TESTBTC:TESTUSD|59=0|60=20240428-16:24:55|10=175|8=FIX.4.4|9=151|35=D|34=480|49=ValonPaperOrdComp01|52=20240428-16:24:55.872110|56=GtwComp|11=478|38=0.0001|40=2|44=1|54=1|55=TESTBTC:TESTUSD|59=0|60=20240428-16:24:55|10=147|8=FIX.4.4|9=151|35=D|34=481|49=ValonPaperOrdComp01|52=20240428-16:24:55.872244|56=GtwComp|11=479|38=0.0001|40=2|44=1|54=1|55=TESTBTC:TESTUSD|59=0|60=20240428-16:24:55|10=157|8=FIX.4.4|9=151|35=D|34=482|49=ValonPaperOrdComp01|52=20240428-16:24:55.872391|56=GtwComp|11=480|38=0.0001|40=2|44=1|54=1|55=TESTBTC:TESTUSD|59=0|60=20240428-16:24:55|10=153|8=FIX.4.4|9=151|35=D|34=483|49=ValonPaperOrdComp01|52=20240428-16:24:55.872534|56=GtwComp|11=481|38=0.0001|40=2|44=1|54=1|55=TESTBTC:TESTUSD|59=0|60=20240428-16:24:55|10=154|8=FIX.4.4|9=151|35=D|34=484|49=ValonPaperOrdComp01|52=20240428-16:24:55.872964|56=GtwComp|11=482|38=0.0001|40=2|44=1|54=1|55=TESTBTC:TESTUSD|59=0|60=20240428-16:24:55|10=163|8=FIX.4.4|9=151|35=D|34=485|49=ValonPaperOrdComp01|52=20240428-16:24:55.873294|56=GtwComp|11=483|38=0.0001|40=2|44=1|54=1|55=TESTBTC:TESTUSD|59=0|60=20240428-16:24:55|10=162|8=FIX.4.4|9=151|35=D|34=486|49=ValonPaperOrdComp01|52=20240428-16:24:55.873842|56=GtwComp|11=484|38=0.0001|40=2|44=1|54=1|55=TESTBTC:TESTUSD|59=0|60=20240428-16:24:55|10=163|8=FIX.4.4|9=151|35=D|34=487|49=ValonPaperOrdComp01|52=20240428-16:24:55.874239|56=GtwComp|11=485|38=0.0001|40=2|44=1|54=1|55=TESTBTC:TESTUSD|59=0|60=20240428-16:24:55|10=166|8=FIX.4.4|9=151|35=D|34=488|49=ValonPaperOrdComp01|52=20240428-16:24:55.874746|56=GtwComp|11=486|38=0.0001|40=2|44=1|54=1|55=TESTBTC:TESTUSD|59=0|60=20240428-16:24:55|10=171|8=FIX.4.4|9=151|35=D|34=489|49=ValonPaperOrdComp01|52=20240428-16:24:55.875172|56=GtwComp|11=487|38=0.0001|40=2|44=1|54=1|55=TESTBTC:TESTUSD|59=0|60=20240428-16:24:55|10=167|8=FIX.4.4|9=151|35=D|34=490|49=ValonPaperOrdComp01|52=20240428-16:24:55.875426|56=GtwComp|11=488|38=0.0001|40=2|44=1|54=1|55=TESTBTC:TESTUSD|59=0|60=20240428-16:24:55|10=162|8=FIX.4.4|9=151|35=D|34=491|49=ValonPaperOrdComp01|52=20240428-16:24:55.875871|56=GtwComp|11=489|38=0.0001|40=2|44=1|54=1|55=TESTBTC:TESTUSD|59=0|60=20240428-16:24:55|10=168|8=FIX.4.4|9=151|35=D|34=492|49=ValonPaperOrdComp01|52=20240428-16:24:55.876297|56=GtwComp|11=490|38=0.0001|40=2|44=1|54=1|55=TESTBTC:TESTUSD|59=0|60=20240428-16:24:55|10=164|8=FIX.4.4|9=151|35=D|34=493|49=ValonPaperOrdComp01|52=20240428-16:24:55.876702|56=GtwComp|11=491|38=0.0001|40=2|44=1|54=1|55=TESTBTC:TESTUSD|59=0|60=20240428-16:24:55|10=157|8=FIX.4.4|9=151|35=D|34=494|49=ValonPaperOrdComp01|52=20240428-16:24:55.888413|56=GtwComp|11=492|38=0.0001|40=2|44=1|54=1|55=TESTBTC:TESTUSD|59=0|60=20240428-16:24:55|10=161|8=FIX.4.4|9=151|35=D|34=495|49=ValonPaperOrdComp01|52=20240428-16:24:55.897998|56=GtwComp|11=493|38=0.0001|40=2|44=1|54=1|55=TESTBTC:TESTUSD|59=0|60=20240428-16:24:55|10=181|8=FIX.4.4|9=151|35=D|34=496|49=ValonPaperOrdComp01|52=20240428-16:24:55.898266|56=GtwComp|11=494|38=0.0001|40=2|44=1|54=1|55=TESTBTC:TESTUSD|59=0|60=20240428-16:24:55|10=172|8=FIX.4.4|9=151|35=D|34=497|49=ValonPaperOrdComp01|52=20240428-16:24:55.898808|56=GtwComp|11=495|38=0.0001|40=2|44=1|54=1|55=TESTBTC:TESTUSD|59=0|60=20240428-16:24:55|10=176|8=FIX.4.4|9=151|35=D|34=498|49=ValonPaperOrdComp01|52=20240428-16:24:55.900441|56=GtwComp|11=496|38=0.0001|40=2|44=1|54=1|55=TESTBTC:TESTUSD|59=0|60=20240428-16:24:55|10=155|8=FIX.4.4|9=151|35=D|34=499|49=ValonPaperOrdComp01|52=20240428-16:24:55.900710|56=GtwComp|11=497|38=0.0001|40=2|44=1|54=1|55=TESTBTC:TESTUSD|59=0|60=20240428-16:24:55|10=156|8=FIX.4.4|9=151|35=D|34=500|49=ValonPaperOrdComp01|52=20240428-16:24:55.900982|56=GtwComp|11=498|38=0.0001|40=2|44=1|54=1|55=TESTBTC:TESTUSD|59=0|60=20240428-16:24:55|10=151|8=FIX.4.4|9=151|35=D|34=501|49=ValonPaperOrdComp01|52=20240428-16:24:55.901164|56=GtwComp|11=499|38=0.0001|40=2|44=1|54=1|55=TESTBTC:TESTUSD|59=0|60=20240428-16:24:55|10=146|8=FIX.4.4|9=151|35=D|34=502|49=ValonPaperOrdComp01|52=20240428-16:24:55.901429|56=GtwComp|11=500|38=0.0001|40=2|44=1|54=1|55=TESTBTC:TESTUSD|59=0|60=20240428-16:24:55|10=134|8=FIX.4.4|9=151|35=D|34=503|49=ValonPaperOrdComp01|52=20240428-16:24:55.901691|56=GtwComp|11=501|38=0.0001|40=2|44=1|54=1|55=TESTBTC:TESTUSD|59=0|60=20240428-16:24:55|10=137|8=FIX.4.4|9=151|35=D|34=504|49=ValonPaperOrdComp01|52=20240428-16:24:55.901997|56=GtwComp|11=502|38=0.0001|40=2|44=1|54=1|55=TESTBTC:TESTUSD|59=0|60=20240428-16:24:55|10=148|8=FIX.4.4|9=151|35=D|34=505|49=ValonPaperOrdComp01|52=20240428-16:24:55.902257|56=GtwComp|11=503|38=0.0001|40=2|44=1|54=1|55=TESTBTC:TESTUSD|59=0|60=20240428-16:24:55|10=140|8=FIX.4.4|9=151|35=D|34=506|49=ValonPaperOrdComp01|52=20240428-16:24:55.902505|56=GtwComp|11=504|38=0.0001|40=2|44=1|54=1|55=TESTBTC:TESTUSD|59=0|60=20240428-16:24:55|10=138|8=FIX.4.4|9=151|35=D|34=507|49=ValonPaperOrdComp01|52=20240428-16:24:55.902710|56=GtwComp|11=505|38=0.0001|40=2|44=1|54=1|55=TESTBTC:TESTUSD|59=0|60=20240428-16:24:55|10=138|8=FIX.4.4|9=151|35=D|34=508|49=ValonPaperOrdComp01|52=20240428-16:24:55.902980|56=GtwComp|11=506|38=0.0001|40=2|44=1|54=1|55=TESTBTC:TESTUSD|59=0|60=20240428-16:24:55|10=149|8=FIX.4.4|9=151|35=D|34=509|49=ValonPaperOrdComp01|52=20240428-16:24:55.903176|56=GtwComp|11=507|38=0.0001|40=2|44=1|54=1|55=TESTBTC:TESTUSD|59=0|60=20240428-16:24:55|10=149|8=FIX.4.4|9=151|35=D|34=510|49=ValonPaperOrdComp01|52=20240428-16:24:55.903402|56=GtwComp|11=508|38=0.0001|40=2|44=1|54=1|55=TESTBTC:TESTUSD|59=0|60=20240428-16:24:55|10=134|8=FIX.4.4|9=151|35=D|34=511|49=ValonPaperOrdComp01|52=20240428-16:24:55.903631|56=GtwComp|11=509|38=0.0001|40=2|44=1|54=1|55=TESTBTC:TESTUSD|59=0|60=20240428-16:24:55|10=140|8=FIX.4.4|9=151|35=D|34=512|49=ValonPaperOrdComp01|52=20240428-16:24:55.903891|56=GtwComp|11=510|38=0.0001|40=2|44=1|54=1|55=TESTBTC:TESTUSD|59=0|60=20240428-16:24:55|10=141|8=FIX.4.4|9=151|35=D|34=513|49=ValonPaperOrdComp01|52=20240428-16:24:55.904091|56=GtwComp|11=511|38=0.0001|40=2|44=1|54=1|55=TESTBTC:TESTUSD|59=0|60=20240428-16:24:55|10=136|8=FIX.4.4|9=151|35=D|34=514|49=ValonPaperOrdComp01|52=20240428-16:24:55.904300|56=GtwComp|11=512|38=0.0001|40=2|44=1|54=1|55=TESTBTC:TESTUSD|59=0|60=20240428-16:24:55|10=131|8=FIX.4.4|9=151|35=D|34=515|49=ValonPaperOrdComp01|52=20240428-16:24:55.904507|56=GtwComp|11=513|38=0.0001|40=2|44=1|54=1|55=TESTBTC:TESTUSD|59=0|60=20240428-16:24:55|10=142|8=FIX.4.4|9=151|35=D|34=516|49=ValonPaperOrdComp01|52=20240428-16:24:55.909105|56=GtwComp|11=514|38=0.0001|40=2|44=1|54=1|55=TESTBTC:TESTUSD|59=0|60=20240428-16:24:55|10=143|8=FIX.4.4|9=151|35=D|34=517|49=ValonPaperOrdComp01|52=20240428-16:24:55.909529|56=GtwComp|11=515|38=0.0001|40=2|44=1|54=1|55=TESTBTC:TESTUSD|59=0|60=20240428-16:24:55|10=155|8=FIX.4.4|9=151|35=D|34=518|49=ValonPaperOrdComp01|52=20240428-16:24:55.910054|56=GtwComp|11=516|38=0.0001|40=2|44=1|54=1|55=TESTBTC:TESTUSD|59=0|60=20240428-16:24:55|10=142|8=FIX.4.4|9=151|35=D|34=519|49=ValonPaperOrdComp01|52=20240428-16:24:55.910577|56=GtwComp|11=517|38=0.0001|40=2|44=1|54=1|55=TESTBTC:TESTUSD|59=0|60=20240428-16:24:55|10=154|8=FIX.4.4|9=151|35=D|34=520|49=ValonPaperOrdComp01|52=20240428-16:24:55.910928|56=GtwComp|11=518|38=0.0001|40=2|44=1|54=1|55=TESTBTC:TESTUSD|59=0|60=20240428-16:24:55|10=147|8=FIX.4.4|9=151|35=D|34=521|49=ValonPaperOrdComp01|52=20240428-16:24:55.912776|56=GtwComp|11=519|38=0.0001|40=2|44=1|54=1|55=TESTBTC:TESTUSD|59=0|60=20240428-16:24:55|10=152|8=FIX.4.4|9=151|35=D|34=522|49=ValonPaperOrdComp01|52=20240428-16:24:55.913257|56=GtwComp|11=520|38=0.0001|40=2|44=1|54=1|55=TESTBTC:TESTUSD|59=0|60=20240428-16:24:55|10=140|8=FIX.4.4|9=151|35=D|34=523|49=ValonPaperOrdComp01|52=20240428-16:24:55.913765|56=GtwComp|11=521|38=0.0001|40=2|44=1|54=1|55=TESTBTC:TESTUSD|59=0|60=20240428-16:24:55|10=146|8=FIX.4.4|9=151|35=D|34=524|49=ValonPaperOrdComp01|52=20240428-16:24:55.914568|56=GtwComp|11=522|38=0.0001|40=2|44=1|54=1|55=TESTBTC:TESTUSD|59=0|60=20240428-16:24:55|10=150|8=FIX.4.4|9=151|35=D|34=525|49=ValonPaperOrdComp01|52=20240428-16:24:55.914827|56=GtwComp|11=523|38=0.0001|40=2|44=1|54=1|55=TESTBTC:TESTUSD|59=0|60=20240428-16:24:55|10=150|8=FIX.4.4|9=151|35=D|34=526|49=ValonPaperOrdComp01|52=20240428-16:24:55.917642|56=GtwComp|11=524|38=0.0001|40=2|44=1|54=1|55=TESTBTC:TESTUSD|59=0|60=20240428-16:24:55|10=150|8=FIX.4.4|9=151|35=D|34=527|49=ValonPaperOrdComp01|52=20240428-16:24:55.918173|56=GtwComp|11=525|38=0.0001|40=2|44=1|54=1|55=TESTBTC:TESTUSD|59=0|60=20240428-16:24:55|10=152|8=FIX.4.4|9=151|35=D|34=528|49=ValonPaperOrdComp01|52=20240428-16:24:55.918660|56=GtwComp|11=526|38=0.0001|40=2|44=1|54=1|55=TESTBTC:TESTUSD|59=0|60=20240428-16:24:55|10=155|8=FIX.4.4|9=151|35=D|34=529|49=ValonPaperOrdComp01|52=20240428-16:24:55.918950|56=GtwComp|11=527|38=0.0001|40=2|44=1|54=1|55=TESTBTC:TESTUSD|59=0|60=20240428-16:24:55|10=159|8=FIX.4.4|9=151|35=D|34=530|49=ValonPaperOrdComp01|52=20240428-16:24:55.919411|56=GtwComp|11=528|38=0.0001|40=2|44=1|54=1|55=TESTBTC:TESTUSD|59=0|60=20240428-16:24:55|10=145|8=FIX.4.4|9=151|35=D|34=531|49=ValonPaperOrdComp01|52=20240428-16:24:55.919945|56=GtwComp|11=529|38=0.0001|40=2|44=1|54=1|55=TESTBTC:TESTUSD|59=0|60=20240428-16:24:55|10=159|8=FIX.4.4|9=151|35=D|34=532|49=ValonPaperOrdComp01|52=20240428-16:24:55.920216|56=GtwComp|11=530|38=0.0001|40=2|44=1|54=1|55=TESTBTC:TESTUSD|59=0|60=20240428-16:24:55|10=135|8=FIX.4.4|9=151|35=D|34=533|49=ValonPaperOrdComp01|52=20240428-16:24:55.920710|56=GtwComp|11=531|38=0.0001|40=2|44=1|54=1|55=TESTBTC:TESTUSD|59=0|60=20240428-16:24:55|10=136|8=FIX.4.4|9=151|35=D|34=534|49=ValonPaperOrdComp01|52=20240428-16:24:55.921360|56=GtwComp|11=532|38=0.0001|40=2|44=1|54=1|55=TESTBTC:TESTUSD|59=0|60=20240428-16:24:55|10=140|8=FIX.4.4|9=151|35=D|34=535|49=ValonPaperOrdComp01|52=20240428-16:24:55.921792|56=GtwComp|11=533|38=0.0001|40=2|44=1|54=1|55=TESTBTC:TESTUSD|59=0|60=20240428-16:24:55|10=151|8=FIX.4.4|9=151|35=D|34=536|49=ValonPaperOrdComp01|52=20240428-16:24:55.934745|56=GtwComp|11=534|38=0.0001|40=2|44=1|54=1|55=TESTBTC:TESTUSD|59=0|60=20240428-16:24:55|10=155|8=FIX.4.4|9=151|35=D|34=537|49=ValonPaperOrdComp01|52=20240428-16:24:55.940385|56=GtwComp|11=535|38=0.0001|40=2|44=1|54=1|55=TESTBTC:TESTUSD|59=0|60=20240428-16:24:55|10=154|8=FIX.4.4|9=151|35=D|34=538|49=ValonPaperOrdComp01|52=20240428-16:24:55.940663|56=GtwComp|11=536|38=0.0001|40=2|44=1|54=1|55=TESTBTC:TESTUSD|59=0|60=20240428-16:24:55|10=155|8=FIX.4.4|9=151|35=D|34=539|49=ValonPaperOrdComp01|52=20240428-16:24:55.940940|56=GtwComp|11=537|38=0.0001|40=2|44=1|54=1|55=TESTBTC:TESTUSD|59=0|60=20240428-16:24:55|10=155|8=FIX.4.4|9=151|35=D|34=540|49=ValonPaperOrdComp01|52=20240428-16:24:55.941237|56=GtwComp|11=538|38=0.0001|40=2|44=1|54=1|55=TESTBTC:TESTUSD|59=0|60=20240428-16:24:55|10=148|8=FIX.4.4|9=151|35=D|34=541|49=ValonPaperOrdComp01|52=20240428-16:24:55.941557|56=GtwComp|11=539|38=0.0001|40=2|44=1|54=1|55=TESTBTC:TESTUSD|59=0|60=20240428-16:24:55|10=155|8=FIX.4.4|9=151|35=D|34=542|49=ValonPaperOrdComp01|52=20240428-16:24:55.941918|56=GtwComp|11=540|38=0.0001|40=2|44=1|54=1|55=TESTBTC:TESTUSD|59=0|60=20240428-16:24:55|10=149|8=FIX.4.4|9=151|35=D|34=543|49=ValonPaperOrdComp01|52=20240428-16:24:55.942253|56=GtwComp|11=541|38=0.0001|40=2|44=1|54=1|55=TESTBTC:TESTUSD|59=0|60=20240428-16:24:55|10=144|8=FIX.4.4|9=151|35=D|34=544|49=ValonPaperOrdComp01|52=20240428-16:24:55.942658|56=GtwComp|11=542|38=0.0001|40=2|44=1|54=1|55=TESTBTC:TESTUSD|59=0|60=20240428-16:24:55|10=155|8=FIX.4.4|9=151|35=D|34=545|49=ValonPaperOrdComp01|52=20240428-16:24:55.943165|56=GtwComp|11=543|38=0.0001|40=2|44=1|54=1|55=TESTBTC:TESTUSD|59=0|60=20240428-16:24:55|10=151|8=FIX.4.4|9=151|35=D|34=546|49=ValonPaperOrdComp01|52=20240428-16:24:55.943584|56=GtwComp|11=544|38=0.0001|40=2|44=1|54=1|55=TESTBTC:TESTUSD|59=0|60=20240428-16:24:55|10=158|8=FIX.4.4|9=151|35=D|34=547|49=ValonPaperOrdComp01|52=20240428-16:24:55.943964|56=GtwComp|11=545|38=0.0001|40=2|44=1|54=1|55=TESTBTC:TESTUSD|59=0|60=20240428-16:24:55|10=162|8=FIX.4.4|9=151|35=D|34=548|49=ValonPaperOrdComp01|52=20240428-16:24:55.944251|56=GtwComp|11=546|38=0.0001|40=2|44=1|54=1|55=TESTBTC:TESTUSD|59=0|60=20240428-16:24:55|10=154|8=FIX.4.4|9=151|35=D|34=549|49=ValonPaperOrdComp01|52=20240428-16:24:55.944621|56=GtwComp|11=547|38=0.0001|40=2|44=1|54=1|55=TESTBTC:TESTUSD|59=0|60=20240428-16:24:55|10=157|8=FIX.4.4|9=151|35=D|34=550|49=ValonPaperOrdComp01|52=20240428-16:24:55.944949|56=GtwComp|11=548|38=0.0001|40=2|44=1|54=1|55=TESTBTC:TESTUSD|59=0|60=20240428-16:24:55|10=163|8=FIX.4.4|9=151|35=D|34=551|49=ValonPaperOrdComp01|52=20240428-16:24:55.945363|56=GtwComp|11=549|38=0.0001|40=2|44=1|54=1|55=TESTBTC:TESTUSD|59=0|60=20240428-16:24:55|10=156|8=FIX.4.4|9=151|35=D|34=552|49=ValonPaperOrdComp01|52=20240428-16:24:55.945860|56=GtwComp|11=550|38=0.0001|40=2|44=1|54=1|55=TESTBTC:TESTUSD|59=0|60=20240428-16:24:55|10=151|8=FIX.4.4|9=151|35=D|34=553|49=ValonPaperOrdComp01|52=20240428-16:24:55.946312|56=GtwComp|11=551|38=0.0001|40=2|44=1|54=1|55=TESTBTC:TESTUSD|59=0|60=20240428-16:24:55|10=146|8=FIX.4.4|9=151|35=D|34=554|49=ValonPaperOrdComp01|52=20240428-16:24:55.946754|56=GtwComp|11=552|38=0.0001|40=2|44=1|54=1|55=TESTBTC:TESTUSD|59=0|60=20240428-16:24:55|10=158|8=FIX.4.4|9=151|35=D|34=555|49=ValonPaperOrdComp01|52=20240428-16:24:55.947273|56=GtwComp|11=553|38=0.0001|40=2|44=1|54=1|55=TESTBTC:TESTUSD|59=0|60=20240428-16:24:55|10=157|8=FIX.4.4|9=151|35=D|34=556|49=ValonPaperOrdComp01|52=20240428-16:24:55.947989|56=GtwComp|11=554|38=0.0001|40=2|44=1|54=1|55=TESTBTC:TESTUSD|59=0|60=20240428-16:24:55|10=173|8=FIX.4.4|9=151|35=D|34=557|49=ValonPaperOrdComp01|52=20240428-16:24:55.948284|56=GtwComp|11=555|38=0.0001|40=2|44=1|54=1|55=TESTBTC:TESTUSD|59=0|60=20240428-16:24:55|10=164|8=FIX.4.4|9=151|35=D|34=558|49=ValonPaperOrdComp01|52=20240428-16:24:55.959061|56=GtwComp|11=556|38=0.0001|40=2|44=1|54=1|55=TESTBTC:TESTUSD|59=0|60=20240428-16:24:55|10=161|8=FIX.4.4|9=151|35=D|34=559|49=ValonPaperOrdComp01|52=20240428-16:24:55.959612|56=GtwComp|11=557|38=0.0001|40=2|44=1|54=1|55=TESTBTC:TESTUSD|59=0|60=20240428-16:24:55|10=165|8=FIX.4.4|9=151|35=D|34=560|49=ValonPaperOrdComp01|52=20240428-16:24:55.959892|56=GtwComp|11=558|38=0.0001|40=2|44=1|54=1|55=TESTBTC:TESTUSD|59=0|60=20240428-16:24:55|10=168|8=FIX.4.4|9=151|35=D|34=561|49=ValonPaperOrdComp01|52=20240428-16:24:55.960281|56=GtwComp|11=559|38=0.0001|40=2|44=1|54=1|55=TESTBTC:TESTUSD|59=0|60=20240428-16:24:55|10=154|8=FIX.4.4|9=151|35=D|34=562|49=ValonPaperOrdComp01|52=20240428-16:24:55.960880|56=GtwComp|11=560|38=0.0001|40=2|44=1|54=1|55=TESTBTC:TESTUSD|59=0|60=20240428-16:24:55|10=152|8=FIX.4.4|9=151|35=D|34=563|49=ValonPaperOrdComp01|52=20240428-16:24:55.961378|56=GtwComp|11=561|38=0.0001|40=2|44=1|54=1|55=TESTBTC:TESTUSD|59=0|60=20240428-16:24:55|10=157|8=FIX.4.4|9=151|35=D|34=564|49=ValonPaperOrdComp01|52=20240428-16:24:55.961859|56=GtwComp|11=562|38=0.0001|40=2|44=1|54=1|55=TESTBTC:TESTUSD|59=0|60=20240428-16:24:55|10=163|8=FIX.4.4|9=151|35=D|34=565|49=ValonPaperOrdComp01|52=20240428-16:24:55.962126|56=GtwComp|11=563|38=0.0001|40=2|44=1|54=1|55=TESTBTC:TESTUSD|59=0|60=20240428-16:24:55|10=153|8=FIX.4.4|9=151|35=D|34=566|49=ValonPaperOrdComp01|52=20240428-16:24:55.962661|56=GtwComp|11=564|38=0.0001|40=2|44=1|54=1|55=TESTBTC:TESTUSD|59=0|60=20240428-16:24:55|10=159|8=FIX.4.4|9=151|35=D|34=567|49=ValonPaperOrdComp01|52=20240428-16:24:55.963013|56=GtwComp|11=565|38=0.0001|40=2|44=1|54=1|55=TESTBTC:TESTUSD|59=0|60=20240428-16:24:55|10=153|8=FIX.4.4|9=151|35=D|34=568|49=ValonPaperOrdComp01|52=20240428-16:24:55.963296|56=GtwComp|11=566|38=0.0001|40=2|44=1|54=1|55=TESTBTC:TESTUSD|59=0|60=20240428-16:24:55|10=168|8=FIX.4.4|9=151|35=D|34=569|49=ValonPaperOrdComp01|52=20240428-16:24:55.963744|56=GtwComp|11=567|38=0.0001|40=2|44=1|54=1|55=TESTBTC:TESTUSD|59=0|60=20240428-16:24:55|10=168|8=FIX.4.4|9=151|35=D|34=570|49=ValonPaperOrdComp01|52=20240428-16:24:55.964233|56=GtwComp|11=568|38=0.0001|40=2|44=1|54=1|55=TESTBTC:TESTUSD|59=0|60=20240428-16:24:55|10=155|8=FIX.4.4|9=151|35=D|34=571|49=ValonPaperOrdComp01|52=20240428-16:24:55.970793|56=GtwComp|11=569|38=0.0001|40=2|44=1|54=1|55=TESTBTC:TESTUSD|59=0|60=20240428-16:24:55|10=165|8=FIX.4.4|9=151|35=D|34=572|49=ValonPaperOrdComp01|52=20240428-16:24:55.971327|56=GtwComp|11=570|38=0.0001|40=2|44=1|54=1|55=TESTBTC:TESTUSD|59=0|60=20240428-16:24:55|10=152|8=FIX.4.4|9=151|35=D|34=573|49=ValonPaperOrdComp01|52=20240428-16:24:55.971622|56=GtwComp|11=571|38=0.0001|40=2|44=1|54=1|55=TESTBTC:TESTUSD|59=0|60=20240428-16:24:55|10=152|8=FIX.4.4|9=151|35=D|34=574|49=ValonPaperOrdComp01|52=20240428-16:24:55.972311|56=GtwComp|11=572|38=0.0001|40=2|44=1|54=1|55=TESTBTC:TESTUSD|59=0|60=20240428-16:24:55|10=150|8=FIX.4.4|9=151|35=D|34=575|49=ValonPaperOrdComp01|52=20240428-16:24:55.972593|56=GtwComp|11=573|38=0.0001|40=2|44=1|54=1|55=TESTBTC:TESTUSD|59=0|60=20240428-16:24:55|10=164|8=FIX.4.4|9=151|35=D|34=576|49=ValonPaperOrdComp01|52=20240428-16:24:55.973108|56=GtwComp|11=574|38=0.0001|40=2|44=1|54=1|55=TESTBTC:TESTUSD|59=0|60=20240428-16:24:55|10=159|8=FIX.4.4|9=151|3