8=FIX.4.4|9=119|35=A|34=1|49=TestComp11|52=20240404-16:18:27.806947|56=GtwComp|98=0|108=30|141=Y|553=testmd|554=password|9010=Y|9011=Y|10=217|