8=FIX.4.4|9=128|35=A|34=1|49=ValonOrdComp03|52=20240428-15:47:56.039740|56=GtwComp|98=0|108=30|141=Y|553=test|554=password|9010=Y|9011=Y|9501=Y|10=242|