8=FIX.4.4|9=121|35=A|34=1|49=ValonOrdComp04|52=20230905-12:42:20.211177|56=GtwComp|98=0|108=30|141=Y|553=test|554=password|9010=Y|9011=Y|10=112|8=FIX.4.4|9=154|35=D|34=2|49=ValonOrdComp04|52=20230905-12:42:37.238697|56=GtwComp|11=1|21=1|38=0.001|40=2|44=1000|54=1|55=BTCUSD|59=0|60=20230905-12:42:21|3927=0|6061=N|10=216|8=FIX.4.4|9=67|35=0|34=3|49=ValonOrdComp04|52=20230905-12:43:07.329316|56=GtwComp|10=082|8=FIX.4.4|9=67|35=0|34=4|49=ValonOrdComp04|52=20230905-12:43:37.330215|56=GtwComp|10=076|