8=FIX.4.4|9=195|35=A|34=1|49=ValonOrdComp01|52=20240428-15:34:21.853542|56=GtwComp|98=0|108=30|141=Y|553=NwOAl5PiXS2sXo0NKaJ1pZiBbOIvmdw1mG0C42lxGbN|554=YHDICtKUt0WHxxxCU1x0iFmAcsNQqR1k5IxkvOUx6OE|9010=Y|9011=Y|10=019|