8=FIX.4.4|9=120|35=A|34=1|49=FXCHComp42265|52=20240308-08:38:52.293998|56=GtwComp|98=0|108=30|141=Y|553=fxch|554=password|9010=Y|9011=Y|10=029|