8=FIX.4.4|9=119|35=A|34=1|49=TestComp11|52=20240405-15:06:17.307525|56=BfxComp|98=0|108=30|141=Y|553=testmd|554=password|9010=Y|9011=Y|10=183|