8=FIX.4.4|9=212|35=A|34=1|49=Jeff2|52=20230915-16:43:51.010913|56=BfxComp|98=0|108=30|141=N|341=20230915-11:00:00.000|553=ileMZ7r7aA9dg1f0qZ2KzFnJl010FZ9LX0JERBKs5D7|554=XgorEH1OJblVE4bs3iu8hdiWaMsCoeD39wjskZmsNBb|9010=Y|9011=Y|10=226|8=FIX.4.4|9=212|35=A|34=2|49=Jeff2|52=20230915-16:43:53.372781|56=BfxComp|98=0|108=30|141=N|341=20230915-11:00:00.000|553=ileMZ7r7aA9dg1f0qZ2KzFnJl010FZ9LX0JERBKs5D7|554=XgorEH1OJblVE4bs3iu8hdiWaMsCoeD39wjskZmsNBb|9010=Y|9011=Y|10=243|8=FIX.4.4|9=212|35=A|34=3|49=Jeff2|52=20230915-16:43:55.851802|56=BfxComp|98=0|108=30|141=N|341=20230915-11:00:00.000|553=ileMZ7r7aA9dg1f0qZ2KzFnJl010FZ9LX0JERBKs5D7|554=XgorEH1OJblVE4bs3iu8hdiWaMsCoeD39wjskZmsNBb|9010=Y|9011=Y|10=242|8=FIX.4.4|9=212|35=A|34=4|49=Jeff2|52=20230915-16:43:57.207538|56=BfxComp|98=0|108=30|141=N|341=20230915-11:00:00.000|553=ileMZ7r7aA9dg1f0qZ2KzFnJl010FZ9LX0JERBKs5D7|554=XgorEH1OJblVE4bs3iu8hdiWaMsCoeD39wjskZmsNBb|9010=Y|9011=Y|10=246|8=FIX.4.4|9=212|35=A|34=5|49=Jeff2|52=20230915-16:43:59.786265|56=BfxComp|98=0|108=30|141=N|341=20230915-11:00:00.000|553=ileMZ7r7aA9dg1f0qZ2KzFnJl010FZ9LX0JERBKs5D7|554=XgorEH1OJblVE4bs3iu8hdiWaMsCoeD39wjskZmsNBb|9010=Y|9011=Y|10=002|8=FIX.4.4|9=212|35=A|34=6|49=Jeff2|52=20230915-16:44:01.217118|56=BfxComp|98=0|108=30|141=N|341=20230915-11:00:00.000|553=ileMZ7r7aA9dg1f0qZ2KzFnJl010FZ9LX0JERBKs5D7|554=XgorEH1OJblVE4bs3iu8hdiWaMsCoeD39wjskZmsNBb|9010=Y|9011=Y|10=233|8=FIX.4.4|9=212|35=A|34=7|49=Jeff2|52=20230915-16:44:03.590132|56=BfxComp|98=0|108=30|141=N|341=20230915-11:00:00.000|553=ileMZ7r7aA9dg1f0qZ2KzFnJl010FZ9LX0JERBKs5D7|554=XgorEH1OJblVE4bs3iu8hdiWaMsCoeD39wjskZmsNBb|9010=Y|9011=Y|10=236|8=FIX.4.4|9=212|35=A|34=8|49=Jeff2|52=20230915-16:44:05.944972|56=BfxComp|98=0|108=30|141=N|341=20230915-11:00:00.000|553=ileMZ7r7aA9dg1f0qZ2KzFnJl010FZ9LX0JERBKs5D7|554=XgorEH1OJblVE4bs3iu8hdiWaMsCoeD39wjskZmsNBb|9010=Y|9011=Y|10=254|8=FIX.4.4|9=212|35=A|34=9|49=Jeff2|52=20230915-16:44:07.241559|56=BfxComp|98=0|108=30|141=N|341=20230915-11:00:00.000|553=ileMZ7r7aA9dg1f0qZ2KzFnJl010FZ9LX0JERBKs5D7|554=XgorEH1OJblVE4bs3iu8hdiWaMsCoeD39wjskZmsNBb|9010=Y|9011=Y|10=248|8=FIX.4.4|9=213|35=A|34=10|49=Jeff2|52=20230915-16:44:09.823084|56=BfxComp|98=0|108=30|141=N|341=20230915-11:00:00.000|553=ileMZ7r7aA9dg1f0qZ2KzFnJl010FZ9LX0JERBKs5D7|554=XgorEH1OJblVE4bs3iu8hdiWaMsCoeD39wjskZmsNBb|9010=Y|9011=Y|10=034|8=FIX.4.4|9=213|35=A|34=11|49=Jeff2|52=20230915-16:44:11.285712|56=BfxComp|98=0|108=30|141=N|341=20230915-11:00:00.000|553=ileMZ7r7aA9dg1f0qZ2KzFnJl010FZ9LX0JERBKs5D7|554=XgorEH1OJblVE4bs3iu8hdiWaMsCoeD39wjskZmsNBb|9010=Y|9011=Y|10=028|8=FIX.4.4|9=213|35=A|34=12|49=Jeff2|52=20230915-16:44:13.685619|56=BfxComp|98=0|108=30|141=N|341=20230915-11:00:00.000|553=ileMZ7r7aA9dg1f0qZ2KzFnJl010FZ9LX0JERBKs5D7|554=XgorEH1OJblVE4bs3iu8hdiWaMsCoeD39wjskZmsNBb|9010=Y|9011=Y|10=041|8=FIX.4.4|9=213|35=A|34=13|49=Jeff2|52=20230915-16:44:16.000808|56=BfxComp|98=0|108=30|141=N|341=20230915-11:00:00.000|553=ileMZ7r7aA9dg1f0qZ2KzFnJl010FZ9LX0JERBKs5D7|554=XgorEH1OJblVE4bs3iu8hdiWaMsCoeD39wjskZmsNBb|9010=Y|9011=Y|10=026|8=FIX.4.4|9=213|35=A|34=14|49=Jeff2|52=20230915-16:44:17.306130|56=BfxComp|98=0|108=30|141=N|341=20230915-11:00:00.000|553=ileMZ7r7aA9dg1f0qZ2KzFnJl010FZ9LX0JERBKs5D7|554=XgorEH1OJblVE4bs3iu8hdiWaMsCoeD39wjskZmsNBb|9010=Y|9011=Y|10=025|8=FIX.4.4|9=213|35=A|34=15|49=Jeff2|52=20230915-16:44:23.590184|56=BfxComp|98=0|108=30|141=N|341=20230915-11:00:00.000|553=ileMZ7r7aA9dg1f0qZ2KzFnJl010FZ9LX0JERBKs5D7|554=XgorEH1OJblVE4bs3iu8hdiWaMsCoeD39wjskZmsNBb|9010=Y|9011=Y|10=037|8=FIX.4.4|9=213|35=A|34=16|49=Jeff2|52=20230915-16:44:25.970560|56=BfxComp|98=0|108=30|141=N|341=20230915-11:00:00.000|553=ileMZ7r7aA9dg1f0qZ2KzFnJl010FZ9LX0JERBKs5D7|554=XgorEH1OJblVE4bs3iu8hdiWaMsCoeD39wjskZmsNBb|9010=Y|9011=Y|10=040|8=FIX.4.4|9=213|35=A|34=17|49=Jeff2|52=20230915-16:46:04.605904|56=BfxComp|98=0|108=30|141=N|341=20230915-11:00:00.000|553=ileMZ7r7aA9dg1f0qZ2KzFnJl010FZ9LX0JERBKs5D7|554=XgorEH1OJblVE4bs3iu8hdiWaMsCoeD39wjskZmsNBb|9010=Y|9011=Y|10=037|8=FIX.4.4|9=213|35=A|34=18|49=Jeff2|52=20230915-16:46:06.781111|56=BfxComp|98=0|108=30|141=N|341=20230915-11:00:00.000|553=ileMZ7r7aA9dg1f0qZ2KzFnJl010FZ9LX0JERBKs5D7|554=XgorEH1OJblVE4bs3iu8hdiWaMsCoeD39wjskZmsNBb|9010=Y|9011=Y|10=035|8=FIX.4.4|9=213|35=A|34=19|49=Jeff2|52=20230915-16:48:22.689855|56=BfxComp|98=0|108=30|141=N|341=20230915-11:00:00.000|553=ileMZ7r7aA9dg1f0qZ2KzFnJl010FZ9LX0JERBKs5D7|554=XgorEH1OJblVE4bs3iu8hdiWaMsCoeD39wjskZmsNBb|9010=Y|9011=Y|10=058|8=FIX.4.4|9=213|35=A|34=20|49=Jeff2|52=20230915-16:48:24.182184|56=BfxComp|98=0|108=30|141=N|341=20230915-11:00:00.000|553=ileMZ7r7aA9dg1f0qZ2KzFnJl010FZ9LX0JERBKs5D7|554=XgorEH1OJblVE4bs3iu8hdiWaMsCoeD39wjskZmsNBb|9010=Y|9011=Y|10=035|8=FIX.4.4|9=213|35=A|34=21|49=Jeff2|52=20230915-16:48:26.540992|56=BfxComp|98=0|108=30|141=N|341=20230915-11:00:00.000|553=ileMZ7r7aA9dg1f0qZ2KzFnJl010FZ9LX0JERBKs5D7|554=XgorEH1OJblVE4bs3iu8hdiWaMsCoeD39wjskZmsNBb|9010=Y|9011=Y|10=043|8=FIX.4.4|9=213|35=A|34=22|49=Jeff2|52=20230915-16:48:28.957815|56=BfxComp|98=0|108=30|141=N|341=20230915-11:00:00.000|553=ileMZ7r7aA9dg1f0qZ2KzFnJl010FZ9LX0JERBKs5D7|554=XgorEH1OJblVE4bs3iu8hdiWaMsCoeD39wjskZmsNBb|9010=Y|9011=Y|10=052|8=FIX.4.4|9=213|35=A|34=23|49=Jeff2|52=20230915-16:48:30.444439|56=BfxComp|98=0|108=30|141=N|341=20230915-11:00:00.000|553=ileMZ7r7aA9dg1f0qZ2KzFnJl010FZ9LX0JERBKs5D7|554=XgorEH1OJblVE4bs3iu8hdiWaMsCoeD39wjskZmsNBb|9010=Y|9011=Y|10=039|8=FIX.4.4|9=213|35=A|34=24|49=Jeff2|52=20230915-16:48:32.919285|56=BfxComp|98=0|108=30|141=N|341=20230915-11:00:00.000|553=ileMZ7r7aA9dg1f0qZ2KzFnJl010FZ9LX0JERBKs5D7|554=XgorEH1OJblVE4bs3iu8hdiWaMsCoeD39wjskZmsNBb|9010=Y|9011=Y|10=048|8=FIX.4.4|9=213|35=A|34=25|49=Jeff2|52=20230915-16:48:34.322374|56=BfxComp|98=0|108=30|141=N|341=20230915-11:00:00.000|553=ileMZ7r7aA9dg1f0qZ2KzFnJl010FZ9LX0JERBKs5D7|554=XgorEH1OJblVE4bs3iu8hdiWaMsCoeD39wjskZmsNBb|9010=Y|9011=Y|10=038|8=FIX.4.4|9=213|35=A|34=26|49=Jeff2|52=20230915-16:48:36.715069|56=BfxComp|98=0|108=30|141=N|341=20230915-11:00:00.000|553=ileMZ7r7aA9dg1f0qZ2KzFnJl010FZ9LX0JERBKs5D7|554=XgorEH1OJblVE4bs3iu8hdiWaMsCoeD39wjskZmsNBb|9010=Y|9011=Y|10=048|8=FIX.4.4|9=213|35=A|34=27|49=Jeff2|52=20230915-16:48:38.063915|56=BfxComp|98=0|108=30|141=N|341=20230915-11:00:00.000|553=ileMZ7r7aA9dg1f0qZ2KzFnJl010FZ9LX0JERBKs5D7|554=XgorEH1OJblVE4bs3iu8hdiWaMsCoeD39wjskZmsNBb|9010=Y|9011=Y|10=047|8=FIX.4.4|9=213|35=A|34=28|49=Jeff2|52=20230915-16:48:40.452564|56=BfxComp|98=0|108=30|141=N|341=20230915-11:00:00.000|553=ileMZ7r7aA9dg1f0qZ2KzFnJl010FZ9LX0JERBKs5D7|554=XgorEH1OJblVE4bs3iu8hdiWaMsCoeD39wjskZmsNBb|9010=Y|9011=Y|10=043|8=FIX.4.4|9=213|35=A|34=29|49=Jeff2|52=20230915-16:48:42.828350|56=BfxComp|98=0|108=30|141=N|341=20230915-11:00:00.000|553=ileMZ7r7aA9dg1f0qZ2KzFnJl010FZ9LX0JERBKs5D7|554=XgorEH1OJblVE4bs3iu8hdiWaMsCoeD39wjskZmsNBb|9010=Y|9011=Y|10=046|8=FIX.4.4|9=213|35=A|34=30|49=Jeff2|52=20230915-16:48:50.108135|56=BfxComp|98=0|108=30|141=N|341=20230915-11:00:00.000|553=ileMZ7r7aA9dg1f0qZ2KzFnJl010FZ9LX0JERBKs5D7|554=XgorEH1OJblVE4bs3iu8hdiWaMsCoeD39wjskZmsNBb|9010=Y|9011=Y|10=029|8=FIX.4.4|9=213|35=A|34=31|49=Jeff2|52=20230915-16:48:52.597520|56=BfxComp|98=0|108=30|141=N|341=20230915-11:00:00.000|553=ileMZ7r7aA9dg1f0qZ2KzFnJl010FZ9LX0JERBKs5D7|554=XgorEH1OJblVE4bs3iu8hdiWaMsCoeD39wjskZmsNBb|9010=Y|9011=Y|10=042|8=FIX.4.4|9=213|35=A|34=32|49=Jeff2|52=20230915-16:48:54.077631|56=BfxComp|98=0|108=30|141=N|341=20230915-11:00:00.000|553=ileMZ7r7aA9dg1f0qZ2KzFnJl010FZ9LX0JERBKs5D7|554=XgorEH1OJblVE4bs3iu8hdiWaMsCoeD39wjskZmsNBb|9010=Y|9011=Y|10=041|8=FIX.4.4|9=213|35=A|34=33|49=Jeff2|52=20230915-16:55:27.727777|56=BfxComp|98=0|108=30|141=N|341=20230915-11:00:00.000|553=ileMZ7r7aA9dg1f0qZ2KzFnJl010FZ9LX0JERBKs5D7|554=XgorEH1OJblVE4bs3iu8hdiWaMsCoeD39wjskZmsNBb|9010=Y|9011=Y|10=053|8=FIX.4.4|9=213|35=A|34=34|49=Jeff2|52=20230915-16:55:29.056728|56=BfxComp|98=0|108=30|141=N|341=20230915-11:00:00.000|553=ileMZ7r7aA9dg1f0qZ2KzFnJl010FZ9LX0JERBKs5D7|554=XgorEH1OJblVE4bs3iu8hdiWaMsCoeD39wjskZmsNBb|9010=Y|9011=Y|10=047|8=FIX.4.4|9=213|35=A|34=35|49=Jeff2|52=20230915-17:21:39.140310|56=BfxComp|98=0|108=30|141=N|341=20230915-11:00:00.000|553=ileMZ7r7aA9dg1f0qZ2KzFnJl010FZ9LX0JERBKs5D7|554=XgorEH1OJblVE4bs3iu8hdiWaMsCoeD39wjskZmsNBb|9010=Y|9011=Y|10=024|8=FIX.4.4|9=213|35=A|34=36|49=Jeff2|52=20230915-17:21:41.947839|56=BfxComp|98=0|108=30|141=N|341=20230915-11:00:00.000|553=ileMZ7r7aA9dg1f0qZ2KzFnJl010FZ9LX0JERBKs5D7|554=XgorEH1OJblVE4bs3iu8hdiWaMsCoeD39wjskZmsNBb|9010=Y|9011=Y|10=049|8=FIX.4.4|9=213|35=A|34=37|49=Jeff2|52=20230915-17:21:43.328487|56=BfxComp|98=0|108=30|141=N|341=20230915-11:00:00.000|553=ileMZ7r7aA9dg1f0qZ2KzFnJl010FZ9LX0JERBKs5D7|554=XgorEH1OJblVE4bs3iu8hdiWaMsCoeD39wjskZmsNBb|9010=Y|9011=Y|10=044|8=FIX.4.4|9=213|35=A|34=38|49=Jeff2|52=20230915-17:21:45.019234|56=BfxComp|98=0|108=30|141=N|341=20230915-11:00:00.000|553=ileMZ7r7aA9dg1f0qZ2KzFnJl010FZ9LX0JERBKs5D7|554=XgorEH1OJblVE4bs3iu8hdiWaMsCoeD39wjskZmsNBb|9010=Y|9011=Y|10=034|8=FIX.4.4|9=213|35=A|34=39|49=Jeff2|52=20230915-17:21:47.389418|56=BfxComp|98=0|108=30|141=N|341=20230915-11:00:00.000|553=ileMZ7r7aA9dg1f0qZ2KzFnJl010FZ9LX0JERBKs5D7|554=XgorEH1OJblVE4bs3iu8hdiWaMsCoeD39wjskZmsNBb|9010=Y|9011=Y|10=051|8=FIX.4.4|9=213|35=A|34=40|49=Jeff2|52=20230915-17:21:49.825066|56=BfxComp|98=0|108=30|141=N|341=20230915-11:00:00.000|553=ileMZ7r7aA9dg1f0qZ2KzFnJl010FZ9LX0JERBKs5D7|554=XgorEH1OJblVE4bs3iu8hdiWaMsCoeD39wjskZmsNBb|9010=Y|9011=Y|10=039|8=FIX.4.4|9=213|35=A|34=41|49=Jeff2|52=20230915-17:21:51.823459|56=BfxComp|98=0|108=30|141=N|341=20230915-11:00:00.000|553=ileMZ7r7aA9dg1f0qZ2KzFnJl010FZ9LX0JERBKs5D7|554=XgorEH1OJblVE4bs3iu8hdiWaMsCoeD39wjskZmsNBb|9010=Y|9011=Y|10=037|8=FIX.4.4|9=213|35=A|34=42|49=Jeff2|52=20230915-17:21:53.817480|56=BfxComp|98=0|108=30|141=N|341=20230915-11:00:00.000|553=ileMZ7r7aA9dg1f0qZ2KzFnJl010FZ9LX0JERBKs5D7|554=XgorEH1OJblVE4bs3iu8hdiWaMsCoeD39wjskZmsNBb|9010=Y|9011=Y|10=037|8=FIX.4.4|9=213|35=A|34=43|49=Jeff2|52=20230915-17:21:55.809444|56=BfxComp|98=0|108=30|141=N|341=20230915-11:00:00.000|553=ileMZ7r7aA9dg1f0qZ2KzFnJl010FZ9LX0JERBKs5D7|554=XgorEH1OJblVE4bs3iu8hdiWaMsCoeD39wjskZmsNBb|9010=Y|9011=Y|10=041|8=FIX.4.4|9=213|35=A|34=44|49=Jeff2|52=20230915-17:21:57.786949|56=BfxComp|98=0|108=30|141=N|341=20230915-11:00:00.000|553=ileMZ7r7aA9dg1f0qZ2KzFnJl010FZ9LX0JERBKs5D7|554=XgorEH1OJblVE4bs3iu8hdiWaMsCoeD39wjskZmsNBb|9010=Y|9011=Y|10=058|8=FIX.4.4|9=213|35=A|34=45|49=Jeff2|52=20230915-17:21:59.793199|56=BfxComp|98=0|108=30|141=N|341=20230915-11:00:00.000|553=ileMZ7r7aA9dg1f0qZ2KzFnJl010FZ9LX0JERBKs5D7|554=XgorEH1OJblVE4bs3iu8hdiWaMsCoeD39wjskZmsNBb|9010=Y|9011=Y|10=056|8=FIX.4.4|9=213|35=A|34=46|49=Jeff2|52=20230915-17:22:01.788672|56=BfxComp|98=0|108=30|141=N|341=20230915-11:00:00.000|553=ileMZ7r7aA9dg1f0qZ2KzFnJl010FZ9LX0JERBKs5D7|554=XgorEH1OJblVE4bs3iu8hdiWaMsCoeD39wjskZmsNBb|9010=Y|9011=Y|10=045|8=FIX.4.4|9=213|35=A|34=47|49=Jeff2|52=20230915-17:22:03.770799|56=BfxComp|98=0|108=30|141=N|341=20230915-11:00:00.000|553=ileMZ7r7aA9dg1f0qZ2KzFnJl010FZ9LX0JERBKs5D7|554=XgorEH1OJblVE4bs3iu8hdiWaMsCoeD39wjskZmsNBb|9010=Y|9011=Y|10=049|8=FIX.4.4|9=213|35=A|34=48|49=Jeff2|52=20230915-17:22:05.736749|56=BfxComp|98=0|108=30|141=N|341=20230915-11:00:00.000|553=ileMZ7r7aA9dg1f0qZ2KzFnJl010FZ9LX0JERBKs5D7|554=XgorEH1OJblVE4bs3iu8hdiWaMsCoeD39wjskZmsNBb|9010=Y|9011=Y|10=049|8=FIX.4.4|9=213|35=A|34=49|49=Jeff2|52=20230915-17:22:07.756230|56=BfxComp|98=0|108=30|141=N|341=20230915-11:00:00.000|553=ileMZ7r7aA9dg1f0qZ2KzFnJl010FZ9LX0JERBKs5D7|554=XgorEH1OJblVE4bs3iu8hdiWaMsCoeD39wjskZmsNBb|9010=Y|9011=Y|10=039|8=FIX.4.4|9=213|35=A|34=50|49=Jeff2|52=20230915-17:22:09.717630|56=BfxComp|98=0|108=30|141=N|341=20230915-11:00:00.000|553=ileMZ7r7aA9dg1f0qZ2KzFnJl010FZ9LX0JERBKs5D7|554=XgorEH1OJblVE4bs3iu8hdiWaMsCoeD39wjskZmsNBb|9010=Y|9011=Y|10=034|8=FIX.4.4|9=213|35=A|34=51|49=Jeff2|52=20230915-17:22:11.674758|56=BfxComp|98=0|108=30|141=N|341=20230915-11:00:00.000|553=ileMZ7r7aA9dg1f0qZ2KzFnJl010FZ9LX0JERBKs5D7|554=XgorEH1OJblVE4bs3iu8hdiWaMsCoeD39wjskZmsNBb|9010=Y|9011=Y|10=041|8=FIX.4.4|9=213|35=A|34=52|49=Jeff2|52=20230915-17:22:13.636896|56=BfxComp|98=0|108=30|141=N|341=20230915-11:00:00.000|553=ileMZ7r7aA9dg1f0qZ2KzFnJl010FZ9LX0JERBKs5D7|554=XgorEH1OJblVE4bs3iu8hdiWaMsCoeD39wjskZmsNBb|9010=Y|9011=Y|10=045|8=FIX.4.4|9=213|35=A|34=53|49=Jeff2|52=20230915-17:22:15.760486|56=BfxComp|98=0|108=30|141=N|341=20230915-11:00:00.000|553=ileMZ7r7aA9dg1f0qZ2KzFnJl010FZ9LX0JERBKs5D7|554=XgorEH1OJblVE4bs3iu8hdiWaMsCoeD39wjskZmsNBb|9010=Y|9011=Y|10=041|8=FIX.4.4|9=213|35=A|34=54|49=Jeff2|52=20230915-17:22:17.855633|56=BfxComp|98=0|108=30|141=N|341=20230915-11:00:00.000|553=ileMZ7r7aA9dg1f0qZ2KzFnJl010FZ9LX0JERBKs5D7|554=XgorEH1OJblVE4bs3iu8hdiWaMsCoeD39wjskZmsNBb|9010=Y|9011=Y|10=043|8=FIX.4.4|9=213|35=A|34=55|49=Jeff2|52=20230915-17:22:19.876560|56=BfxComp|98=0|108=30|141=N|341=20230915-11:00:00.000|553=ileMZ7r7aA9dg1f0qZ2KzFnJl010FZ9LX0JERBKs5D7|554=XgorEH1OJblVE4bs3iu8hdiWaMsCoeD39wjskZmsNBb|9010=Y|9011=Y|10=048|8=FIX.4.4|9=213|35=A|34=56|49=Jeff2|52=20230915-17:22:21.819319|56=BfxComp|98=0|108=30|141=N|341=20230915-11:00:00.000|553=ileMZ7r7aA9dg1f0qZ2KzFnJl010FZ9LX0JERBKs5D7|554=XgorEH1OJblVE4bs3iu8hdiWaMsCoeD39wjskZmsNBb|9010=Y|9011=Y|10=041|8=FIX.4.4|9=213|35=A|34=57|49=Jeff2|52=20230915-17:22:23.762606|56=BfxComp|98=0|108=30|141=N|341=20230915-11:00:00.000|553=ileMZ7r7aA9dg1f0qZ2KzFnJl010FZ9LX0JERBKs5D7|554=XgorEH1OJblVE4bs3iu8hdiWaMsCoeD39wjskZmsNBb|9010=Y|9011=Y|10=040|8=FIX.4.4|9=213|35=A|34=58|49=Jeff2|52=20230915-17:22:25.698573|56=BfxComp|98=0|108=30|141=N|341=20230915-11:00:00.000|553=ileMZ7r7aA9dg1f0qZ2KzFnJl010FZ9LX0JERBKs5D7|554=XgorEH1OJblVE4bs3iu8hdiWaMsCoeD39wjskZmsNBb|9010=Y|9011=Y|10=054|8=FIX.4.4|9=213|35=A|34=59|49=Jeff2|52=20230915-17:22:27.635546|56=BfxComp|98=0|108=30|141=N|341=20230915-11:00:00.000|553=ileMZ7r7aA9dg1f0qZ2KzFnJl010FZ9LX0JERBKs5D7|554=XgorEH1OJblVE4bs3iu8hdiWaMsCoeD39wjskZmsNBb|9010=Y|9011=Y|10=048|8=FIX.4.4|9=213|35=A|34=60|49=Jeff2|52=20230915-17:22:29.574184|56=BfxComp|98=0|108=30|141=N|341=20230915-11:00:00.000|553=ileMZ7r7aA9dg1f0qZ2KzFnJl010FZ9LX0JERBKs5D7|554=XgorEH1OJblVE4bs3iu8hdiWaMsCoeD39wjskZmsNBb|9010=Y|9011=Y|10=042|8=FIX.4.4|9=213|35=A|34=61|49=Jeff2|52=20230915-17:22:31.507094|56=BfxComp|98=0|108=30|141=N|341=20230915-11:00:00.000|553=ileMZ7r7aA9dg1f0qZ2KzFnJl010FZ9LX0JERBKs5D7|554=XgorEH1OJblVE4bs3iu8hdiWaMsCoeD39wjskZmsNBb|9010=Y|9011=Y|10=032|8=FIX.4.4|9=213|35=A|34=62|49=Jeff2|52=20230915-17:22:33.436533|56=BfxComp|98=0|108=30|141=N|341=20230915-11:00:00.000|553=ileMZ7r7aA9dg1f0qZ2KzFnJl010FZ9LX0JERBKs5D7|554=XgorEH1OJblVE4bs3iu8hdiWaMsCoeD39wjskZmsNBb|9010=Y|9011=Y|10=034|8=FIX.4.4|9=213|35=A|34=63|49=Jeff2|52=20230915-17:22:35.364297|56=BfxComp|98=0|108=30|141=N|341=20230915-11:00:00.000|553=ileMZ7r7aA9dg1f0qZ2KzFnJl010FZ9LX0JERBKs5D7|554=XgorEH1OJblVE4bs3iu8hdiWaMsCoeD39wjskZmsNBb|9010=Y|9011=Y|10=044|8=FIX.4.4|9=213|35=A|34=64|49=Jeff2|52=20230915-17:22:37.292486|56=BfxComp|98=0|108=30|141=N|341=20230915-11:00:00.000|553=ileMZ7r7aA9dg1f0qZ2KzFnJl010FZ9LX0JERBKs5D7|554=XgorEH1OJblVE4bs3iu8hdiWaMsCoeD39wjskZmsNBb|9010=Y|9011=Y|10=047|8=FIX.4.4|9=213|35=A|34=65|49=Jeff2|52=20230915-17:22:39.264779|56=BfxComp|98=0|108=30|141=N|341=20230915-11:00:00.000|553=ileMZ7r7aA9dg1f0qZ2KzFnJl010FZ9LX0JERBKs5D7|554=XgorEH1OJblVE4bs3iu8hdiWaMsCoeD39wjskZmsNBb|9010=Y|9011=Y|10=054|8=FIX.4.4|9=213|35=A|34=66|49=Jeff2|52=20230915-17:22:41.227584|56=BfxComp|98=0|108=30|141=N|341=20230915-11:00:00.000|553=ileMZ7r7aA9dg1f0qZ2KzFnJl010FZ9LX0JERBKs5D7|554=XgorEH1OJblVE4bs3iu8hdiWaMsCoeD39wjskZmsNBb|9010=Y|9011=Y|10=041|8=FIX.4.4|9=213|35=A|34=67|49=Jeff2|52=20230915-17:22:43.148769|56=BfxComp|98=0|108=30|141=N|341=20230915-11:00:00.000|553=ileMZ7r7aA9dg1f0qZ2KzFnJl010FZ9LX0JERBKs5D7|554=XgorEH1OJblVE4bs3iu8hdiWaMsCoeD39wjskZmsNBb|9010=Y|9011=Y|10=051|8=FIX.4.4|9=213|35=A|34=68|49=Jeff2|52=20230915-17:22:45.071854|56=BfxComp|98=0|108=30|141=N|341=20230915-11:00:00.000|553=ileMZ7r7aA9dg1f0qZ2KzFnJl010FZ9LX0JERBKs5D7|554=XgorEH1OJblVE4bs3iu8hdiWaMsCoeD39wjskZmsNBb|9010=Y|9011=Y|10=044|8=FIX.4.4|9=213|35=A|34=69|49=Jeff2|52=20230915-17:22:47.959966|56=BfxComp|98=0|108=30|141=N|341=20230915-11:00:00.000|553=ileMZ7r7aA9dg1f0qZ2KzFnJl010FZ9LX0JERBKs5D7|554=XgorEH1OJblVE4bs3iu8hdiWaMsCoeD39wjskZmsNBb|9010=Y|9011=Y|10=066|8=FIX.4.4|9=213|35=A|34=70|49=Jeff2|52=20230915-17:22:49.885227|56=BfxComp|98=0|108=30|141=N|341=20230915-11:00:00.000|553=ileMZ7r7aA9dg1f0qZ2KzFnJl010FZ9LX0JERBKs5D7|554=XgorEH1OJblVE4bs3iu8hdiWaMsCoeD39wjskZmsNBb|9010=Y|9011=Y|10=048|8=FIX.4.4|9=213|35=A|34=71|49=Jeff2|52=20230915-17:22:51.800216|56=BfxComp|98=0|108=30|141=N|341=20230915-11:00:00.000|553=ileMZ7r7aA9dg1f0qZ2KzFnJl010FZ9LX0JERBKs5D7|554=XgorEH1OJblVE4bs3iu8hdiWaMsCoeD39wjskZmsNBb|9010=Y|9011=Y|10=027|8=FIX.4.4|9=213|35=A|34=72|49=Jeff2|52=20230915-17:22:53.719120|56=BfxComp|98=0|108=30|141=N|341=20230915-11:00:00.000|553=ileMZ7r7aA9dg1f0qZ2KzFnJl010FZ9LX0JERBKs5D7|554=XgorEH1OJblVE4bs3iu8hdiWaMsCoeD39wjskZmsNBb|9010=Y|9011=Y|10=033|8=FIX.4.4|9=213|35=A|34=73|49=Jeff2|52=20230915-17:22:55.630823|56=BfxComp|98=0|108=30|141=N|341=20230915-11:00:00.000|553=ileMZ7r7aA9dg1f0qZ2KzFnJl010FZ9LX0JERBKs5D7|554=XgorEH1OJblVE4bs3iu8hdiWaMsCoeD39wjskZmsNBb|9010=Y|9011=Y|10=038|8=FIX.4.4|9=213|35=A|34=74|49=Jeff2|52=20230915-17:22:57.551578|56=BfxComp|98=0|108=30|141=N|341=20230915-11:00:00.000|553=ileMZ7r7aA9dg1f0qZ2KzFnJl010FZ9LX0JERBKs5D7|554=XgorEH1OJblVE4bs3iu8hdiWaMsCoeD39wjskZmsNBb|9010=Y|9011=Y|10=050|8=FIX.4.4|9=213|35=A|34=75|49=Jeff2|52=20230915-17:22:59.461822|56=BfxComp|98=0|108=30|141=N|341=20230915-11:00:00.000|553=ileMZ7r7aA9dg1f0qZ2KzFnJl010FZ9LX0JERBKs5D7|554=XgorEH1OJblVE4bs3iu8hdiWaMsCoeD39wjskZmsNBb|9010=Y|9011=Y|10=045|8=FIX.4.4|9=213|35=A|34=76|49=Jeff2|52=20230915-17:23:01.373893|56=BfxComp|98=0|108=30|141=N|341=20230915-11:00:00.000|553=ileMZ7r7aA9dg1f0qZ2KzFnJl010FZ9LX0JERBKs5D7|554=XgorEH1OJblVE4bs3iu8hdiWaMsCoeD39wjskZmsNBb|9010=Y|9011=Y|10=044|8=FIX.4.4|9=213|35=A|34=77|49=Jeff2|52=20230915-17:23:03.282072|56=BfxComp|98=0|108=30|141=N|341=20230915-11:00:00.000|553=ileMZ7r7aA9dg1f0qZ2KzFnJl010FZ9LX0JERBKs5D7|554=XgorEH1OJblVE4bs3iu8hdiWaMsCoeD39wjskZmsNBb|9010=Y|9011=Y|10=035|8=FIX.4.4|9=213|35=A|34=78|49=Jeff2|52=20230915-17:23:05.195743|56=BfxComp|98=0|108=30|141=N|341=20230915-11:00:00.000|553=ileMZ7r7aA9dg1f0qZ2KzFnJl010FZ9LX0JERBKs5D7|554=XgorEH1OJblVE4bs3iu8hdiWaMsCoeD39wjskZmsNBb|9010=Y|9011=Y|10=046|8=FIX.4.4|9=213|35=A|34=79|49=Jeff2|52=20230915-17:23:07.106595|56=BfxComp|98=0|108=30|141=N|341=20230915-11:00:00.000|553=ileMZ7r7aA9dg1f0qZ2KzFnJl010FZ9LX0JERBKs5D7|554=XgorEH1OJblVE4bs3iu8hdiWaMsCoeD39wjskZmsNBb|9010=Y|9011=Y|10=046|8=FIX.4.4|9=213|35=A|34=80|49=Jeff2|52=20230915-17:23:09.015238|56=BfxComp|98=0|108=30|141=N|341=20230915-11:00:00.000|553=ileMZ7r7aA9dg1f0qZ2KzFnJl010FZ9LX0JERBKs5D7|554=XgorEH1OJblVE4bs3iu8hdiWaMsCoeD39wjskZmsNBb|9010=Y|9011=Y|10=033|8=FIX.4.4|9=213|35=A|34=81|49=Jeff2|52=20230915-17:23:11.872698|56=BfxComp|98=0|108=30|141=N|341=20230915-11:00:00.000|553=ileMZ7r7aA9dg1f0qZ2KzFnJl010FZ9LX0JERBKs5D7|554=XgorEH1OJblVE4bs3iu8hdiWaMsCoeD39wjskZmsNBb|9010=Y|9011=Y|10=048|8=FIX.4.4|9=213|35=A|34=82|49=Jeff2|52=20230915-17:23:13.783062|56=BfxComp|98=0|108=30|141=N|341=20230915-11:00:00.000|553=ileMZ7r7aA9dg1f0qZ2KzFnJl010FZ9LX0JERBKs5D7|554=XgorEH1OJblVE4bs3iu8hdiWaMsCoeD39wjskZmsNBb|9010=Y|9011=Y|10=037|8=FIX.4.4|9=213|35=A|34=83|49=Jeff2|52=20230915-17:23:15.688150|56=BfxComp|98=0|108=30|141=N|341=20230915-11:00:00.000|553=ileMZ7r7aA9dg1f0qZ2KzFnJl010FZ9LX0JERBKs5D7|554=XgorEH1OJblVE4bs3iu8hdiWaMsCoeD39wjskZmsNBb|9010=Y|9011=Y|10=042|8=FIX.4.4|9=213|35=A|34=84|49=Jeff2|52=20230915-17:23:17.596570|56=BfxComp|98=0|108=30|141=N|341=20230915-11:00:00.000|553=ileMZ7r7aA9dg1f0qZ2KzFnJl010FZ9LX0JERBKs5D7|554=XgorEH1OJblVE4bs3iu8hdiWaMsCoeD39wjskZmsNBb|9010=Y|9011=Y|10=049|8=FIX.4.4|9=213|35=A|34=85|49=Jeff2|52=20230915-17:23:19.499478|56=BfxComp|98=0|108=30|141=N|341=20230915-11:00:00.000|553=ileMZ7r7aA9dg1f0qZ2KzFnJl010FZ9LX0JERBKs5D7|554=XgorEH1OJblVE4bs3iu8hdiWaMsCoeD39wjskZmsNBb|9010=Y|9011=Y|10=061|8=FIX.4.4|9=213|35=A|34=86|49=Jeff2|52=20230915-17:23:21.412937|56=BfxComp|98=0|108=30|141=N|341=20230915-11:00:00.000|553=ileMZ7r7aA9dg1f0qZ2KzFnJl010FZ9LX0JERBKs5D7|554=XgorEH1OJblVE4bs3iu8hdiWaMsCoeD39wjskZmsNBb|9010=Y|9011=Y|10=040|8=FIX.4.4|9=213|35=A|34=87|49=Jeff2|52=20230915-17:23:23.316168|56=BfxComp|98=0|108=30|141=N|341=20230915-11:00:00.000|553=ileMZ7r7aA9dg1f0qZ2KzFnJl010FZ9LX0JERBKs5D7|554=XgorEH1OJblVE4bs3iu8hdiWaMsCoeD39wjskZmsNBb|9010=Y|9011=Y|10=042|8=FIX.4.4|9=213|35=A|34=88|49=Jeff2|52=20230915-17:23:25.228355|56=BfxComp|98=0|108=30|141=N|341=20230915-11:00:00.000|553=ileMZ7r7aA9dg1f0qZ2KzFnJl010FZ9LX0JERBKs5D7|554=XgorEH1OJblVE4bs3iu8hdiWaMsCoeD39wjskZmsNBb|9010=Y|9011=Y|10=045|8=FIX.4.4|9=213|35=A|34=89|49=Jeff2|52=20230915-17:23:27.126306|56=BfxComp|98=0|108=30|141=N|341=20230915-11:00:00.000|553=ileMZ7r7aA9dg1f0qZ2KzFnJl010FZ9LX0JERBKs5D7|554=XgorEH1OJblVE4bs3iu8hdiWaMsCoeD39wjskZmsNBb|9010=Y|9011=Y|10=041|8=FIX.4.4|9=213|35=A|34=90|49=Jeff2|52=20230915-17:23:29.022361|56=BfxComp|98=0|108=30|141=N|341=20230915-11:00:00.000|553=ileMZ7r7aA9dg1f0qZ2KzFnJl010FZ9LX0JERBKs5D7|554=XgorEH1OJblVE4bs3iu8hdiWaMsCoeD39wjskZmsNBb|9010=Y|9011=Y|10=031|8=FIX.4.4|9=213|35=A|34=91|49=Jeff2|52=20230915-17:23:31.877495|56=BfxComp|98=0|108=30|141=N|341=20230915-11:00:00.000|553=ileMZ7r7aA9dg1f0qZ2KzFnJl010FZ9LX0JERBKs5D7|554=XgorEH1OJblVE4bs3iu8hdiWaMsCoeD39wjskZmsNBb|9010=Y|9011=Y|10=051|8=FIX.4.4|9=213|35=A|34=92|49=Jeff2|52=20230915-17:23:33.771365|56=BfxComp|98=0|108=30|141=N|341=20230915-11:00:00.000|553=ileMZ7r7aA9dg1f0qZ2KzFnJl010FZ9LX0JERBKs5D7|554=XgorEH1OJblVE4bs3iu8hdiWaMsCoeD39wjskZmsNBb|9010=Y|9011=Y|10=043|8=FIX.4.4|9=213|35=A|34=93|49=Jeff2|52=20230915-17:23:35.675166|56=BfxComp|98=0|108=30|141=N|341=20230915-11:00:00.000|553=ileMZ7r7aA9dg1f0qZ2KzFnJl010FZ9LX0JERBKs5D7|554=XgorEH1OJblVE4bs3iu8hdiWaMsCoeD39wjskZmsNBb|9010=Y|9011=Y|10=048|8=FIX.4.4|9=213|35=A|34=94|49=Jeff2|52=20230915-17:23:37.568214|56=BfxComp|98=0|108=30|141=N|341=20230915-11:00:00.000|553=ileMZ7r7aA9dg1f0qZ2KzFnJl010FZ9LX0JERBKs5D7|554=XgorEH1OJblVE4bs3iu8hdiWaMsCoeD39wjskZmsNBb|9010=Y|9011=Y|10=046|8=FIX.4.4|9=213|35=A|34=95|49=Jeff2|52=20230915-17:23:39.506133|56=BfxComp|98=0|108=30|141=N|341=20230915-11:00:00.000|553=ileMZ7r7aA9dg1f0qZ2KzFnJl010FZ9LX0JERBKs5D7|554=XgorEH1OJblVE4bs3iu8hdiWaMsCoeD39wjskZmsNBb|9010=Y|9011=Y|10=041|8=FIX.4.4|9=213|35=A|34=96|49=Jeff2|52=20230915-17:23:41.422428|56=BfxComp|98=0|108=30|141=N|341=20230915-11:00:00.000|553=ileMZ7r7aA9dg1f0qZ2KzFnJl010FZ9LX0JERBKs5D7|554=XgorEH1OJblVE4bs3iu8hdiWaMsCoeD39wjskZmsNBb|9010=Y|9011=Y|10=039|8=FIX.4.4|9=213|35=A|34=97|49=Jeff2|52=20230915-17:23:43.313872|56=BfxComp|98=0|108=30|141=N|341=20230915-11:00:00.000|553=ileMZ7r7aA9dg1f0qZ2KzFnJl010FZ9LX0JERBKs5D7|554=XgorEH1OJblVE4bs3iu8hdiWaMsCoeD39wjskZmsNBb|9010=Y|9011=Y|10=044|8=FIX.4.4|9=213|35=A|34=98|49=Jeff2|52=20230915-17:23:45.227260|56=BfxComp|98=0|108=30|141=N|341=20230915-11:00:00.000|553=ileMZ7r7aA9dg1f0qZ2KzFnJl010FZ9LX0JERBKs5D7|554=XgorEH1OJblVE4bs3iu8hdiWaMsCoeD39wjskZmsNBb|9010=Y|9011=Y|10=042|8=FIX.4.4|9=213|35=A|34=99|49=Jeff2|52=20230915-17:23:47.114752|56=BfxComp|98=0|108=30|141=N|341=20230915-11:00:00.000|553=ileMZ7r7aA9dg1f0qZ2KzFnJl010FZ9LX0JERBKs5D7|554=XgorEH1OJblVE4bs3iu8hdiWaMsCoeD39wjskZmsNBb|9010=Y|9011=Y|10=046|8=FIX.4.4|9=214|35=A|34=100|49=Jeff2|52=20230915-17:23:49.016165|56=BfxComp|98=0|108=30|141=N|341=20230915-11:00:00.000|553=ileMZ7r7aA9dg1f0qZ2KzFnJl010FZ9LX0JERBKs5D7|554=XgorEH1OJblVE4bs3iu8hdiWaMsCoeD39wjskZmsNBb|9010=Y|9011=Y|10=079|8=FIX.4.4|9=214|35=A|34=101|49=Jeff2|52=20230915-17:23:51.844825|56=BfxComp|98=0|108=30|141=N|341=20230915-11:00:00.000|553=ileMZ7r7aA9dg1f0qZ2KzFnJl010FZ9LX0JERBKs5D7|554=XgorEH1OJblVE4bs3iu8hdiWaMsCoeD39wjskZmsNBb|9010=Y|9011=Y|10=085|8=FIX.4.4|9=214|35=A|34=102|49=Jeff2|52=20230915-17:23:53.727881|56=BfxComp|98=0|108=30|141=N|341=20230915-11:00:00.000|553=ileMZ7r7aA9dg1f0qZ2KzFnJl010FZ9LX0JERBKs5D7|554=XgorEH1OJblVE4bs3iu8hdiWaMsCoeD39wjskZmsNBb|9010=Y|9011=Y|10=090|8=FIX.4.4|9=214|35=A|34=103|49=Jeff2|52=20230915-17:23:55.611867|56=BfxComp|98=0|108=30|141=N|341=20230915-11:00:00.000|553=ileMZ7r7aA9dg1f0qZ2KzFnJl010FZ9LX0JERBKs5D7|554=XgorEH1OJblVE4bs3iu8hdiWaMsCoeD39wjskZmsNBb|9010=Y|9011=Y|10=089|8=FIX.4.4|9=214|35=A|34=104|49=Jeff2|52=20230915-17:23:57.506360|56=BfxComp|98=0|108=30|141=N|341=20230915-11:00:00.000|553=ileMZ7r7aA9dg1f0qZ2KzFnJl010FZ9LX0JERBKs5D7|554=XgorEH1OJblVE4bs3iu8hdiWaMsCoeD39wjskZmsNBb|9010=Y|9011=Y|10=083|8=FIX.4.4|9=214|35=A|34=105|49=Jeff2|52=20230915-17:23:59.389751|56=BfxComp|98=0|108=30|141=N|341=20230915-11:00:00.000|553=ileMZ7r7aA9dg1f0qZ2KzFnJl010FZ9LX0JERBKs5D7|554=XgorEH1OJblVE4bs3iu8hdiWaMsCoeD39wjskZmsNBb|9010=Y|9011=Y|10=099|8=FIX.4.4|9=214|35=A|34=106|49=Jeff2|52=20230915-17:24:01.281057|56=BfxComp|98=0|108=30|141=N|341=20230915-11:00:00.000|553=ileMZ7r7aA9dg1f0qZ2KzFnJl010FZ9LX0JERBKs5D7|554=XgorEH1OJblVE4bs3iu8hdiWaMsCoeD39wjskZmsNBb|9010=Y|9011=Y|10=078|8=FIX.4.4|9=214|35=A|34=107|49=Jeff2|52=20230915-17:24:03.161230|56=BfxComp|98=0|108=30|141=N|341=20230915-11:00:00.000|553=ileMZ7r7aA9dg1f0qZ2KzFnJl010FZ9LX0JERBKs5D7|554=XgorEH1OJblVE4bs3iu8hdiWaMsCoeD39wjskZmsNBb|9010=Y|9011=Y|10=071|8=FIX.4.4|9=214|35=A|34=108|49=Jeff2|52=20230915-17:24:05.039262|56=BfxComp|98=0|108=30|141=N|341=20230915-11:00:00.000|553=ileMZ7r7aA9dg1f0qZ2KzFnJl010FZ9LX0JERBKs5D7|554=XgorEH1OJblVE4bs3iu8hdiWaMsCoeD39wjskZmsNBb|9010=Y|9011=Y|10=083|8=FIX.4.4|9=214|35=A|34=109|49=Jeff2|52=20230915-17:24:07.866881|56=BfxComp|98=0|108=30|141=N|341=20230915-11:00:00.000|553=ileMZ7r7aA9dg1f0qZ2KzFnJl010FZ9LX0JERBKs5D7|554=XgorEH1OJblVE4bs3iu8hdiWaMsCoeD39wjskZmsNBb|9010=Y|9011=Y|10=101|8=FIX.4.4|9=214|35=A|34=110|49=Jeff2|52=20230915-17:24:09.740761|56=BfxComp|98=0|108=30|141=N|341=20230915-11:00:00.000|553=ileMZ7r7aA9dg1f0qZ2KzFnJl010FZ9LX0JERBKs5D7|554=XgorEH1OJblVE4bs3iu8hdiWaMsCoeD39wjskZmsNBb|9010=Y|9011=Y|10=083|8=FIX.4.4|9=214|35=A|34=111|49=Jeff2|52=20230915-17:24:11.616327|56=BfxComp|98=0|108=30|141=N|341=20230915-11:00:00.000|553=ileMZ7r7aA9dg1f0qZ2KzFnJl010FZ9LX0JERBKs5D7|554=XgorEH1OJblVE4bs3iu8hdiWaMsCoeD39wjskZmsNBb|9010=Y|9011=Y|10=077|8=FIX.4.4|9=214|35=A|34=112|49=Jeff2|52=20230915-17:24:13.492385|56=BfxComp|98=0|108=30|141=N|341=20230915-11:00:00.000|553=ileMZ7r7aA9dg1f0qZ2KzFnJl010FZ9LX0JERBKs5D7|554=XgorEH1OJblVE4bs3iu8hdiWaMsCoeD39wjskZmsNBb|9010=Y|9011=Y|10=086|8=FIX.4.4|9=214|35=A|34=113|49=Jeff2|52=20230915-17:24:15.365754|56=BfxComp|98=0|108=30|141=N|341=20230915-11:00:00.000|553=ileMZ7r7aA9dg1f0qZ2KzFnJl010FZ9LX0JERBKs5D7|554=XgorEH1OJblVE4bs3iu8hdiWaMsCoeD39wjskZmsNBb|9010=Y|9011=Y|10=088|8=FIX.4.4|9=214|35=A|34=114|49=Jeff2|52=20230915-17:24:17.247643|56=BfxComp|98=0|108=30|141=N|341=20230915-11:00:00.000|553=ileMZ7r7aA9dg1f0qZ2KzFnJl010FZ9LX0JERBKs5D7|554=XgorEH1OJblVE4bs3iu8hdiWaMsCoeD39wjskZmsNBb|9010=Y|9011=Y|10=087|8=FIX.4.4|9=214|35=A|34=115|49=Jeff2|52=20230915-17:24:19.116734|56=BfxComp|98=0|108=30|141=N|341=20230915-11:00:00.000|553=ileMZ7r7aA9dg1f0qZ2KzFnJl010FZ9LX0JERBKs5D7|554=XgorEH1OJblVE4bs3iu8hdiWaMsCoeD39wjskZmsNBb|9010=Y|9011=Y|10=086|8=FIX.4.4|9=214|35=A|34=116|49=Jeff2|52=20230915-17:24:21.924768|56=BfxComp|98=0|108=30|141=N|341=20230915-11:00:00.000|553=ileMZ7r7aA9dg1f0qZ2KzFnJl010FZ9LX0JERBKs5D7|554=XgorEH1OJblVE4bs3iu8hdiWaMsCoeD39wjskZmsNBb|9010=Y|9011=Y|10=094|8=FIX.4.4|9=214|35=A|34=117|49=Jeff2|52=20230915-17:24:23.800815|56=BfxComp|98=0|108=30|141=N|341=20230915-11:00:00.000|553=ileMZ7r7aA9dg1f0qZ2KzFnJl010FZ9LX0JERBKs5D7|554=XgorEH1OJblVE4bs3iu8hdiWaMsCoeD39wjskZmsNBb|9010=Y|9011=Y|10=083|8=FIX.4.4|9=214|35=A|34=118|49=Jeff2|52=20230915-17:24:25.686880|56=BfxComp|98=0|108=30|141=N|341=20230915-11:00:00.000|553=ileMZ7r7aA9dg1f0qZ2KzFnJl010FZ9LX0JERBKs5D7|554=XgorEH1OJblVE4bs3iu8hdiWaMsCoeD39wjskZmsNBb|9010=Y|9011=Y|10=100|8=FIX.4.4|9=214|35=A|34=119|49=Jeff2|52=20230915-17:24:27.549792|56=BfxComp|98=0|108=30|141=N|341=20230915-11:00:00.000|553=ileMZ7r7aA9dg1f0qZ2KzFnJl010FZ9LX0JERBKs5D7|554=XgorEH1OJblVE4bs3iu8hdiWaMsCoeD39wjskZmsNBb|9010=Y|9011=Y|10=103|8=FIX.4.4|9=214|35=A|34=120|49=Jeff2|52=20230915-17:24:29.532724|56=BfxComp|98=0|108=30|141=N|341=20230915-11:00:00.000|553=ileMZ7r7aA9dg1f0qZ2KzFnJl010FZ9LX0JERBKs5D7|554=XgorEH1OJblVE4bs3iu8hdiWaMsCoeD39wjskZmsNBb|9010=Y|9011=Y|10=084|8=FIX.4.4|9=214|35=A|34=121|49=Jeff2|52=20230915-17:24:31.455020|56=BfxComp|98=0|108=30|141=N|341=20230915-11:00:00.000|553=ileMZ7r7aA9dg1f0qZ2KzFnJl010FZ9LX0JERBKs5D7|554=XgorEH1OJblVE4bs3iu8hdiWaMsCoeD39wjskZmsNBb|9010=Y|9011=Y|10=071|8=FIX.4.4|9=214|35=A|34=122|49=Jeff2|52=20230915-17:24:33.327887|56=BfxComp|98=0|108=30|141=N|341=20230915-11:00:00.000|553=ileMZ7r7aA9dg1f0qZ2KzFnJl010FZ9LX0JERBKs5D7|554=XgorEH1OJblVE4bs3iu8hdiWaMsCoeD39wjskZmsNBb|9010=Y|9011=Y|10=093|8=FIX.4.4|9=214|35=A|34=123|49=Jeff2|52=20230915-17:24:35.297653|56=BfxComp|98=0|108=30|141=N|341=20230915-11:00:00.000|553=ileMZ7r7aA9dg1f0qZ2KzFnJl010FZ9LX0JERBKs5D7|554=XgorEH1OJblVE4bs3iu8hdiWaMsCoeD39wjskZmsNBb|9010=Y|9011=Y|10=093|8=FIX.4.4|9=214|35=A|34=124|49=Jeff2|52=20230915-17:24:37.220878|56=BfxComp|98=0|108=30|141=N|341=20230915-11:00:00.000|553=ileMZ7r7aA9dg1f0qZ2KzFnJl010FZ9LX0JERBKs5D7|554=XgorEH1OJblVE4bs3iu8hdiWaMsCoeD39wjskZmsNBb|9010=Y|9011=Y|10=091|8=FIX.4.4|9=214|35=A|34=125|49=Jeff2|52=20230915-17:24:39.138872|56=BfxComp|98=0|108=30|141=N|341=20230915-11:00:00.000|553=ileMZ7r7aA9dg1f0qZ2KzFnJl010FZ9LX0JERBKs5D7|554=XgorEH1OJblVE4bs3iu8hdiWaMsCoeD39wjskZmsNBb|9010=Y|9011=Y|10=096|8=FIX.4.4|9=214|35=A|34=126|49=Jeff2|52=20230915-17:24:41.898442|56=BfxComp|98=0|108=30|141=N|341=20230915-11:00:00.000|553=ileMZ7r7aA9dg1f0qZ2KzFnJl010FZ9LX0JERBKs5D7|554=XgorEH1OJblVE4bs3iu8hdiWaMsCoeD39wjskZmsNBb|9010=Y|9011=Y|10=096|8=FIX.4.4|9=214|35=A|34=127|49=Jeff2|52=20230915-17:24:43.755115|56=BfxComp|98=0|108=30|141=N|341=20230915-11:00:00.000|553=ileMZ7r7aA9dg1f0qZ2KzFnJl010FZ9LX0JERBKs5D7|554=XgorEH1OJblVE4bs3iu8hdiWaMsCoeD39wjskZmsNBb|9010=Y|9011=Y|10=088|8=FIX.4.4|9=214|35=A|34=128|49=Jeff2|52=20230915-17:24:45.592541|56=BfxComp|98=0|108=30|141=N|341=20230915-11:00:00.000|553=ileMZ7r7aA9dg1f0qZ2KzFnJl010FZ9LX0JERBKs5D7|554=XgorEH1OJblVE4bs3iu8hdiWaMsCoeD39wjskZmsNBb|9010=Y|9011=Y|10=093|8=FIX.4.4|9=214|35=A|34=129|49=Jeff2|52=20230915-17:24:47.426340|56=BfxComp|98=0|108=30|141=N|341=20230915-11:00:00.000|553=ileMZ7r7aA9dg1f0qZ2KzFnJl010FZ9LX0JERBKs5D7|554=XgorEH1OJblVE4bs3iu8hdiWaMsCoeD39wjskZmsNBb|9010=Y|9011=Y|10=089|8=FIX.4.4|9=214|35=A|34=130|49=Jeff2|52=20230915-17:24:49.269241|56=BfxComp|98=0|108=30|141=N|341=20230915-11:00:00.000|553=ileMZ7r7aA9dg1f0qZ2KzFnJl010FZ9LX0JERBKs5D7|554=XgorEH1OJblVE4bs3iu8hdiWaMsCoeD39wjskZmsNBb|9010=Y|9011=Y|10=088|8=FIX.4.4|9=214|35=A|34=131|49=Jeff2|52=20230915-17:24:51.095039|56=BfxComp|98=0|108=30|141=N|341=20230915-11:00:00.000|553=ileMZ7r7aA9dg1f0qZ2KzFnJl010FZ9LX0JERBKs5D7|554=XgorEH1OJblVE4bs3iu8hdiWaMsCoeD39wjskZmsNBb|9010=Y|9011=Y|10=084|8=FIX.4.4|9=214|35=A|34=132|49=Jeff2|52=20230915-17:24:53.012117|56=BfxComp|98=0|108=30|141=N|341=20230915-11:00:00.000|553=ileMZ7r7aA9dg1f0qZ2KzFnJl010FZ9LX0JERBKs5D7|554=XgorEH1OJblVE4bs3iu8hdiWaMsCoeD39wjskZmsNBb|9010=Y|9011=Y|10=073|8=FIX.4.4|9=214|35=A|34=133|49=Jeff2|52=20230915-17:24:55.744073|56=BfxComp|98=0|108=30|141=N|341=20230915-11:00:00.000|553=ileMZ7r7aA9dg1f0qZ2KzFnJl010FZ9LX0JERBKs5D7|554=XgorEH1OJblVE4bs3iu8hdiWaMsCoeD39wjskZmsNBb|9010=Y|9011=Y|10=089|8=FIX.4.4|9=214|35=A|34=134|49=Jeff2|52=20230915-17:24:57.733994|56=BfxComp|98=0|108=30|141=N|341=20230915-11:00:00.000|553=ileMZ7r7aA9dg1f0qZ2KzFnJl010FZ9LX0JERBKs5D7|554=XgorEH1OJblVE4bs3iu8hdiWaMsCoeD39wjskZmsNBb|9010=Y|9011=Y|10=102|8=FIX.4.4|9=214|35=A|34=135|49=Jeff2|52=20230915-17:24:59.548443|56=BfxComp|98=0|108=30|141=N|341=20230915-11:00:00.000|553=ileMZ7r7aA9dg1f0qZ2KzFnJl010FZ9LX0JERBKs5D7|554=XgorEH1OJblVE4bs3iu8hdiWaMsCoeD39wjskZmsNBb|9010=Y|9011=Y|10=098|8=FIX.4.4|9=214|35=A|34=136|49=Jeff2|52=20230915-17:25:07.093930|56=BfxComp|98=0|108=30|141=N|341=20230915-11:00:00.000|553=ileMZ7r7aA9dg1f0qZ2KzFnJl010FZ9LX0JERBKs5D7|554=XgorEH1OJblVE4bs3iu8hdiWaMsCoeD39wjskZmsNBb|9010=Y|9011=Y|10=089|8=FIX.4.4|9=214|35=A|34=137|49=Jeff2|52=20230915-17:25:11.165007|56=BfxComp|98=0|108=30|141=N|341=20230915-11:00:00.000|553=ileMZ7r7aA9dg1f0qZ2KzFnJl010FZ9LX0JERBKs5D7|554=XgorEH1OJblVE4bs3iu8hdiWaMsCoeD39wjskZmsNBb|9010=Y|9011=Y|10=080|8=FIX.4.4|9=214|35=A|34=138|49=Jeff2|52=20230915-17:25:13.606334|56=BfxComp|98=0|108=30|141=N|341=20230915-11:00:00.000|553=ileMZ7r7aA9dg1f0qZ2KzFnJl010FZ9LX0JERBKs5D7|554=XgorEH1OJblVE4bs3iu8hdiWaMsCoeD39wjskZmsNBb|9010=Y|9011=Y|10=086|8=FIX.4.4|9=214|35=A|34=139|49=Jeff2|52=20230915-17:25:16.034627|56=BfxComp|98=0|108=30|141=N|341=20230915-11:00:00.000|553=ileMZ7r7aA9dg1f0qZ2KzFnJl010FZ9LX0JERBKs5D7|554=XgorEH1OJblVE4bs3iu8hdiWaMsCoeD39wjskZmsNBb|9010=Y|9011=Y|10=090|8=FIX.4.4|9=214|35=A|34=140|49=Jeff2|52=20230915-17:25:18.397773|56=BfxComp|98=0|108=30|141=N|341=20230915-11:00:00.000|553=ileMZ7r7aA9dg1f0qZ2KzFnJl010FZ9LX0JERBKs5D7|554=XgorEH1OJblVE4bs3iu8hdiWaMsCoeD39wjskZmsNBb|9010=Y|9011=Y|10=098|8=FIX.4.4|9=214|35=A|34=141|49=Jeff2|52=20230915-17:25:20.715823|56=BfxComp|98=0|108=30|141=N|341=20230915-11:00:00.000|553=ileMZ7r7aA9dg1f0qZ2KzFnJl010FZ9LX0JERBKs5D7|554=XgorEH1OJblVE4bs3iu8hdiWaMsCoeD39wjskZmsNBb|9010=Y|9011=Y|10=082|8=FIX.4.4|9=214|35=A|34=142|49=Jeff2|52=20230915-17:25:22.766374|56=BfxComp|98=0|108=30|141=N|341=20230915-11:00:00.000|553=ileMZ7r7aA9dg1f0qZ2KzFnJl010FZ9LX0JERBKs5D7|554=XgorEH1OJblVE4bs3iu8hdiWaMsCoeD39wjskZmsNBb|9010=Y|9011=Y|10=092|8=FIX.4.4|9=214|35=A|34=143|49=Jeff2|52=20230915-17:25:24.754242|56=BfxComp|98=0|108=30|141=N|341=20230915-11:00:00.000|553=ileMZ7r7aA9dg1f0qZ2KzFnJl010FZ9LX0JERBKs5D7|554=XgorEH1OJblVE4bs3iu8hdiWaMsCoeD39wjskZmsNBb|9010=Y|9011=Y|10=086|8=FIX.4.4|9=214|35=A|34=144|49=Jeff2|52=20230915-17:25:26.895710|56=BfxComp|98=0|108=30|141=N|341=20230915-11:00:00.000|553=ileMZ7r7aA9dg1f0qZ2KzFnJl010FZ9LX0JERBKs5D7|554=XgorEH1OJblVE4bs3iu8hdiWaMsCoeD39wjskZmsNBb|9010=Y|9011=Y|10=095|8=FIX.4.4|9=214|35=A|34=145|49=Jeff2|52=20230915-17:25:28.871143|56=BfxComp|98=0|108=30|141=N|341=20230915-11:00:00.000|553=ileMZ7r7aA9dg1f0qZ2KzFnJl010FZ9LX0JERBKs5D7|554=XgorEH1OJblVE4bs3iu8hdiWaMsCoeD39wjskZmsNBb|9010=Y|9011=Y|10=092|8=FIX.4.4|9=214|35=A|34=146|49=Jeff2|52=20230915-17:25:30.845983|56=BfxComp|98=0|108=30|141=N|341=20230915-11:00:00.000|553=ileMZ7r7aA9dg1f0qZ2KzFnJl010FZ9LX0JERBKs5D7|554=XgorEH1OJblVE4bs3iu8hdiWaMsCoeD39wjskZmsNBb|9010=Y|9011=Y|10=099|8=FIX.4.4|9=214|35=A|34=147|49=Jeff2|52=20230915-17:33:53.455460|56=BfxComp|98=0|108=30|141=N|341=20230915-11:00:00.000|553=ileMZ7r7aA9dg1f0qZ2KzFnJl010FZ9LX0JERBKs5D7|554=XgorEH1OJblVE4bs3iu8hdiWaMsCoeD39wjskZmsNBb|9010=Y|9011=Y|10=091|8=FIX.4.4|9=214|35=A|34=148|49=Jeff2|52=20230915-17:34:00.775155|56=BfxComp|98=0|108=30|141=N|341=20230915-11:00:00.000|553=ileMZ7r7aA9dg1f0qZ2KzFnJl010FZ9LX0JERBKs5D7|554=XgorEH1OJblVE4bs3iu8hdiWaMsCoeD39wjskZmsNBb|9010=Y|9011=Y|10=091|8=FIX.4.4|9=214|35=A|34=149|49=Jeff2|52=20230915-17:34:01.918771|56=BfxComp|98=0|108=30|141=N|341=20230915-11:00:00.000|553=ileMZ7r7aA9dg1f0qZ2KzFnJl010FZ9LX0JERBKs5D7|554=XgorEH1OJblVE4bs3iu8hdiWaMsCoeD39wjskZmsNBb|9010=Y|9011=Y|10=096|8=FIX.4.4|9=214|35=A|34=150|49=Jeff2|52=20230915-17:34:01.935938|56=BfxComp|98=0|108=30|141=N|341=20230915-11:00:00.000|553=ileMZ7r7aA9dg1f0qZ2KzFnJl010FZ9LX0JERBKs5D7|554=XgorEH1OJblVE4bs3iu8hdiWaMsCoeD39wjskZmsNBb|9010=Y|9011=Y|10=092|8=FIX.4.4|9=214|35=A|34=151|49=Jeff2|52=20230915-17:34:03.145052|56=BfxComp|98=0|108=30|141=N|341=20230915-11:00:00.000|553=ileMZ7r7aA9dg1f0qZ2KzFnJl010FZ9LX0JERBKs5D7|554=XgorEH1OJblVE4bs3iu8hdiWaMsCoeD39wjskZmsNBb|9010=Y|9011=Y|10=075|8=FIX.4.4|9=214|35=A|34=152|49=Jeff2|52=20230915-17:34:03.160842|56=BfxComp|98=0|108=30|141=N|341=20230915-11:00:00.000|553=ileMZ7r7aA9dg1f0qZ2KzFnJl010FZ9LX0JERBKs5D7|554=XgorEH1OJblVE4bs3iu8hdiWaMsCoeD39wjskZmsNBb|9010=Y|9011=Y|10=080|8=FIX.4.4|9=214|35=A|34=153|49=Jeff2|52=20230915-17:34:04.323263|56=BfxComp|98=0|108=30|141=N|341=20230915-11:00:00.000|553=ileMZ7r7aA9dg1f0qZ2KzFnJl010FZ9LX0JERBKs5D7|554=XgorEH1OJblVE4bs3iu8hdiWaMsCoeD39wjskZmsNBb|9010=Y|9011=Y|10=080|8=FIX.4.4|9=69|35=2|34=154|49=Jeff2|52=20230915-17:34:04.338344|56=BfxComp|7=4|16=0|10=194|8=FIX.4.4|9=72|35=2|34=155|49=Jeff2|52=20230915-17:34:04.614643|56=BfxComp|7=1239|16=0|10=087|8=FIX.4.4|9=214|35=A|34=156|49=Jeff2|52=20230915-17:34:05.826966|56=BfxComp|98=0|108=30|141=N|341=20230915-11:00:00.000|553=ileMZ7r7aA9dg1f0qZ2KzFnJl010FZ9LX0JERBKs5D7|554=XgorEH1OJblVE4bs3iu8hdiWaMsCoeD39wjskZmsNBb|9010=Y|9011=Y|10=102|8=FIX.4.4|9=72|35=2|34=157|49=Jeff2|52=20230915-17:34:05.843858|56=BfxComp|7=1354|16=0|10=100|8=FIX.4.4|9=214|35=A|34=158|49=Jeff2|52=20230915-17:34:08.457694|56=BfxComp|98=0|108=30|141=N|341=20230915-11:00:00.000|553=ileMZ7r7aA9dg1f0qZ2KzFnJl010FZ9LX0JERBKs5D7|554=XgorEH1OJblVE4bs3iu8hdiWaMsCoeD39wjskZmsNBb|9010=Y|9011=Y|10=105|8=FIX.4.4|9=72|35=2|34=159|49=Jeff2|52=20230915-17:34:08.479037|56=BfxComp|7=2009|16=0|10=097|8=FIX.4.4|9=214|35=A|34=160|49=Jeff2|52=20230915-17:34:36.500484|56=BfxComp|98=0|108=30|141=N|341=20230915-11:00:00.000|553=ileMZ7r7aA9dg1f0qZ2KzFnJl010FZ9LX0JERBKs5D7|554=XgorEH1OJblVE4bs3iu8hdiWaMsCoeD39wjskZmsNBb|9010=Y|9011=Y|10=085|8=FIX.4.4|9=72|35=2|34=161|49=Jeff2|52=20230915-17:34:36.520778|56=BfxComp|7=2880|16=0|10=097|8=FIX.4.4|9=214|35=A|34=162|49=Jeff2|52=20230915-17:34:38.108224|56=BfxComp|98=0|108=30|141=N|341=20230915-11:00:00.000|553=ileMZ7r7aA9dg1f0qZ2KzFnJl010FZ9LX0JERBKs5D7|554=XgorEH1OJblVE4bs3iu8hdiWaMsCoeD39wjskZmsNBb|9010=Y|9011=Y|10=085|8=FIX.4.4|9=72|35=2|34=163|49=Jeff2|52=20230915-17:34:38.134593|56=BfxComp|7=7548|16=0|10=103|8=FIX.4.4|9=214|35=A|34=164|49=Jeff2|52=20230915-17:35:20.981403|56=BfxComp|98=0|108=30|141=N|341=20230915-11:00:00.000|553=ileMZ7r7aA9dg1f0qZ2KzFnJl010FZ9LX0JERBKs5D7|554=XgorEH1OJblVE4bs3iu8hdiWaMsCoeD39wjskZmsNBb|9010=Y|9011=Y|10=087|8=FIX.4.4|9=73|35=2|34=165|49=Jeff2|52=20230915-17:35:21.012872|56=BfxComp|7=12121|16=0|10=125|8=FIX.4.4|9=60|35=0|34=166|49=Jeff2|52=20230915-17:35:51.001549|56=BfxComp|10=057|8=FIX.4.4|9=60|35=0|34=167|49=Jeff2|52=20230915-17:36:21.000588|56=BfxComp|10=058|8=FIX.4.4|9=60|35=0|34=168|49=Jeff2|52=20230915-17:36:51.001711|56=BfxComp|10=051|8=FIX.4.4|9=60|35=0|34=169|49=Jeff2|52=20230915-17:37:21.000802|56=BfxComp|10=050|8=FIX.4.4|9=60|35=0|34=170|49=Jeff2|52=20230915-17:37:51.023506|56=BfxComp|10=051|8=FIX.4.4|9=60|35=0|34=171|49=Jeff2|52=20230915-17:38:21.796728|56=BfxComp|10=073|8=FIX.4.4|9=60|35=0|34=172|49=Jeff2|52=20230915-17:38:51.500845|56=BfxComp|10=060|8=FIX.4.4|9=60|35=0|34=173|49=Jeff2|52=20230915-17:39:21.287153|56=BfxComp|10=063|8=FIX.4.4|9=60|35=0|34=174|49=Jeff2|52=20230915-17:39:51.180237|56=BfxComp|10=062|8=FIX.4.4|9=60|35=0|34=175|49=Jeff2|52=20230915-17:40:21.327581|56=BfxComp|10=057|8=FIX.4.4|9=60|35=0|34=176|49=Jeff2|52=20230915-17:40:51.659848|56=BfxComp|10=075|8=FIX.4.4|9=214|35=A|34=177|49=Jeff2|52=20230915-17:41:02.985448|56=BfxComp|98=0|108=30|141=N|341=20230915-11:00:00.000|553=ileMZ7r7aA9dg1f0qZ2KzFnJl010FZ9LX0JERBKs5D7|554=XgorEH1OJblVE4bs3iu8hdiWaMsCoeD39wjskZmsNBb|9010=Y|9011=Y|10=101|8=FIX.4.4|9=214|35=A|34=178|49=Jeff2|52=20230915-17:41:04.345047|56=BfxComp|98=0|108=30|141=N|341=20230915-11:00:00.000|553=ileMZ7r7aA9dg1f0qZ2KzFnJl010FZ9LX0JERBKs5D7|554=XgorEH1OJblVE4bs3iu8hdiWaMsCoeD39wjskZmsNBb|9010=Y|9011=Y|10=089|8=FIX.4.4|9=214|35=A|34=179|49=Jeff2|52=20230915-17:41:05.634006|56=BfxComp|98=0|108=30|141=N|341=20230915-11:00:00.000|553=ileMZ7r7aA9dg1f0qZ2KzFnJl010FZ9LX0JERBKs5D7|554=XgorEH1OJblVE4bs3iu8hdiWaMsCoeD39wjskZmsNBb|9010=Y|9011=Y|10=087|8=FIX.4.4|9=60|35=0|34=180|49=Jeff2|52=20230915-17:41:35.432666|56=BfxComp|10=060|8=FIX.4.4|9=60|35=0|34=181|49=Jeff2|52=20230915-17:42:05.412129|56=BfxComp|10=051|