8=FIX.4.4|9=111|35=A|34=1|49=ValonMDComp07|52=20230726-19:23:32.855097|56=BfxComp|98=0|108=30|553=valonmd|554=y4=#I~5&Stiqf$Xg|10=204|8=FIX.4.4|9=111|35=A|34=2|49=ValonMDComp07|52=20230726-19:23:36.075261|56=BfxComp|98=0|108=30|553=valonmd|554=y4=#I~5&Stiqf$Xg|10=196|8=FIX.4.4|9=111|35=A|34=3|49=ValonMDComp07|52=20230726-19:23:42.110532|56=BfxComp|98=0|108=30|553=valonmd|554=y4=#I~5&Stiqf$Xg|10=185|8=FIX.4.4|9=111|35=A|34=4|49=ValonMDComp07|52=20230726-19:23:47.427797|56=BfxComp|98=0|108=30|553=valonmd|554=y4=#I~5&Stiqf$Xg|10=215|8=FIX.4.4|9=111|35=A|34=5|49=ValonMDComp07|52=20230726-19:23:49.596449|56=BfxComp|98=0|108=30|553=valonmd|554=y4=#I~5&Stiqf$Xg|10=219|8=FIX.4.4|9=111|35=A|34=6|49=ValonMDComp07|52=20230726-19:23:51.741100|56=BfxComp|98=0|108=30|553=valonmd|554=y4=#I~5&Stiqf$Xg|10=189|8=FIX.4.4|9=111|35=A|34=7|49=ValonMDComp07|52=20230726-19:23:53.113784|56=BfxComp|98=0|108=30|553=valonmd|554=y4=#I~5&Stiqf$Xg|10=203|8=FIX.4.4|9=111|35=A|34=8|49=ValonMDComp07|52=20230726-19:23:55.259109|56=BfxComp|98=0|108=30|553=valonmd|554=y4=#I~5&Stiqf$Xg|10=208|8=FIX.4.4|9=111|35=A|34=9|49=ValonMDComp07|52=20230726-19:23:57.399732|56=BfxComp|98=0|108=30|553=valonmd|554=y4=#I~5&Stiqf$Xg|10=218|8=FIX.4.4|9=112|35=A|34=10|49=ValonMDComp07|52=20230726-19:23:59.620333|56=BfxComp|98=0|108=30|553=valonmd|554=y4=#I~5&Stiqf$Xg|10=245|8=FIX.4.4|9=112|35=A|34=11|49=ValonMDComp07|52=20230726-19:24:01.121670|56=BfxComp|98=0|108=30|553=valonmd|554=y4=#I~5&Stiqf$Xg|10=234|8=FIX.4.4|9=112|35=A|34=12|49=ValonMDComp07|52=20230726-19:24:03.270447|56=BfxComp|98=0|108=30|553=valonmd|554=y4=#I~5&Stiqf$Xg|10=244|8=FIX.4.4|9=112|35=A|34=13|49=ValonMDComp07|52=20230726-19:24:05.421064|56=BfxComp|98=0|108=30|553=valonmd|554=y4=#I~5&Stiqf$Xg|10=240|8=FIX.4.4|9=112|35=A|34=14|49=ValonMDComp07|52=20230726-19:24:08.062549|56=BfxComp|98=0|108=30|553=valonmd|554=y4=#I~5&Stiqf$Xg|10=253|8=FIX.4.4|9=112|35=A|34=15|49=ValonMDComp07|52=20230726-19:24:09.392032|56=BfxComp|98=0|108=30|553=valonmd|554=y4=#I~5&Stiqf$Xg|10=248|8=FIX.4.4|9=112|35=A|34=16|49=ValonMDComp07|52=20230726-19:24:11.522695|56=BfxComp|98=0|108=30|553=valonmd|554=y4=#I~5&Stiqf$Xg|10=252|8=FIX.4.4|9=112|35=A|34=17|49=ValonMDComp07|52=20230726-19:24:13.667347|56=BfxComp|98=0|108=30|553=valonmd|554=y4=#I~5&Stiqf$Xg|10=003|8=FIX.4.4|9=112|35=A|34=18|49=ValonMDComp07|52=20230726-19:24:15.802088|56=BfxComp|98=0|108=30|553=valonmd|554=y4=#I~5&Stiqf$Xg|10=255|8=FIX.4.4|9=112|35=A|34=19|49=ValonMDComp07|52=20230726-19:24:17.131199|56=BfxComp|98=0|108=30|553=valonmd|554=y4=#I~5&Stiqf$Xg|10=000|8=FIX.4.4|9=112|35=A|34=20|49=ValonMDComp07|52=20230726-19:24:19.415547|56=BfxComp|98=0|108=30|553=valonmd|554=y4=#I~5&Stiqf$Xg|10=252|8=FIX.4.4|9=112|35=A|34=21|49=ValonMDComp07|52=20230726-19:24:21.530936|56=BfxComp|98=0|108=30|553=valonmd|554=y4=#I~5&Stiqf$Xg|10=246|8=FIX.4.4|9=112|35=A|34=22|49=ValonMDComp07|52=20230726-19:24:23.641234|56=BfxComp|98=0|108=30|553=valonmd|554=y4=#I~5&Stiqf$Xg|10=243|8=FIX.4.4|9=112|35=A|34=23|49=ValonMDComp07|52=20230726-19:24:25.956175|56=BfxComp|98=0|108=30|553=valonmd|554=y4=#I~5&Stiqf$Xg|10=003|8=FIX.4.4|9=112|35=A|34=24|49=ValonMDComp07|52=20230726-19:24:27.113767|56=BfxComp|98=0|108=30|553=valonmd|554=y4=#I~5&Stiqf$Xg|10=254|8=FIX.4.4|9=112|35=A|34=25|49=ValonMDComp07|52=20230726-19:24:29.221328|56=BfxComp|98=0|108=30|553=valonmd|554=y4=#I~5&Stiqf$Xg|10=250|8=FIX.4.4|9=112|35=A|34=26|49=ValonMDComp07|52=20230726-19:24:31.361056|56=BfxComp|98=0|108=30|553=valonmd|554=y4=#I~5&Stiqf$Xg|10=247|8=FIX.4.4|9=112|35=A|34=27|49=ValonMDComp07|52=20230726-19:24:33.103361|56=BfxComp|98=0|108=30|553=valonmd|554=y4=#I~5&Stiqf$Xg|10=243|8=FIX.4.4|9=112|35=A|34=28|49=ValonMDComp07|52=20230726-19:24:35.207359|56=BfxComp|98=0|108=30|553=valonmd|554=y4=#I~5&Stiqf$Xg|10=002|8=FIX.4.4|9=112|35=A|34=29|49=ValonMDComp07|52=20230726-19:24:37.421700|56=BfxComp|98=0|108=30|553=valonmd|554=y4=#I~5&Stiqf$Xg|10=249|8=FIX.4.4|9=112|35=A|34=30|49=ValonMDComp07|52=20230726-19:24:39.519982|56=BfxComp|98=0|108=30|553=valonmd|554=y4=#I~5&Stiqf$Xg|10=007|8=FIX.4.4|9=112|35=A|34=31|49=ValonMDComp07|52=20230726-19:24:42.007474|56=BfxComp|98=0|108=30|553=valonmd|554=y4=#I~5&Stiqf$Xg|10=246|8=FIX.4.4|9=112|35=A|34=32|49=ValonMDComp07|52=20230726-19:24:43.141107|56=BfxComp|98=0|108=30|553=valonmd|554=y4=#I~5&Stiqf$Xg|10=240|8=FIX.4.4|9=112|35=A|34=33|49=ValonMDComp07|52=20230726-19:24:45.245857|56=BfxComp|98=0|108=30|553=valonmd|554=y4=#I~5&Stiqf$Xg|10=004|8=FIX.4.4|9=112|35=A|34=34|49=ValonMDComp07|52=20230726-19:24:48.754819|56=BfxComp|98=0|108=30|553=valonmd|554=y4=#I~5&Stiqf$Xg|10=011|8=FIX.4.4|9=112|35=A|34=35|49=ValonMDComp07|52=20230726-19:24:50.898935|56=BfxComp|98=0|108=30|553=valonmd|554=y4=#I~5&Stiqf$Xg|10=013|8=FIX.4.4|9=112|35=A|34=36|49=ValonMDComp07|52=20230726-19:24:53.676316|56=BfxComp|98=0|108=30|553=valonmd|554=y4=#I~5&Stiqf$Xg|10=004|8=FIX.4.4|9=112|35=A|34=37|49=ValonMDComp07|52=20230726-19:24:56.180280|56=BfxComp|98=0|108=30|553=valonmd|554=y4=#I~5&Stiqf$Xg|10=254|8=FIX.4.4|9=112|35=A|34=38|49=ValonMDComp07|52=20230726-20:10:05.327094|56=BfxComp|98=0|108=30|553=valonmd|554=y4=#I~5&Stiqf$Xg|10=242|8=FIX.4.4|9=112|35=A|34=39|49=ValonMDComp07|52=20230726-20:10:07.461344|56=BfxComp|98=0|108=30|553=valonmd|554=y4=#I~5&Stiqf$Xg|10=242|8=FIX.4.4|9=112|35=A|34=40|49=ValonMDComp07|52=20230726-20:10:30.992026|56=BfxComp|98=0|108=30|553=valonmd|554=y4=#I~5&Stiqf$Xg|10=236|8=FIX.4.4|9=112|35=A|34=41|49=ValonMDComp07|52=20230726-20:10:32.346853|56=BfxComp|98=0|108=30|553=valonmd|554=y4=#I~5&Stiqf$Xg|10=240|8=FIX.4.4|9=112|35=A|34=42|49=ValonMDComp07|52=20230726-20:10:34.489007|56=BfxComp|98=0|108=30|553=valonmd|554=y4=#I~5&Stiqf$Xg|10=242|8=FIX.4.4|9=112|35=A|34=43|49=ValonMDComp07|52=20230726-20:10:36.593702|56=BfxComp|98=0|108=30|553=valonmd|554=y4=#I~5&Stiqf$Xg|10=243|8=FIX.4.4|9=112|35=A|34=44|49=ValonMDComp07|52=20230726-20:10:52.813572|56=BfxComp|98=0|108=30|553=valonmd|554=y4=#I~5&Stiqf$Xg|10=242|8=FIX.4.4|9=112|35=A|34=45|49=ValonMDComp07|52=20230726-20:10:54.927540|56=BfxComp|98=0|108=30|553=valonmd|554=y4=#I~5&Stiqf$Xg|10=246|8=FIX.4.4|9=112|35=A|34=46|49=ValonMDComp07|52=20230726-20:16:24.807874|56=BfxComp|98=0|108=30|553=valonmd|554=y4=#I~5&Stiqf$Xg|10=001|8=FIX.4.4|9=112|35=A|34=47|49=ValonMDComp07|52=20230726-20:16:28.691263|56=BfxComp|98=0|108=30|553=valonmd|554=y4=#I~5&Stiqf$Xg|10=255|8=FIX.4.4|9=112|35=A|34=48|49=ValonMDComp07|52=20230726-20:16:32.410155|56=BfxComp|98=0|108=30|553=valonmd|554=y4=#I~5&Stiqf$Xg|10=240|8=FIX.4.4|9=112|35=A|34=49|49=ValonMDComp07|52=20230726-20:16:36.250979|56=BfxComp|98=0|108=30|553=valonmd|554=y4=#I~5&Stiqf$Xg|10=005|8=FIX.4.4|9=112|35=A|34=50|49=ValonMDComp07|52=20230726-20:16:49.148965|56=BfxComp|98=0|108=30|553=valonmd|554=y4=#I~5&Stiqf$Xg|10=002|8=FIX.4.4|9=112|35=A|34=51|49=ValonMDComp07|52=20230726-20:16:51.286862|56=BfxComp|98=0|108=30|553=valonmd|554=y4=#I~5&Stiqf$Xg|10=251|8=FIX.4.4|9=112|35=A|34=52|49=ValonMDComp07|52=20230726-20:16:56.729646|56=BfxComp|98=0|108=30|553=valonmd|554=y4=#I~5&Stiqf$Xg|10=003|8=FIX.4.4|9=112|35=A|34=53|49=ValonMDComp07|52=20230726-20:16:59.091525|56=BfxComp|98=0|108=30|553=valonmd|554=y4=#I~5&Stiqf$Xg|10=251|8=FIX.4.4|9=112|35=A|34=54|49=ValonMDComp07|52=20230726-20:17:01.240641|56=BfxComp|98=0|108=30|553=valonmd|554=y4=#I~5&Stiqf$Xg|10=235|8=FIX.4.4|9=112|35=A|34=55|49=ValonMDComp07|52=20230726-20:17:03.387221|56=BfxComp|98=0|108=30|553=valonmd|554=y4=#I~5&Stiqf$Xg|10=244|8=FIX.4.4|9=112|35=A|34=56|49=ValonMDComp07|52=20230726-20:17:05.575205|56=BfxComp|98=0|108=30|553=valonmd|554=y4=#I~5&Stiqf$Xg|10=248|8=FIX.4.4|9=112|35=A|34=57|49=ValonMDComp07|52=20230726-20:17:09.774060|56=BfxComp|98=0|108=30|553=valonmd|554=y4=#I~5&Stiqf$Xg|10=253|8=FIX.4.4|9=112|35=A|34=58|49=ValonMDComp07|52=20230726-20:17:13.718695|56=BfxComp|98=0|108=30|553=valonmd|554=y4=#I~5&Stiqf$Xg|10=005|8=FIX.4.4|9=112|35=A|34=59|49=ValonMDComp07|52=20230726-20:17:17.388743|56=BfxComp|98=0|108=30|553=valonmd|554=y4=#I~5&Stiqf$Xg|10=007|8=FIX.4.4|9=112|35=A|34=60|49=ValonMDComp07|52=20230726-20:17:21.092264|56=BfxComp|98=0|108=30|553=valonmd|554=y4=#I~5&Stiqf$Xg|10=240|8=FIX.4.4|9=112|35=A|34=61|49=ValonMDComp07|52=20230726-20:17:23.738126|56=BfxComp|98=0|108=30|553=valonmd|554=y4=#I~5&Stiqf$Xg|10=247|8=FIX.4.4|9=112|35=A|34=62|49=ValonMDComp07|52=20230726-20:17:27.374574|56=BfxComp|98=0|108=30|553=valonmd|554=y4=#I~5&Stiqf$Xg|10=255|8=FIX.4.4|9=112|35=A|34=63|49=ValonMDComp07|52=20230726-20:17:31.113086|56=BfxComp|98=0|108=30|553=valonmd|554=y4=#I~5&Stiqf$Xg|10=240|8=FIX.4.4|9=112|35=A|34=64|49=ValonMDComp07|52=20230726-20:17:33.871541|56=BfxComp|98=0|108=30|553=valonmd|554=y4=#I~5&Stiqf$Xg|10=250|8=FIX.4.4|9=112|35=A|34=65|49=ValonMDComp07|52=20230726-20:17:37.574915|56=BfxComp|98=0|108=30|553=valonmd|554=y4=#I~5&Stiqf$Xg|10=004|8=FIX.4.4|9=112|35=A|34=66|49=ValonMDComp07|52=20230726-20:17:41.729244|56=BfxComp|98=0|108=30|553=valonmd|554=y4=#I~5&Stiqf$Xg|10=253|8=FIX.4.4|9=112|35=A|34=67|49=ValonMDComp07|52=20230726-20:17:45.738195|56=BfxComp|98=0|108=30|553=valonmd|554=y4=#I~5&Stiqf$Xg|10=007|8=FIX.4.4|9=112|35=A|34=68|49=ValonMDComp07|52=20230726-20:17:49.637143|56=BfxComp|98=0|108=30|553=valonmd|554=y4=#I~5&Stiqf$Xg|10=003|8=FIX.4.4|9=112|35=A|34=69|49=ValonMDComp07|52=20230726-20:17:53.700130|56=BfxComp|98=0|108=30|553=valonmd|554=y4=#I~5&Stiqf$Xg|10=242|8=FIX.4.4|9=112|35=A|34=70|49=ValonMDComp07|52=20230726-20:17:57.683906|56=BfxComp|98=0|108=30|553=valonmd|554=y4=#I~5&Stiqf$Xg|10=003|8=FIX.4.4|9=112|35=A|34=71|49=ValonMDComp07|52=20230726-20:18:01.564614|56=BfxComp|98=0|108=30|553=valonmd|554=y4=#I~5&Stiqf$Xg|10=244|8=FIX.4.4|9=112|35=A|34=72|49=ValonMDComp07|52=20230726-20:18:05.194525|56=BfxComp|98=0|108=30|553=valonmd|554=y4=#I~5&Stiqf$Xg|10=249|8=FIX.4.4|9=112|35=A|34=73|49=ValonMDComp07|52=20230726-20:18:07.900742|56=BfxComp|98=0|108=30|553=valonmd|554=y4=#I~5&Stiqf$Xg|10=248|8=FIX.4.4|9=112|35=A|34=74|49=ValonMDComp07|52=20230726-20:18:13.346895|56=BfxComp|98=0|108=30|553=valonmd|554=y4=#I~5&Stiqf$Xg|10=003|8=FIX.4.4|9=67|35=5|34=75|49=ValonMDComp07|52=20230726-20:18:13.419013|56=BfxComp|10=230|8=FIX.4.4|9=112|35=A|34=76|49=ValonMDComp07|52=20230726-20:18:13.419806|56=BfxComp|98=0|108=30|553=valonmd|554=y4=#I~5&Stiqf$Xg|10=254|8=FIX.4.4|9=112|35=A|34=77|49=ValonMDComp07|52=20230726-20:18:15.753284|56=BfxComp|98=0|108=30|553=valonmd|554=y4=#I~5&Stiqf$Xg|10=002|8=FIX.4.4|9=67|35=5|34=78|49=ValonMDComp07|52=20230726-20:18:15.978670|56=BfxComp|10=254|8=FIX.4.4|9=112|35=A|34=79|49=ValonMDComp07|52=20230726-20:18:15.980451|56=BfxComp|98=0|108=30|553=valonmd|554=y4=#I~5&Stiqf$Xg|10=002|8=FIX.4.4|9=112|35=A|34=80|49=ValonMDComp07|52=20230726-20:18:18.059991|56=BfxComp|98=0|108=30|553=valonmd|554=y4=#I~5&Stiqf$Xg|10=003|8=FIX.4.4|9=67|35=5|34=81|49=ValonMDComp07|52=20230726-20:18:18.226476|56=BfxComp|10=241|8=FIX.4.4|9=112|35=A|34=82|49=ValonMDComp07|52=20230726-20:18:18.230362|56=BfxComp|98=0|108=30|553=valonmd|554=y4=#I~5&Stiqf$Xg|10=244|8=FIX.4.4|9=112|35=A|34=83|49=ValonMDComp07|52=20230726-20:18:19.540154|56=BfxComp|98=0|108=30|553=valonmd|554=y4=#I~5&Stiqf$Xg|10=249|8=FIX.4.4|9=67|35=5|34=84|49=ValonMDComp07|52=20230726-20:18:19.631021|56=BfxComp|10=231|8=FIX.4.4|9=112|35=A|34=85|49=ValonMDComp07|52=20230726-20:18:19.632881|56=BfxComp|98=0|108=30|553=valonmd|554=y4=#I~5&Stiqf$Xg|10=004|