8=FIX.4.4|9=212|35=A|34=1|49=Jeff9|52=20230918-12:05:26.749734|56=BfxComp|98=0|108=30|141=N|341=20230918-08:00:00.000|553=ileMZ7r7aA9dg1f0qZ2KzFnJl010FZ9LX0JERBKs5D7|554=XgorEH1OJblVE4bs3iu8hdiWaMsCoeD39wjskZmsNBb|9010=Y|9011=Y|10=005|8=FIX.4.4|9=212|35=A|34=2|49=Jeff9|52=20230918-12:05:31.112656|56=BfxComp|98=0|108=30|141=N|341=20230918-08:00:00.000|553=ileMZ7r7aA9dg1f0qZ2KzFnJl010FZ9LX0JERBKs5D7|554=XgorEH1OJblVE4bs3iu8hdiWaMsCoeD39wjskZmsNBb|9010=Y|9011=Y|10=245|8=FIX.4.4|9=212|35=A|34=3|49=Jeff9|52=20230918-12:05:33.037309|56=BfxComp|98=0|108=30|141=N|341=20230918-08:00:00.000|553=ileMZ7r7aA9dg1f0qZ2KzFnJl010FZ9LX0JERBKs5D7|554=XgorEH1OJblVE4bs3iu8hdiWaMsCoeD39wjskZmsNBb|9010=Y|9011=Y|10=249|8=FIX.4.4|9=212|35=A|34=4|49=Jeff9|52=20230918-12:05:34.475895|56=BfxComp|98=0|108=30|141=N|341=20230918-08:00:00.000|553=ileMZ7r7aA9dg1f0qZ2KzFnJl010FZ9LX0JERBKs5D7|554=XgorEH1OJblVE4bs3iu8hdiWaMsCoeD39wjskZmsNBb|9010=Y|9011=Y|10=011|8=FIX.4.4|9=67|35=2|34=5|49=Jeff9|52=20230918-12:05:42.361760|56=BfxComp|7=1|16=0|10=091|8=FIX.4.4|9=58|35=0|34=6|49=Jeff9|52=20230918-12:06:12.127444|56=BfxComp|10=220|8=FIX.4.4|9=58|35=0|34=7|49=Jeff9|52=20230918-12:06:42.000606|56=BfxComp|10=214|8=FIX.4.4|9=58|35=0|34=8|49=Jeff9|52=20230918-12:07:12.270888|56=BfxComp|10=234|8=FIX.4.4|9=58|35=0|34=9|49=Jeff9|52=20230918-12:07:42.003538|56=BfxComp|10=224|8=FIX.4.4|9=59|35=0|34=10|49=Jeff9|52=20230918-12:08:12.092764|56=BfxComp|10=016|8=FIX.4.4|9=59|35=0|34=11|49=Jeff9|52=20230918-12:08:42.000434|56=BfxComp|10=003|8=FIX.4.4|9=59|35=0|34=12|49=Jeff9|52=20230918-12:09:12.004560|56=BfxComp|10=006|8=FIX.4.4|9=59|35=0|34=13|49=Jeff9|52=20230918-12:09:42.000628|56=BfxComp|10=011|8=FIX.4.4|9=59|35=0|34=14|49=Jeff9|52=20230918-12:10:12.003382|56=BfxComp|10=001|8=FIX.4.4|9=59|35=0|34=15|49=Jeff9|52=20230918-12:10:42.080410|56=BfxComp|10=002|8=FIX.4.4|9=59|35=0|34=16|49=Jeff9|52=20230918-12:11:12.001354|56=BfxComp|10=001|8=FIX.4.4|9=59|35=0|34=17|49=Jeff9|52=20230918-12:11:42.646154|56=BfxComp|10=018|8=FIX.4.4|9=59|35=0|34=18|49=Jeff9|52=20230918-12:12:12.000885|56=BfxComp|10=012|8=FIX.4.4|9=59|35=0|34=19|49=Jeff9|52=20230918-12:12:42.023223|56=BfxComp|10=007|8=FIX.4.4|9=59|35=0|34=20|49=Jeff9|52=20230918-12:13:12.030073|56=BfxComp|10=254|8=FIX.4.4|9=59|35=0|34=21|49=Jeff9|52=20230918-12:13:42.200208|56=BfxComp|10=001|