8=FIX.4.4|9=183|35=A|34=1|49=ValonOrdComp03-2|52=20230929-11:00:21.293011|56=GtwComp|98=0|108=30|141=Y|553=tezXJ2qoom499IoElIJV5P2BMBPZfSLvTIe7wk6gjhs|554=6LuGvC5xjOkD37RN2buAmxEByytKzwpfYnH73iHYu8v|10=076|8=FIX.4.4|9=69|35=0|34=2|49=ValonOrdComp03-2|52=20230929-11:00:51.492125|56=GtwComp|10=173|8=FIX.4.4|9=69|35=0|34=3|49=ValonOrdComp03-2|52=20230929-11:01:21.487069|56=GtwComp|10=183|8=FIX.4.4|9=69|35=0|34=4|49=ValonOrdComp03-2|52=20230929-11:01:51.458273|56=GtwComp|10=182|8=FIX.4.4|9=69|35=0|34=5|49=ValonOrdComp03-2|52=20230929-11:02:21.490299|56=GtwComp|10=185|8=FIX.4.4|9=69|35=0|34=6|49=ValonOrdComp03-2|52=20230929-11:02:51.487711|56=GtwComp|10=184|8=FIX.4.4|9=69|35=0|34=7|49=ValonOrdComp03-2|52=20230929-11:03:21.452750|56=GtwComp|10=178|8=FIX.4.4|9=69|35=0|34=8|49=ValonOrdComp03-2|52=20230929-11:03:51.835582|56=GtwComp|10=190|8=FIX.4.4|9=69|35=0|34=9|49=ValonOrdComp03-2|52=20230929-11:04:21.556769|56=GtwComp|10=196|8=FIX.4.4|9=70|35=0|34=10|49=ValonOrdComp03-2|52=20230929-11:04:51.558306|56=GtwComp|10=220|8=FIX.4.4|9=70|35=0|34=11|49=ValonOrdComp03-2|52=20230929-11:05:21.541698|56=GtwComp|10=225|8=FIX.4.4|9=70|35=0|34=12|49=ValonOrdComp03-2|52=20230929-11:05:51.437804|56=GtwComp|10=222|8=FIX.4.4|9=70|35=0|34=13|49=ValonOrdComp03-2|52=20230929-11:06:21.499130|56=GtwComp|10=221|8=FIX.4.4|9=70|35=0|34=14|49=ValonOrdComp03-2|52=20230929-11:06:51.438327|56=GtwComp|10=226|8=FIX.4.4|9=70|35=0|34=15|49=ValonOrdComp03-2|52=20230929-11:07:21.365442|56=GtwComp|10=222|8=FIX.4.4|9=70|35=0|34=16|49=ValonOrdComp03-2|52=20230929-11:07:51.207496|56=GtwComp|10=230|8=FIX.4.4|9=70|35=0|34=17|49=ValonOrdComp03-2|52=20230929-11:08:21.012466|56=GtwComp|10=220|8=FIX.4.4|9=70|35=0|34=18|49=ValonOrdComp03-2|52=20230929-11:08:51.504155|56=GtwComp|10=225|8=FIX.4.4|9=70|35=0|34=19|49=ValonOrdComp03-2|52=20230929-11:09:21.892294|56=GtwComp|10=238|8=FIX.4.4|9=70|35=0|34=20|49=ValonOrdComp03-2|52=20230929-11:09:51.831748|56=GtwComp|10=230|8=FIX.4.4|9=70|35=0|34=21|49=ValonOrdComp03-2|52=20230929-11:10:21.501781|56=GtwComp|10=211|8=FIX.4.4|9=70|35=0|34=22|49=ValonOrdComp03-2|52=20230929-11:10:51.208030|56=GtwComp|10=206|8=FIX.4.4|9=70|35=0|34=23|49=ValonOrdComp03-2|52=20230929-11:11:21.067320|56=GtwComp|10=210|