8=FIX.4.4|9=212|35=A|34=1|49=Jeff6|52=20230918-11:33:25.802798|56=BfxComp|98=0|108=30|141=N|341=20230918-08:00:00.000|553=ileMZ7r7aA9dg1f0qZ2KzFnJl010FZ9LX0JERBKs5D7|554=XgorEH1OJblVE4bs3iu8hdiWaMsCoeD39wjskZmsNBb|9010=Y|9011=Y|10=001|8=FIX.4.4|9=212|35=A|34=2|49=Jeff6|52=20230918-11:33:35.883361|56=BfxComp|98=0|108=30|141=N|341=20230918-08:00:00.000|553=ileMZ7r7aA9dg1f0qZ2KzFnJl010FZ9LX0JERBKs5D7|554=XgorEH1OJblVE4bs3iu8hdiWaMsCoeD39wjskZmsNBb|9010=Y|9011=Y|10=254|8=FIX.4.4|9=212|35=A|34=3|49=Jeff6|52=20230918-11:33:37.881138|56=BfxComp|98=0|108=30|141=N|341=20230918-08:00:00.000|553=ileMZ7r7aA9dg1f0qZ2KzFnJl010FZ9LX0JERBKs5D7|554=XgorEH1OJblVE4bs3iu8hdiWaMsCoeD39wjskZmsNBb|9010=Y|9011=Y|10=001|8=FIX.4.4|9=67|35=2|34=4|49=Jeff6|52=20230918-11:33:41.279904|56=BfxComp|7=1|16=0|10=094|8=FIX.4.4|9=58|35=0|34=5|49=Jeff6|52=20230918-11:34:11.000476|56=BfxComp|10=210|8=FIX.4.4|9=58|35=0|34=6|49=Jeff6|52=20230918-11:34:41.099406|56=BfxComp|10=225|8=FIX.4.4|9=58|35=0|34=7|49=Jeff6|52=20230918-11:35:11.010203|56=BfxComp|10=202|8=FIX.4.4|9=58|35=0|34=8|49=Jeff6|52=20230918-11:35:41.001313|56=BfxComp|10=208|8=FIX.4.4|9=58|35=0|34=9|49=Jeff6|52=20230918-11:36:11.581827|56=BfxComp|10=230|8=FIX.4.4|9=59|35=0|34=10|49=Jeff6|52=20230918-11:36:41.000484|56=BfxComp|10=003|8=FIX.4.4|9=59|35=0|34=11|49=Jeff6|52=20230918-11:37:11.000017|56=BfxComp|10=250|8=FIX.4.4|9=59|35=0|34=12|49=Jeff6|52=20230918-11:37:41.106094|56=BfxComp|10=010|8=FIX.4.4|9=59|35=0|34=13|49=Jeff6|52=20230918-11:38:11.001553|56=BfxComp|10=003|8=FIX.4.4|9=59|35=0|34=14|49=Jeff6|52=20230918-11:38:41.000011|56=BfxComp|10=251|8=FIX.4.4|9=59|35=0|34=15|49=Jeff6|52=20230918-11:39:11.026951|56=BfxComp|10=015|8=FIX.4.4|9=59|35=0|34=16|49=Jeff6|52=20230918-11:39:41.280826|56=BfxComp|10=022|8=FIX.4.4|9=59|35=0|34=17|49=Jeff6|52=20230918-11:40:11.201835|56=BfxComp|10=005|8=FIX.4.4|9=59|35=0|34=18|49=Jeff6|52=20230918-11:40:41.233594|56=BfxComp|10=016|