8=FIX.4.4|9=213|35=A|34=1|49=Jeff10|52=20230918-12:25:50.633983|56=BfxComp|98=0|108=30|141=N|341=20230918-08:00:00.000|553=ileMZ7r7aA9dg1f0qZ2KzFnJl010FZ9LX0JERBKs5D7|554=XgorEH1OJblVE4bs3iu8hdiWaMsCoeD39wjskZmsNBb|9010=Y|9011=Y|10=043|8=FIX.4.4|9=213|35=A|34=2|49=Jeff10|52=20230918-12:26:00.941968|56=BfxComp|98=0|108=30|141=N|341=20230918-08:00:00.000|553=ileMZ7r7aA9dg1f0qZ2KzFnJl010FZ9LX0JERBKs5D7|554=XgorEH1OJblVE4bs3iu8hdiWaMsCoeD39wjskZmsNBb|9010=Y|9011=Y|10=045|8=FIX.4.4|9=213|35=A|34=3|49=Jeff10|52=20230918-12:26:02.943968|56=BfxComp|98=0|108=30|141=N|341=20230918-08:00:00.000|553=ileMZ7r7aA9dg1f0qZ2KzFnJl010FZ9LX0JERBKs5D7|554=XgorEH1OJblVE4bs3iu8hdiWaMsCoeD39wjskZmsNBb|9010=Y|9011=Y|10=050|8=FIX.4.4|9=68|35=2|34=4|49=Jeff10|52=20230918-12:26:06.175904|56=BfxComp|7=1|16=0|10=137|8=FIX.4.4|9=213|35=A|34=5|49=Jeff10|52=20230918-12:26:10.199950|56=BfxComp|98=0|108=30|141=N|341=20230918-08:00:00.000|553=ileMZ7r7aA9dg1f0qZ2KzFnJl010FZ9LX0JERBKs5D7|554=XgorEH1OJblVE4bs3iu8hdiWaMsCoeD39wjskZmsNBb|9010=Y|9011=Y|10=045|8=FIX.4.4|9=213|35=A|34=6|49=Jeff10|52=20230918-12:26:17.759287|56=BfxComp|98=0|108=30|141=N|341=20230918-08:00:00.000|553=ileMZ7r7aA9dg1f0qZ2KzFnJl010FZ9LX0JERBKs5D7|554=XgorEH1OJblVE4bs3iu8hdiWaMsCoeD39wjskZmsNBb|9010=Y|9011=Y|10=058|8=FIX.4.4|9=68|35=2|34=7|49=Jeff10|52=20230918-12:26:17.785884|56=BfxComp|7=6|16=0|10=161|8=FIX.4.4|9=213|35=A|34=8|49=Jeff10|52=20230918-12:26:35.931935|56=BfxComp|98=0|108=30|141=N|341=20230918-08:00:00.000|553=ileMZ7r7aA9dg1f0qZ2KzFnJl010FZ9LX0JERBKs5D7|554=XgorEH1OJblVE4bs3iu8hdiWaMsCoeD39wjskZmsNBb|9010=Y|9011=Y|10=052|8=FIX.4.4|9=71|35=2|34=9|49=Jeff10|52=20230918-12:26:35.944581|56=BfxComp|7=4949|16=0|10=056|8=FIX.4.4|9=214|35=A|34=10|49=Jeff10|52=20230918-12:27:29.004884|56=BfxComp|98=0|108=30|141=N|341=20230918-08:00:00.000|553=ileMZ7r7aA9dg1f0qZ2KzFnJl010FZ9LX0JERBKs5D7|554=XgorEH1OJblVE4bs3iu8hdiWaMsCoeD39wjskZmsNBb|9010=Y|9011=Y|10=092|8=FIX.4.4|9=72|35=2|34=11|49=Jeff10|52=20230918-12:27:29.017915|56=BfxComp|7=7353|16=0|10=086|8=FIX.4.4|9=214|35=A|34=12|49=Jeff10|52=20230918-12:27:42.669036|56=BfxComp|98=0|108=30|141=N|341=20230918-08:00:00.000|553=ileMZ7r7aA9dg1f0qZ2KzFnJl010FZ9LX0JERBKs5D7|554=XgorEH1OJblVE4bs3iu8hdiWaMsCoeD39wjskZmsNBb|9010=Y|9011=Y|10=095|