8=FIX.4.4|9=120|35=A|34=1|49=ValonMDComp07|52=20230905-12:44:17.720416|56=GtwComp|98=0|108=30|141=Y|553=test|554=password|9010=Y|9011=Y|10=231|