8=FIX.4.4|9=212|35=A|34=1|49=Jeff4|52=20230918-11:03:27.555241|56=BfxComp|98=0|108=30|141=N|341=20230918-10:30:00.000|553=ileMZ7r7aA9dg1f0qZ2KzFnJl010FZ9LX0JERBKs5D7|554=XgorEH1OJblVE4bs3iu8hdiWaMsCoeD39wjskZmsNBb|9010=Y|9011=Y|10=238|8=FIX.4.4|9=212|35=A|34=2|49=Jeff4|52=20230918-11:03:37.312020|56=BfxComp|98=0|108=30|141=N|341=20230918-10:30:00.000|553=ileMZ7r7aA9dg1f0qZ2KzFnJl010FZ9LX0JERBKs5D7|554=XgorEH1OJblVE4bs3iu8hdiWaMsCoeD39wjskZmsNBb|9010=Y|9011=Y|10=226|8=FIX.4.4|9=212|35=A|34=3|49=Jeff4|52=20230918-11:03:38.312103|56=BfxComp|98=0|108=30|141=N|341=20230918-10:30:00.000|553=ileMZ7r7aA9dg1f0qZ2KzFnJl010FZ9LX0JERBKs5D7|554=XgorEH1OJblVE4bs3iu8hdiWaMsCoeD39wjskZmsNBb|9010=Y|9011=Y|10=230|8=FIX.4.4|9=67|35=2|34=4|49=Jeff4|52=20230918-11:03:43.091710|56=BfxComp|7=1|16=0|10=078|8=FIX.4.4|9=58|35=0|34=5|49=Jeff4|52=20230918-11:04:13.111540|56=BfxComp|10=202|8=FIX.4.4|9=58|35=0|34=6|49=Jeff4|52=20230918-11:04:43.001682|56=BfxComp|10=211|8=FIX.4.4|9=58|35=0|34=7|49=Jeff4|52=20230918-11:05:13.000528|56=BfxComp|10=208|8=FIX.4.4|9=58|35=5|34=8|49=Jeff4|52=20230918-11:05:30.207739|56=BfxComp|10=226|8=FIX.4.4|9=212|35=A|34=9|49=Jeff4|52=20230918-11:05:30.208718|56=BfxComp|98=0|108=30|141=N|341=20230918-10:30:00.000|553=ileMZ7r7aA9dg1f0qZ2KzFnJl010FZ9LX0JERBKs5D7|554=XgorEH1OJblVE4bs3iu8hdiWaMsCoeD39wjskZmsNBb|9010=Y|9011=Y|10=246|8=FIX.4.4|9=213|35=A|34=10|49=Jeff4|52=20230918-11:05:32.228703|56=BfxComp|98=0|108=30|141=N|341=20230918-10:30:00.000|553=ileMZ7r7aA9dg1f0qZ2KzFnJl010FZ9LX0JERBKs5D7|554=XgorEH1OJblVE4bs3iu8hdiWaMsCoeD39wjskZmsNBb|9010=Y|9011=Y|10=029|8=FIX.4.4|9=213|35=A|34=11|49=Jeff4|52=20230918-11:05:34.254981|56=BfxComp|98=0|108=30|141=N|341=20230918-10:30:00.000|553=ileMZ7r7aA9dg1f0qZ2KzFnJl010FZ9LX0JERBKs5D7|554=XgorEH1OJblVE4bs3iu8hdiWaMsCoeD39wjskZmsNBb|9010=Y|9011=Y|10=039|