8=FIX.4.4|9=124|35=A|34=1|49=ValonMDComp01|52=20240131-11:41:52.204510|56=BfxComp|98=0|108=30|141=Y|553=valonmd|554=y4=#I~5&Stiqf$Xg|9011=Y|10=052|8=FIX.4.4|9=141|35=V|34=2|49=ValonMDComp01|52=20240131-11:42:00.996539|56=BfxComp|146=1|55=ETHUSD|262=1706701313|263=1|264=101|265=1|266=Y|267=2|269=0|269=1|10=048|