8=FIX.4.4|9=193|35=A|34=1|49=TestMDComp01|52=20240405-17:11:45.346019|56=BfxComp|98=0|108=30|141=Y|553=b6230ac97e4ea279df1f26af5f766f64b55ce643833|554=c5ce67b8c7655b17dc46be9e4f1f493800583d7151d|9010=Y|9011=Y|10=180|8=FIX.4.4|9=140|35=V|34=2|49=TestMDComp01|52=20240405-17:11:55.010047|56=BfxComp|146=1|55=BTCUSD|262=1712337107|263=0|264=101|265=0|266=Y|267=2|269=0|269=1|10=187|